:10007C0010B11370C12E1C2D1F931D2D0F91011744
:10008C0010E009F01FEF112311F40C9481001C2DCA
:10009C00103010E009F41FEF112311F40C947D00C3
:1000AC001E2D133010E009F41FEF112311F40C94E2
:1000BC007D001D2D113010E009F41FEF112311F4F8
:1000CC000C946F0010913D02139510933D020C940B
:1000DC007D001D2D123010E009F41FEF112311F4D7
:1000EC000C947D0010913D021A9510933D021D2D2C
:1000FC00E12E1C2DD12EB394089510E015BF10E005
:10010C001093690010E01DBB10E01093680010E024
:10011C001093600010E01093610010E014BF1124E4
:10012C00F894A8951FBACFEFD0E1DEBBCDBB11E0A0
:10013C00A0E0B1E0ECEFFFEF02C005900D92A23011
:10014C00B107D9F712E0A2E0B1E001C01D92AD30C9
:10015C00B107E1F70E94B400F894FFCF14BEA89544
:10016C00809160008861809360001092600005B7F8
:10017C00102F016005BF12E015BF0C945A7D089535
:10018C0010913802139510933802109138021830E0
:10019C0010E009F41FEF112311F40C94DD0010E0B2
:1001AC00109338021091390210951093390208956A
:1001BC0018811F9316E11F93E89440F8EAE1F4E0EC
:1001CC00A4E0B0E03F914F9150E00E94FA6808958E
:1001DC0000E010E020E030E000931A0410931B04C0
:1001EC0020931C0430931D04CF93DF9318811A9332
:1001FC000E94DE00DF91CF9118811F9312E01F93B4
:10020C00E89440F8E6E1F0E03F914F91A1E0B0E0D6
:10021C0060E050E00E94FA6818811F9313E01F936E
:10022C00E89440F8E6E1F0E03F914F91A1E0B0E0B6
:10023C0068E250E00E94FA6818811F9314E01F9343
:10024C00E89440F8E6E1F0E03F914F91A1E0B0E096
:10025C0064E150E00E94FA6818811F9315E01F9327
:10026C00E89440F8E6E1F0E03F914F91A1E0B0E076
:10027C0060E850E00E94FA6800E010E020E030E016
:10028C0000931A0410931B0420931C0430931D0438
:10029C00CF93DF9318811A930E94DE00DF91CF91E8
:1002AC00089516E9109333025A9808951AE01093A2
:1002BC0033025A980895219710E51F9309811A81EA
:1002CC001F93E89440F809811A81102FE6E1F0E0C1
:1002DC00612FA1E0B0E03F914F9150E00E94FA688D
:1002EC0010E51F93FE01A1E0B0E04F910E94D7688A
:1002FC0018810895CF93DF9310E51A930A811B811F
:10030C001A930A93FE0133968F011A930A9310E005
:10031C0001E01A930A930E94F068DF91CF9110E0EC
:10032C0007E00E949E6908952297CF93DF9310E512
:10033C001A930F8118851A930A93FE0135968F0133
:10034C001A930A9310E004E01A930A930E94F0683F
:10035C00DF91CF9110E007E00E949E6908952B97E2
:10036C0013E910937A0011E00E94AD6913EC10931D
:10037C007A0010917A001071103010E009F01FEF24
:10038C00112311F40C94BF0113E810937A001C850F
:10039C001B3010E009F41FEF112311F40C94DA0157
:1003AC0013E018830C94E3011C85E5E8F2E01F715F
:1003BC000027E10FF01F108118831881012F1127DE
:1003CC001E830D830D811E81015010401C830B83F5
:1003DC001C85E5E6F2E01F710027E10FF01F10818C
:1003EC00012F112718870F8310917900012F1127E6
:1003FC000F931F930B811C81019509F41A9510958D
:10040C003F912F91020F131F1A87098709851A85AF
:10041C000F931F930F8118850F931F930D811E81CE
:10042C003F912F91020F131F98011F910F91A0E87C
:10043C001A273A27131709F4021710E011F008F0E5
:10044C001FEF1F9309851A850F931F930F81188532
:10045C000F931F930B811C81019509F41A9510952C
:10046C003F912F91020F131F98011F910F91A0E83C
:10047C001A273A27131709F402171FEF08F0112750
:10048C000F91102B112311F40C94730212E31983A6
:10049C001C851F931981E5ECF2E0AF91AF71BB277E
:1004AC00EA0FFB1F10831C851F931B85E5EAF2E006
:1004BC00AF91AF71BB27EA0FFB1F10831C851F93F5
:1004CC0013E0E5E8F2E0AF91AF71BB27EA0FFB1F39
:1004DC0010831FEF1A830C947E021C85E5ECF2E06E
:1004EC001F710027E10FF01F1081198310E01A8390
:1004FC001981103010E009F41FEF112311F40C9442
:10050C0094021C851F9317E0E5E8F2E0AF91AF7100
:10051C00BB27EA0FFB1F10830C94C3021A81112313
:10052C0011F40C94C30209851A85A0E81A27103817
:10053C0009F402301FEF08F01127112311F40C9469
:10054C00AB0210E000E01A8709871C851F931B85FE
:10055C00E5EAF2E0AF91AF71BB27EA0FFB1F108306
:10056C001C851F9309851A85102FE5E6F2E0AF91E3
:10057C00AF71BB27EA0FFB1F108308952297149AC3
:10058C001598169A1BB11F7810631BB9CF93DF9384
:10059C001BE01A931FEF1A930E94B501DF91CF91C4
:1005AC0010913802103011F00C9414031498159A11
:1005BC00169A1BB11F78712EFE013196FA93EA93AD
:1005CC0010E0108317E01A931081088101171FEFB8
:1005DC0008F01127112311F00C941103172D1F9300
:1005EC001C81110F110F110F110F0F91102B1BB933
:1005FC00CF93DF931C811A931E811A930E94B5012D
:10060C00DF91CF91E981FA81108113951083112329
:10061C0011F00C94EB0223960C940E04113011F093
:10062C000C948603149A1598169A1BB11F78712E88
:10063C00FE013196FA93EA9318E010831AE01A93AC
:10064C001081088101171FEF08F01127112311F0F9
:10065C000C9450031C811850912E172D1F93192D9B
:10066C00110F110F110F110F0F91102B1BB9CF93ED
:10067C00DF931C811A931E811A930E94B501DF919E
:10068C00CF91E981FA81108113951083112311F018
:10069C000C9427032396FE013196FA93EA931CE0FF
:1006AC0010831FE01A931081088101171FEF08F0C7
:1006BC001127112311F00C9483031C811850912ED7
:1006CC00172D1F93192D110F110F110F110F0F91C2
:1006DC00102B1BB9CF93DF931C811A931E811A9395
:1006EC000E94B501DF91CF91E981FA8110811395B8
:1006FC001083112311F00C945A0323960C940E04BE
:10070C00123011F00C94C503149A159A16981BB15B
:10071C001F78712EFE013196FA93EA9310E1108343
:10072C0017E11A931081088101171FEF08F01127A8
:10073C00112311F00C94C2031C811051912E172D12
:10074C001F93192D110F110F110F110F0F91102B4A
:10075C001BB9CF93DF931C811A931E811A930E94AD
:10076C00B501DF91CF91E981FA8110811395108346
:10077C00112311F00C94990323960C940E0413304E
:10078C0011F00C940E041FEF00913502002309F0B8
:10079C001095112311F40C940C0419E110933502EB
:1007AC00FE013196FA93EA9310E0108317E11A9345
:1007BC001081088101171FEF08F01127112311F088
:1007CC000C940B041C81E5ECF2E01F710027E10F87
:1007DC00F01F1081712E112770E0771510F47A94A8
:1007EC001FEF1C811F93172DE5ECF2E0AF91AF7159
:1007FC00BB27EA0FFB1F1083E981FA811081139547
:10080C001083112311F00C94DF0323960C940E0427
:10081C0008951091F9042B981EBD1DB517FFFDCF3F
:10082C001EB51093FA042B9A08951091F6042B9888
:10083C001EBD1DB517FFFDCF1EB51093F80410910A
:10084C00F5041EBD1DB517FFFDCF1EB51093F704A3
:10085C002B9A08951091EC042B981EBD1DB517FF13
:10086C00FDCF1EB51093F0041091EB041EBD1DB509
:10087C0017FFFDCF1EB51093EF041091EA041EBDB7
:10088C001DB517FFFDCF1EB51093EE041091E904B2
:10089C001EBD1DB517FFFDCF1EB51093ED042B9A91
:1008AC0008951091E70429981EBD1DB517FFFDCFC3
:1008BC001091E6041EBD1DB517FFFDCF299A0895B2
:1008CC001091FC041EBD1DB517FFFDCF1EB5109376
:1008DC00FD040895289815E01093FC040E9466040A
:1008EC000E946604289A1091FD040895289815E03A
:1008FC001093FC040E9466040E9466041091FD048F
:10090C001170103010E009F41FEF112311F40C9446
:10091C008204289A0895289816E01093FC040E94EB
:10092C006604289A08950E949104289811E0109367
:10093C00FC040E94660410E01093FC040E94660400
:10094C00289A0E947C0408950E949104289811E032
:10095C001093FC040E9466041FE31093FC040E9495
:10096C006604289A0E947C0408950E949104289899
:10097C003B812A81198108810093FE041093FF04A6
:10098C00209300053093010510E21093FC040E94A3
:10099C006604109100051093FC040E9466041091EB
:1009AC00FF041093FC040E9466041091FE04109343
:1009BC00FC040E946604289A0E947C041091FD0499
:1009CC001072103010E009F01FEFE894112309F0B9
:1009DC0068941091DD0412F91093DD040091DD048C
:1009EC00112702FD1FEF109508950E94910428987D
:1009FC0017EC1093FC040E946604289A0E947C0455
:100A0C001091FD041072103010E009F01FEFE89403
:100A1C00112309F068941091DD0412F91093DD0490
:100A2C000091DD04112702FD1FEF10950895219709
:100A3C0009811A8101501040102F18830E949104D3
:100A4C0028983E812D811C810B810093FE0410930C
:100A5C00FF04209300053093010512E01093FC0471
:100A6C000E946604109100051093FC040E94660419
:100A7C001091FF041093FC040E9466041091FE0474
:100A8C001093FC040E946604E7E0F0E0FA93EA930A
:100A9C0010E01083EF93FF931A81FF91EF911A935B
:100AAC001081088101171FEF08F01127112311F095
:100ABC000C947505172DE0E0FFE01F7F0027E10F78
:100ACC00F01F10811093FC040E946604E981FA81E6
:100ADC00108113951083112311F00C945705239654
:100AEC00289A0E947C041091FD041072103010E0C2
:100AFC0009F01FEFE894112309F068941091DD04BC
:100B0C0012F91093DD040091DD04112702FD1FEF93
:100B1C001095089521970E947C040A811B81015035
:100B2C001040102F18833F812E811D810C81009362
:100B3C00FE041093FF0420930005309301052898C0
:100B4C001BE01093FC040E946604109100051093A6
:100B5C00FC040E9466041091FF041093FC040E9494
:100B6C0066041091FE041093FC040E94660410E0CD
:100B7C001093FC040E946604E7E0F0E0FA93EA9319
:100B8C0010E01083EF93FF931A81FF91EF911A936A
:100B9C001081088101171FEF08F01127112311F0A4
:100BAC000C9402060E9466041C81112311F40C940F
:100BBC00ED05172D1F931091FD04E0E0FEE0AF91C1
:100BCC00AF7FBB27EA0FFB1F10830C94F905172D81
:100BDC001F931091FD04E0E0FFE0AF91AF7FBB27C6
:100BEC00EA0FFB1F1083E981FA81108113951083A2
:100BFC00112311F00C94CF052396289A0895E6EE54
:100C0C00F4E0EF93FF931881FF91EF911193E7EECE
:100C1C00F4E010E011930E9457040E9430040091FC
:100C2C00ED041091EE042091EF043091F00408953E
:100C3C00E6EEF4E0EF93FF931881FF91EF9111939F
:100C4C00E7EEF4E010E811930E945704E5EFF4E0AE
:100C5C00EF93FF931981FF91EF911193E6EFF4E07D
:100C6C0010E011930E941B040895E6EEF4E0EF935C
:100C7C00FF931881FF91EF911193E7EEF4E010E8E8
:100C8C0011930E94570409811A810093F504109363
:100C9C00F6040E941B040895E6EEF4E0EF93FF9334
:100CAC001881FF91EF911193E7EEF4E010E81193A6
:100CBC000E9457043C812B811A8109810093E9041D
:100CCC001093EA042093EB043093EC040E9430045C
:100CDC000895CF93DF9310EF1A930E940506DF91CE
:100CEC00CF910093D2041093D3042093D404309367
:100CFC00D504E8E0F0E00E94F5690093D20410936B
:100D0C00D3042093D4043093D504CF93DF93009174
:100D1C00D2041091D3042091D4043091D5043A9389
:100D2C002A931A930A9310EF1A930E945206DF919A
:100D3C00CF91ECE0F0E00E94F5690093D20410939F
:100D4C00D3042093D4043093D504CF93DF93009134
:100D5C00D2041091D3042091D4043091D5043A9349
:100D6C002A931A930A9311EF1A930E945206DF9159
:100D7C00CF9108951DE00E945A691AE00E945A69A9
:100D8C00089513E20E945A6910914202105D0E946C
:100D9C005A691AE30E945A69CF93DF9318E0412AEB
:100DAC000AE519E61A930A930091CB041091CC042E
:100DBC00CF93DF931A930A9310E01A9310E01A93CF
:100DCC0010E21A93689443F8689445F8E89454F840
:100DDC0055F80E94B56DDF91CF91DF91CF911DE356
:100DEC000E945A690895CF93DF9318E0412A0AE5CF
:100DFC0019E61A930A93E4E8F4E00E94646BDF911D
:100E0C00CF910E94C0060895229710E00FEF009337
:100E1C00CB041093CC040E94C7061A81103010E04A
:100E2C0009F01FEF112311F40C941F071DE20E940F
:100E3C005A69CF93DF9318E0412A0AE519E61A9311
:100E4C000A931C81CF93DF931A9310E01A9310E04E
:100E5C001A9310E21A93689443F80E947C6BDF910A
:100E6C00CF91DF91CF9110E20E945A69CF93DF931B
:100E7C0018E0412A0AE519E61A930A93EEEFF2EE0E
:100E8C00EF93FF931C81012F1127ADE0B0E0E894A4
:100E9C0045F80E94936EFF91EF91E00FF11F0E94B5
:100EAC005B6BDF91CF910E94C0060895EBE5F4E0F7
:100EBC00EF93FF933196FA93EA9318E21A9317EF94
:100ECC0041221FEB41220091D2041091D3042091B6
:100EDC00D4043091D504CF93DF933A932A931A9389
:100EEC000A9310E01A9310E01A9310E21A93689484
:100EFC0045F8E89454F855F842F80E94BC6BDF9121
:100F0C00CF9118E21F9318810F91011B102FFF91A5
:100F1C00EF911083239608950E94C706CF93DF9319
:100F2C0018E0412A0AE519E61A930A93EBE5F4E076
:100F3C000E94646BDF91CF910E94C00608950E94BD
:100F4C005C070E94920708950091CF041091D00481
:100F5C0017FF03C03FEF2FEF02C033272227009368
:100F6C00D2041093D3042093D4043093D5040E945C
:100F7C00A50708951091D804012F11270093CF04D1
:100F8C001093D0040E94AA0708950E94C7060E94DD
:100F9C005C07CF93DF9318E0412A0AE519E61A9310
:100FAC000A93EBE5F4E00E94646BDF91CF91CF9351
:100FBC00DF9318E0412A0AE519E61A930A93E9E04F
:100FCC00F0EE0E945B6BDF91CF91CF93DF9318E033
:100FDC00412A0AE519E61A930A93E4EAF4E00E941E
:100FEC00646BDF91CF911DE50E945A690E94C00687
:100FFC000895E4EAF4E0EF93FF933196FA93EA93C1
:10100C001FE11A9317EF41221FEB412214E20E94B9
:10101C00316E0091D2041091D3042091D4043091FC
:10102C00D504B801C901492F0E94246E482F0E9493
:10103C00246E472F0E94246E462F0E94246E1FE1BF
:10104C001F9318810F91011B102FFF91EF911083AB
:10105C0023960E94CB0708951AEF109334021AEFCF
:10106C001093330210913E021093400210E0109343
:10107C00410208950E9470041F7E103010E009F0A8
:10108C001FEF112311F40C9466080E94C706CF932E
:10109C00DF9318E0412A0AE519E61A930A93ECE06B
:1010AC00F0EE0E945B6B1DE00E94316E1AE00E9414
:1010BC00316EDF91CF911FEF0C9469080C94690885
:1010CC0010E00C946908089522971AE314B91FE9EB
:1010DC0015B91091DD041B7F1093DD04469815E0C3
:1010EC000E94AD69469A10E0198310E00AE00E9454
:1010FC009E69FE0131961081139510831127379943
:10110C001FEF1F931981143610E011F008F01FEF38
:10111C000F91102B112311F40C947B081BEB14B9B9
:10112C001FE915B916E206EB0093CB041093CC041F
:10113C000E94C706112737991FEF112311F40C9445
:10114C004209CF93DF9313E01A930E940506DF91B7
:10115C00CF911091ED041093F3041091EE041093C1
:10116C00F4041091EF041093F2041091F004109316
:10117C00F1040091F1041091F2042091F3043091E8
:10118C00F40440E83427303A29F4243119F41031AE
:10119C0009F402321FEF08F011271883188111236C
:1011AC0011F40C94E908CF93DF9318E0412A0AE577
:1011BC0019E61A930A93EEE1F0EE0E945B6BDF9155
:1011CC00CF910C94F708CF93DF9318E0412A0AE5EE
:1011DC0019E61A930A93EBE2F0EE0E945B6BDF9137
:1011EC00CF91CF93DF9318E0412A0AE519E61A93C1
:1011FC000A930091ED041091EE042091EF043091CC
:10120C00F004689443F8B801C901492F0E94246E78
:10121C00482F0E94246E472F0E94246E462F0E9456
:10122C00246EDF91CF911881112311F40C942E09A7
:10123C00CF93DF9318E0412A0AE519E61A930A9333
:10124C00E6E3F0EE0E945B6BDF91CF910C943C09CE
:10125C00CF93DF9318E0412A0AE519E61A930A9313
:10126C00E4E4F0EE0E945B6BDF91CF910E94C0062C
:10127C000E946F060C945809CF93DF9318E0412A13
:10128C000AE519E61A930A93E9E4F0EE0E945B6B07
:10129C00DF91CF911091DD0414601093DD040E9456
:1012AC00C006469808952497CF93DF930E946A084E
:1012BC00DF91CF911091DD04103010E009F01FEF99
:1012CC00112311F40C94A309A091DE04B091DF0456
:1012DC001196A093DE04B093DF04109153041123F4
:1012EC0011F40C949909CF93DF9310E01A9310E04A
:1012FC001A9311E01A930E94DB67DF91CF91CF9381
:10130C00DF9318E0412A05EB17E61A930A93E5E6FA
:10131C00F0EE0E945B6BDF91CF9111E004EF0E9425
:10132C009E690E943208CF93DF9317E01A930E94B4
:10133C00CD35DF91CF910C947A0A1FEF1093E8040E
:10134C0010915304112311F40C94FE09CF93DF93E5
:10135C0013E01A930E940506DF91CF910091ED04E2
:10136C001091EE042091EF043091F0043B832A831A
:10137C0019830883CF93DF9310E01A9310E01A932C
:10138C0011E01A930E94DB67DF91CF91CF93DF932B
:10139C0018E0412A05EB17E61A930A93E3E7F0EEFF
:1013AC000E945B6BDF91CF91CF93DF9318E0412AC2
:1013BC0005EB17E61A930A933D812C811B810A8158
:1013CC00689443F8B801C901492F0E94246E482F34
:1013DC000E94246E472F0E94246E462F0E94246E7A
:1013EC00DF91CF9111E004EF0E949E690E943208B8
:1013FC0011271A991FEF1095112311F40C947A0AE6
:10140C00E8E0F0E0FA93EA9310E010831FEF1A93F0
:10141C001081088101171FEF08F01127112311F01B
:10142C000C94310ACF93DF9312E01A930E940506B5
:10143C00DF91CF91CF93DF9312E01A930E940506B0
:10144C00DF91CF91E981FA811081139510831123DB
:10145C0011F00C940F0A239611271A991FEF10956F
:10146C00112311F40C947A0A10E01093E80410E0A4
:10147C000FEF0093CB041093CC0402E110E020E0BA
:10148C0030E00093D2041093D3042093D40430930F
:10149C00D504E4EAF4E0EF93FF933196FA93EA93E0
:1014AC001FE11A9317EF41221FEB4122EAE7F0EEFE
:1014BC000E945B6B1FE11F9318810F91011B102F72
:1014CC00FF91EF91108323960E94CB07CF93DF936C
:1014DC0019E01A930E94CD35DF91CF9111E004EF02
:1014EC000E949E690E9432080895E7EEF4E010E82D
:1014FC001193E6EEF4E0EF93FF93109102051F5F5A
:10150C00FF91EF9111930E945704109103051093D2
:10151C00F9040E940F04E6EEF4E010910205119319
:10152C000E9457040895E7EEF4E010E81193E6EEFC
:10153C00F4E0EF93FF93109102051F5FFF91EF9181
:10154C0011930E945704109103051093F9040E9403
:10155C000F04089510915304112311F40C94E60A0E
:10156C0010E00E94F367CF93DF9318E0412A05EB5C
:10157C0017E61A930A93E8E8F0EE0E945B6BDF9192
:10158C00CF91CF93DF9310E01A9310E01A9311E0F0
:10159C001A930E94DB67DF91CF91CF93DF9318E012
:1015AC00412A05EB17E61A930A93E1E9F0EE0E9443
:1015BC005B6BDF91CF9110E00E94FC670E943208B8
:1015CC00089510915304112311F40C94430B1FEF45
:1015DC0000913402002309F01095112311F40C949E
:1015EC00410BCF93DF9310E01A9310E01A9311E0A4
:1015FC001A930E94DB67DF91CF91CF93DF9318E0B2
:10160C00412A05EB17E61A930A93EAE9F0EE0E94D9
:10161C005B6BDF91CF91CF93DF9318E0412A05EB01
:10162C0017E61A930A930091E1041091E2042091B9
:10163C00E3043091E404CF93DF933A932A931A9303
:10164C000A9318E01A9300E00A9310E21A93689434
:10165C0043F8689445F8E89454F855F842F80E9419
:10166C00BC6BDF91CF91DF91CF9110E00E94FC67B2
:10167C0012E3109334020C94470B10E002E00E942A
:10168C009E69089510915304112311F40C946A0B64
:10169C00CF93DF9310E01A9310E01A9311E01A9392
:1016AC000E94DB67DF91CF91CF93DF9318E0412A43
:1016BC0005EB17E61A930A93E3EAF0EE0E945B6BD4
:1016CC00DF91CF910E943208089510915304112399
:1016DC0011F40C948D0BCF93DF9310E01A9310E060
:1016EC001A9311E01A930E94DB67DF91CF91CF938D
:1016FC00DF9318E0412A05EB17E61A930A93EDEAFB
:10170C00F0EE0E945B6BDF91CF910E94320808953E
:10171C0065970E94C706CF93DF9318E0412A0AE52C
:10172C0019E61A930A93E4EBF0EE0E945B6B1DE052
:10173C000E94316E1AE00E94316EDF91CF9110E061
:10174C001A8710E0188710E01C8B10E0198B1FEF24
:10175C00188B00E010E020E030E00093E1041093DF
:10176C00E2042093E3043093E40410E000E01C87CF
:10177C000B870E94B00A10E000E01983088310E088
:10178C0000E01B830A83388D2F891E890D893F83C6
:10179C002E831D830C831A851095112311F40C9440
:1017AC00400C10E000E01C870B8711275A991FEFA3
:1017BC001095E894112309F068941BB112F91BB928
:1017CC00CF93DF93FE017496FA93EA9314E61A937F
:1017DC000E942369DF91CF911A871A85112311F486
:1017EC000C94110C1C89113010E009F41FEF1F939D
:1017FC001C89143010E009F41FEF0F91102B1123EA
:10180C0011F40C940F0C10E000E01C870B870C9467
:10181C00400C0C941B0C15E10E945A69FE013B967E
:10182C00A081B1811196A083B1831C89113010E085
:10183C0009F41FEF1F931C89143010E009F41FEFFB
:10184C000F91102B1F931C89183110E009F41FEF16
:10185C000F91102B1F930B851C85103009F404314C
:10186C0010E011F008F01FEF0F91102B112311F461
:10187C000C94E60B18851095112311F40C944A0C5A
:10188C000E94E70A1FEF18871C89113010E009F439
:10189C001FEF112311F40C947E0DCF93DF93FE01F7
:1018AC007396FA93EA9314E61A930E942369DF91D4
:1018BC00CF9119871985112311F40C94780DCF93BE
:1018CC00DF93FE017296FA93EA931AE01A930E9440
:1018DC002369DF91CF9119871B890FEF011B102F03
:1018EC001F931A890F91011710E009F41FEF1123B0
:1018FC0011F40C94760D10E0198BE8E0F0E0FA93FB
:10190C00EA9310E010831FE71A93108108810117E6
:10191C001FEF08F01127112311F00C94BC0CCF937E
:10192C00DF93EAE0F0E0FA93EA931AE01A930E944C
:10193C002369DF91CF911C871C891F931A2D0F915E
:10194C00100F1C8B182D1F931A2DE0E0FFE0AF91A8
:10195C00AF7FBB27EA0FFB1F1083E981FA8110814F
:10196C0013951083112311F00C948C0C2396CF93A8
:10197C00DF93FE017096FA93EA931AE01A930E9491
:10198C002369DF91CF911987CF93DF933F812E810C
:10199C001D810C813A932A931A930A9310E000E864
:1019AC001A930A930E941D05DF91CF911095112374
:1019BC0011F40C94E80CFE013296A081B1811196C1
:1019CC00A083B183CF93DF933F812E811D810C8146
:1019DC003A932A931A930A9310E000E81A930A9305
:1019EC001FEF1A930E949005DF91CF91E8E0F0E091
:1019FC00FA93EA9310E010831FE71A931081088181
:101A0C0001171FEF08F01127112311F00C94380D5A
:101A1C00182DE0E0FEE01F7F0027E10FF01F108182
:101A2C001F93182DE0E0FFE01F7F0027E10FF01F50
:101A3C0010810F91011710E009F01FEF112311F421
:101A4C000C942F0DFE013396A081B1811196A083C9
:101A5C00B183E981FA81108113951083112311F060
:101A6C000C94050D239619891F9318890F91011752
:101A7C0010E009F41FEF112311F40C946C0D16E017
:101A8C000E945A693F812E811D810C8100581F4F85
:101A9C002F4F3F4F3F832E831D830C830091E10416
:101AAC001091E2042091E3043091E40400581F4F9C
:101ABC002F4F3F4F0093E1041093E2042093E30473
:101ACC003093E4040E94E70A0C94760DFE013B96D9
:101ADC00A081B1811196A083B18315E10E945A694E
:101AEC000C947C0D10E00FEF1C870B8710E01C8B07
:101AFC0010E01A871C89143010E009F41FEF1F93B3
:101B0C001C89183110E009F41FEF0F91102B1F9353
:101B1C000B851C85103009F4043110E011F008F02D
:101B2C001FEF0F91102B112311F40C94D10B16E015
:101B3C000E945A6918891F9319890F91011710E097
:101B4C0009F01FEF112311F40C94D20D0FEF1FEFBE
:101B5C002FEF3FEF0093D2041093D3042093D404BF
:101B6C003093D5040E94C706CF93DF9318E0412A27
:101B7C000AE519E61A930A93E7ECF0EE0E945B6B08
:101B8C001DE00E94316E1AE00E94316EDF91CF9100
:101B9C000E94480B0C94E40D0091E1041091E204B6
:101BAC002091E3043091E4040093D2041093D30405
:101BBC002093D4043093D5040E94E70A088119813C
:101BCC00103009F4003010E009F01FEF112311F46C
:101BDC000C94460E0FEF1FEF2FEF3FEF0093D20444
:101BEC001093D3042093D4043093D5040E94C706D9
:101BFC00CF93DF9318E0412A0AE519E61A930A936A
:101C0C00EFEDF0EE0E945B6BDF91CF91CF93DF9302
:101C1C0018E0412A0AE519E61A930A930A811B81F6
:101C2C00CF93DF931A930A9310E01A9310E01A9350
:101C3C0010E21A93689443F8E89445F8E89454F841
:101C4C0055F80E94B56DDF91CF91DF91CF91CF9375
:101C5C00DF9318E0412A0AE519E61A930A93E0EF9C
:101C6C00F0EE0E945B6B1DE00E94316E1AE00E9448
:101C7C00316EDF91CF911AEF109334020E946B0BEF
:101C8C000A811B81103009F4003010E009F01FEFBD
:101C9C00112311F40C94A80E0FEF1FEF2FEF3FEF51
:101CAC000093D2041093D3042093D4043093D5041E
:101CBC000E94C706CF93DF9318E0412A0AE519E684
:101CCC001A930A93E9EFF0EE0E945B6BDF91CF91D0
:101CDC00CF93DF9318E0412A0AE519E61A930A9389
:101CEC000C811D81CF93DF931A930A9310E01A9302
:101CFC0010E01A9310E21A93689443F8E89445F8AC
:101D0C00E89454F855F80E94B56DDF91CF91DF91AE
:101D1C00CF91CF93DF9318E0412A0AE519E61A9385
:101D2C000A93E0EFF0EE0E945B6B1DE00E94316EB7
:101D3C001AE00E94316EDF91CF911AEF10933402AA
:101D4C000E946B0B08952297CF93DF9312E01A93A6
:101D5C000E940506DF91CF9111271A991FEF1123CD
:101D6C0011F40C94AA0E0E94C7061091EF041A3AB3
:101D7C0010E009F41FEF112311F40C94CC0FCF9346
:101D8C00DF9318E0412A0AE519E61A930A93109199
:101D9C000305CF93DF931A9310E01A9310E01A9374
:101DAC0010E21A93689443F80E947C6BDF91CF91F8
:101DBC00DF91CF91CF93DF9318E0412A0AE519E622
:101DCC001A930A93E9E0F1EE0E945B6BDF91CF91DD
:101DDC001091ED04103511F00C94040FCF93DF9398
:101DEC0018E0412A0AE519E61A930A93E2E1F1EEAA
:101DFC000E945B6BDF91CF910C949B0F113511F00E
:101E0C000C94180FCF93DF9318E0412A0AE519E6DA
:101E1C001A930A93E9E1F1EE0E945B6BDF91CF918B
:101E2C000C949B0F123511F00C942C0FCF93DF9365
:101E3C0018E0412A0AE519E61A930A93EFE1F1EE4C
:101E4C000E945B6BDF91CF910C949B0F133511F0BB
:101E5C000C94400FCF93DF9318E0412A0AE519E662
:101E6C001A930A93E4E2F1EE0E945B6BDF91CF913F
:101E7C000C949B0F143511F00C94540FCF93DF93EB
:101E8C0018E0412A0AE519E61A930A93EDE2F1EEFD
:101E9C000E945B6BDF91CF910C949B0F183511F066
:101EAC000C94680FCF93DF9318E0412A0AE519E6EA
:101EBC001A930A93E4E3F1EE0E945B6BDF91CF91EE
:101ECC000C949B0F1F3511F00C947C0FCF93DF9368
:101EDC0018E0412A0AE519E61A930A93E9E3F1EEB0
:101EEC000E945B6BDF91CF910C949B0FCF93DF9390
:101EFC0018E0412A0AE519E61A930A93E1E4F1EE97
:101F0C000E945B6BDF91CF91CF93DF9318E0412A56
:101F1C000AE519E61A930A931091ED04689443F8B4
:101F2C00412F0E94246EDF91CF91CF93DF9318E065
:101F3C00412A0AE519E61A930A93EBE4F1EE0E94A2
:101F4C005B6BDF91CF91CF93DF9318E0412A0AE5C9
:101F5C0019E61A930A931091EE04689443F8412FF2
:101F6C000E94246EDF91CF91CF93DF9318E0412A2A
:101F7C000AE519E61A930A93E4E4F0EE0E945B6B0F
:101F8C00DF91CF910E94C0060C94DC0FCF93DF93AE
:101F9C0018E0412A0AE519E61A930A93E2E5F1EEF4
:101FAC000E945B6BDF91CF910E94C006089525972C
:101FBC001E811455109303050E947B0A1E81012F6C
:101FCC0011273327222740E050E160E070E068944D
:101FDC0045F80E94EF6E3C832B831A83098300E043
:101FEC0010E020E030E00093E1041093E204209331
:101FFC00E3043093E404E8E0F0E0FA93EA9310E0B1
:10200C0010831FE01A931081088101171FEF08F04D
:10201C001127112311F00C94C310CF93DF933F8140
:10202C002E811D810C813A932A931A930A9311E005
:10203C0000E01A930A9310E01A930E949005DF9126
:10204C00CF911885112311F40C946110EAE0F0E0A3
:10205C00FA93EA9310E010831FEF1A931081088112
:10206C0001171FEF08F01127112311F00C946010C9
:10207C001A2DE0E0FFE01F7F0027E10FF01F108119
:10208C001E83CF93DF9318E0412A0AE519E61A93D1
:10209C000A931885689443F8412F0E94246EDF91AF
:1020AC00CF91E981FA81108113951083112311F0DE
:1020BC000C9435102396EAE0F0E0FA93EA9310E0E2
:1020CC0010831FE31A931081088101171FEF08F08A
:1020DC001127112311F00C949910E0E0FFE0EF931D
:1020EC00FF931A2D012F1127000F111F000F111F25
:1020FC00FF91EF91E00FF11F01911191219131911D
:10210C000093E9041093EA042093EB043093EC045D
:10211C000E943004E981FA811081139510831123F8
:10212C0011F00C946A1023963F812E811D810C8135
:10213C0000501F4F2F4F3F4F3F832E831D830C8327
:10214C000091E1041091E2042091E3043091E40445
:10215C0000501F4F2F4F3F4F0093E1041093E204A8
:10216C002093E3043093E404E981FA811081139500
:10217C001083112311F00C940A1023960E94990AD3
:10218C001AEF109334020091E1041091E2042091B3
:10219C00E3043091E4040093D2041093D30420930D
:1021AC00D4043093D5041FEF1093370410E002E3EE
:1021BC000E949E69CF93DF930E94A90EDF91CF916D
:1021CC0008952D970E94C706CF93DF9318E0412AFC
:1021DC000AE519E61A930A931F85CF93DF931A9396
:1021EC0010E01A9310E01A9310E21A93689443F8D3
:1021FC000E947C6BDF91CF91DF91CF91CF93DF93D6
:10220C0018E0412A0AE519E61A930A93E6E6F1EE7C
:10221C000E945B6BDF91CF91CF93DF9310E01A9309
:10222C0018E41A930E941E06DF91CF9110E004E689
:10223C000E949E691D851C5A012F112733272227C6
:10224C0040E050E160E070E0689445F80E94EF6E69
:10225C003C872B871A87098710E000E018870F83CB
:10226C0010E000E019830883E8E0F0E0FA93EA93C9
:10227C0010E010831FE01A931081088101171FEFE3
:10228C0008F01127112311F00C943E12CF93DF9319
:10229C003F852E851D850C853A932A931A930A93B4
:1022AC0011E000E01A930A9310E01A930E94900533
:1022BC00DF91CF9110E000E01E830D8310E000E071
:1022CC001C830B830A851B8519870887EAE0F0E0DD
:1022DC00FA93EA9310E0108317E01A9310810881A7
:1022EC0001171FEF08F01127112311F00C94B311F3
:1022FC00CF93DF9310E51A930E851F851A930A93DB
:10230C001FE000E00F931F930B851C853F912F91CD
:10231C00020F131F1A930A9310E000E21A930A9308
:10232C000E94F068DF91CF9110E00AE00E949E6954
:10233C0008851985005E1F4F198708870D851E8536
:10234C00005E1F4F1E870D87E981FA81108113955E
:10235C001083112311F00C947511239610E51F9323
:10236C00088519851F93E89440F808851985102F66
:10237C00E6E1F0E0612FA1E0B0E03F914F9150E039
:10238C000E94FA68CF93DF9310E51A931EE000E0E9
:10239C001A930A9311E000E01A930A930E94D268F0
:1023AC00DF91CF91EAE0F0E0FA93EA9310E010832A
:1023BC001FEF1A931081088101171FEF08F01127E6
:1023CC00112311F00C9414121A2DE0E0FFE01F7F82
:1023DC000027E10FF01F10811F931A2DE0E0FEE0A3
:1023EC001F7F0027E10FF01F10810F91011710E0E4
:1023FC0009F01FEF112311F40C940B12FE01369609
:10240C00A081B1811196A083B183E981FA811081F9
:10241C0013951083112311F00C94E11123960B8169
:10242C001C81103009F4003010E009F41FEF112367
:10243C0011F40C9426121EE20E945A690C94291273
:10244C0013E20E945A693F852E851D850C8500502C
:10245C001F4F2F4F3F4F3F872E871D870C87E981DA
:10246C00FA81108113951083112311F00C944311F0
:10247C002396CF93DF9318E0412A0AE519E61A93C5
:10248C000A931DE50E94316E1DE00E94316E1AE028
:10249C000E94316EDF91CF911AEF109334020091AC
:1024AC00E1041091E2042091E3043091E4040093E0
:1024BC00D2041093D3042093D4043093D5041FEF8B
:1024CC001093370408811981103009F4003010E0A2
:1024DC0009F01FEF112311F40C94B9120E94C706D6
:1024EC00CF93DF9318E0412A0AE519E61A930A9371
:1024FC00E2E8F1EE0E945B6BDF91CF91CF93DF931B
:10250C0018E0412A0AE519E61A930A930A811B81FD
:10251C00CF93DF931A930A9310E01A9310E01A9357
:10252C0010E21A93689443F8E89445F8E89454F848
:10253C0055F80E94B56DDF91CF91DF91CF91CF937C
:10254C00DF9318E0412A0AE519E61A930A93E0EFA3
:10255C00F0EE0E945B6B1DE00E94316E1AE00E944F
:10256C00316EDF91CF9108951091E603103010E099
:10257C0009F01FEF112311F40C94DE12CF93DF93AB
:10258C001091E50310541F9319810F91100F1A939A
:10259C001CE01A930E941E06DF91CF91CF93DF931C
:1025AC0018811A931CE01A930E941E06DF91CF919A
:1025BC00089521971091E603103010E009F01FEFF9
:1025CC00112311F40C942E131A81E5E2F3E01F771A
:1025DC000027E10FF01F1081188318811F931981B8
:1025EC000F91011710E009F01FEF112311F40C9457
:1025FC002E13CF93DF931091E50310551F931B817E
:10260C000F91100F1A931CE01A930E941E06DF9173
:10261C00CF91CF93DF931A811A931CE01A930E94E7
:10262C001E06DF91CF91CF93DF9319811A931CE093
:10263C001A930E941E06DF91CF911A811F93198164
:10264C00E5E2F3E0AF91AF77BB27EA0FFB1F1083F6
:10265C000895CF93DF9310E01A931A811A931A817D
:10266C0016951A930E94DF12DF91CF91089521974E
:10267C0010E018830091AD03112704FD1FEF112307
:10268C0011F40C944D13FE011081139510830091DD
:10269C00AD03112705FD1FEF112311F40C945E13EC
:1026AC00FE01108113951083FE0110811395108388
:1026BC00CF93DF9318811A931EE41A930E941E067F
:1026CC00DF91CF911091CE03103011F00C94701358
:1026DC000C947A13123011F00C9476130C947A1328
:1026EC00143011F00C949013CF93DF931FEF1A93C7
:1026FC001BE41A930E941E06DF91CF91CF93DF93B8
:10270C0010E01A931CE41A930E941E06DF91CF91DD
:10271C000C94B813113011F00C9496130C94A01364
:10272C00133011F00C949C130C94A013153011F071
:10273C000C94B813CF93DF931091F3031A931BE40B
:10274C001A930E941E06DF91CF91CF93DF931091C5
:10275C00F2031A931CE41A930E941E06DF91CF9188
:10276C000C94B8131091CE03103011F00C94C013CC
:10277C000C94C413113011F00C94DC13CF93DF9331
:10278C001091EC031A931DE41A930E941E06DF911C
:10279C00CF91CF93DF931091ED031A931AE41A9310
:1027AC000E941E06DF91CF910C942014123011F070
:1027BC000C94E2130C94E613133011F00C94FE13EA
:1027CC00CF93DF931091EE031A931DE41A930E949A
:1027DC001E06DF91CF91CF93DF931091EF031A93E5
:1027EC001AE41A930E941E06DF91CF910C942014C8
:1027FC00143011F00C9404140C940814153011F0CE
:10280C000C942014CF93DF931091F0031A931DE4D2
:10281C001A930E941E06DF91CF91CF93DF931091F4
:10282C00F1031A931AE41A930E941E06DF91CF91BA
:10283C000C942014089524970091AD03112700FDEA
:10284C001FEF1F930091AD03112701FD1FEF109592
:10285C000F9110231883E8E0F0E0FA93EA9310E06C
:10286C00108317E01A931081088101171FEF08F0ED
:10287C001127112311F00C948414E5ECF3E0EF9381
:10288C00FF93182D012F1127FF91EF91E00FF11FEE
:10289C0011911C83CF93DF9310E01A93182D145FC2
:1028AC001A931E811A930E94DF12DF91CF911B8124
:1028BC00112311F40C947014CF93DF931C811A9391
:1028CC001091F8031A931FEF1A930E947C69DF9101
:1028DC00CF911C83CF93DF931C811A93182D105F1B
:1028EC001A930E941E06DF91CF91E981FA81108123
:1028FC0013951083112311F00C943A142396CF9353
:10290C00DF9310E01A9314E11A931091CD031A93EC
:10291C000E94DF12DF91CF910091AD03112700FDD2
:10292C001FEF1F9310910D0310950F91102311237E
:10293C0011F40C9438151091FC03112311F40C9420
:10294C00B314CF93DF9310E01A9318E11A930E94FB
:10295C001E06DF91CF910C94D5141881112311F41C
:10296C000C94C814CF93DF9319811A931091F80328
:10297C001A931FEF1A930E947C69DF91CF911983F0
:10298C000C94CB141091CD031983CF93DF93198141
:10299C001A9318E11A930E941E06DF91CF910091B1
:1029AC00AD03112703FD1FEF112311F40C94EA144E
:1029BC00CF93DF9311E01A931BE11A930E941E062A
:1029CC00DF91CF910C94F414CF93DF9310E01A9312
:1029DC001BE11A930E941E06DF91CF910091AD036B
:1029EC00112701FD1FEF112311F40C940A15CF933D
:1029FC00DF931091F5031A931AE11A930E941E06A5
:102A0C00DF91CF910C941515CF93DF931091F403B4
:102A1C001A931AE11A930E941E06DF91CF9100912E
:102A2C00AD03112702FD1FEF112311F40C942B158C
:102A3C00CF93DF931091F7031A9319E11A930E9425
:102A4C001E06DF91CF910C943615CF93DF93109126
:102A5C00F6031A9319E11A930E941E06DF91CF9187
:102A6C000C944F151091CD031983CF93DF931981DB
:102A7C001A9318E11A930E941E06DF91CF91CF93FF
:102A8C00DF9310E01A931AE11A930E941E06DF914D
:102A9C00CF9108952197E8E0F0E0FA93EA9310E0E3
:102AAC00108318E01A931081088101171FEF08F0AA
:102ABC001127112311F00C949115E4EDF3E0EF9331
:102ACC00FF93182D012F1127FF91EF91E00FF11FAC
:102ADC0011911B83CF93DF931B811A93182D105EDA
:102AEC001A930E941E06DF91CF91CF93DF9310E0D3
:102AFC001A93182D1B5E1A931D811A930E94DF12D4
:102B0C00DF91CF91E981FA81108113951083112304
:102B1C0011F00C945A15239608952197CF93DF93B7
:102B2C0010E01A9311E21A931091DD031A930E948C
:102B3C00DF12DF91CF91CF93DF9310E01A9312E263
:102B4C001A931091DE031A930E94DF12DF91CF913A
:102B5C00CF93DF9310E01A9313E21A931091DF03D3
:102B6C001A930E94DF12DF91CF911091DD0316951D
:102B7C001883CF93DF931091DD031F9318810F916E
:102B8C00100F1A9319E21A930E941E06DF91CF912F
:102B9C001091DE0316951883CF93DF931091DE030B
:102BAC001F9318810F91100F1A931AE21A930E9417
:102BBC001E06DF91CF911091DF0316951883CF93EA
:102BCC00DF931091DF031F9318810F91100F1A934D
:102BDC001BE21A930E941E06DF91CF91CF93DF93D5
:102BEC0010E01A931BE41A931091E00316951A93B4
:102BFC000E94DF12DF91CF911091E0031695E1EA6C
:102C0C00FAEE1F730027E10FF01F14911883CF9376
:102C1C00DF9318811A931FE01A930E941E06DF910E
:102C2C00CF91CF93DF931091E8031A9316E01A9388
:102C3C000E941E06DF91CF91CF93DF930091BE03CC
:102C4C00112707FD1FEF11701A9317E01A930E94BA
:102C5C001E06DF91CF910091BE03112706FD1FEFD9
:102C6C00112311F40C943F161091EB0318830C9460
:102C7C0042161091EA031883CF93DF9318811A93AD
:102C8C0013EB1A930E941E06DF91CF9108952197A2
:102C9C001091E403137018601883CF93DF9318819D
:102CAC001A9318E41A930E941E06DF91CF9110918B
:102CBC00E4031370110F110F110F1883CF93DF93CF
:102CCC00188110561A9315E41A930E941E06DF9170
:102CDC00CF911091E403103010E009F41FEF112391
:102CEC0011F40C948F16CF93DF9310E01A9316E423
:102CFC001A930E941E06DF91CF91CF93DF9310E0C1
:102D0C001A9317E41A930E941E06DF91CF910C942C
:102D1C00B216E3E0F4E0EF93FF931091E40311504B
:102D2C00012F1127FF91EF91E00FF11F11911883E3
:102D3C00CF93DF9318811A9316E41A930E941E0600
:102D4C00DF91CF91CF93DF9318811A9317E41A93E5
:102D5C000E941E06DF91CF9110E010933804089565
:102D6C002197CF93DF931091FD031A931AE01A93D6
:102D7C000E941E06DF91CF91CF93DF931091E50354
:102D8C001A9314E01A930E941E06DF91CF91CF93F1
:102D9C00DF931091E6031A9315E01A930E941E0616
:102DAC00DF91CF91CF93DF931091E8031A9316E044
:102DBC001A930E941E06DF91CF9110910104110FFE
:102DCC00110F110F110F1F93109102041F700F910F
:102DDC00102B1883CF93DF9318811A9319E01A9351
:102DEC000E941E06DF91CF911091F9031F93109151
:102DFC00FB03117025E00E94706E0F91102B1F9336
:102E0C001091FA0326E00E94706E0F91102B18831C
:102E1C00CF93DF9318811A931BE01A930E941E061E
:102E2C00DF91CF91CF93DF931091E9031A931DE0BB
:102E3C001A930E941E06DF91CF91CF93DF931091CE
:102E4C0000041A9319E41A930E941E06DF91CF9185
:102E5C00CF93DF9318EC1A931FE41A930E941E066B
:102E6C00DF91CF9110E0109337040895229710E072
:102E7C001883E8E0F0E0FA93EA9310E0108318E08E
:102E8C001A931081088101171FEF08F011271123E5
:102E9C0011F00C949B171D811F93182DE5EAF2E09D
:102EAC001F700027E10FF01F10810F91102B1123C1
:102EBC0011F40C949217182DE5E6F2E01F70002720
:102ECC00E10FF01F108116951C83E5ECF3E0EF93F6
:102EDC00FF93182D012F1127FF91EF91E00FF11F98
:102EEC00EF93FF931C81FF91EF911193182D1F937A
:102EFC0010E0E5EAF2E0AF91AF70BB27EA0FFB1FE1
:102F0C0010831FEF1B831D811095112311F40C945A
:102F1C0092171DE010934002E981FA8110811395FC
:102F2C001083112311F00C94481723961881112348
:102F3C0011F40C94A717CF93DF930E942114DF9107
:102F4C00CF910895229710E01883E8E0F0E0FA930F
:102F5C00EA9310E0108318E01A931081088101178E
:102F6C001FEF08F01127112311F00C9407181D8185
:102F7C001F93182DE1EBF2E01F700027E10FF01FFB
:102F8C0010810F91102B112311F40C94FE17182D96
:102F9C00E1E7F2E01F700027E10FF01F108116959A
:102FAC001C83E4EDF3E0EF93FF93182D012F112711
:102FBC00FF91EF91E00FF11FEF93FF931C81FF91B5
:102FCC00EF911193182D1F9310E0E1EBF2E0AF910C
:102FDC00AF70BB27EA0FFB1F10831FEF1B831D81F4
:102FEC001095112311F40C94FE171EE0109340025F
:102FFC00E981FA81108113951083112311F00C943F
:10300C00B41723961881112311F40C941318CF9331
:10301C00DF930E945015DF91CF91089522971A816A
:10302C001F931091BA020F91102B112311F40C94D1
:10303C00371810917A021695198319811093DD03B4
:10304C001091DD0316951093DE0310E01093BA0275
:10305C00CF93DF930E949315DF91CF911EE01093D5
:10306C0040021A811F931091BB020F91102B112358
:10307C0011F40C94541810917B0216951983198134
:10308C001093DF0310E01093BB02CF93DF930E94E9
:10309C009315DF91CF911EE0109340021A811F937C
:1030AC001091BC020F91102B112311F40C946F187A
:1030BC0010917C0216951093E00310E01093BC0263
:1030CC00CF93DF930E949315DF91CF911CE1109366
:1030DC004002089521971091C203112311F40C940E
:1030EC00B91810E01093C2031AE0109340021FEFBE
:1030FC001093AE021091CE03169500E30E947A6EE7
:10310C00115E1883CF93DF9310E01A931AE41A938D
:10311C001A811A930E94DF12DF91CF911091CE0386
:10312C001170113010E009F41FEF112311F40C94FD
:10313C00AD18CF93DF9310E01A9319E41A931FE3A1
:10314C001A930E94DF12DF91CF910C94B918CF9390
:10315C00DF9310E01A9319E41A931FE71A930E9455
:10316C00DF12DF91CF91CF93DF930E943D13DF915C
:10317C00CF91089523971091C0031F931091C10311
:10318C000F91102B103010E009F41FEF112311F4E4
:10319C000C94D2180C940E1A0091C003112700FD48
:1031AC001FEF112311F40C94F218CF93DF930E94AC
:1031BC002114DF91CF911CE010934002CF93DF9349
:1031CC0012E41A930091AD03112700FD1FEF1A931F
:1031DC000E942F13DF91CF910091C003112701FDA5
:1031EC001FEF112311F40C941219CF93DF930E944B
:1031FC002114DF91CF911CE010934002CF93DF9309
:10320C0016E41A930091AD03112701FD1FEF1A93D9
:10321C000E942F13DF91CF910091C003112702FD63
:10322C001FEF112311F40C943219CF93DF930E94EA
:10323C002114DF91CF911CE010934002CF93DF93C8
:10324C0017E41A930091AD03112702FD1FEF1A9397
:10325C000E942F13DF91CF910091C003112703FD22
:10326C001FEF112311F40C945219CF93DF930E948A
:10327C002114DF91CF911CE010934002CF93DF9388
:10328C0018E41A930091AD03112703FD1FEF1A9355
:10329C000E942F13DF91CF910091C003112704FDE1
:1032AC001FEF112311F40C947519CF93DF930E9427
:1032BC003D13DF91CF911FEF1093AE021BE01093E3
:1032CC004002CF93DF931FE11A930091AD031127B6
:1032DC0004FD1FEF1A930E942F13DF91CF910091E1
:1032EC00C003112705FD1FEF112311F40C9498193D
:1032FC00CF93DF930E943D13DF91CF911FEF10937B
:10330C00AE021FE010934002CF93DF931EE11A939D
:10331C000091AD03112705FD1FEF1A930E942F1387
:10332C00DF91CF910091C103112704FD1FEF1F9373
:10333C000091C103112705FD1FEF0F91102B1F9357
:10334C00109138040F91102B112311F40C94D619F1
:10335C0010E01093E4030091BE03112704FD1FEF4E
:10336C00112311F40C94BF191091E40313951093CD
:10337C00E4030091BE03112705FD1FEF112311F487
:10338C000C94CD191091E4031E5F1093E403CF93BA
:10339C00DF930E944D16DF91CF9110E21093400203
:1033AC000091C103112706FD1FEF112311F40C949A
:1033BC00EF190091BE03112706FD1FEF1093E103D7
:1033CC00CF93DF930E949315DF91CF911DE1109362
:1033DC0040020091C103112707FD1FEF112311F4C7
:1033EC000C94081A0091BE03112707FD1FEF1093D0
:1033FC00E203CF93DF930E949315DF91CF911EE1EF
:10340C001093400210E01093C00310E01093C1031E
:10341C0008952197E8E0F0E0FA93EA9310E0108326
:10342C0018E01A931081088101171FEF08F011277B
:10343C00112311F00C94501A182DE4E4F2E01F70D3
:10344C000027E10FF01F10811B83E5ECF3E0EF93F5
:10345C00FF93182D012F1127FF91EF91E00FF11F12
:10346C00EF93FF931B81FF91EF911193182D1F93F5
:10347C0019E0E5E8F2E0AF91AF70BB27EA0FFB1F54
:10348C001083E981FA81108113951083112311F0B7
:10349C000C94191A239619E0E4E4F2E01F7000274B
:1034AC00E10FF01F10811093CE031091AD03107E2D
:1034BC001F9310914E020F91102B1093AD031FE12F
:1034CC001093C00308952197E8E0F0E0FA93EA9393
:1034DC0010E0108319E01A931081088101171FEF77
:1034EC0008F01127112311F00C949D1AE5ECF3E070
:1034FC00EF93FF93182D012F1127FF91EF91E00F00
:10350C00F11F11911B83182D1F931B81E4E4F2E032
:10351C00AF91AF70BB27EA0FFB1F1083E981FA81D3
:10352C00108113951083112311F00C94731A2396A8
:10353C001091AD031F7110934E02CF93DF9310E0E7
:10354C001A930E94B135DF91CF9108952197E8E04D
:10355C00F0E0FA93EA9310E010831CE01A931081C8
:10356C00088101171FEF08F01127112311F00C949B
:10357C00ED1A182DE4E5F2E01F700027E10FF01FA3
:10358C0010811B83E4EDF3E0EF93FF93182D012FD3
:10359C001127FF91EF91E00FF11FEF93FF931B8128
:1035AC00FF91EF911193182D1F9319E0E1E9F2E0CF
:1035BC00AF91AF70BB27EA0FFB1F1083E981FA8133
:1035CC00108113951083112311F00C94B61A2396C5
:1035DC001091AD031F7D1F93109161020F91102B61
:1035EC001093AD0310E21093C00308952197E8E007
:1035FC00F0E0FA93EA9310E010831CE01A93108128
:10360C00088101171FEF08F01127112311F00C94FA
:10361C00301BE4EDF3E0EF93FF93182D012F1127EE
:10362C00FF91EF91E00FF11F11911B83182D1F9348
:10363C001B81E4E5F2E0AF91AF70BB27EA0FFB1FF3
:10364C001083E981FA81108113951083112311F0F5
:10365C000C94061B23961091AD031072109361020B
:10366C000895CF93DF931FEF1A930E94B135DF912A
:10367C00CF91E8E0F0E0FA93EA9310E0108318E0C1
:10368C001A931081088101171FEF08F011271123DD
:10369C0011F00C94911BE5ECF3E0EF93FF93182DD4
:1036AC00012F1127FF91EF91E00FF11FEF93FF9383
:1036BC00E5EAF0E0EF93FF931B81012F1127A0E1C6
:1036CC00B0E0E89445F80E94936E0F931F93182D69
:1036DC00012F11273F912F91020F131FFF91EF9193
:1036EC00E00FF11F0E94E769FF91EF911193182DE4
:1036FC001F9319E0E5E8F2E0AF91AF70BB27EA0F3A
:10370C00FB1F1083E981FA8110811395108311231B
:10371C0011F00C94481B239610E00AE00E949E695D
:10372C00CF93DF9310E01A930E94B135DF91CF91C4
:10373C000895CF93DF931FEF1A930E94B135DF9159
:10374C00CF9118811F701883E8E0F0E0FA93EA93A8
:10375C0010E0108318E01A931081088101171FEFF5
:10376C0008F01127112311F00C94F11BE5EAF0E09D
:10377C00EF93FF931B81012F1127A0E1B0E0E89498
:10378C0045F80E94936E0F931F93182D012F11274C
:10379C003F912F91020F131FFF91EF91E00FF11F3B
:1037AC00EF93FF93E5ECF3E0EF93FF93182D012FCC
:1037BC001127FF91EF91E00FF11F1191FF91EF9104
:1037CC000E94C569E981FA81108113951083112338
:1037DC0011F00C94B31B2396CF93DF9310E01A9344
:1037EC000E94B135DF91CF910E9432081DE01093F9
:1037FC0040020895CF93DF931FEF1A930E94B135C7
:10380C00DF91CF91E8E0F0E0FA93EA9310E01083B7
:10381C0018E01A931081088101171FEF08F0112787
:10382C00112311F00C945A1CE4EDF3E0EF93FF9389
:10383C00182D012F1127FF91EF91E00FF11FEF933E
:10384C00FF93E5EAF1E0EF93FF931B81012F112722
:10385C00A0E1B0E0E89445F80E94936E0F931F939B
:10386C00182D012F11273F912F91020F131FFF913C
:10387C00EF91E00FF11F0E94E769FF91EF91119317
:10388C00182D1F9319E0E1E9F2E0AF91AF70BB275F
:10389C00EA0FFB1F1083E981FA81108113951083C5
:1038AC00112311F00C94111C2396CF93DF9310E08D
:1038BC001A930E94B135DF91CF910895CF93DF9386
:1038CC001FEF1A930E94B135DF91CF9118811F70B1
:1038DC001883E8E0F0E0FA93EA9310E0108318E024
:1038EC001A931081088101171FEF08F0112711237B
:1038FC0011F00C94B61CE5EAF1E0EF93FF931B81F9
:10390C00012F1127A0E1B0E0E89445F80E94936ED6
:10391C000F931F93182D012F11273F912F91020FF9
:10392C00131FFF91EF91E00FF11FEF93FF93E4ED65
:10393C00F3E0EF93FF93182D012F1127FF91EF91D7
:10394C00E00FF11F1191FF91EF910E94C569E98180
:10395C00FA81108113951083112311F00C94781CAB
:10396C002396CF93DF9310E01A930E94B135DF9129
:10397C00CF910E9432081EE01093400208951881E6
:10398C00103010E009F41FEF112311F40C94D01C2B
:10399C000C94E71DFE0110811A9510831881137089
:1039AC001883CF93DF931FEF1A930E94B135DF91E9
:1039BC00CF91CF93DF93109131041A930E949F1BE8
:1039CC00DF91CF91CF93DF93109132041A930E9421
:1039DC00641CDF91CF91E9EAF3E0EF93FF93188138
:1039EC00012F1127AAE0B0E0E89445F80E94936EED
:1039FC00FF91EF91E00FF11F109131040E94C56906
:103A0C00E9EAF3E0EF93FF931881012F1127AAE065
:103A1C00B0E0E89445F80E94936E0F5F1F4FFF9142
:103A2C00EF91E00FF11F109132040E94C569E9EA91
:103A3C00F3E0EF93FF931881012F1127AAE0B0E078
:103A4C00E89445F80E94936E0E5F1F4FFF91EF9123
:103A5C00E00FF11F1091AD030E94C569E9EAF3E094
:103A6C00EF93FF931881012F1127AAE0B0E0E8949F
:103A7C0045F80E94936E0D5F1F4FFF91EF91E00F81
:103A8C00F11FEF93FF931091BE03107FFF91EF9105
:103A9C000E94C569E9EAF3E0EF93FF931881012FC7
:103AAC001127AAE0B0E0E89445F80E94936E0C5FF1
:103ABC001F4FFF91EF91E00FF11F1091CE030E9469
:103ACC00C569E9EAF3E0EF93FF931881012F112701
:103ADC00AAE0B0E0E89445F80E94936E0B5F1F4F8C
:103AEC00FF91EF91E00FF11F1091E3030E94C56964
:103AFC00E9EAF3E0EF93FF931881012F1127AAE075
:103B0C00B0E0E89445F80E94936E0A5F1F4FFF9156
:103B1C00EF91E00FF11F1091FE030E94C569E9EAD5
:103B2C00F3E0EF93FF931881012F1127AAE0B0E087
:103B3C00E89445F80E94936E095F1F4FFF91EF9137
:103B4C00E00FF11F1091DD030E94C569E9EAF3E073
:103B5C00EF93FF931881012F1127AAE0B0E0E894AE
:103B6C0045F80E94936E085F1F4FFF91EF91E00F95
:103B7C00F11F1091DF030E94C569E9EAF3E0EF93AE
:103B8C00FF931881012F1127AAE0B0E0E89445F8C3
:103B9C000E94936E075F1F4FFF91EF91E00FF11F93
:103BAC001091E0030E94C569CF93DF9310E01A9344
:103BBC000E94B135DF91CF910E9432081DE0109325
:103BCC00400208951881103010E009F41FEF112302
:103BDC0011F40C94F91D10E01093310410E01093C3
:103BEC0032040C94011FFE0110811A951083188168
:103BFC0013701883E9EAF3E0EF93FF931881012F18
:103C0C001127AAE0B0E0E89445F80E94936EFF916A
:103C1C00EF91E00FF11F0E94E76910933104CF93ED
:103C2C00DF93109131041A930E94371BDF91CF91CF
:103C3C00E9EAF3E0EF93FF931881012F1127AAE033
:103C4C00B0E0E89445F80E94936E0F5F1F4FFF9110
:103C5C00EF91E00FF11F0E94E76910933204CF93AC
:103C6C00DF93109132041A930E94001CDF91CF91C4
:103C7C00E9EAF3E0EF93FF931881012F1127AAE0F3
:103C8C00B0E0E89445F80E94936E0E5F1F4FFF91D1
:103C9C00EF91E00FF11F0E94E7691093AD031091B3
:103CAC00BE031F701F93E9EAF3E0EF93FF931881B3
:103CBC00012F1127AAE0B0E0E89445F80E94936E1A
:103CCC000D5F1F4FFF91EF91E00FF11F0E94E7690D
:103CDC000F91102B1093BE03E9EAF3E0EF93FF93DF
:103CEC001881012F1127AAE0B0E0E89445F80E9452
:103CFC00936E0C5F1F4FFF91EF91E00FF11F0E942D
:103D0C00E7691093CE03E9EAF3E0EF93FF93188190
:103D1C00012F1127AAE0B0E0E89445F80E94936EB9
:103D2C000B5F1F4FFF91EF91E00FF11F0E94E769AE
:103D3C001093E303E9EAF3E0EF93FF931881012F6B
:103D4C001127AAE0B0E0E89445F80E94936E0A5F50
:103D5C001F4FFF91EF91E00FF11F0E94E769109345
:103D6C00FE03E9EAF3E0EF93FF931881012F11278B
:103D7C00AAE0B0E0E89445F80E94936E095F1F4FEB
:103D8C00FF91EF91E00FF11F0E94E7691093DD03A3
:103D9C00E9EAF3E0EF93FF931881012F1127AAE0D2
:103DAC00B0E0E89445F80E94936E085F1F4FFF91B6
:103DBC00EF91E00FF11F0E94E7691093DF03E9EA2E
:103DCC00F3E0EF93FF931881012F1127AAE0B0E0E5
:103DDC00E89445F80E94936E075F1F4FFF91EF9197
:103DEC00E00FF11F0E94E7691093E0031091DD03CF
:103DFC0016951093DE030895E8E0F0E0FA93EA9349
:103E0C0010E0108312E51A931081088101171FEF3F
:103E1C0008F01127112311F00C943A1FE4ECF3E095
:103E2C00EF93FF93182D012F1127FF91EF91E00FC6
:103E3C00F11FEF93FF93E2E1F0E0EF93FF93182D66
:103E4C00012F1127FF91EF91E00FF11F0E94E769FD
:103E5C00FF91EF911193E981FA81108113951083F1
:103E6C00112311F00C940B1F2396E8E0F0E0FA9369
:103E7C00EA9310E010831FE01A9310810881011758
:103E8C001FEF08F01127112311F00C94841F182D2B
:103E9C001F93E5EAF0E0EF93FF93182D012F112704
:103EAC00FF91EF91E00FF11F0E94E769E4E4F2E06B
:103EBC00AF91AF70BB27EA0FFB1F1083182D1F9318
:103ECC00E5EAF1E0EF93FF93182D012F1127FF91F5
:103EDC00EF91E00FF11F0E94E769E4E5F2E0AF918A
:103EEC00AF70BB27EA0FFB1F1083E981FA811081A9
:103EFC0013951083112311F00C94441F23961091E9
:103F0C00E4031170113010E009F41FEF112311F4C8
:103F1C000C94951F1091BE0310611093BE03109169
:103F2C00E4031270123010E009F41FEF112311F4A6
:103F3C000C94A51F1091BE0310621093BE03109138
:103F4C00E103E894112309F068941091BE0316F96B
:103F5C001093BE031091E203E894112309F06894C6
:103F6C001091BE0317F91093BE031091F503109333
:103F7C0023031091F403109324031FEF1093C30336
:103F8C001FE71093160310E008EC0093080310933E
:103F9C00090308952797CF93DF9310E01A9317EF37
:103FAC001A930E941E06DF91CF91FE013596FA936B
:103FBC00EA9310E000E01183008311E00FEF1A93F5
:103FCC000A93A081B18128813981B31709F4A21712
:103FDC0010E011F008F01FEF112311F00C942C20BD
:103FEC00EAEFF3E0EF93FF9309851A85000F111F99
:103FFC00FF91EF91E00FF11F0E94F06917FF03C0D2
:10400C003FEF2FEF02C03327222738872F831E83E1
:10401C000D83CF93DF9338852F811E810D813A93C9
:10402C002A931A930A9316EF1A930E945206DF9161
:10403C00CF91EA81FB81A081B1811196A083B183DC
:10404C00BB2311F4AA2311F00C94E91F2496E8E089
:10405C00F0E0FA93EA9310E010831FE31A931081B7
:10406C00088101171FEF08F01127112311F00C9490
:10407C006120E5E6F0E0EF93FF93182D012F112757
:10408C00FF91EF91E00FF11F0E94E7691B83CF9323
:10409C00DF931B811A93182D10551A930E941E063C
:1040AC00DF91CF91E981FA8110811395108311234F
:1040BC0011F00C9436202396089522971091160334
:1040CC00012F112719830883CF93DF9300911403D9
:1040DC00109115031A930A9310E007E01A930A93B0
:1040EC0010E008E01A930A931FEF0E948A69DF918F
:1040FC00CF910F931F93088119813F912F91020F3C
:10410C00131F009314031093150308952D9710910A
:10411C00B002112311F40C94962010E010930B03B1
:10412C0010910C03112311F40C949F201FEF10938A
:10413C000B031B2D103010E011F008F01FEF1123B2
:10414C0011F40C94B12010E0B12ECF93DF930E94A8
:10415C006320DF91CF9110910B03112311F40C9478
:10416C00C620009114031091150322E00E948C6F5D
:10417C00102F188310910C0310930A030C94082130
:10418C00109170021F930091060310910703102FDA
:10419C000F91011710E009F01FEF10930A03109113
:1041AC007002012F11270F931F930091060310919A
:1041BC0007033F912F91020F131F112312F40F5F6E
:1041CC001F4F159507950093080310930903109141
:1041DC007002012F1127009306031093070300911F
:1041EC00080310910903102F1883CF93DF9310E06D
:1041FC001A931BE01A931A8116951A930E94DF12D8
:10420C00DF91CF9110E01093B00210E010930C03EB
:10421C0010910A031F931091AE020F91102B1123D2
:10422C0011F40C94FC210091AD03112704FD1FEF38
:10423C001F930091AD03112705FD1FEF0F91102B5C
:10424C00198319811F931091CE03113021F0133073
:10425C0011F0153001F010E009F41FEF0F9110234D
:10426C001A8310911504112311F40C94442110910C
:10427C006E02169516951F830C9448211091FE031F
:10428C0016951F83CF93DF9318811A931091160400
:10429C000FEF011B102F1A931FEF1A930E947C69CA
:1042AC00DF91CF911D83109116041F931D810F91E7
:1042BC00100F1C871C8518871A81112311F40C947C
:1042CC007621CF93DF931F811A9319811A9316E9E4
:1042DC001A930E947C69DF91CF911D830C948321EA
:1042EC00CF93DF931F811A9319811A9318EC1A93A9
:1042FC000E947C69DF91CF911D831F811F931C85C8
:10430C000F91011710E011F008F01FEF112311F4B9
:10431C000C9492211C851F831F8116951F931D8160
:10432C000F91100F19871091FF031E831C851F938B
:10433C001E810F9101171FEF08F01127112311F4A3
:10434C000C94AA211C851E8310911604110F110FB9
:10435C001F931E810F91100F1B87188116951F93A9
:10436C001E810F91100F1A87CF93DF931EEB1A93B8
:10437C001FE41A930E941E06DF91CF91CF93DF9317
:10438C001C851A9310E41A930E941E06DF91CF919C
:10439C00CF93DF931B851A9311E41A930E941E0688
:1043AC00DF91CF91CF93DF931A851A9312E41A936E
:1043BC000E941E06DF91CF91CF93DF9319851A933C
:1043CC0013E41A930E941E06DF91CF91CF93DF93D3
:1043DC0018851A9314E41A930E941E06DF91CF914C
:1043EC0010E01093AE0210E010930A031091380203
:1043FC00143010E009F41FEF112311F40C94F22285
:10440C00109115041F931091AF020F9110231123DB
:10441C0011F40C94152210916F021093E30310E029
:10442C001093AF021091A703112311F40C942622C0
:10443C00109108041C83109109041B830C942C22EA
:10444C00109106041C83109107041B83CF93DF93F8
:10445C0014E41A931091A8031A930E942F13DF915E
:10446C00CF91CF93DF9311E01A931091A7031A9376
:10447C000E942F13DF91CF911091A8031095112357
:10448C0011F40C944D2210E01C8310E01B831FEFE1
:10449C0000913602002309F01095112311F40C94AD
:1044AC0086221091A9031F931C810F91011710E014
:1044BC0009F01FEF112311F40C9486221C811F9319
:1044CC001091A9030F91011710E011F008F01FEFE4
:1044DC00112311F40C947D221091A90313951093C0
:1044EC00A90310910A04109336020C9486221091A1
:1044FC00A9031A951093A90310910C04109336027A
:10450C001FEF00913702002309F01095112311F4CD
:10451C000C94BF221091AA031F931B810F910117BA
:10452C0010E009F01FEF112311F40C94BF221B8132
:10453C001F931091AA030F91011710E011F008F0CE
:10454C001FEF112311F40C94B6221091AA031395AA
:10455C001093AA0310910B04109337020C94BF22F2
:10456C001091AA031A951093AA0310910D0410939D
:10457C00370200914204109143040F931F93109142
:10458C00A903012F11273F912F91020F131F0093A5
:10459C00420410934304CF93DF931091A9031A9311
:1045AC0011EB1A930E941E06DF91CF91CF93DF93EC
:1045BC001091AA031A9312EB1A930E941E06DF9114
:1045CC00CF91CF93DF931091E3031A9310EB1A93CF
:1045DC000E941E06DF91CF9110913802153010E029
:1045EC0009F41FEF112311F40C947323CF93DF9371
:1045FC0010910E041A9317EC1A930E941E06DF9169
:10460C00CF91CF93DF9310910E041A9318EC1A9359
:10461C000E941E06DF91CF91CF93DF9310910E0471
:10462C00169510581A931BEC1A930E941E06DF91D4
:10463C00CF91E5E6F0E0F0960E94E7691F931091A8
:10464C000F040F91100F1D83CF93DF931D811A93CD
:10465C0011EE1A930E941E06DF91CF91E5E6F0E071
:10466C00F3960E94E7691F9310910F040F91100F9E
:10467C001D83CF93DF931D811A9314EE1A930E941E
:10468C001E06DF91CF91E5E6F0E0F5960E94E76912
:10469C001F9310910F040F91100F1D83CF93DF9375
:1046AC001D811A9316EE1A930E941E06DF91CF916C
:1046BC00E5E6F0E0F7960E94E7691F9310910F046E
:1046CC000F91100F1D83CF93DF931D811A9318EE5A
:1046DC001A930E941E06DF91CF911091380216306A
:1046EC0010E009F41FEF112311F40C945E241091C7
:1046FC001004143610E008F01FEF112311F40C9481
:10470C00E023CF93DF93E5E6F0E038960E94E7696B
:10471C001A931091100408EC011B102F1A9314E635
:10472C001A930E947C69DF91CF911D83CF93DF9305
:10473C001D811A9318EB1A930E941E06DF91CF91DC
:10474C00CF93DF93E5E6F0E034960E94E7691A9385
:10475C0014EB1A930E941E06DF91CF91CF93DF9337
:10476C00E5E6F0E035960E94E7691A9315EB1A938B
:10477C000E941E06DF91CF91CF93DF93E5E6F0E028
:10478C0036960E94E7691A9316EB1A930E941E063E
:10479C00DF91CF91CF93DF93E5E6F0E03C960E945A
:1047AC00E7691A931CEB1A930E941E06DF91CF91B6
:1047BC000C945E24CF93DF93E5E6F0E034960E94F0
:1047CC00E7691A93109110041A9314E61A930E9435
:1047DC007C69DF91CF911D83CF93DF931D811A9359
:1047EC0014EB1A930E941E06DF91CF91CF93DF93A7
:1047FC00E5E6F0E035960E94E7691A9310911004F3
:10480C001A9314E61A930E947C69DF91CF911D8351
:10481C00CF93DF931D811A9315EB1A930E941E06FA
:10482C00DF91CF91CF93DF93E5E6F0E036960E94CF
:10483C00E7691A93109110041A9314E61A930E94C4
:10484C007C69DF91CF911D83CF93DF931D811A93E8
:10485C0016EB1A930E941E06DF91CF91CF93DF9334
:10486C00E5E6F0E03C960E94E7691A93109110047B
:10487C001A9314E61A930E947C69DF91CF911D83E1
:10488C00CF93DF931D811A931CEB1A930E941E0683
:10489C00DF91CF91CF93DF93E5E6F0E038960E945D
:1048AC00E7691A9318EB1A930E941E06DF91CF91B9
:1048BC000895CF93DF930E94B616DF91CF91CF93DB
:1048CC00DF930E94D01FDF91CF91CF93DF930E9493
:1048DC004D16DF91CF91CF93DF930E942114DF917E
:1048EC00CF91CF93DF930E945015DF91CF91CF934F
:1048FC00DF930E949315DF91CF91CF93DF930E94AA
:10490C003D13DF91CF9110E01093AF021FEF109386
:10491C00AE02CF93DF930E948C20DF91CF9108954C
:10492C000E94C706CF93DF9318E0412A0AE519E6E7
:10493C001A930A93E8E9F1EE0E945B6BDF91CF9139
:10494C000E94C00610915604112311F40C94DF241C
:10495C0001E010E020E030E00093D2041093D30487
:10496C002093D4043093D504E4EAF4E0EF93FF935E
:10497C003196FA93EA931FE11A9317EF41221FEB3A
:10498C004122E5EAF1EE0E945B6B1FE11F93188157
:10499C000F91011B102FFF91EF91108323960E9412
:1049AC00CB07CF93DF9312E61A930E94EE00DF91B0
:1049BC00CF9110915404112311F40C94162502E09C
:1049CC0010E020E030E00093D2041093D304209345
:1049DC00D4043093D504E4EAF4E0EF93FF933196DA
:1049EC00FA93EA931FE11A9317EF41221FEB41222E
:1049FC00E7EBF1EE0E945B6B1FE11F9318810F91A7
:104A0C00011B102FFF91EF91108323960E94CB076F
:104A1C00CF93DF9310E61A930E94EE00DF91CF91B3
:104A2C0010915504112311F40C944D2503E010E062
:104A3C0020E030E00093D2041093D3042093D404EC
:104A4C003093D504E4EAF4E0EF93FF933196FA93B4
:104A5C00EA931FE11A9317EF41221FEB4122EAEC74
:104A6C00F1EE0E945B6B1FE11F9318810F91011BEC
:104A7C00102FFF91EF91108323960E94CB07CF93B9
:104A8C00DF9311E61A930E94EE00DF91CF9100E0C4
:104A9C0010E020E030E000931A0410931B042093E4
:104AAC001C0430931D0410915904112311F40C941F
:104ABC00882504E010E020E030E00093D20410934D
:104ACC00D3042093D4043093D504E4EAF4E0EF93B8
:104ADC00FF933196FA93EA931FE11A9317EF412251
:104AEC001FEB4122EDEDF1EE0E945B6B1FE11F937A
:104AFC0018810F91011B102FFF91EF9110832396BA
:104B0C000E94CB0710915804112311F40C94B72573
:104B1C0005E010E020E030E00093D2041093D304C1
:104B2C002093D4043093D504E4EAF4E0EF93FF939C
:104B3C003196FA93EA931FE11A9317EF41221FEB78
:104B4C004122EAEEF1EE0E945B6B1FE11F9318818C
:104B5C000F91011B102FFF91EF91108323960E9450
:104B6C00CB0710915304112311F40C94E62506E0A5
:104B7C0010E020E030E00093D2041093D304209393
:104B8C00D4043093D504E4EAF4E0EF93FF93319628
:104B9C00FA93EA931FE11A9317EF41221FEB41227C
:104BAC00E6EFF1EE0E945B6B1FE11F9318810F91F2
:104BBC00011B102FFF91EF91108323960E94CB07BE
:104BCC0010915204112311F40C94152607E010E0F7
:104BDC0020E030E00093D2041093D3042093D4044B
:104BEC003093D504E4EAF4E0EF93FF933196FA9313
:104BFC00EA931FE11A9317EF41221FEB4122E1E0E8
:104C0C00F2EE0E945B6B1FE11F9318810F91011B49
:104C1C00102FFF91EF91108323960E94CB071091D8
:104C2C005A04112311F40C94442608E010E020E0FF
:104C3C0030E00093D2041093D3042093D404309327
:104C4C00D504E4EAF4E0EF93FF933196FA93EA93F8
:104C5C001FE11A9317EF41221FEB4122EEE0F2EE17
:104C6C000E945B6B1FE11F9318810F91011B102F8A
:104C7C00FF91EF91108323960E94CB071091510462
:104C8C00112311F40C94732609E010E020E030E0BD
:104C9C000093D2041093D3042093D4043093D504FE
:104CAC00E4EAF4E0EF93FF933196FA93EA931FE171
:104CBC001A9317EF41221FEB4122EDE1F2EE0E9415
:104CCC005B6B1FE11F9318810F91011B102FFF913C
:104CDC00EF91108323960E94CB070895CF93DF9317
:104CEC001FEF1A930E94B135DF91CF9110E004E6CB
:104CFC000E949E69CF93DF9310E01A9318E41A93E5
:104D0C000E941E06DF91CF9110E004E60E949E697E
:104D1C00CF93DF930E944D16DF91CF91CF93DF930A
:104D2C0010E01A930E94B135DF91CF910895CF9383
:104D3C00DF9310E01A9310E01A9310E01A930E947C
:104D4C00DB67DF91CF91CF93DF9318E0412A05EB1E
:104D5C0017E61A930A93E3EDF3EEEF93FF931A81A0
:104D6C00012F1127AEE0B0E0E89445F80E94936E55
:104D7C00FF91EF91E00FF11F0E945B6BDF91CF91E0
:104D8C0010E00E94FC67CF93DF9310E01A9310E0C1
:104D9C001A9311E01A930E94DB67DF91CF9108956B
:104DAC002197CF93DF9310E01A9310E01A9311E040
:104DBC001A930E94DB67DF91CF9119811E3210E0AC
:104DCC0011F008F01FEF18831881112311F40C94C3
:104DDC00F226198110511983CF93DF9318E0412AE1
:104DEC0005EB17E61A930A93EDE5F8EEEF93FF93B4
:104DFC001B81012F1127ACE0B0E0E89445F80E942C
:104E0C00936EFF91EF91E00FF11F0E945B6BDF91AE
:104E1C00CF911881112311F40C941C271BE20E94D2
:104E2C00B56712E40E94B5670C941F2710E20E942C
:104E3C00B56716E00E94B56710E00E94FC67089504
:104E4C001881112311F40C943B27CF93DF9318E0B6
:104E5C00412A05EB17E61A930A93EDE2F2EE0E9453
:104E6C005B6BDF91CF910C944927CF93DF9318E0C4
:104E7C00412A05EB17E61A930A93E1E3F2EE0E943E
:104E8C005B6BDF91CF910895E8E0F0E0FA93EA9341
:104E9C0010E0108313E01A931081088101171FEFA3
:104EAC0008F01127112311F00C9471275A9A5B9872
:104EBC0010E004E60E949E695A985B9A10E004E6A2
:104ECC000E949E69E981FA81108113951083112348
:104EDC0011F00C94532723965A9A5B9A089510E07C
:104EEC000E94F367CF93DF9318E0412A05EB17E696
:104EFC001A930A93E5E3F2EE0E945B6BDF91CF917C
:104F0C00089510915304112311F40C947528EBE5BA
:104F1C00F4E0EF93FF933196FA93EA9318E21A9325
:104F2C0017EF41221FEB41221D81CF93DF931A9380
:104F3C0012E01A9300E00A9310E21A930E947C6B21
:104F4C00DF91CF9118E21F9318810F91011B102F45
:104F5C00FF91EF91108323960E9475271A811F935E
:104F6C0019810F91011710E009F01FEF112311F4B3
:104F7C000C94D127CF93DF9318E0412A05EB17E669
:104F8C001A930A93EBE5F4E00E94646BDF91CF91E6
:104F9C0010E20E94B567CF93DF9318E0412A05EB2E
:104FAC0017E61A930A93ECE3F2EE0E945B6BDF9127
:104FBC00CF91CF93DF9310E01A9310E01A9311E086
:104FCC001A930E94DB67DF91CF91CF93DF9318E0A8
:104FDC00412A05EB17E61A930A93EFE3F2EE0E94CF
:104FEC005B6BDF91CF91EBE5F4E0EF93FF933196A0
:104FFC00FA93EA9318E21A9317EF41221FEB41221E
:10500C001C81CF93DF931A9312E01A9300E00A935A
:10501C0010E21A930E947C6BDF91CF9118E21F93E0
:10502C0018810F91011B102FFF91EF911083239684
:10503C00CF93DF9310E01A9316E01A9311E01A93B2
:10504C000E94DB67DF91CF91CF93DF9318E0412A69
:10505C0005EB17E61A930A93EBE5F4E00E94646BF8
:10506C00DF91CF911881103011F00C944D28CF9313
:10507C00DF9318E0412A05EB17E61A930A93E6E44E
:10508C00F2EE0E945B6BDF91CF910C94752811307E
:10509C0011F00C946128CF93DF9318E0412A05EBB3
:1050AC0017E61A930A93E6E4F2EE0E945B6BDF912B
:1050BC00CF910C947528123011F00C947528CF9365
:1050CC00DF9318E0412A05EB17E61A930A93EDE4F7
:1050DC00F2EE0E945B6BDF91CF910C9475280E94CD
:1050EC004A27089510915304112311F40C948E281F
:1050FC000E947527CF93DF9318E0412A05EB17E642
:10510C001A930A93E5E5F2EE0E945B6BDF91CF9167
:10511C000E944A270895109153041095112311F4FD
:10512C000C949A280C94F128CF93DF9310E01A93E7
:10513C000E949D26DF91CF911881112311F40C94BC
:10514C00DA28CF93DF9318E0412A05EB17E61A9380
:10515C000A93E1E6F2EE0E945B6BDF91CF9119812D
:10516C00112311F40C94CA28CF93DF9318E0412A31
:10517C0005EB17E61A930A93E6E6F2EE0E945B6BD8
:10518C00DF91CF910C94D828CF93DF9318E0412A6C
:10519C0005EB17E61A930A93EBE6F2EE0E945B6BB3
:1051AC00DF91CF910C94E828CF93DF9318E0412A3C
:1051BC0005EB17E61A930A93E0E7F2EE0E945B6B9D
:1051CC00DF91CF9110E00E94FC671AEF109333022D
:1051DC0010E0109341020895CF93DF9318811A9336
:1051EC000E942627DF91CF9116E00E94B56710E050
:1051FC000E94FC670895CF93DF9318E0412A05EBDA
:10520C0017E61A930A931A81CF93DF931A9313E03C
:10521C001A9300E00A9310E21A93689443F80E94E0
:10522C007C6BDF91CF91DF91CF9116E00E94B56737
:10523C0010E00E94FC670895CF93DF9318E0412A99
:10524C0005EB17E61A930A930A811B81CF93DF9320
:10525C001A930A9313E01A9300E00A9310E21A933C
:10526C00689443F8689445F8E89454F855F80E940B
:10527C00B56DDF91CF91DF91CF9116E00E94B567AC
:10528C0010E00E94FC670895CF93DF930091AD036B
:10529C00112700FD1FEF1A930E942627DF91CF9153
:1052AC000091AD03112700FD1FEF1095112311F490
:1052BC000C94652910E00E94FC670C94DD2910E227
:1052CC000E94B5670091AD03112701FD1FEF11235B
:1052DC0011F40C948129CF93DF9318E0412A05EB4C
:1052EC0017E61A930A93E5E7F2EE0E945B6BDF91E7
:1052FC00CF910C948F29CF93DF9318E0412A05EBC3
:10530C0017E61A930A93EAE7F2EE0E945B6BDF91C1
:10531C00CF910091AD03112702FD1FEF112311F462
:10532C000C94A829CF93DF9318E0412A05EB17E6DC
:10533C001A930A93EFE7F2EE0E945B6BDF91CF9129
:10534C000C94B629CF93DF9318E0412A05EB17E6AE
:10535C001A930A93E4E8F2EE0E945B6BDF91CF9113
:10536C000091AD03112703FD1FEF112311F40C94D1
:10537C00CF29CF93DF9318E0412A05EB17E61A9358
:10538C000A93E9E8F2EE0E945B6BDF91CF910C94EB
:10539C00DD29CF93DF9318E0412A05EB17E61A932A
:1053AC000A93ECE8F2EE0E945B6BDF91CF910895CB
:1053BC002197CF93DF930091AD03112704FD1FEFCD
:1053CC001A930E942627DF91CF9110E20E94B567B5
:1053DC00CF93DF930091AD03112705FD1FEF1A93B7
:1053EC000E942627DF91CF9110E20E94B5671091A1
:1053FC00CE031170113010E009F41FEF112311F4DA
:10540C000C940D2A13E40E94B5670C94102A16E52F
:10541C000E94B5671091CE0316951F5C18831881F6
:10542C000E94B56710E00E94FC67089518811695DC
:10543C00E1EEFAEE1F730027E10FF01F14911695A1
:10544C000895219719811695E1EEFAEE1F73002746
:10545C00E10FF01F14911150198319811F3710E0BF
:10546C0011F008F01FEF112311F40C943F2A10E0F7
:10547C00198319811695188319811170113010E058
:10548C0009F41FEF112311F40C94712AE8E0F0E0F9
:10549C00FA93EA9310E01083EF93FF931A81FF9134
:1054AC00EF911A931081088101171FEF08F0112753
:1054BC00112311F00C946E2A10E00E94B567E9815B
:1054CC00FA81108113951083112311F00C94592A31
:1054DC0023960C94972AE8E0F0E0FA93EA9311E013
:1054EC001083EF93FF931A81FF91EF911A93108120
:1054FC00088101171FEF08F01127112311F00C94EC
:10550C00932A10E00E94B567E981FA811081139506
:10551C001083112311F00C947E2A239611E00E9423
:10552C00B567E8E0F0E0FA93EA93EF93FF931A8102
:10553C00FF91EF91108316E01A93108108810117E7
:10554C001FEF08F01127112311F00C94B92A17E062
:10555C000E94B567E981FA8110811395108311239C
:10556C0011F00C94A42A239612E00E94B56716E061
:10557C000E94B56710E00E94FC67CF93DF9310E0A8
:10558C001A931AE01A9311E01A930E94DB67DF91C9
:10559C00CF9108952297CF93DF9310E01A9310E0E8
:1055AC001A9310E01A930E94DB67DF91CF91CF938F
:1055BC00DF9318E0412A05EB17E61A930A93109132
:1055CC003104CF93DF931A9312E01A9300E00A93FD
:1055DC0010E21A93689443F80E947C6BDF91CF9190
:1055EC00DF91CF9110E20E94B567CF93DF9310E06B
:1055FC001A9312E01A9310E01A930E94DB67DF9162
:10560C00CF911091A503103010E009F41FEF112376
:10561C0011F40C94162B16E00E94B5670C94192B00
:10562C0010E20E94B567CF93DF9318E0412A05EB97
:10563C0017E61A930A93EFE8F2EE0E945B6BDF9188
:10564C00CF91E8E0F0E0FA93EA9310E0108318E0D1
:10565C001A931081088101171FEF08F011271123ED
:10566C0011F00C945C2BCF93DF93E5ECF3E0EF930C
:10567C00FF93182D012F1127FF91EF91E00FF11FD0
:10568C0011911A930E941C2ADF91CF911B831B81CD
:10569C00105D1C831C810E94B567E981FA81108121
:1056AC0013951083112311F00C94302B2396CF9368
:1056BC00DF9310E01A9310E01A9311E01A930E94F2
:1056CC00DB67DF91CF91CF93DF9318E0412A05EB95
:1056DC0017E61A930A9310913204CF93DF931A931F
:1056EC0012E01A9300E00A9310E21A93689443F8BC
:1056FC000E947C6BDF91CF91DF91CF9110E20E94E1
:10570C00B567CF93DF9310E01A9312E01A9311E070
:10571C001A930E94DB67DF91CF911091A503103093
:10572C0010E009F41FEF112311F40C94A22B10E2DA
:10573C000E94B5670C94A52B16E00E94B56710E586
:10574C000E94B567CF93DF931091DD031A930E94EB
:10575C001C2ADF91CF9118831881105D1983198150
:10576C000E94B567CF93DF931091DF031A930E94C9
:10577C001C2ADF91CF9118831881105D1983198130
:10578C000E94B5671CE40E94B567E8E0F0E0FA936C
:10579C00EA9310E0108318E01A9310810881011726
:1057AC001FEF08F01127112311F00C94002CCF934C
:1057BC00DF93E4EDF3E0EF93FF93182D012F112706
:1057CC00FF91EF91E00FF11F11911A930E941C2A87
:1057DC00DF91CF911B831B81105D1C831C810E9468
:1057EC00B567E981FA81108113951083112311F0AB
:1057FC000C94D42B2396089526971985163910E00E
:10580C0008F01FEF112311F40C94122C10E00AE095
:10581C001D830C830C94342C1985103510E008F082
:10582C001FEF112311F40C94212C10E005E01D83C3
:10583C000C830C94342C1985183210E008F01FEFEF
:10584C00112311F40C94302C10E002E01D830C8316
:10585C000C94342C10E001E01D830C83FE01EF93BB
:10586C00FF931E81FF91EF9111931E811F3710E062
:10587C0011F008F01FEF112311F40C944B2CFE01C6
:10588C0031961FEF11930C944F2CFE01319610E0C2
:10589C001193088119810F931F930C811D816894BA
:1058AC0045F8BF91AF910E94936E198308831985B7
:1058BC00012F11270F931F93088119813F912F916D
:1058CC00020F131F1B830A830A811B810F931F93E3
:1058DC000C811D81689445F8BF91AF910E94B46E04
:1058EC000F931F930C811D81689445F8BF91AF9164
:1058FC000E94936E1B830A830A811B811A930A935D
:10590C001A85012F11271A930A931B85012F112732
:10591C001A930A930E94D46F2696102F0895CF9352
:10592C00DF9310E01A931FE01A9310E01A930E9471
:10593C00DB67DF91CF911A811F9318810F910117AB
:10594C001FEF08F01127112311F40C94B22C13E063
:10595C000E94B5670C94B52C10E20E94B567CF93EA
:10596C00DF9310E01A931FE01A9311E01A930E9430
:10597C00DB67DF91CF911A811F9319810F9101176A
:10598C0010E011F008F01FEF112311F40C94D32C3C
:10599C0014E00E94B5670C94D62C10E20E94B567F7
:1059AC000895229710E00E942968176C10933A0210
:1059BC000A811B81103009F4003010E011F008F05E
:1059CC001FEF112311F40C94EF2C0A811B810E9400
:1059DC009E6910913A021F3F10E009F41FEF11234A
:1059EC0011F40C94FE2C10E00C94012D0C94012D50
:1059FC001FEF0C94012D0895229710913D021983ED
:105A0C001981188319811F9310913C020F91011B6E
:105A1C00102F1983188110933C0219810895CF938C
:105A2C00DF9310E01A931EE01A9310E01A930E9471
:105A3C00DB67DF91CF911881112311F40C942B2D7E
:105A4C001AE20E94B5670C942E2D10E20E94B567E5
:105A5C00089528971091530410951F9319851030B1
:105A6C0010E009F41FEF0F91102B112311F40C947B
:105A7C00412D0C9402331885103010E009F01FEF03
:105A8C001883E0E8F3EEEF93FF931985012F1127AC
:105A9C00FF91EF91E00FF11F14911D831D811130C7
:105AAC0010E009F41FEF198319851D3010E009F47B
:105ABC001FEF112311F40C947E2DCF93DF931091D3
:105ACC0031041A9310E01A931FE01A931B851A9352
:105ADC000E94022CDF91CF9110933104CF93DF936E
:105AEC000E94D02ADF91CF910C9402330C94A02DFC
:105AFC0019851E3010E009F41FEF112311F40C94DA
:105B0C00A02DCF93DF93109132041A9310E01A93C7
:105B1C001FE01A931B851A930E94022CDF91CF91E0
:105B2C0010933204CF93DF930E94D02ADF91CF9150
:105B3C000C940233CF93DF9319851A930E949D2600
:105B4C00DF91CF911FEF1C83E4ECF3E0EF93FF9315
