:10007C0010B11370C12E1C2D1F931D2D0F91011744
:10008C0010E009F01FEF112311F40C9481001C2DCA
:10009C00103010E009F41FEF112311F40C947D00C3
:1000AC001E2D133010E009F41FEF112311F40C94E2
:1000BC007D001D2D113010E009F41FEF112311F4F8
:1000CC000C946F0010913D02139510933D020C940B
:1000DC007D001D2D123010E009F41FEF112311F4D7
:1000EC000C947D0010913D021A9510933D021D2D2C
:1000FC00E12E1C2DD12EB394089510E015BF10E005
:10010C001093690010E01DBB10E01093680010E024
:10011C001093600010E01093610010E014BF1124E4
:10012C00F894A8951FBACFEFD0E1DEBBCDBB11E0A0
:10013C00A0E0B1E0ECEFFFEF02C005900D92A23011
:10014C00B107D9F712E0A2E0B1E001C01D92AD30C9
:10015C00B107E1F70E94B400F894FFCF14BEA89544
:10016C00809160008861809360001092600005B7F8
:10017C00102F016005BF12E015BF0C945A7D089535
:10018C0010913802139510933802109138021830E0
:10019C0010E009F41FEF112311F40C94DD0010E0B2
:1001AC00109338021091390210951093390208956A
:1001BC0018811F9316E11F93E89440F8EEE1F4E0E8
:1001CC00A4E0B0E03F914F9150E00E943F6508954C
:1001DC0000E010E020E030E000931E0410931F04B8
:1001EC002093200430932104CF93DF9318811A932A
:1001FC000E94DE00DF91CF9118811F9312E01F93B4
:10020C00E89440F8E6E1F0E03F914F91A1E0B0E0D6
:10021C0060E050E00E943F6518811F9313E01F932C
:10022C00E89440F8E6E1F0E03F914F91A1E0B0E0B6
:10023C0068E250E00E943F6518811F9314E01F9301
:10024C00E89440F8E6E1F0E03F914F91A1E0B0E096
:10025C0064E150E00E943F6518811F9315E01F93E5
:10026C00E89440F8E6E1F0E03F914F91A1E0B0E076
:10027C0060E850E00E943F6500E010E020E030E0D4
:10028C0000931E0410931F04209320043093210428
:10029C00CF93DF9318811A930E94DE00DF91CF91E8
:1002AC00089516E9109333025A9808951AE01093A2
:1002BC0033025A980895219710E51F9309811A81EA
:1002CC001F93E89440F809811A81102FE6E1F0E0C1
:1002DC00612FA1E0B0E03F914F9150E00E943F654B
:1002EC0010E51F93FE01A1E0B0E04F910E9426653E
:1002FC0018810895CF93DF9310E51A930A811B811F
:10030C001A930A93FE0133968F011A930A9310E005
:10031C0001E01A930A930E943565DF91CF9110E0AA
:10032C0007E00E94E36508952297CF93DF9310E5D1
:10033C001A930F8118851A930A93FE0135968F0133
:10034C001A930A9310E004E01A930A930E943565FD
:10035C00DF91CF9110E007E00E94E36508952B97A1
:10036C0013E910937A0011E00E94F26513EC1093DC
:10037C007A0010917A001071103010E009F01FEF24
:10038C00112311F40C94BF0113E810937A001C850F
:10039C001B3010E009F41FEF112311F40C94DA0157
:1003AC0013E018830C94E3011C85E5E8F2E01F715F
:1003BC000027E10FF01F108118831881012F1127DE
:1003CC001E830D830D811E81015010401C830B83F5
:1003DC001C85E5E6F2E01F710027E10FF01F10818C
:1003EC00012F112718870F8310917900012F1127E6
:1003FC000F931F930B811C81019509F41A9510958D
:10040C003F912F91020F131F1A87098709851A85AF
:10041C000F931F930F8118850F931F930D811E81CE
:10042C003F912F91020F131F98011F910F91A0E87C
:10043C001A273A27131709F4021710E011F008F0E5
:10044C001FEF1F9309851A850F931F930F81188532
:10045C000F931F930B811C81019509F41A9510952C
:10046C003F912F91020F131F98011F910F91A0E83C
:10047C001A273A27131709F402171FEF08F0112750
:10048C000F91102B112311F40C94730212E31983A6
:10049C001C851F931981E5ECF2E0AF91AF71BB277E
:1004AC00EA0FFB1F10831C851F931B85E5EAF2E006
:1004BC00AF91AF71BB27EA0FFB1F10831C851F93F5
:1004CC0013E0E5E8F2E0AF91AF71BB27EA0FFB1F39
:1004DC0010831FEF1A830C947E021C85E5ECF2E06E
:1004EC001F710027E10FF01F1081198310E01A8390
:1004FC001981103010E009F41FEF112311F40C9442
:10050C0094021C851F9317E0E5E8F2E0AF91AF7100
:10051C00BB27EA0FFB1F10830C94C3021A81112313
:10052C0011F40C94C30209851A85A0E81A27103817
:10053C0009F402301FEF08F01127112311F40C9469
:10054C00AB0210E000E01A8709871C851F931B85FE
:10055C00E5EAF2E0AF91AF71BB27EA0FFB1F108306
:10056C001C851F9309851A85102FE5E6F2E0AF91E3
:10057C00AF71BB27EA0FFB1F108308952297149AC3
:10058C001598169A1BB11F7810631BB9CF93DF9384
:10059C001BE01A931FEF1A930E94B501DF91CF91C4
:1005AC0010913802103011F00C9414031498159A11
:1005BC00169A1BB11F78712EFE013196FA93EA93AD
:1005CC0010E0108317E01A931081088101171FEFB8
:1005DC0008F01127112311F00C941103172D1F9300
:1005EC001C81110F110F110F110F0F91102B1BB933
:1005FC00CF93DF931C811A931E811A930E94B5012D
:10060C00DF91CF91E981FA81108113951083112329
:10061C0011F00C94EB0223960C940E04113011F093
:10062C000C948603149A1598169A1BB11F78712E88
:10063C00FE013196FA93EA9318E010831AE01A93AC
:10064C001081088101171FEF08F01127112311F0F9
:10065C000C9450031C811850912E172D1F93192D9B
:10066C00110F110F110F110F0F91102B1BB9CF93ED
:10067C00DF931C811A931E811A930E94B501DF919E
:10068C00CF91E981FA81108113951083112311F018
:10069C000C9427032396FE013196FA93EA931CE0FF
:1006AC0010831FE01A931081088101171FEF08F0C7
:1006BC001127112311F00C9483031C811850912ED7
:1006CC00172D1F93192D110F110F110F110F0F91C2
:1006DC00102B1BB9CF93DF931C811A931E811A9395
:1006EC000E94B501DF91CF91E981FA8110811395B8
:1006FC001083112311F00C945A0323960C940E04BE
:10070C00123011F00C94C503149A159A16981BB15B
:10071C001F78712EFE013196FA93EA9310E1108343
:10072C0017E11A931081088101171FEF08F01127A8
:10073C00112311F00C94C2031C811051912E172D12
:10074C001F93192D110F110F110F110F0F91102B4A
:10075C001BB9CF93DF931C811A931E811A930E94AD
:10076C00B501DF91CF91E981FA8110811395108346
:10077C00112311F00C94990323960C940E0413304E
:10078C0011F00C940E041FEF00913502002309F0B8
:10079C001095112311F40C940C0419E110933502EB
:1007AC00FE013196FA93EA9310E0108317E11A9345
:1007BC001081088101171FEF08F01127112311F088
:1007CC000C940B041C81E5ECF2E01F710027E10F87
:1007DC00F01F1081712E112770E0771510F47A94A8
:1007EC001FEF1C811F93172DE5ECF2E0AF91AF7159
:1007FC00BB27EA0FFB1F1083E981FA811081139547
:10080C001083112311F00C94DF0323960C940E0427
:10081C000895109100052B981EBD1DB517FFFDCF37
:10082C001EB5109301052B9A08951091FD042B9879
:10083C001EBD1DB517FFFDCF1EB51093FF04109103
:10084C00FC041EBD1DB517FFFDCF1EB51093FE0495
:10085C002B9A08951091F3042B981EBD1DB517FF0C
:10086C00FDCF1EB51093F7041091F2041EBD1DB5FB
:10087C0017FFFDCF1EB51093F6041091F1041EBDA9
:10088C001DB517FFFDCF1EB51093F5041091F004A4
:10089C001EBD1DB517FFFDCF1EB51093F4042B9A8A
:1008AC0008951091EE0429981EBD1DB517FFFDCFBC
:1008BC001091ED041EBD1DB517FFFDCF299A0895AB
:1008CC00109103051EBD1DB517FFFDCF1EB510936E
:1008DC0004050895289815E0109303050E946604FA
:1008EC000E946604289A109104050895289815E032
:1008FC00109303050E9466040E946604109104057F
:10090C001170103010E009F41FEF112311F40C9446
:10091C008204289A0895289816E0109303050E94E3
:10092C006604289A08950E949104289811E0109367
:10093C0003050E94660410E0109303050E946604F0
:10094C00289A0E947C0408950E949104289811E032
:10095C00109303050E9466041FE3109303050E9485
:10096C006604289A0E947C0408950E949104289899
:10097C003B812A8119810881009305051093060596
:10098C00209307053093080510E2109303050E948D
:10099C00660410910705109303050E9466041091DC
:1009AC000605109303050E9466041091050510932B
:1009BC0003050E946604289A0E947C041091040589
:1009CC001072103010E009F01FEFE894112309F0B9
:1009DC0068941091E40412F91093E4040091E40477
:1009EC00112702FD1FEF109508950E94910428987D
:1009FC0017EC109303050E946604289A0E947C044D
:100A0C00109104051072103010E009F01FEFE894FB
:100A1C00112309F068941091E40412F91093E40482
:100A2C000091E404112702FD1FEF10950895219702
:100A3C0009811A8101501040102F18830E949104D3
:100A4C0028983E812D811C810B8100930505109304
:100A5C000605209307053093080512E01093030553
:100A6C000E94660410910705109303050E9466040A
:100A7C0010910605109303050E946604109105055C
:100A8C00109303050E946604E7E0F0E0FA93EA9302
:100A9C0010E01083EF93FF931A81FF91EF911A935B
:100AAC001081088101171FEF08F01127112311F095
:100ABC000C947505172DE0E0FFE01F7F0027E10F78
:100ACC00F01F1081109303050E946604E981FA81DE
:100ADC00108113951083112311F00C945705239654
:100AEC00289A0E947C04109104051072103010E0BA
:100AFC0009F01FEFE894112309F068941091E404B5
:100B0C0012F91093E4040091E404112702FD1FEF85
:100B1C001095089521970E947C040A811B81015035
:100B2C001040102F18833F812E811D810C81009362
:100B3C0005051093060520930705309308052898A2
:100B4C001BE0109303050E94660410910705109397
:100B5C0003050E94660410910605109303050E947C
:100B6C00660410910505109303050E94660410E0BD
:100B7C00109303050E946604E7E0F0E0FA93EA9311
:100B8C0010E01083EF93FF931A81FF91EF911A936A
:100B9C001081088101171FEF08F01127112311F0A4
:100BAC000C9402060E9466041C81112311F40C940F
:100BBC00ED05172D1F9310910405E0E0FEE0AF91B9
:100BCC00AF7FBB27EA0FFB1F10830C94F905172D81
:100BDC001F9310910405E0E0FFE0AF91AF7FBB27BE
:100BEC00EA0FFB1F1083E981FA81108113951083A2
:100BFC00112311F00C94CF052396289A0895EDEE4D
:100C0C00F4E0EF93FF931881FF91EF911193EEEEC7
:100C1C00F4E010E011930E9457040E9430040091FC
:100C2C00F4041091F5042091F6043091F704089522
:100C3C00EDEEF4E0EF93FF931881FF91EF91119398
:100C4C00EEEEF4E010E811930E945704ECEFF4E0A0
:100C5C00EF93FF931981FF91EF911193EDEFF4E076
:100C6C0010E011930E941B040895EDEEF4E0EF9355
:100C7C00FF931881FF91EF911193EEEEF4E010E8E1
:100C8C0011930E94570409811A810093FC0410935C
:100C9C00FD040E941B040895EDEEF4E0EF93FF9326
:100CAC001881FF91EF911193EEEEF4E010E811939F
:100CBC000E9457043C812B811A8109810093F00416
:100CCC001093F1042093F2043093F3040E94300447
:100CDC000895CF93DF9310EF1A930E940506DF91CE
:100CEC00CF910093D9041093DA042093DB04309352
:100CFC00DC04E8E0F0E00E943A660093D90410931B
:100D0C00DA042093DB043093DC04CF93DF9300915F
:100D1C00D9041091DA042091DB043091DC043A936D
:100D2C002A931A930A9310EF1A930E945206DF919A
:100D3C00CF91ECE0F0E00E943A660093D904109356
:100D4C00DA042093DB043093DC04CF93DF9300911F
:100D5C00D9041091DA042091DB043091DC043A932D
:100D6C002A931A930A9311EF1A930E945206DF9159
:100D7C00CF9108951DE00E949F651AE00E949F6527
:100D8C00089513E20E949F6510914202105D0E942B
:100D9C009F651AE30E949F65CF93DF9318E0412A69
:100DAC000FE915E61A930A930091D2041091D3041B
:100DBC00CF93DF931A930A9310E01A9310E01A93CF
:100DCC0010E21A93689443F8689445F8E89454F840
:100DDC0055F80E94FA69DF91CF91DF91CF911DE315
:100DEC000E949F650895CF93DF9318E0412A0FE985
:100DFC0015E61A930A93EBE8F4E00E94A967DF91D9
:100E0C00CF910E94C0060895229710E00FEF009337
:100E1C00D2041093D3040E94C7061A81103010E03C
:100E2C0009F01FEF112311F40C941F071DE20E940F
:100E3C009F65CF93DF9318E0412A0FE915E61A93CB
:100E4C000A931C81CF93DF931A9310E01A9310E04E
:100E5C001A9310E21A93689443F80E94C167DF91C9
:100E6C00CF91DF91CF9110E20E949F65CF93DF93DA
:100E7C0018E0412A0FE915E61A930A93E8E8FBED0E
:100E8C00EF93FF931C81012F1127ADE0B0E0E894A4
:100E9C0045F80E94D86AFF91EF91E00FF11F0E9474
:100EAC00A067DF91CF910E94C0060895E2E6F4E0BE
:100EBC00EF93FF933196FA93EA9318E21A9317EF94
:100ECC0041221FEB41220091D9041091DA042091A8
:100EDC00DB043091DC04CF93DF933A932A931A937B
:100EEC000A9310E01A9310E01A9310E21A93689484
:100EFC0045F8E89454F855F842F80E940168DF91DF
:100F0C00CF9118E21F9318810F91011B102FFF91A5
:100F1C00EF911083239608950E94C706CF93DF9319
:100F2C0018E0412A0FE915E61A930A93E2E6F4E079
:100F3C000E94A967DF91CF910E94C00608950E947C
:100F4C005C070E94920708950091D6041091D70473
:100F5C0017FF03C03FEF2FEF02C033272227009368
:100F6C00D9041093DA042093DB043093DC040E9440
:100F7C00A50708951091DF04012F11270093D604C3
:100F8C001093D7040E94AA0708950E94C7060E94D6
:100F9C005C07CF93DF9318E0412A0FE915E61A930B
:100FAC000A93E2E6F4E00E94A967DF91CF91CF9318
:100FBC00DF9318E0412A0FE915E61A930A93E3E947
:100FCC00F8ED0E94A067DF91CF91CF93DF9318E0EB
:100FDC00412A0FE915E61A930A93EBEAF4E00E9412
:100FEC00A967DF91CF911DE50E949F650E94C00605
:100FFC000895EBEAF4E0EF93FF933196FA93EA93BA
:10100C001FE11A9317EF41221FEB412214E20E94B9
:10101C00766A0091D9041091DA042091DB043091A6
:10102C00DC04B801C901492F0E94696A482F0E944B
:10103C00696A472F0E94696A462F0E94696A1FE1FC
:10104C001F9318810F91011B102FFF91EF911083AB
:10105C0023960E94CB0708951AEF109334021AEFCF
:10106C001093330210913E021093400210E0109343
:10107C00410208950E9470041F7E103010E009F0A8
:10108C001FEF112311F40C9466080E94C706CF932E
:10109C00DF9318E0412A0FE915E61A930A93E6E963
:1010AC00F8ED0E94A0671DE00E94766A1AE00E948B
:1010BC00766ADF91CF911FEF0C9469080C94690844
:1010CC0010E00C946908089522971AE314B91FE9EB
:1010DC0015B91091E4041B7F1093E404469815E0B5
:1010EC000E94F265469A10E0198310E00AE00E9413
:1010FC00E365FE0131961081139510831127379902
:10110C001FEF1F931981143610E011F008F01FEF38
:10111C000F91102B112311F40C947B081BEB14B9B9
:10112C001FE915B916E206EB0093D2041093D30411
:10113C000E94C706112737991FEF112311F40C9445
:10114C004209CF93DF9313E01A930E940506DF91B7
:10115C00CF911091F4041093FA041091F5041093AC
:10116C00FB041091F6041093F9041091F7041093FA
:10117C00F8040091F8041091F9042091FA043091CC
:10118C00FB0440E83427303A29F4243119F41031A7
:10119C0009F402321FEF08F011271883188111236C
:1011AC0011F40C94E908CF93DF9318E0412A0FE96E
:1011BC0015E61A930A93E8EAF8ED0E94A067DF910E
:1011CC00CF910C94F708CF93DF9318E0412A0FE9E5
:1011DC0015E61A930A93E5EBF8ED0E94A067DF91F0
:1011EC00CF91CF93DF9318E0412A0FE915E61A93BC
:1011FC000A930091F4041091F5042091F6043091B7
:10120C00F704689443F8B801C901492F0E94696A30
:10121C00482F0E94696A472F0E94696A462F0E94D4
:10122C00696ADF91CF911881112311F40C942E0966
:10123C00CF93DF9318E0412A0FE915E61A930A932E
:10124C00E0ECF8ED0E94A067DF91CF910C943C0983
:10125C00CF93DF9318E0412A0FE915E61A930A930E
:10126C00EEECF8ED0E94A067DF91CF910E94C006D2
:10127C000E946F060C945809CF93DF9318E0412A13
:10128C000FE915E61A930A93E3EDF8ED0E94A067B7
:10129C00DF91CF911091E40414601093E4040E9448
:1012AC00C006469808952497CF93DF930E946A084E
:1012BC00DF91CF911091E404103010E009F01FEF92
:1012CC00112311F40C94A309A091E504B091E60448
:1012DC001196A093E504B093E604109158041123E1
:1012EC0011F40C949909CF93DF9310E01A9310E04A
:1012FC001A9311E01A930E942A64DF91CF91CF9335
:10130C00DF9318E0412A04E014E61A930A93EFEEF7
:10131C00F8ED0E94A067DF91CF9111E004EF0E94DD
:10132C00E3650E943208CF93DF9317E01A930E9473
:10133C009234DF91CF910C947A0A1FEF1093EF0443
:10134C0010915804112311F40C94FE09CF93DF93E0
:10135C0013E01A930E940506DF91CF910091F404DB
:10136C001091F5042091F6043091F7043B832A8305
:10137C0019830883CF93DF9310E01A9310E01A932C
:10138C0011E01A930E942A64DF91CF91CF93DF93DF
:10139C0018E0412A04E014E61A930A93EDEFF8EDF5
:1013AC000E94A067DF91CF91CF93DF9318E0412A81
:1013BC0004E014E61A930A933D812C811B810A8167
:1013CC00689443F8B801C901492F0E94696A482FF3
:1013DC000E94696A472F0E94696A462F0E94696AB7
:1013EC00DF91CF9111E004EF0E94E3650E94320877
:1013FC0011271A991FEF1095112311F40C947A0AE6
:10140C00E8E0F0E0FA93EA9310E010831FEF1A93F0
:10141C001081088101171FEF08F01127112311F01B
:10142C000C94310ACF93DF9312E01A930E940506B5
:10143C00DF91CF91CF93DF9312E01A930E940506B0
:10144C00DF91CF91E981FA811081139510831123DB
:10145C0011F00C940F0A239611271A991FEF10956F
:10146C00112311F40C947A0A10E01093EF0410E09D
:10147C000FEF0093D2041093D30402E110E020E0AC
:10148C0030E00093D9041093DA042093DB043093FA
:10149C00DC04EBEAF4E0EF93FF933196FA93EA93D2
:1014AC001FE11A9317EF41221FEB4122E4E0F9ED03
:1014BC000E94A0671FE11F9318810F91011B102F31
:1014CC00FF91EF91108323960E94CB07CF93DF936C
:1014DC0019E01A930E949234DF91CF9111E004EF3E
:1014EC000E94E3650E9432080895EEEEF4E010E8E5
:1014FC001193EDEEF4E0EF93FF93109109051F5F4C
:10150C00FF91EF9111930E94570410910A051093CB
:10151C0000050E940F04EDEEF4E010910905119303
:10152C000E9457040895EEEEF4E010E81193EDEEEE
:10153C00F4E0EF93FF93109109051F5FFF91EF917A
:10154C0011930E94570410910A05109300050E94F4
:10155C000F04089510915804112311F40C94E60A09
:10156C0010E00E944264CF93DF9318E0412A04E01C
:10157C0014E61A930A93E2E1F9ED0E94A067DF9159
:10158C00CF91CF93DF9310E01A9310E01A9311E0F0
:10159C001A930E942A64DF91CF91CF93DF9318E0C6
:1015AC00412A04E014E61A930A93EBE1F9ED0E9448
:1015BC00A067DF91CF9110E00E944B640E9432082B
:1015CC00089510915804112311F40C94430B1FEF40
:1015DC0000913402002309F01095112311F40C949E
:1015EC00410BCF93DF9310E01A9310E01A9311E0A4
:1015FC001A930E942A64DF91CF91CF93DF9318E066
:10160C00412A04E014E61A930A93E4E2F9ED0E94ED
:10161C00A067DF91CF91CF93DF9318E0412A04E0CC
:10162C0014E61A930A930091E8041091E9042091AE
:10163C00EA043091EB04CF93DF933A932A931A93F5
:10164C000A9318E01A9300E00A9310E21A93689434
:10165C0043F8689445F8E89454F855F842F80E9419
:10166C000168DF91CF91DF91CF9110E00E944B6424
:10167C0012E3109334020C94470B10E002E00E942A
:10168C00E365089510915804112311F40C946A0B1E
:10169C00CF93DF9310E01A9310E01A9311E01A9392
:1016AC000E942A64DF91CF91CF93DF9318E0412AF7
:1016BC0004E014E61A930A93EDE2F9ED0E94A06798
:1016CC00DF91CF910E943208089510915804112394
:1016DC0011F40C948D0BCF93DF9310E01A9310E060
:1016EC001A9311E01A930E942A64DF91CF91CF9341
:1016FC00DF9318E0412A04E014E61A930A93E7E317
:10170C00F9ED0E94A067DF91CF910E9432080895F5
:10171C0065970E94C706CF93DF9318E0412A0FE923
:10172C0015E61A930A93EEE3F9ED0E94A0671DE00B
:10173C000E94766A1AE00E94766ADF91CF9110E0DF
:10174C001A8710E0188710E01C8B10E0198B1FEF24
:10175C00188B00E010E020E030E00093E8041093D8
:10176C00E9042093EA043093EB0410E000E01C87BA
:10177C000B870E94B00A10E000E01983088310E088
:10178C0000E01B830A83388D2F891E890D893F83C6
:10179C002E831D830C831A851095112311F40C9440
:1017AC00400C10E000E01C870B8711275A991FEFA3
:1017BC001095E894112309F068941BB112F91BB928
:1017CC00CF93DF93FE017496FA93EA9314E61A937F
:1017DC000E946865DF91CF911A871A85112311F445
:1017EC000C94110C1C89113010E009F41FEF1F939D
:1017FC001C89143010E009F41FEF0F91102B1123EA
:10180C0011F40C940F0C10E000E01C870B870C9467
:10181C00400C0C941B0C15E10E949F65FE013B963D
:10182C00A081B1811196A083B1831C89113010E085
:10183C0009F41FEF1F931C89143010E009F41FEFFB
:10184C000F91102B1F931C89183110E009F41FEF16
:10185C000F91102B1F930B851C85103009F404314C
:10186C0010E011F008F01FEF0F91102B112311F461
:10187C000C94E60B18851095112311F40C944A0C5A
:10188C000E94E70A1FEF18871C89113010E009F439
:10189C001FEF112311F40C947E0DCF93DF93FE01F7
:1018AC007396FA93EA9314E61A930E946865DF9193
:1018BC00CF9119871985112311F40C94780DCF93BE
:1018CC00DF93FE017296FA93EA931AE01A930E9440
:1018DC006865DF91CF9119871B890FEF011B102FC2
:1018EC001F931A890F91011710E009F41FEF1123B0
:1018FC0011F40C94760D10E0198BE8E0F0E0FA93FB
:10190C00EA9310E010831FE71A93108108810117E6
:10191C001FEF08F01127112311F00C94BC0CCF937E
:10192C00DF93EAE0F0E0FA93EA931AE01A930E944C
:10193C006865DF91CF911C871C891F931A2D0F911D
:10194C00100F1C8B182D1F931A2DE0E0FFE0AF91A8
:10195C00AF7FBB27EA0FFB1F1083E981FA8110814F
:10196C0013951083112311F00C948C0C2396CF93A8
:10197C00DF93FE017096FA93EA931AE01A930E9491
:10198C006865DF91CF911987CF93DF933F812E81CB
:10199C001D810C813A932A931A930A9310E000E864
:1019AC001A930A930E941D05DF91CF911095112374
:1019BC0011F40C94E80CFE013296A081B1811196C1
:1019CC00A083B183CF93DF933F812E811D810C8146
:1019DC003A932A931A930A9310E000E81A930A9305
:1019EC001FEF1A930E949005DF91CF91E8E0F0E091
:1019FC00FA93EA9310E010831FE71A931081088181
:101A0C0001171FEF08F01127112311F00C94380D5A
:101A1C00182DE0E0FEE01F7F0027E10FF01F108182
:101A2C001F93182DE0E0FFE01F7F0027E10FF01F50
:101A3C0010810F91011710E009F01FEF112311F421
:101A4C000C942F0DFE013396A081B1811196A083C9
:101A5C00B183E981FA81108113951083112311F060
:101A6C000C94050D239619891F9318890F91011752
:101A7C0010E009F41FEF112311F40C946C0D16E017
:101A8C000E949F653F812E811D810C8100581F4F44
:101A9C002F4F3F4F3F832E831D830C830091E8040F
:101AAC001091E9042091EA043091EB0400581F4F87
:101ABC002F4F3F4F0093E8041093E9042093EA045E
:101ACC003093EB040E94E70A0C94760DFE013B96D2
:101ADC00A081B1811196A083B18315E10E949F650D
:101AEC000C947C0D10E00FEF1C870B8710E01C8B07
:101AFC0010E01A871C89143010E009F41FEF1F93B3
:101B0C001C89183110E009F41FEF0F91102B1F9353
:101B1C000B851C85103009F4043110E011F008F02D
:101B2C001FEF0F91102B112311F40C94D10B16E015
:101B3C000E949F6518891F9319890F91011710E056
:101B4C0009F01FEF112311F40C94D20D0FEF1FEFBE
:101B5C002FEF3FEF0093D9041093DA042093DB04AA
:101B6C003093DC040E94C706CF93DF9318E0412A20
:101B7C000FE915E61A930A93E1E5F9ED0E94A067C7
:101B8C001DE00E94766A1AE00E94766ADF91CF917E
:101B9C000E94480B0C94E40D0091E8041091E904A8
:101BAC002091EA043091EB040093D9041093DA04E9
:101BBC002093DB043093DC040E94E70A088119812E
:101BCC00103009F4003010E009F01FEF112311F46C
:101BDC000C94460E0FEF1FEF2FEF3FEF0093D9043D
:101BEC001093DA042093DB043093DC040E94C706C4
:101BFC00CF93DF9318E0412A0FE915E61A930A9365
:101C0C00E9E6F9ED0E94A067DF91CF91CF93DF93C6
:101C1C0018E0412A0FE915E61A930A930A811B81F1
:101C2C00CF93DF931A930A9310E01A9310E01A9350
:101C3C0010E21A93689443F8E89445F8E89454F841
:101C4C0055F80E94FA69DF91CF91DF91CF91CF9334
:101C5C00DF9318E0412A0FE915E61A930A93EAE795
:101C6C00F9ED0E94A0671DE00E94766A1AE00E94BE
:101C7C00766ADF91CF911AEF109334020E946B0BAE
:101C8C000A811B81103009F4003010E009F01FEFBD
:101C9C00112311F40C94A80E0FEF1FEF2FEF3FEF51
:101CAC000093D9041093DA042093DB043093DC0402
:101CBC000E94C706CF93DF9318E0412A0FE915E67F
:101CCC001A930A93E3E8F9ED0E94A067DF91CF9194
:101CDC00CF93DF9318E0412A0FE915E61A930A9384
:101CEC000C811D81CF93DF931A930A9310E01A9302
:101CFC0010E01A9310E21A93689443F8E89445F8AC
:101D0C00E89454F855F80E94FA69DF91CF91DF916D
:101D1C00CF91CF93DF9318E0412A0FE915E61A9380
:101D2C000A93EAE7F9ED0E94A0671DE00E94766A2B
:101D3C001AE00E94766ADF91CF911AEF1093340269
:101D4C000E946B0B08952297CF93DF9312E01A93A6
:101D5C000E940506DF91CF9111271A991FEF1123CD
:101D6C0011F40C94AA0E0E94C7061091F6041A3AAC
:101D7C0010E009F41FEF112311F40C94CC0FCF9346
:101D8C00DF9318E0412A0FE915E61A930A93109194
:101D9C000A05CF93DF931A9310E01A9310E01A936D
:101DAC0010E21A93689443F80E94C167DF91CF91B7
:101DBC00DF91CF91CF93DF9318E0412A0FE915E61D
:101DCC001A930A93E3E9F9ED0E94A067DF91CF9192
:101DDC001091F404103511F00C94040FCF93DF9391
:101DEC0018E0412A0FE915E61A930A93ECE9F9ED8C
:101DFC000E94A067DF91CF910C949B0F113511F0CD
:101E0C000C94180FCF93DF9318E0412A0FE915E6D5
:101E1C001A930A93E3EAF9ED0E94A067DF91CF9140
:101E2C000C949B0F123511F00C942C0FCF93DF9365
:101E3C0018E0412A0FE915E61A930A93E9EAF9ED3D
:101E4C000E94A067DF91CF910C949B0F133511F07A
:101E5C000C94400FCF93DF9318E0412A0FE915E65D
:101E6C001A930A93EEEAF9ED0E94A067DF91CF91E5
:101E7C000C949B0F143511F00C94540FCF93DF93EB
:101E8C0018E0412A0FE915E61A930A93E7EBF9EDEE
:101E9C000E94A067DF91CF910C949B0F183511F025
:101EAC000C94680FCF93DF9318E0412A0FE915E6E5
:101EBC001A930A93EEEBF9ED0E94A067DF91CF9194
:101ECC000C949B0F1F3511F00C947C0FCF93DF9368
:101EDC0018E0412A0FE915E61A930A93E3ECF9EDA1
:101EEC000E94A067DF91CF910C949B0FCF93DF934F
:101EFC0018E0412A0FE915E61A930A93EBECF9ED79
:101F0C000E94A067DF91CF91CF93DF9318E0412A15
:101F1C000FE915E61A930A931091F404689443F8A8
:101F2C00412F0E94696ADF91CF91CF93DF9318E024
:101F3C00412A0FE915E61A930A93E5EDF9ED0E9493
:101F4C00A067DF91CF91CF93DF9318E0412A0FE97F
:101F5C0015E61A930A931091F504689443F8412FEF
:101F6C000E94696ADF91CF91CF93DF9318E0412AE9
:101F7C000FE915E61A930A93EEECF8ED0E94A067B0
:101F8C00DF91CF910E94C0060C94DC0FCF93DF93AE
:101F9C0018E0412A0FE915E61A930A93ECEDF9EDD6
:101FAC000E94A067DF91CF910E94C00608952597EB
:101FBC001E81145510930A050E947B0A1E81012F65
:101FCC0011273327222740E050E160E070E068944D
:101FDC0045F80E94346B3C832B831A83098300E001
:101FEC0010E020E030E00093E8041093E904209323
:101FFC00EA043093EB04E8E0F0E0FA93EA9310E0A3
:10200C0010831FE01A931081088101171FEF08F04D
:10201C001127112311F00C94C310CF93DF933F8140
:10202C002E811D810C813A932A931A930A9311E005
:10203C0000E01A930A9310E01A930E949005DF9126
:10204C00CF911885112311F40C946110EAE0F0E0A3
:10205C00FA93EA9310E010831FEF1A931081088112
:10206C0001171FEF08F01127112311F00C946010C9
:10207C001A2DE0E0FFE01F7F0027E10FF01F108119
:10208C001E83CF93DF9318E0412A0FE915E61A93CC
:10209C000A931885689443F8412F0E94696ADF916E
:1020AC00CF91E981FA81108113951083112311F0DE
:1020BC000C9435102396EAE0F0E0FA93EA9310E0E2
:1020CC0010831FE31A931081088101171FEF08F08A
:1020DC001127112311F00C949910E0E0FFE0EF931D
:1020EC00FF931A2D012F1127000F111F000F111F25
:1020FC00FF91EF91E00FF11F01911191219131911D
:10210C000093F0041093F1042093F2043093F30441
:10211C000E943004E981FA811081139510831123F8
:10212C0011F00C946A1023963F812E811D810C8135
:10213C0000501F4F2F4F3F4F3F832E831D830C8327
:10214C000091E8041091E9042091EA043091EB0429
:10215C0000501F4F2F4F3F4F0093E8041093E9049A
:10216C002093EA043093EB04E981FA8110811395F2
:10217C001083112311F00C940A1023960E94990AD3
:10218C001AEF109334020091E8041091E9042091A5
:10219C00EA043091EB040093D9041093DA042093F1
:1021AC00DB043093DC041FEF10933B0410E002E3DC
:1021BC000E94E365CF93DF930E94A90EDF91CF912C
:1021CC0008952D970E94C706CF93DF9318E0412AFC
:1021DC000FE915E61A930A931F85CF93DF931A9391
:1021EC0010E01A9310E01A9310E21A93689443F8D3
:1021FC000E94C167DF91CF91DF91CF91CF93DF9395
:10220C0018E0412A0FE915E61A930A93E0EFF9ED6D
:10221C000E94A067DF91CF91CF93DF9310E01A93C8
:10222C0018E41A930E941E06DF91CF9110E004E689
:10223C000E94E3651D851C5A012F11273327222785
:10224C0040E050E160E070E0689445F80E94346B27
:10225C003C872B871A87098710E000E018870F83CB
:10226C0010E000E019830883E8E0F0E0FA93EA93C9
:10227C0010E010831FE01A931081088101171FEFE3
:10228C0008F01127112311F00C943E12CF93DF9319
:10229C003F852E851D850C853A932A931A930A93B4
:1022AC0011E000E01A930A9310E01A930E94900533
:1022BC00DF91CF9110E000E01E830D8310E000E071
:1022CC001C830B830A851B8519870887EAE0F0E0DD
:1022DC00FA93EA9310E0108317E01A9310810881A7
:1022EC0001171FEF08F01127112311F00C94B311F3
:1022FC00CF93DF9310E51A930E851F851A930A93DB
:10230C001FE000E00F931F930B851C853F912F91CD
:10231C00020F131F1A930A9310E000E21A930A9308
:10232C000E943565DF91CF9110E00AE00E94E365D1
:10233C0008851985005E1F4F198708870D851E8536
:10234C00005E1F4F1E870D87E981FA81108113955E
:10235C001083112311F00C947511239610E51F9323
:10236C00088519851F93E89440F808851985102F66
:10237C00E6E1F0E0612FA1E0B0E03F914F9150E039
:10238C000E943F65CF93DF9310E51A931EE000E0A7
:10239C001A930A9311E000E01A930A930E942165A4
:1023AC00DF91CF91EAE0F0E0FA93EA9310E010832A
:1023BC001FEF1A931081088101171FEF08F01127E6
:1023CC00112311F00C9414121A2DE0E0FFE01F7F82
:1023DC000027E10FF01F10811F931A2DE0E0FEE0A3
:1023EC001F7F0027E10FF01F10810F91011710E0E4
:1023FC0009F01FEF112311F40C940B12FE01369609
:10240C00A081B1811196A083B183E981FA811081F9
:10241C0013951083112311F00C94E11123960B8169
:10242C001C81103009F4003010E009F41FEF112367
:10243C0011F40C9426121EE20E949F650C94291232
:10244C0013E20E949F653F852E851D850C850050EB
:10245C001F4F2F4F3F4F3F872E871D870C87E981DA
:10246C00FA81108113951083112311F00C944311F0
:10247C002396CF93DF9318E0412A0FE915E61A93C0
:10248C000A931DE50E94766A1DE00E94766A1AE0A6
:10249C000E94766ADF91CF911AEF1093340200916B
:1024AC00E8041091E9042091EA043091EB040093C4
:1024BC00D9041093DA042093DB043093DC041FEF6F
:1024CC0010933B0408811981103009F4003010E09E
:1024DC0009F01FEF112311F40C94B9120E94C706D6
:1024EC00CF93DF9318E0412A0FE915E61A930A936C
:1024FC00ECE0FAED0E94A067DF91CF91CF93DF93D0
:10250C0018E0412A0FE915E61A930A930A811B81F8
:10251C00CF93DF931A930A9310E01A9310E01A9357
:10252C0010E21A93689443F8E89445F8E89454F848
:10253C0055F80E94FA69DF91CF91DF91CF91CF933B
:10254C00DF9318E0412A0FE915E61A930A93EAE79C
:10255C00F9ED0E94A0671DE00E94766A1AE00E94C5
:10256C00766ADF91CF9108951091E903103010E055
:10257C0009F01FEF112311F40C94DE12CF93DF93AB
:10258C001091E80310541F9319810F91100F1A9397
:10259C001CE01A930E941E06DF91CF91CF93DF931C
:1025AC0018811A931CE01A930E941E06DF91CF919A
:1025BC00089521971091E903103010E009F01FEFF6
:1025CC00112311F40C942E131A81E6E2F3E01F7719
:1025DC000027E10FF01F1081188318811F931981B8
:1025EC000F91011710E009F01FEF112311F40C9457
:1025FC002E13CF93DF931091E80310551F931B817B
:10260C000F91100F1A931CE01A930E941E06DF9173
:10261C00CF91CF93DF931A811A931CE01A930E94E7
:10262C001E06DF91CF91CF93DF9319811A931CE093
:10263C001A930E941E06DF91CF911A811F93198164
:10264C00E6E2F3E0AF91AF77BB27EA0FFB1F1083F5
:10265C000895CF93DF9310E01A931A811A931A817D
:10266C0016951A930E94DF12DF91CF91089521974E
:10267C0010E018830091AE03112704FD1FEF112306
:10268C0011F40C944D13FE011081139510830091DD
:10269C00AE03112705FD1FEF112311F40C945E13EB
:1026AC00FE01108113951083FE0110811395108388
:1026BC00CF93DF9318811A931EE41A930E941E067F
:1026CC00DF91CF911091D103103011F00C94701355
:1026DC000C947A13123011F00C9476130C947A1328
:1026EC00143011F00C949013CF93DF931FEF1A93C7
:1026FC001BE41A930E941E06DF91CF91CF93DF93B8
:10270C0010E01A931CE41A930E941E06DF91CF91DD
:10271C000C94B813113011F00C9496130C94A01364
:10272C00133011F00C949C130C94A013153011F071
:10273C000C94B813CF93DF931091F6031A931BE408
:10274C001A930E941E06DF91CF91CF93DF931091C5
:10275C00F5031A931CE41A930E941E06DF91CF9185
:10276C000C94B8131091D103103011F00C94C013C9
:10277C000C94C413113011F00C94DC13CF93DF9331
:10278C001091EF031A931DE41A930E941E06DF9119
:10279C00CF91CF93DF931091F0031A931AE41A930D
:1027AC000E941E06DF91CF910C942014123011F070
:1027BC000C94E2130C94E613133011F00C94FE13EA
:1027CC00CF93DF931091F1031A931DE41A930E9497
:1027DC001E06DF91CF91CF93DF931091F2031A93E2
:1027EC001AE41A930E941E06DF91CF910C942014C8
:1027FC00143011F00C9404140C940814153011F0CE
:10280C000C942014CF93DF931091F3031A931DE4CF
:10281C001A930E941E06DF91CF91CF93DF931091F4
:10282C00F4031A931AE41A930E941E06DF91CF91B7
:10283C000C942014089524970091AE03112700FDE9
:10284C001FEF1F930091AE03112701FD1FEF109591
:10285C000F9110231883E8E0F0E0FA93EA9310E06C
:10286C00108317E01A931081088101171FEF08F0ED
:10287C001127112311F00C948414E8ECF3E0EF937E
:10288C00FF93182D012F1127FF91EF91E00FF11FEE
:10289C0011911C83CF93DF9310E01A93182D145FC2
:1028AC001A931E811A930E94DF12DF91CF911B8124
:1028BC00112311F40C947014CF93DF931C811A9391
:1028CC001091FB031A931FEF1A930E94C165DF91BD
:1028DC00CF911C83CF93DF931C811A93182D105F1B
:1028EC001A930E941E06DF91CF91E981FA81108123
:1028FC0013951083112311F00C943A142396CF9353
:10290C00DF9310E01A9314E11A931091D0031A93E9
:10291C000E94DF12DF91CF910091AE03112700FDD1
:10292C001FEF1F9310910E0310950F91102311237D
:10293C0011F40C9439151091FF03112311F40C941C
:10294C00B314CF93DF9310E01A9318E11A930E94FB
:10295C001E06DF91CF910C94D6141881112311F41B
:10296C000C94C914CF93DF931091D0031A93109148
:10297C00FB031A931FEF1A930E94C165DF91CF914D
:10298C0019830C94CC141091D0031983CF93DF933B
:10299C0019811A9318E11A930E941E06DF91CF91A8
:1029AC000091AE03112703FD1FEF112311F40C94BA
:1029BC00EB14CF93DF9311E01A931BE11A930E944F
:1029CC001E06DF91CF910C94F514CF93DF9310E09A
:1029DC001A931BE11A930E941E06DF91CF9100916E
:1029EC00AE03112701FD1FEF112311F40C940B15ED
:1029FC00CF93DF931091F8031A931AE11A930E9464
:102A0C001E06DF91CF910C941615CF93DF93109186
:102A1C00F7031A931AE11A930E941E06DF91CF91C5
:102A2C000091AE03112702FD1FEF112311F40C943A
:102A3C002C15CF93DF931091FA031A9319E11A9383
:102A4C000E941E06DF91CF910C943715CF93DF9324
:102A5C001091F9031A9319E11A930E941E06DF9143
:102A6C00CF910C9450151091D0031983CF93DF9311
:102A7C0019811A9318E11A930E941E06DF91CF91C7
:102A8C00CF93DF9310E01A931AE11A930E941E065B
:102A9C00DF91CF9108952197E8E0F0E0FA93EA9363
:102AAC0010E0108318E01A931081088101171FEFB2
:102ABC0008F01127112311F00C949215E7EDF3E0B7
:102ACC00EF93FF93182D012F1127FF91EF91E00F3A
:102ADC00F11F11911B83CF93DF931B811A93182D38
:102AEC00105E1A930E941E06DF91CF91CF93DF9355
:102AFC0010E01A93182D1B5E1A931D811A930E94D5
:102B0C00DF12DF91CF91E981FA8110811395108347
:102B1C00112311F00C945B15239608952197CF93F4
:102B2C00DF9310E01A9311E21A931091E0031A93B9
:102B3C000E94DF12DF91CF91CF93DF9310E01A93B5
:102B4C0012E21A931091E1031A930E94DF12DF91A3
:102B5C00CF91CF93DF9310E01A9313E21A93109155
:102B6C00E2031A930E94DF12DF91CF911091E003E0
:102B7C0016951883CF93DF931091E0031F93188160
:102B8C000F91100F1A9319E21A930E941E06DF91EF
:102B9C00CF911091E10316951883CF93DF93109189
:102BAC00E1031F9318810F91100F1A931AE21A93D5
:102BBC000E941E06DF91CF911091E20316951883A7
:102BCC00CF93DF931091E2031F9318810F91100F95
:102BDC001A931BE21A930E941E06DF91CF91CF939A
:102BEC00DF9310E01A931BE41A931091E3031695EC
:102BFC001A930E94DF12DF91CF911091E303169587
:102C0C00EBE5F3EE1F730027E10FF01F149118830F
:102C1C00CF93DF9318811A931FE01A930E941E061C
:102C2C00DF91CF91CF93DF931091EB031A9316E0C2
:102C3C001A930E941E06DF91CF91CF93DF931091D0
:102C4C001A041A9318E01A930E941E06DF91CF9172
:102C5C00CF93DF930091C003112707FD1FEF117075
:102C6C001A9317E01A930E941E06DF91CF910091E0
:102C7C00C003112706FD1FEF112311F40C944B1602
:102C8C001091EE0318830C944E161091ED031883DB
:102C9C00CF93DF9318811A9313EB1A930E941E069D
:102CAC00DF91CF91089521971091E703137018606D
:102CBC001883CF93DF9318811A9318E41A930E9408
:102CCC001E06DF91CF911091E7031370110F110FB6
:102CDC00110F1883CF93DF93188110561A9315E4B4
:102CEC001A930E941E06DF91CF911091E7031030CA
:102CFC0010E009F41FEF112311F40C949B16CF93E1
:102D0C00DF9310E01A9316E41A930E941E06DF91CB
:102D1C00CF91CF93DF9310E01A9317E41A930E948C
:102D2C001E06DF91CF910C94BE16E6E0F4E0EF9313
:102D3C00FF931091E7031150012F1127FF91EF9191
:102D4C00E00FF11F11911883CF93DF9318811A9321
:102D5C0016E41A930E941E06DF91CF91CF93DF9356
:102D6C0018811A9317E41A930E941E06DF91CF91D3
:102D7C0010E010933C0408952297CF93DF931091A9
:102D8C00E8031A9314E01A930E941E06DF91CF9168
:102D9C00CF93DF931091E9031A9315E01A930E94D5
:102DAC001E06DF91CF91CF93DF931091EB031A9313
:102DBC0016E01A930E941E06DF91CF91CF93DF93FA
:102DCC0010911A041A9318E01A930E941E06DF91B0
:102DDC00CF9110910404110F110F110F110F1F93AC
:102DEC00109105041F700F91102B1983CF93DF9353
:102DFC0019811A9319E01A930E941E06DF91CF9144
:102E0C00109100041F931091FE03110F110F110F5D
:102E1C00110F0F91102B1983CF93DF9319811A93F4
:102E2C001AE01A930E941E06DF91CF911091FC03B9
:102E3C001F931091FD0326E00E94B56A0F91102B91
:102E4C0019831091FE03103010E011F008F01FEF01
:102E5C001F931091FD03113010E011F008F01FEFDB
:102E6C000F91102B112311F40C943F171981106240
:102E7C001983CF93DF9319811A931BE01A930E9445
:102E8C001E06DF91CF91CF93DF931091EC031A9331
:102E9C001DE01A930E941E06DF91CF91CF93DF9312
:102EAC00109103041A9319E41A930E941E06DF91E1
:102EBC00CF91CF93DF9318EC1A931FE41A930E94CF
:102ECC001E06DF91CF9110E010933B0408952297DA
:102EDC0010E01883E8E0F0E0FA93EA9310E0108336
:102EEC0018E01A931081088101171FEF08F01127C1
:102EFC00112311F00C94CC171D811F93182DE5EAAA
:102F0C00F2E01F700027E10FF01F10810F91102BC2
:102F1C00112311F40C94C317182DE5E6F2E01F7081
:102F2C000027E10FF01F108116951C83E8ECF3E0ED
:102F3C00EF93FF93182D012F1127FF91EF91E00FC5
:102F4C00F11FEF93FF931C81FF91EF911193182DBB
:102F5C001F9310E0E5EAF2E0AF91AF70BB27EA0FE8
:102F6C00FB1F10831FEF1B831D811095112311F480
:102F7C000C94C3171DE010934002E981FA81108173
:102F8C0013951083112311F00C9479172396188143
:102F9C00112311F40C94D817CF93DF930E942114B2
:102FAC00DF91CF910895229710E01883E8E0F0E0CC
:102FBC00FA93EA9310E0108318E01A9310810881B9
:102FCC0001171FEF08F01127112311F00C9438187A
:102FDC001D811F93182DE1EBF2E01F700027E10F0C
:102FEC00F01F10810F91102B112311F40C942F183A
:102FFC00182DE1E7F2E01F700027E10FF01F1081A0
:10300C0016951C83E7EDF3E0EF93FF93182D012F3A
:10301C001127FF91EF91E00FF11FEF93FF931C81AC
:10302C00FF91EF911193182D1F9310E0E1EBF2E05B
:10303C00AF91AF70BB27EA0FFB1F10831FEF1B83F1
:10304C001D811095112311F40C942F181EE0109370
:10305C004002E981FA81108113951083112311F03C
:10306C000C94E51723961881112311F40C94441831
:10307C00CF93DF930E945115DF91CF910895229742
:10308C001A811F931091BA020F91102B112311F476
:10309C000C94681810917A02169519831981109363
:1030AC00E0031091E00316951093E10310E01093E8
:1030BC00BA02CF93DF930E949415DF91CF911EE05B
:1030CC00109340021A811F931091BB020F91102B89
:1030DC00112311F40C94851810917B021695198309
:1030EC0019811093E20310E01093BB02CF93DF938E
:1030FC000E949415DF91CF911EE0109340021A812B
:10310C001F931091BC020F91102B112311F40C94EE
:10311C00A01810917C0216951093E30310E0109305
:10312C00BC02CF93DF930E949415DF91CF911CE1E9
:10313C0010934002089521971091C503112311F4A7
:10314C000C94EA1810E01093C5031AE01093400297
:10315C001FEF10930B031091D103169500E30E94FF
:10316C00BF6A115E1883CF93DF9310E01A931AE4B1
:10317C001A931A811A930E94DF12DF91CF9110914A
:10318C00D1031170113010E009F41FEF112311F469
:10319C000C94DE18CF93DF9310E01A9319E41A9372
:1031AC001FE31A930E94DF12DF91CF910C94EA185F
:1031BC00CF93DF9310E01A9319E41A931FE71A9335
:1031CC000E94DF12DF91CF91CF93DF930E943D13CA
:1031DC00DF91CF91089523971091C3031F93109102
:1031EC00C4030F91102B103010E009F41FEF1123C2
:1031FC0011F40C9403190C943F1A0091C30311277A
:10320C0000FD1FEF112311F40C942319CF93DF93BE
:10321C000E942114DF91CF911CE010934002CF93B8
:10322C00DF9312E41A930091AE03112700FD1FEFF8
:10323C001A930E942F13DF91CF910091C303112792
:10324C0001FD1FEF112311F40C944319CF93DF935D
:10325C000E942114DF91CF911CE010934002CF9378
:10326C00DF9316E41A930091AE03112701FD1FEFB3
:10327C001A930E942F13DF91CF910091C303112752
:10328C0002FD1FEF112311F40C946319CF93DF93FC
:10329C000E942114DF91CF911CE010934002CF9338
:1032AC00DF9317E41A930091AE03112702FD1FEF71
:1032BC001A930E942F13DF91CF910091C303112712
:1032CC0003FD1FEF112311F40C948319CF93DF939B
:1032DC000E942114DF91CF911CE010934002CF93F8
:1032EC00DF9318E41A930091AE03112703FD1FEF2F
:1032FC001A930E942F13DF91CF910091C3031127D2
:10330C0004FD1FEF112311F40C94A619CF93DF9336
:10331C000E943D13DF91CF911FEF10930B031BE025
:10332C0010934002CF93DF931FE11A930091AE03E9
:10333C00112704FD1FEF1A930E942F13DF91CF91D9
:10334C000091C303112705FD1FEF112311F40C94F9
:10335C00C919CF93DF930E943D13DF91CF911FEFDB
:10336C0010930B031FE010934002CF93DF931EE1E9
:10337C001A930091AE03112705FD1FEF1A930E94BB
:10338C002F13DF91CF910091C403112704FD1FEF80
:10339C001F930091C403112705FD1FEF0F91102BF4
:1033AC001F9310913C040F91102B112311F40C94CA
:1033BC00071A10E01093E7030091C003112704FDD6
:1033CC001FEF112311F40C94F0191091E7031395CE
:1033DC001093E7030091C003112705FD1FEF112384
:1033EC0011F40C94FE191091E7031E5F1093E70380
:1033FC00CF93DF930E945916DF91CF9110E2109377
:10340C0040020091C403112706FD1FEF112311F494
:10341C000C94201A0091C003112706FD1FEF109386
:10342C00E403CF93DF930E949415DF91CF911DE1BC
:10343C00109340020091C403112707FD1FEF1123C5
:10344C0011F40C94391A0091C003112707FD1FEFDA
:10345C001093E503CF93DF930E949415DF91CF91E6
:10346C001EE11093400210E01093C30310E0109380
:10347C00C4030895E5EAF0E0EF93FF931881012F60
:10348C001127A0E1B0E0E89445F80E94D86A075FE4
:10349C001F4FFF91EF91E00FF11F0E942C661093CC
:1034AC00D1031091AE0310721F93E5EAF0E0EF9395
:1034BC00FF931881012F1127A0E1B0E0E89445F8A3
:1034CC000E94D86A065F1F4FFF91EF91E00FF11F2A
:1034DC000E942C661F7D0F91102B1093AE031FEDD5
:1034EC001093C30310E00AE00E94E3650895E8E03E
:1034FC00F0E0FA93EA9310E0108318E01A9310812D
:10350C00088101171FEF08F01127112311F00C94FB
:10351C00CF1AE8ECF3E0EF93FF93182D012F11274E
:10352C00FF91EF91E00FF11FEF93FF93E5EAF0E0CD
:10353C00EF93FF931B81012F1127A0E1B0E0E894DA
:10354C0045F80E94D86A0F931F93182D012F11274D
:10355C003F912F91020F131FFF91EF91E00FF11F7D
:10356C000E942C66FF91EF911193182D1F9319E077
:10357C00E5E8F2E0AF91AF70BB27EA0FFB1F1083B9
:10358C00E981FA81108113951083112311F00C94A9
:10359C00861A239610E00AE00E94E36508951881CC
:1035AC001F701883E5EAF0E0EF93FF931881012F69
:1035BC001127A0E1B0E0E89445F80E94D86A075FB3
:1035CC001F4FFF91EF91E00FF11F1091D1030E945B
:1035DC000A66E5EAF0E0EF93FF931881012F1127BB
:1035EC00A0E1B0E0E89445F80E94D86A065F1F4F4E
:1035FC00FF91EF91E00FF11FEF93FF931091AE034A
:10360C001F7DFF91EF910E940A660895CF93DF937F
:10361C001FEF1A930E947E34DF91CF9118811F7097
:10362C001883E8E0F0E0FA93EA9310E0108318E0D6
:10363C001A931081088101171FEF08F0112711232D
:10364C0011F00C945E1BE5EAF0E0EF93FF931B8105
:10365C00012F1127A0E1B0E0E89445F80E94D86A48
:10366C000F931F93182D012F11273F912F91020FAC
:10367C00131FFF91EF91E00FF11FEF93FF93E8EC15
:10368C00F3E0EF93FF93182D012F1127FF91EF918A
:10369C00E00FF11F1191FF91EF910E940A66E981F1
:1036AC00FA81108113951083112311F00C94201BB7
:1036BC002396CF93DF9310E01A930E947E34DF9110
:1036CC00CF910E9432081DE0109340020895E8E06B
:1036DC00F0E0FA93EA9310E010831CE01A93108147
:1036EC00088101171FEF08F01127112311F00C941A
:1036FC00BF1BE7EDF3E0EF93FF93182D012F11277C
:10370C00FF91EF91E00FF11FEF93FF93E5EAF1E0EA
:10371C00EF93FF931B81012F1127A0E1B0E0E894F8
:10372C0045F80E94D86A0F931F93182D012F11276B
:10373C003F912F91020F131FFF91EF91E00FF11F9B
:10374C000E942C66FF91EF911193182D1F9319E095
:10375C00E1E9F2E0AF91AF70BB27EA0FFB1F1083DA
:10376C00E981FA81108113951083112311F00C94C7
:10377C00761B23961091AE031F7D1F93E5EAF1E0B3
:10378C00EF93FF931881012F1127A0E1B0E0E8948B
:10379C0045F80E94D86A035F1F4FFF91EF91E00F2D
:1037AC00F11F0E942C6610720F91102B1093AE0318
:1037BC0010E21093C3030895E8E0F0E0FA93EA9363
:1037CC0010E0108318E01A931081088101171FEF85
:1037DC0008F01127112311F00C94341CE7EDF3E0E1
:1037EC00EF93FF93182D012F1127FF91EF91E00F0D
:1037FC00F11FEF93FF93E5EAF1E0EF93FF931B8149
:10380C00012F1127A0E1B0E0E89445F80E94D86A96
:10381C000F931F93182D012F11273F912F91020FFA
:10382C00131FFF91EF91E00FF11F0E942C66FF9187
:10383C00EF911193182D1F9319E0E1E9F2E0AF918C
:10384C00AF70BB27EA0FFB1F1083E981FA8110814F
:10385C0013951083112311F00C94EB1B23960895F0
:10386C0018811F701883E8E0F0E0FA93EA9310E0F7
:10387C0010831CE01A931081088101171FEF08F0C8
:10388C001127112311F00C94801CE5EAF1E0EF9361
:10389C00FF931B81012F1127A0E1B0E0E89445F8BC
:1038AC000E94D86A0F931F93182D012F11273F9157
:1038BC002F91020F131FFF91EF91E00FF11FEF9368
:1038CC00FF93E7EDF3E0EF93FF93182D012F1127F2
:1038DC00FF91EF91E00FF11F1191FF91EF910E9479
:1038EC000A66E981FA81108113951083112311F076
:1038FC000C94421C2396E5EAF1E0EF93FF931881B8
:10390C00012F1127A0E1B0E0E89445F80E94D86A95
:10391C00035F1F4FFF91EF91E00FF11FEF93FF93A8
:10392C001091AE031072FF91EF910E940A660895F8
:10393C00CF93DF931FEF1A930E947E34DF91CF91C8
:10394C0018811F701883E8E0F0E0FA93EA9310E016
:10395C00108318E01A931081088101171FEF08F0EB
:10396C001127112311F00C94F01CE5EAF1E0EF9310
:10397C00FF931B81012F1127A0E1B0E0E89445F8DB
:10398C000E94D86A0F931F93182D012F11273F9176
:10399C002F91020F131FFF91EF91E00FF11FEF9387
:1039AC00FF93E7EDF3E0EF93FF93182D012F112711
:1039BC00FF91EF91E00FF11F1191FF91EF910E9498
:1039CC000A66E981FA81108113951083112311F095
:1039DC000C94B21C2396CF93DF9310E01A930E94A1
:1039EC007E34DF91CF910E9432081EE0109340028A
:1039FC0008951881103010E009F01FEF112311F415
:103A0C000C94B01DCF93DF931FEF1A930E947E345A
:103A1C00DF91CF91188110933604188110933504DF
:103A2C00CF93DF9318811A930E940C1BDF91CF91D7
:103A3C00CF93DF9318811A930E94D51ADF91CF91FF
:103A4C00E5EAF0E0EF93FF931881012F1127A0E135
:103A5C00B0E0E89445F80E94D86A055F1F4FFF91CB
:103A6C00EF91E00FF11F109101040E940A66E5EA44
:103A7C00F0E0EF93FF931881012F1127A0E1B0E044
:103A8C00E89445F80E94D86A045F1F4FFF91EF91AC
:103A9C00E00FF11F1091E6030E940A66CF93DF93AB
:103AAC0018811A930E949E1CDF91CF91CF93DF93C4
:103ABC0018811A930E94361CDF91CF91E5EAF1E050
:103ACC00EF93FF931881012F1127A0E1B0E0E89448
:103ADC0045F80E94D86A025F1F4FFF91EF91E00FEB
:103AEC00F11FEF93FF931091C003107FFF91EF91A3
:103AFC000E940A66E5EAF1E0EF93FF931881012F2B
:103B0C001127A0E1B0E0E89445F80E94D86A015F63
:103B1C001F4FFF91EF91E00FF11FEF93FF93109167
:103B2C001A04110F110F1F931091EB0313700F91C7
:103B3C00102BFF91EF910E940A660E9432081DE043
:103B4C0010934002CF93DF9310E01A930E947E34BF
:103B5C00DF91CF9108951881103010E009F01FEF1C
:103B6C00112311F40C94661E1881109336041881DD
:103B7C0010933504CF93DF9318811A930E947D1A0A
:103B8C00DF91CF91CF93DF9318811A930E94401A43
:103B9C00DF91CF91E5EAF0E0EF93FF931881012FCD
:103BAC001127A0E1B0E0E89445F80E94D86A055FBF
:103BBC001F4FFF91EF91E00FF11F0E942C661093A5
:103BCC000104E5EAF0E0EF93FF931881012F112730
:103BDC00A0E1B0E0E89445F80E94D86A045F1F4F5A
:103BEC00FF91EF91E00FF11F0E942C661093E603FA
:103BFC00CF93DF9318811A930E94E21BDF91CF9130
:103C0C00CF93DF9318811A930E946D1BDF91CF9194
:103C1C001091C0031F701F93E5EAF1E0EF93FF933F
:103C2C001881012F1127A0E1B0E0E89445F80E941B
:103C3C00D86A025F1F4FFF91EF91E00FF11F0E94B6
:103C4C002C66107F0F91102B1093C003E5EAF1E066
:103C5C00EF93FF931881012F1127A0E1B0E0E894B6
:103C6C0045F80E94D86A015F1F4FFF91EF91E00F5A
:103C7C00F11F0E942C661695169510931A04E5EA0E
:103C8C00F1E0EF93FF931881012F1127A0E1B0E031
:103C9C00E89445F80E94D86A015F1F4FFF91EF919D
:103CAC00E00FF11F0E942C6613701093EB03CF935F
:103CBC00DF930E948D23DF91CF911DE01093400282
:103CCC000895E8E0F0E0FA93EA9310E0108312E52F
:103CDC001A931081088101171FEF08F01127112387
:103CEC0011F00C949F1EE7ECF3E0EF93FF93182D6B
:103CFC00012F1127FF91EF91E00FF11FEF93FF932D
:103D0C00E2E1F0E0EF93FF93182D012F1127FF91C3
:103D1C00EF91E00FF11F0E942C66FF91EF91119330
:103D2C00E981FA81108113951083112311F00C9401
:103D3C00701E23961091E7031170113010E009F4F6
:103D4C001FEF112311F40C94B01E1091C0031061DD
:103D5C001093C0031091E7031270123010E009F4B5
:103D6C001FEF112311F40C94C01E1091C0031062AC
:103D7C001093C0031091E403E894112309F06894A4
:103D8C001091C00316F91093C0031091E503E89449
:103D9C00112309F068941091C00317F91093C00314
:103DAC001091F803109324031091F703109325033B
:103DBC001FEF1093C6031FE71093170310E008ECD6
:103DCC00009308031093090318E110931A04089543
:103DDC002797CF93DF9310E01A9317EF1A930E9453
:103DEC001E06DF91CF91FE013596FA93EA9310E00F
:103DFC0000E01183008311E00FEF1A930A93A08166
:103E0C00B18128813981B31709F4A21710E011F0A0
:103E1C0008F01FEF112311F00C944A1FE2EDF3E0B0
:103E2C00EF93FF9309851A85000F111FFF91EF91F6
:103E3C00E00FF11F0E94356617FF03C03FEF2FEF15
:103E4C0002C03327222738872F831E830D83CF93FD
:103E5C00DF9338852F811E810D813A932A931A9313
:103E6C000A9316EF1A930E945206DF91CF91EA81C2
:103E7C00FB81A081B1811196A083B183BB2311F486
:103E8C00AA2311F00C94071F2496E8E0F0E0FA93B3
:103E9C00EA9310E010831FE31A9310810881011735
:103EAC001FEF08F01127112311F00C947F1FE5E68A
:103EBC00F0E0EF93FF93182D012F1127FF91EF9155
:103ECC00E00FF11F0E942C661B83CF93DF931B81A5
:103EDC001A93182D10551A930E941E06DF91CF913C
:103EEC00E981FA81108113951083112311F00C9440
:103EFC00541F23960895229710911703012F112711
:103F0C0019830883CF93DF93009115031091160347
:103F1C001A930A9310E007E01A930A9310E008E052
:103F2C001A930A931FEF0E94CF65DF91CF910F93E5
:103F3C001F93088119813F912F91020F131F00933A
:103F4C0015031093160308952D971091B0021123A9
:103F5C0011F40C94B41F10E010930C0310910D038A
:103F6C00112311F40C94BD1F1FEF10930C031B2D88
:103F7C00103010E011F008F01FEF112311F40C9425
:103F8C00CF1F10E0B12ECF93DF930E94811FDF91E2
:103F9C00CF9110910C03112311F40C94E41F009198
:103FAC0015031091160322E00E94D16B102F188379
:103FBC0010910D0310930A030C942620109170029B
:103FCC001F930091060310910703102F0F910117F7
:103FDC0010E009F01FEF10930A0310917002012FEB
:103FEC0011270F931F9300910603109107033F9124
:103FFC002F91020F131F112312F40F5F1F4F1595F2
:10400C000795009308031093090310917002012F78
:10401C0011270093060310930703009108031091D6
:10402C000903102F1883CF93DF9310E01A931BE032
:10403C001A931A8116951A930E94DF12DF91CF9171
:10404C00109118041F931091AE020F91102311239D
:10405C0011F40C9437201AE3109340021FEF1093C5
:10406C000B0310E01093AE0210E01093B00210E0BE
:10407C0010930D0310910A031F9310910B030F91D2
:10408C00102B112311F40C9427210091AE0311274E
:10409C0004FD1FEF1F930091AE03112705FD1FEFC9
:1040AC000F91102B198319811F931091D10311308B
:1040BC0021F0133011F0153001F010E009F41FEF6E
:1040CC000F9110231A8310911804112311F40C94DE
:1040DC00742010916E021695109301041091010436
:1040EC0016951F83CF93DF9318811A93109119049F
:1040FC000FEF011B102F1A931FEF1A930E94C1652B
:10410C00DF91CF911D8318811C871A81112311F423
:10411C000C949F20CF93DF931F811A9319811A93CC
:10412C0016E91A930E94C165DF91CF911D830C94FF
:10413C00AC20CF93DF931F811A9319811A9318EC3B
:10414C001A930E94C165DF91CF911D831F811F932C
:10415C001C850F91011710E011F008F01FEF1123CF
:10416C0011F40C94BB201C851F831F8116951F9383
:10417C001D810F91100F1987109102041E831C854D
:10418C001F931E810F9101171FEF08F011271123A8
:10419C0011F40C94D3201C851E831C851887109158
:1041AC001904110F110F1F931E810F91100F1B87F4
:1041BC00188116951F931E810F91100F1A87CF939C
:1041CC00DF931EEB1A931FE41A930E941E06DF91D5
:1041DC00CF91CF93DF931C851A9310E41A930E940E
:1041EC001E06DF91CF91CF93DF931B851A9311E4B9
:1041FC001A930E941E06DF91CF91CF93DF931A85FD
:10420C001A9312E41A930E941E06DF91CF91CF935A
:10421C00DF9319851A9313E41A930E941E06DF91FB
:10422C00CF91CF93DF9318851A9314E41A930E94BD
:10423C001E06DF91CF9110E010930B0310E010934A
:10424C000A0310913802143010E009F41FEF112307
:10425C0011F40C942022109118041F931091AF02AA
:10426C000F911023112311F40C9443211FE110938F
:10427C00400210916F021093E60310E01093AF020E
:10428C001091A803112311F40C94542110910B04D8
:10429C001C8310910C041B830C945A21109109045B
:1042AC001C8310910A041B83CF93DF9314E41A939D
:1042BC001091A9031A930E942F13DF91CF91CF93E2
:1042CC00DF9311E01A931091A8031A930E942F13F5
:1042DC00DF91CF911091A9031095112311F40C9437
:1042EC007B2110E01C8310E01B831FEF0091360232
:1042FC00002309F01095112311F40C94B4211091A2
:10430C00AA031F931C810F91011710E009F01FEFF6
:10431C00112311F40C94B4211C811F931091AA0346
:10432C000F91011710E011F008F01FEF112311F499
:10433C000C94AB211091AA0313951093AA0310911E
:10434C000D04109336020C94B4211091AA031A9503
:10435C001093AA0310910F04109336021FEF0091D3
:10436C003702002309F01095112311F40C94ED2160
:10437C001091AB031F931B810F91011710E009F0F3
:10438C001FEF112311F40C94ED211B811F9310913D
:10439C00AB030F91011710E011F008F01FEF112380
:1043AC0011F40C94E4211091AB0313951093AB030F
:1043BC0010910E04109337020C94ED211091AB0365
:1043CC001A951093AB0310911004109337020091BF
:1043DC004704109148040F931F931091AA03012FC7
:1043EC0011273F912F91020F131F00934704109335
:1043FC004804CF93DF931091AA031A9311EB1A93ED
:10440C000E941E06DF91CF91CF93DF931091AB03E7
:10441C001A9312EB1A930E941E06DF91CF91CF9341
:10442C00DF931091E6031A9310EB1A930E941E0669
:10443C00DF91CF9110913802153010E009F41FEF85
:10444C00112311F40C94A122CF93DF93109111043A
:10445C001A9317EC1A930E941E06DF91CF91CF93FB
:10446C00DF93109111041A9318EC1A930E941E06F4
:10447C00DF91CF91CF93DF931091110416951058C3
:10448C001A931BEC1A930E941E06DF91CF91E5E65E
:10449C00F0E0F0960E942C661F93109112040F917D
:1044AC00100F1D83CF93DF931D811A9311EE1A9376
:1044BC000E941E06DF91CF91E5E6F0E0F3960E9494
:1044CC002C661F93109112040F91100F1D83CF9324
:1044DC00DF931D811A9314EE1A930E941E06DF912E
:1044EC00CF91E5E6F0E0F5960E942C661F931091B3
:1044FC0012040F91100F1D83CF93DF931D811A931C
:10450C0016EE1A930E941E06DF91CF91E5E6F0E0BD
:10451C00F7960E942C661F93109112040F91100FA6
:10452C001D83CF93DF931D811A9318EE1A930E946B
:10453C001E06DF91CF9110913802163010E009F46D
:10454C001FEF112311F40C948C23109113041436C7
:10455C0010E008F01FEF112311F40C940E23CF93ED
:10456C00DF93E5E6F0E038960E942C661A931091E2
:10457C00130408EC011B102F1A9314E61A930E94D3
:10458C00C165DF91CF911D83CF93DF931D811A936A
:10459C0018EB1A930E941E06DF91CF91CF93DF93F5
:1045AC00E5E6F0E034960E942C661A9314EB1A930D
:1045BC000E941E06DF91CF91CF93DF93E5E6F0E0EA
:1045CC0035960E942C661A9315EB1A930E941E06C0
:1045DC00DF91CF91CF93DF93E5E6F0E036960E9422
:1045EC002C661A9316EB1A930E941E06DF91CF913C
:1045FC00CF93DF93E5E6F0E03C960E942C661A938D
:10460C001CEB1A930E941E06DF91CF910C948C2305
:10461C00CF93DF93E5E6F0E034960E942C661A9374
:10462C00109113041A9314E61A930E94C165DF913A
:10463C00CF911D83CF93DF931D811A9314EB1A93A3
:10464C000E941E06DF91CF91CF93DF93E5E6F0E059
:10465C0035960E942C661A93109113041A9314E643
:10466C001A930E94C165DF91CF911D83CF93DF9385
:10467C001D811A9315EB1A930E941E06DF91CF91A0
:10468C00CF93DF93E5E6F0E036960E942C661A9302
:10469C00109113041A9314E61A930E94C165DF91CA
:1046AC00CF911D83CF93DF931D811A9316EB1A9331
:1046BC000E941E06DF91CF91CF93DF93E5E6F0E0E9
:1046CC003C960E942C661A93109113041A9314E6CC
:1046DC001A930E94C165DF91CF911D83CF93DF9315
:1046EC001D811A931CEB1A930E941E06DF91CF9129
:1046FC00CF93DF93E5E6F0E038960E942C661A9390
:10470C0018EB1A930E941E06DF91CF910895CF9358
:10471C00DF930E94C216DF91CF91CF93DF930E945B
:10472C00EE1EDF91CF91CF93DF930E945916DF914C
:10473C00CF91CF93DF930E942114DF91CF91CF9330
:10474C00DF930E945115DF91CF91CF93DF930E949D
:10475C009415DF91CF91CF93DF930E943D13DF919E
:10476C00CF9110E01093AF021FEF10930B03CF9378
:10477C00DF930E94AA1FDF91CF9108950E94C70674
:10478C00CF93DF9318E0412A0FE915E61A930A93A9
:10479C00E2E2FAED0E94A067DF91CF910E94C00681
:1047AC0010915B04112311F40C940D2401E010E022
:1047BC0020E030E00093D9041093DA042093DB045A
:1047CC003093DC04EBEAF4E0EF93FF933196FA9329
:1047DC00EA931FE11A9317EF41221FEB4122EFE2FC
:1047EC00FAED0E94A0671FE11F9318810F91011B26
:1047FC00102FFF91EF91108323960E94CB07CF933C
:10480C00DF9312E61A930E94EE00DF91CF91109184
:10481C005904112311F40C94442402E010E020E01C
:10482C0030E00093D9041093DA042093DB04309326
:10483C00DC04EBEAF4E0EF93FF933196FA93EA93FE
:10484C001FE11A9317EF41221FEB4122E1E4FAED2D
:10485C000E94A0671FE11F9318810F91011B102F5D
:10486C00FF91EF91108323960E94CB07CF93DF9398
:10487C0010E61A930E94EE00DF91CF9110915A042A
:10488C00112311F40C947B2403E010E020E030E0C1
:10489C000093D9041093DA042093DB043093DC04E6
:1048AC00EBEAF4E0EF93FF933196FA93EA931FE16E
:1048BC001A9317EF41221FEB4122E4E5FAED0E9417
:1048CC00A0671FE11F9318810F91011B102FFF91FF
:1048DC00EF91108323960E94CB07CF93DF9311E6C1
:1048EC001A930E94EE00DF91CF9100E010E020E0DF
:1048FC0030E000931E0410931F0420932004309387
:10490C00210410915E04112311F40C94B62404E0DC
:10491C0010E020E030E00093D9041093DA042093E7
:10492C00DB043093DC04EBEAF4E0EF93FF93319675
:10493C00FA93EA931FE11A9317EF41221FEB4122DE
:10494C00E7E6FAED0E94A0671FE11F9318810F9113
:10495C00011B102FFF91EF91108323960E94CB0720
:10496C0010915D04112311F40C94E52405E010E082
:10497C0020E030E00093D9041093DA042093DB0498
:10498C003093DC04EBEAF4E0EF93FF933196FA9367
:10499C00EA931FE11A9317EF41221FEB4122E4E740
:1049AC00FAED0E94A0671FE11F9318810F91011B64
:1049BC00102FFF91EF91108323960E94CB0710913B
:1049CC005804112311F40C94142506E010E020E097
:1049DC0030E00093D9041093DA042093DB04309375
:1049EC00DC04EBEAF4E0EF93FF933196FA93EA934D
:1049FC001FE11A9317EF41221FEB4122E0E8FAED79
:104A0C000E94A0671FE11F9318810F91011B102FAB
:104A1C00FF91EF91108323960E94CB0710915704BE
:104A2C00112311F40C94432507E010E020E030E052
:104A3C000093D9041093DA042093DB043093DC0444
:104A4C00EBEAF4E0EF93FF933196FA93EA931FE1CC
:104A5C001A9317EF41221FEB4122EBE8FAED0E946B
:104A6C00A0671FE11F9318810F91011B102FFF915D
:104A7C00EF91108323960E94CB0710915F041123B2
:104A8C0011F40C94722508E010E020E030E0009363
:104A9C00D9041093DA042093DB043093DC04EBEAA2
:104AAC00F4E0EF93FF933196FA93EA931FE11A9394
:104ABC0017EF41221FEB4122E8E9FAED0E94A067B3
:104ACC001FE11F9318810F91011B102FFF91EF9184
:104ADC00108323960E94CB0710915604112311F4D6
:104AEC000C94A12509E010E020E030E00093D904FB
:104AFC001093DA042093DB043093DC04EBEAF4E04B
:104B0C00EF93FF933196FA93EA931FE11A9317EF01
:104B1C0041221FEB4122E7EAFAED0E94A0671FE158
:104B2C001F9318810F91011B102FFF91EF91108390
:104B3C0023960E94CB070895CF93DF931FEF1A9310
:104B4C000E947E34DF91CF9110E004E60E94E36571
:104B5C00CF93DF9310E01A9318E41A930E941E0669
:104B6C00DF91CF9110E004E60E94E365CF93DF93D1
:104B7C000E945916DF91CF91CF93DF9310E01A93D7
:104B8C000E947E34DF91CF910895CF93DF9310E094
:104B9C001A9310E01A9310E01A930E942A64DF9182
:104BAC00CF91CF93DF9318E0412A04E014E61A93D7
:104BBC000A93EDE5FCEDEF93FF931A81012F11277A
:104BCC00AEE0B0E0E89445F80E94D86AFF91EF910E
:104BDC00E00FF11F0E94A067DF91CF9110E00E94BF
:104BEC004B64CF93DF9310E01A9310E01A9311E00B
:104BFC001A930E942A64DF91CF9108952197CF9345
:104C0C00DF9310E01A9310E01A9311E01A930E94AC
:104C1C002A64DF91CF9119811E3210E011F008F057
:104C2C001FEF18831881112311F40C94202619817D
:104C3C0010511983CF93DF9318E0412A04E014E656
:104C4C001A930A93E7EEF0EEEF93FF931B81012F7B
:104C5C001127ACE0B0E0E89445F80E94D86AFF91C7
:104C6C00EF91E00FF11F0E94A067DF91CF911881A7
:104C7C00112311F40C944A261BE20E94046412E4E2
:104C8C000E9404640C944D2610E20E94046416E009
:104C9C000E94046410E00E944B6408951881112353
:104CAC0011F40C946926CF93DF9318E0412A04E0A9
:104CBC0014E61A930A93E7EBFAED0E94A067DF91D2
:104CCC00CF910C947726CF93DF9318E0412A04E020
:104CDC0014E61A930A93EBEBFAED0E94A067DF91AE
:104CEC00CF910895E8E0F0E0FA93EA9310E0108396
:104CFC0013E01A931081088101171FEF08F0112798
:104D0C00112311F00C949F265A9A5B9810E004E63C
:104D1C000E94E3655A985B9A10E004E60E94E365F2
:104D2C00E981FA81108113951083112311F00C94F1
:104D3C00812623965A9A5B9A089510E00E94426449
:104D4C00CF93DF9318E0412A04E014E61A930A93F8
:104D5C00EFEBFAED0E94A067DF91CF9108951091CF
:104D6C005804112311F40C94A327E2E6F4E0EF931A
:104D7C00FF933196FA93EA9318E21A9317EF4122B4
:104D8C001FEB41221D81CF93DF931A9312E01A93EC
:104D9C0000E00A9310E21A930E94C167DF91CF9151
:104DAC0018E21F9318810F91011B102FFF91EF91A7
:104DBC00108323960E94A3261A811F9319810F91A9
:104DCC00011710E009F01FEF112311F40C94FF26CA
:104DDC00CF93DF9318E0412A04E014E61A930A9368
:104DEC00E2E6F4E00E94A967DF91CF9110E20E9405
:104DFC000464CF93DF9318E0412A04E014E61A937D
:104E0C000A93E6ECFAED0E94A067DF91CF91CF9365
:104E1C00DF9310E01A9310E01A9311E01A930E949A
:104E2C002A64DF91CF91CF93DF9318E0412A04E0FD
:104E3C0014E61A930A93E9ECFAED0E94A067DF914D
:104E4C00CF91E2E6F4E0EF93FF933196FA93EA9375
:104E5C0018E21A9317EF41221FEB41221C81CF93CA
:104E6C00DF931A9312E01A9300E00A9310E21A935C
:104E7C000E94C167DF91CF9118E21F9318810F91A7
:104E8C00011B102FFF91EF9110832396CF93DF938B
:104E9C0010E01A9316E01A9311E01A930E942A64F8
:104EAC00DF91CF91CF93DF9318E0412A04E014E611
:104EBC001A930A93E2E6F4E00E94A967DF91CF917E
:104ECC001881103011F00C947B27CF93DF9318E0EE
:104EDC00412A04E014E61A930A93E0EDFAED0E94DD
:104EEC00A067DF91CF910C94A327113011F00C9493
:104EFC008F27CF93DF9318E0412A04E014E61A932E
:104F0C000A93E0EDFAED0E94A067DF91CF910C942B
:104F1C00A327123011F00C94A327CF93DF9318E042
:104F2C00412A04E014E61A930A93E7EDFAED0E9485
:104F3C00A067DF91CF910C94A3270E947826089547
:104F4C0010915804112311F40C94BC270E94A32631
:104F5C00CF93DF9318E0412A04E014E61A930A93E6
:104F6C00EFEDFAED0E94A067DF91CF910E947826B9
:104F7C000895109158041095112311F40C94C8271E
:104F8C000C941F28CF93DF9310E01A930E94CB252B
:104F9C00DF91CF911881112311F40C940828CF9331
:104FAC00DF9318E0412A04E014E61A930A93EBEE1F
:104FBC00FAED0E94A067DF91CF911981112311F4B2
:104FCC000C94F827CF93DF9318E0412A04E014E601
:104FDC001A930A93E0EFFAED0E94A067DF91CF914C
:104FEC000C940628CF93DF9318E0412A04E014E6D2
:104FFC001A930A93E5EFFAED0E94A067DF91CF9127
:10500C000C941628CF93DF9318E0412A04E014E6A1
:10501C001A930A93EAEFFAED0E94A067DF91CF9101
:10502C0010E00E944B641AEF1093330210E01093BF
:10503C0041020895CF93DF9318811A930E9454264E
:10504C00DF91CF9116E00E94046410E00E944B6443
:10505C000895CF93DF9318E0412A04E014E61A93E5
:10506C000A931A81CF93DF931A9313E01A9300E0FB
:10507C000A9310E21A93689443F80E94C167DF9177
:10508C00CF91DF91CF9116E00E94046410E00E9452
:10509C004B640895CF93DF9318E0412A04E014E6A3
:1050AC001A930A930A811B81CF93DF931A930A9365
:1050BC0013E01A9300E00A9310E21A93689443F8F1
:1050CC00689445F8E89454F855F80E94FA69DF9111
:1050DC00CF91DF91CF9116E00E94046410E00E9402
:1050EC004B640895CF93DF930091AE03112700FD1D
:1050FC001FEF1A930E945426DF91CF910091AE03BB
:10510C00112700FD1FEF1095112311F40C94932817
:10511C0010E00E944B640C940B2910E20E94046472
:10512C000091AE03112701FD1FEF112311F40C9414
:10513C00AF28CF93DF9318E0412A04E014E61A93CA
:10514C000A93EFEFFAED0E94A067DF91CF910C94D8
:10515C00BD28CF93DF9318E0412A04E014E61A939C
:10516C000A93E4E0FBED0E94A067DF91CF910091E0
:10517C00AE03112702FD1FEF112311F40C94D62856
:10518C00CF93DF9318E0412A04E014E61A930A93B4
:10519C00E9E0FBED0E94A067DF91CF910C94E4282D
:1051AC00CF93DF9318E0412A04E014E61A930A9394
:1051BC00EEE0FBED0E94A067DF91CF910091AE0372
:1051CC00112703FD1FEF112311F40C94FD28CF932D
:1051DC00DF9318E0412A04E014E61A930A93E3E102
:1051EC00FBED0E94A067DF91CF910C940B29CF931C
:1051FC00DF9318E0412A04E014E61A930A93E6E1DF
:10520C00FBED0E94A067DF91CF9108952197CF937A
:10521C00DF930091AE03112704FD1FEF1A930E9438
:10522C005426DF91CF9110E20E940464CF93DF9358
:10523C000091AE03112705FD1FEF1A930E9454260F
:10524C00DF91CF9110E20E9404641091D103117090
:10525C00113010E009F41FEF112311F40C943B29C9
:10526C0013E40E9404640C943E2916E50E94046425
:10527C001091D10316951F5C188318810E94046449
:10528C0010E00E944B64089518811695EBE9F3EE3B
:10529C001F730027E10FF01F1491169508952197A5
:1052AC0019811695EBE9F3EE1F730027E10FF01F40
:1052BC0014911150198319811F3710E011F008F067
:1052CC001FEF112311F40C946D2910E0198319812F
:1052DC001695188319811170113010E009F41FEF25
:1052EC00112311F40C949F29E8E0F0E0FA93EA936F
:1052FC0010E01083EF93FF931A81FF91EF911A93B3
:10530C001081088101171FEF08F01127112311F0EC
:10531C000C949C2910E00E940464E981FA811081AC
:10532C0013951083112311F00C94872923960C9458
:10533C00C529E8E0F0E0FA93EA9311E01083EF93CB
:10534C00FF931A81FF91EF911A9310810881011735
:10535C001FEF08F01127112311F00C94C12910E054
:10536C000E940464E981FA81108113951083112342
:10537C0011F00C94AC29239611E00E940464E8E02F
:10538C00F0E0FA93EA93EF93FF931A81FF91EF9178
:10539C00108316E01A931081088101171FEF08F093
:1053AC001127112311F00C94E72917E00E940464D3
:1053BC00E981FA81108113951083112311F00C945B
:1053CC00D229239612E00E94046416E00E94046421
:1053DC0010E00E944B64CF93DF9310E01A931AE015
:1053EC001A9311E01A930E942A64DF91CF910895C9
:1053FC002297CF93DF9310E01A9310E01A9310E0EA
:10540C001A930E942A64DF91CF91CF93DF9318E017
:10541C00412A04E014E61A930A9310913504CF93B1
:10542C00DF931A9312E01A9300E00A9310E21A9396
:10543C00689443F80E94C167DF91CF91DF91CF91BF
:10544C0010E20E940464CF93DF9310E01A9312E0F1
:10545C001A9310E01A930E942A64DF91CF91109155
:10546C00A603103010E009F41FEF112311F40C9473
:10547C00442A16E00E9404640C94472A10E20E940D
:10548C000464CF93DF9318E0412A04E014E61A93E6
:10549C000A93E9E1FBED0E94A067DF91CF91E8E070
:1054AC00F0E0FA93EA9310E0108318E01A9310815D
:1054BC00088101171FEF08F01127112311F00C942C
:1054CC008A2ACF93DF93E8ECF3E0EF93FF93182D48
:1054DC00012F1127FF91EF91E00FF11F11911A93FA
:1054EC000E944A29DF91CF911B831B81105D1C8385
:1054FC001C810E940464E981FA8110811395108348
:10550C00112311F00C945E2A2396CF93DF9310E0B5
:10551C001A9310E01A9311E01A930E942A64DF91F7
:10552C00CF91CF93DF9318E0412A04E014E61A934D
:10553C000A9310913604CF93DF931A9312E01A93C7
:10554C0000E00A9310E21A93689443F80E94C16732
:10555C00DF91CF91DF91CF9110E20E940464CF9341
:10556C00DF9310E01A9312E01A9311E01A930E9441
:10557C002A64DF91CF911091A603103010E009F44A
:10558C001FEF112311F40C94D02A10E20E94046432
:10559C000C94D32A16E00E94046410E50E94046463
:1055AC00CF93DF931091E0031A930E944A29DF9165
:1055BC00CF9118831881105D198319810E9404649E
:1055CC00CF93DF931091E2031A930E944A29DF9143
:1055DC00CF9118831881105D198319810E9404647E
:1055EC001CE40E940464E8E0F0E0FA93EA9310E013
:1055FC00108318E01A931081088101171FEF08F02F
:10560C001127112311F00C942E2BCF93DF93E7ED80
:10561C00F3E0EF93FF93182D012F1127FF91EF91DA
:10562C00E00FF11F11911A930E944A29DF91CF913B
:10563C001B831B81105D1C831C810E940464E98107
:10564C00FA81108113951083112311F00C94022B05
:10565C002396089526971985163910E008F01FEF48
:10566C00112311F40C94402B10E00AE01D830C83E1
:10567C000C94622B1985103510E008F01FEF1123E4
:10568C0011F40C944F2B10E005E01D830C830C944B
:10569C00622B1985183210E008F01FEF112311F45A
:1056AC000C945E2B10E002E01D830C830C94622B97
:1056BC0010E001E01D830C83FE01EF93FF931E812C
:1056CC00FF91EF9111931E811F3710E011F008F03C
:1056DC001FEF112311F40C94792BFE0131961FEF5F
:1056EC0011930C947D2BFE01319610E011930881DF
:1056FC0019810F931F930C811D81689445F8BF91FC
:10570C00AF910E94D86A198308831985012F11273C
:10571C000F931F93088119813F912F91020F131F33
:10572C001B830A830A811B810F931F930C811D819C
:10573C00689445F8BF91AF910E94F96A0F931F933B
:10574C000C811D81689445F8BF91AF910E94D86A75
:10575C001B830A830A811B811A930A931A85012FD2
:10576C0011271A930A931B85012F11271A930A9359
:10577C000E94196C2696102F0895CF93DF9310E09A
:10578C001A931FE01A9310E01A930E942A64DF9177
:10579C00CF911A811F9318810F9101171FEF08F0F9
:1057AC001127112311F40C94E02B13E00E940464D4
:1057BC000C94E32B10E20E940464CF93DF9310E06F
:1057CC001A931FE01A9311E01A930E942A64DF9136
:1057DC00CF911A811F9319810F91011710E011F0CD
:1057EC0008F01FEF112311F40C94012C14E00E940B
:1057FC0004640C94042C10E20E9404640895229713
:10580C0010E00E947864176C10933A020A811B8195
:10581C00103009F4003010E011F008F01FEF1123E4
:10582C0011F40C941D2C0A811B810E94E3651091CC
:10583C003A021F3F10E009F41FEF112311F40C94EE
:10584C002C2C10E00C942F2C0C942F2C1FEF0C9460
:10585C002F2C0895229710913D02198319811883DA
:10586C0019811F9310913C020F91011B102F19836A
:10587C00188110933C0219810895CF93DF9310E0A7
:10588C001A931EE01A9310E01A930E942A64DF9177
:10589C00CF911881112311F40C94592C1AE20E9407
:1058AC0004640C945C2C10E20E9404640895289704
:1058BC001091580410951F931985103010E009F4BD
:1058CC001FEF0F91102B112311F40C946F2C0C94CF
:1058DC001F321885103010E009F01FEF1883EAE032
:1058EC00FCEDEF93FF931985012F1127FF91EF9199
:1058FC00E00FF11F14911D831D81113010E009F48C
:10590C001FEF198319851D3010E009F41FEF1123C7
:10591C0011F40C94AC2CCF93DF93109135041A93A3
:10592C0010E01A931FE01A931B851A930E94302BD8
:10593C00DF91CF9110933504CF93DF930E94FE2912
:10594C00DF91CF910C941F320C94CE2C19851E3004
:10595C0010E009F41FEF112311F40C94CE2CCF930B
:10596C00DF93109136041A9310E01A931FE01A93E8
:10597C001B851A930E94302BDF91CF911093360424
:10598C00CF93DF930E94FE29DF91CF910C941F32AD
:10599C00CF93DF9319851A930E94CB25DF91CF917A
:1059AC001FEF1C83E7ECF3E0EF93FF931985012FB6
:1059BC001127FF91EF91E00FF11F11911F8310E060
:1059CC001B831985113010F40C94F32C193019F039
:1059DC0010F00C94F32C0C94FC2C103110F40C944F
:1059EC003C2D1B3119F010F00C943C2D1F81169599
:1059FC0016951F83CF93DF931F811A9310E01A9390
:105A0C001FE11A931B851A930E94302BDF91CF91C3
:105A1C001F831F81110F110F1F83E7ECF3E0EF932E
:105A2C00FF931985012F1127FF91EF91E00FF11FC3
:105A3C00EF93FF931F81FF91EF911193CF93DF931E
:105A4C001F811A930E945529DF91CF91CF93DF9339
:105A5C001F811A9310E01A931CE71A930E94C32B10
:105A6C00DF91CF911FEF1B830C94D22F1A3011F0C2
:105A7C000C94842DCF93DF931F811A9310E01A930B
:105A8C001F811A931B851A930E94302BDF91CF91A3
:105A9C001093D103CF93DF930E940C29DF91CF9108
:105AAC00CF93DF9310E01A931FE01A9310E01A9330
:105ABC000E942A64DF91CF9110E20E940464CF937C
:105ACC00DF9310E01A931AE01A9311E01A930E94D4
:105ADC002A64DF91CF9116E00E940464CF93DF9388
:105AEC001F811A9310E01A931F811A930E94C32BE3
:105AFC00DF91CF911FEF1B830C94D22F1B3011F031
:105B0C000C94BC2D1881112311F40C949C2D009134
:105B1C00AE03112704FD1FEF1095E894112309F033
:105B2C0068941091AE0314F91093AE030091AE0378
:105B3C00112704FD1FEF1093D203CF93DF930E9424
:105B4C000C29DF91CF91CF93DF9310E01A9313E0E0
