:10007C0010B11370C12E1C2D1F931D2D0F91011744
:10008C0010E009F01FEF112311F40C9481001C2DCA
:10009C00103010E009F41FEF112311F40C947D00C3
:1000AC001E2D133010E009F41FEF112311F40C94E2
:1000BC007D001D2D113010E009F41FEF112311F4F8
:1000CC000C946F0010913D02139510933D020C940B
:1000DC007D001D2D123010E009F41FEF112311F4D7
:1000EC000C947D0010913D021A9510933D021D2D2C
:1000FC00E12E1C2DD12EB394089510E015BF10E005
:10010C001093690010E01DBB10E01093680010E024
:10011C001093600010E01093610010E014BF1124E4
:10012C00F894A8951FBACFEFD0E1DEBBCDBB11E0A0
:10013C00A0E0B1E0ECEFFFEF02C005900D92A23011
:10014C00B107D9F712E0A2E0B1E001C01D92AD30C9
:10015C00B107E1F70E94B400F894FFCF14BEA89544
:10016C00809160008861809360001092600005B7F8
:10017C00102F016005BF12E015BF0C945A7D089535
:10018C0010913802139510933802109138021830E0
:10019C0010E009F41FEF112311F40C94DD0010E0B2
:1001AC00109338021091390210951093390208956A
:1001BC0018811F9316E11F93E89440F8E1E2F4E0F4
:1001CC00A4E0B0E03F914F9150E00E94C3610895CC
:1001DC0000E010E020E030E00093210410932204B2
:1001EC002093230430932404CF93DF9318811A9324
:1001FC000E94DE00DF91CF9118811F9312E01F93B4
:10020C00E89440F8E6E1F0E03F914F91A1E0B0E0D6
:10021C0060E050E00E94C36118811F9313E01F93AC
:10022C00E89440F8E6E1F0E03F914F91A1E0B0E0B6
:10023C0068E250E00E94C36118811F9314E01F9381
:10024C00E89440F8E6E1F0E03F914F91A1E0B0E096
:10025C0064E150E00E94C36118811F9315E01F9365
:10026C00E89440F8E6E1F0E03F914F91A1E0B0E076
:10027C0060E850E00E94C36100E010E020E030E054
:10028C00009321041093220420932304309324041C
:10029C00CF93DF9318811A930E94DE00DF91CF91E8
:1002AC00089516E9109333025A9808951AE01093A2
:1002BC0033025A980895219710E51F9309811A81EA
:1002CC001F93E89440F809811A81102FE6E1F0E0C1
:1002DC00612FA1E0B0E03F914F9150E00E94C361CB
:1002EC0010E51F93FE01A1E0B0E04F910E94AA61BE
:1002FC0018810895CF93DF9310E51A930A811B811F
:10030C001A930A93FE0133968F011A930A9310E005
:10031C0001E01A930A930E94B961DF91CF9110E02A
:10032C0007E00E94676208952297CF93DF9310E550
:10033C001A930F8118851A930A93FE0135968F0133
:10034C001A930A9310E004E01A930A930E94B9617D
:10035C00DF91CF9110E007E00E94676208952B9720
:10036C0013E910937A0011E00E94766213EC10935B
:10037C007A0010917A001071103010E009F01FEF24
:10038C00112311F40C94BF0113E810937A001C850F
:10039C001B3010E009F41FEF112311F40C94DA0157
:1003AC0013E018830C94E3011C85E9E8F2E01F715B
:1003BC000027E10FF01F108118831881012F1127DE
:1003CC001E830D830D811E81015010401C830B83F5
:1003DC001C85E9E6F2E01F710027E10FF01F108188
:1003EC00012F112718870F8310917900012F1127E6
:1003FC000F931F930B811C81019509F41A9510958D
:10040C003F912F91020F131F1A87098709851A85AF
:10041C000F931F930F8118850F931F930D811E81CE
:10042C003F912F91020F131F98011F910F91A0E87C
:10043C001A273A27131709F4021710E011F008F0E5
:10044C001FEF1F9309851A850F931F930F81188532
:10045C000F931F930B811C81019509F41A9510952C
:10046C003F912F91020F131F98011F910F91A0E83C
:10047C001A273A27131709F402171FEF08F0112750
:10048C000F91102B112311F40C94730212E31983A6
:10049C001C851F931981E9ECF2E0AF91AF71BB277A
:1004AC00EA0FFB1F10831C851F931B85E9EAF2E002
:1004BC00AF91AF71BB27EA0FFB1F10831C851F93F5
:1004CC0013E0E9E8F2E0AF91AF71BB27EA0FFB1F35
:1004DC0010831FEF1A830C947E021C85E9ECF2E06A
:1004EC001F710027E10FF01F1081198310E01A8390
:1004FC001981103010E009F41FEF112311F40C9442
:10050C0094021C851F9317E0E9E8F2E0AF91AF71FC
:10051C00BB27EA0FFB1F10830C94C3021A81112313
:10052C0011F40C94C30209851A85A0E81A27103817
:10053C0009F402301FEF08F01127112311F40C9469
:10054C00AB0210E000E01A8709871C851F931B85FE
:10055C00E9EAF2E0AF91AF71BB27EA0FFB1F108302
:10056C001C851F9309851A85102FE9E6F2E0AF91DF
:10057C00AF71BB27EA0FFB1F108308952297149AC3
:10058C001598169A1BB11F7810631BB9CF93DF9384
:10059C001BE01A931FEF1A930E94B501DF91CF91C4
:1005AC0010913802103011F00C9414031498159A11
:1005BC00169A1BB11F78712EFE013196FA93EA93AD
:1005CC0010E0108317E01A931081088101171FEFB8
:1005DC0008F01127112311F00C941103172D1F9300
:1005EC001C81110F110F110F110F0F91102B1BB933
:1005FC00CF93DF931C811A931E811A930E94B5012D
:10060C00DF91CF91E981FA81108113951083112329
:10061C0011F00C94EB0223960C940E04113011F093
:10062C000C948603149A1598169A1BB11F78712E88
:10063C00FE013196FA93EA9318E010831AE01A93AC
:10064C001081088101171FEF08F01127112311F0F9
:10065C000C9450031C811850912E172D1F93192D9B
:10066C00110F110F110F110F0F91102B1BB9CF93ED
:10067C00DF931C811A931E811A930E94B501DF919E
:10068C00CF91E981FA81108113951083112311F018
:10069C000C9427032396FE013196FA93EA931CE0FF
:1006AC0010831FE01A931081088101171FEF08F0C7
:1006BC001127112311F00C9483031C811850912ED7
:1006CC00172D1F93192D110F110F110F110F0F91C2
:1006DC00102B1BB9CF93DF931C811A931E811A9395
:1006EC000E94B501DF91CF91E981FA8110811395B8
:1006FC001083112311F00C945A0323960C940E04BE
:10070C00123011F00C94C503149A159A16981BB15B
:10071C001F78712EFE013196FA93EA9310E1108343
:10072C0017E11A931081088101171FEF08F01127A8
:10073C00112311F00C94C2031C811051912E172D12
:10074C001F93192D110F110F110F110F0F91102B4A
:10075C001BB9CF93DF931C811A931E811A930E94AD
:10076C00B501DF91CF91E981FA8110811395108346
:10077C00112311F00C94990323960C940E0413304E
:10078C0011F00C940E041FEF00913502002309F0B8
:10079C001095112311F40C940C0419E110933502EB
:1007AC00FE013196FA93EA9310E0108317E11A9345
:1007BC001081088101171FEF08F01127112311F088
:1007CC000C940B041C81E9ECF2E01F710027E10F83
:1007DC00F01F1081712E112770E0771510F47A94A8
:1007EC001FEF1C811F93172DE9ECF2E0AF91AF7155
:1007FC00BB27EA0FFB1F1083E981FA811081139547
:10080C001083112311F00C94DF0323960C940E0427
:10081C000895109102052B981EBD1DB517FFFDCF35
:10082C001EB5109303052B9A08951091FF042B9875
:10083C001EBD1DB517FFFDCF1EB510930105109100
:10084C00FE041EBD1DB517FFFDCF1EB51093000590
:10085C002B9A08951091F5042B981EBD1DB517FF0A
:10086C00FDCF1EB51093F9041091F4041EBD1DB5F7
:10087C0017FFFDCF1EB51093F8041091F3041EBDA5
:10088C001DB517FFFDCF1EB51093F7041091F204A0
:10089C001EBD1DB517FFFDCF1EB51093F6042B9A88
:1008AC0008951091F00429981EBD1DB517FFFDCFBA
:1008BC001091EF041EBD1DB517FFFDCF299A0895A9
:1008CC00109105051EBD1DB517FFFDCF1EB510936C
:1008DC0006050895289815E0109305050E946604F6
:1008EC000E946604289A109106050895289815E030
:1008FC00109305050E9466040E946604109106057B
:10090C001170103010E009F41FEF112311F40C9446
:10091C008204289A0895289816E0109305050E94E1
:10092C006604289A08950E949104289811E0109367
:10093C0005050E94660410E0109305050E946604EC
:10094C00289A0E947C0408950E949104289811E032
:10095C00109305050E9466041FE3109305050E9481
:10096C006604289A0E947C0408950E949104289899
:10097C003B812A8119810881009307051093080592
:10098C002093090530930A0510E2109305050E9487
:10099C00660410910905109305050E9466041091D8
:1009AC000805109305050E94660410910705109325
:1009BC0005050E946604289A0E947C041091060585
:1009CC001072103010E009F01FEFE894112309F0B9
:1009DC0068941091E60412F91093E6040091E60471
:1009EC00112702FD1FEF109508950E94910428987D
:1009FC0017EC109305050E946604289A0E947C044B
:100A0C00109106051072103010E009F01FEFE894F9
:100A1C00112309F068941091E60412F91093E6047E
:100A2C000091E604112702FD1FEF10950895219700
:100A3C0009811A8101501040102F18830E949104D3
:100A4C0028983E812D811C810B8100930705109302
:100A5C0008052093090530930A0512E0109305054B
:100A6C000E94660410910905109305050E94660406
:100A7C0010910805109305050E9466041091070556
:100A8C00109305050E946604E7E0F0E0FA93EA9300
:100A9C0010E01083EF93FF931A81FF91EF911A935B
:100AAC001081088101171FEF08F01127112311F095
:100ABC000C947505172DE0E0FFE01F7F0027E10F78
:100ACC00F01F1081109305050E946604E981FA81DC
:100ADC00108113951083112311F00C945705239654
:100AEC00289A0E947C04109106051072103010E0B8
:100AFC0009F01FEFE894112309F068941091E604B3
:100B0C0012F91093E6040091E604112702FD1FEF81
:100B1C001095089521970E947C040A811B81015035
:100B2C001040102F18833F812E811D810C81009362
:100B3C000705109308052093090530930A0528989A
:100B4C001BE0109305050E94660410910905109393
:100B5C0005050E94660410910805109305050E9476
:100B6C00660410910705109305050E94660410E0B9
:100B7C00109305050E946604E7E0F0E0FA93EA930F
:100B8C0010E01083EF93FF931A81FF91EF911A936A
:100B9C001081088101171FEF08F01127112311F0A4
:100BAC000C9402060E9466041C81112311F40C940F
:100BBC00ED05172D1F9310910605E0E0FEE0AF91B7
:100BCC00AF7FBB27EA0FFB1F10830C94F905172D81
:100BDC001F9310910605E0E0FFE0AF91AF7FBB27BC
:100BEC00EA0FFB1F1083E981FA81108113951083A2
:100BFC00112311F00C94CF052396289A0895EFEE4B
:100C0C00F4E0EF93FF931881FF91EF911193E0EFD4
:100C1C00F4E010E011930E9457040E9430040091FC
:100C2C00F6041091F7042091F8043091F90408951A
:100C3C00EFEEF4E0EF93FF931881FF91EF91119396
:100C4C00E0EFF4E010E811930E945704EEEFF4E0AB
:100C5C00EF93FF931981FF91EF911193EFEFF4E074
:100C6C0010E011930E941B040895EFEEF4E0EF9353
:100C7C00FF931881FF91EF911193E0EFF4E010E8EE
:100C8C0011930E94570409811A810093FE0410935A
:100C9C00FF040E941B040895EFEEF4E0EF93FF9322
:100CAC001881FF91EF911193E0EFF4E010E81193AC
:100CBC000E9457043C812B811A8109810093F20414
:100CCC001093F3042093F4043093F5040E94300441
:100CDC000895CF93DF9310EF1A930E940506DF91CE
:100CEC00CF910093DB041093DC042093DD0430934C
:100CFC00DE04E8E0F0E00E94BE620093DB04109397
:100D0C00DC042093DD043093DE04CF93DF93009159
:100D1C00DB041091DC042091DD043091DE043A9365
:100D2C002A931A930A9310EF1A930E945206DF919A
:100D3C00CF91ECE0F0E00E94BE620093DB041093D4
:100D4C00DC042093DD043093DE04CF93DF93009119
:100D5C00DB041091DC042091DD043091DE043A9325
:100D6C002A931A930A9311EF1A930E945206DF9159
:100D7C00CF9108951DE00E9423621AE00E94236225
:100D8C00089513E20E94236210914202105D0E94AA
:100D9C0023621AE30E942362CF93DF9318E0412A67
:100DAC0003E212E61A930A930091D4041091D5042D
:100DBC00CF93DF931A930A9310E01A9310E01A93CF
:100DCC0010E21A93689443F8689445F8E89454F840
:100DDC0055F80E947E66DF91CF91DF91CF911DE394
:100DEC000E9423620895CF93DF9318E0412A03E217
:100DFC0012E61A930A93EDE8F4E00E942D64DF9159
:100E0C00CF910E94C0060895229710E00FEF009337
:100E1C00D4041093D5040E94C7061A81103010E038
:100E2C0009F01FEF112311F40C941F071DE20E940F
:100E3C002362CF93DF9318E0412A03E212E61A9360
:100E4C000A931C81CF93DF931A9310E01A9310E04E
:100E5C001A9310E21A93689443F80E944564DF9148
:100E6C00CF91DF91CF9110E20E942362CF93DF9359
:100E7C0018E0412A03E212E61A930A93E0E8F5ED32
:100E8C00EF93FF931C81012F1127ADE0B0E0E894A4
:100E9C0045F80E945C67FF91EF91E00FF11F0E94F3
:100EAC002464DF91CF910E94C0060895E4E6F4E03B
:100EBC00EF93FF933196FA93EA9318E21A9317EF94
:100ECC0041221FEB41220091DB041091DC042091A4
:100EDC00DD043091DE04CF93DF933A932A931A9377
:100EEC000A9310E01A9310E01A9310E21A93689484
:100EFC0045F8E89454F855F842F80E948564DF915F
:100F0C00CF9118E21F9318810F91011B102FFF91A5
:100F1C00EF911083239608950E94C706CF93DF9319
:100F2C0018E0412A03E212E61A930A93E4E6F4E08D
:100F3C000E942D64DF91CF910E94C00608950E94FB
:100F4C005C070E94920708950091D8041091D9046F
:100F5C0017FF03C03FEF2FEF02C033272227009368
:100F6C00DB041093DC042093DD043093DE040E9438
:100F7C00A50708951091E104012F11270093D804BF
:100F8C001093D9040E94AA0708950E94C7060E94D4
:100F9C005C07CF93DF9318E0412A03E212E61A9321
:100FAC000A93E4E6F4E00E942D64DF91CF91CF9395
:100FBC00DF9318E0412A03E212E61A930A93E6E75C
:100FCC00F1ED0E942464DF91CF91CF93DF9318E071
:100FDC00412A03E212E61A930A93EDEAF4E00E9426
:100FEC002D64DF91CF911DE50E9423620E94C00603
:100FFC000895EDEAF4E0EF93FF933196FA93EA93B8
:10100C001FE11A9317EF41221FEB412214E20E94B9
:10101C00FA660091DB041091DC042091DD04309120
:10102C00DE04B801C901492F0E94ED66482F0E94C9
:10103C00ED66472F0E94ED66462F0E94ED661FE17C
:10104C001F9318810F91011B102FFF91EF911083AB
:10105C0023960E94CB0708951AEF109334021AEFCF
:10106C001093330210913E021093400210E0109343
:10107C00410208950E9470041F7E103010E009F0A8
:10108C001FEF112311F40C9466080E94C706CF932E
:10109C00DF9318E0412A03E212E61A930A93E9E778
:1010AC00F1ED0E9424641DE00E94FA661AE00E9491
:1010BC00FA66DF91CF911FEF0C9469080C946908C4
:1010CC0010E00C946908089522971AE314B91FE9EB
:1010DC0015B91091E6041B7F1093E604469815E0B1
:1010EC000E947662469A10E0198310E00AE00E9492
:1010FC006762FE0131961081139510831127379981
:10110C001FEF1F931981143610E011F008F01FEF38
:10111C000F91102B112311F40C947B081BEB14B9B9
:10112C001FE915B916E206EB0093D4041093D5040D
:10113C000E94C706112737991FEF112311F40C9445
:10114C004209CF93DF9313E01A930E940506DF91B7
:10115C00CF911091F6041093FC041091F7041093A6
:10116C00FD041091F8041093FB041091F9041093F2
:10117C00FA040091FA041091FB042091FC043091C4
:10118C00FD0440E83427303A29F4243119F41031A5
:10119C0009F402321FEF08F011271883188111236C
:1011AC0011F40C94E908CF93DF9318E0412A03E281
:1011BC0012E61A930A93EBE8F1ED0E942464DF9196
:1011CC00CF910C94F708CF93DF9318E0412A03E2F8
:1011DC0012E61A930A93E8E9F1ED0E942464DF9178
:1011EC00CF91CF93DF9318E0412A03E212E61A93D2
:1011FC000A930091F6041091F7042091F8043091B1
:10120C00F904689443F8B801C901492F0E94ED66AE
:10121C00482F0E94ED66472F0E94ED66462F0E94D4
:10122C00ED66DF91CF911881112311F40C942E09E6
:10123C00CF93DF9318E0412A03E212E61A930A9344
:10124C00E3EAF1ED0E942464DF91CF910C943C0908
:10125C00CF93DF9318E0412A03E212E61A930A9324
:10126C00E1EBF1ED0E942464DF91CF910E94C00666
:10127C000E946F060C945809CF93DF9318E0412A13
:10128C0003E212E61A930A93E6EBF1ED0E94246452
:10129C00DF91CF911091E60414601093E6040E9444
:1012AC00C006469808952497CF93DF930E946A084E
:1012BC00DF91CF911091E604103010E009F01FEF90
:1012CC00112311F40C94A309A091E704B091E80444
:1012DC001196A093E704B093E80410915A041123DB
:1012EC0011F40C949909CF93DF9310E01A9310E04A
:1012FC001A9311E01A930E94AE60DF91CF91CF93B5
:10130C00DF9318E0412A08E810E61A930A93E2EDFD
:10131C00F1ED0E942464DF91CF9111E004EF0E9463
:10132C0067620E943208CF93DF9317E01A930E94F2
:10133C005428DF91CF910C947A0A1FEF1093F1048B
:10134C0010915A04112311F40C94FE09CF93DF93DE
:10135C0013E01A930E940506DF91CF910091F604D9
:10136C001091F7042091F8043091F9043B832A83FF
:10137C0019830883CF93DF9310E01A9310E01A932C
:10138C0011E01A930E94AE60DF91CF91CF93DF935F
:10139C0018E0412A08E810E61A930A93E0EEF1ED02
:1013AC000E942464DF91CF91CF93DF9318E0412A00
:1013BC0008E810E61A930A933D812C811B810A815F
:1013CC00689443F8B801C901492F0E94ED66482F73
:1013DC000E94ED66472F0E94ED66462F0E94ED6637
:1013EC00DF91CF9111E004EF0E9467620E943208F6
:1013FC0011271A991FEF1095112311F40C947A0AE6
:10140C00E8E0F0E0FA93EA9310E010831FEF1A93F0
:10141C001081088101171FEF08F01127112311F01B
:10142C000C94310ACF93DF9312E01A930E940506B5
:10143C00DF91CF91CF93DF9312E01A930E940506B0
:10144C00DF91CF91E981FA811081139510831123DB
:10145C0011F00C940F0A239611271A991FEF10956F
:10146C00112311F40C947A0A10E01093F10410E09B
:10147C000FEF0093D4041093D50402E110E020E0A8
:10148C0030E00093DB041093DC042093DD043093F4
:10149C00DE04EDEAF4E0EF93FF933196FA93EA93CE
:1014AC001FE11A9317EF41221FEB4122E7EEF1EDFA
:1014BC000E9424641FE11F9318810F91011B102FB0
:1014CC00FF91EF91108323960E94CB07CF93DF936C
:1014DC0019E01A930E945428DF91CF9111E004EF88
:1014EC000E9467620E9432080895E0EFF4E010E871
:1014FC001193EFEEF4E0EF93FF9310910B051F5F48
:10150C00FF91EF9111930E94570410910C051093C9
:10151C0002050E940F04EFEEF4E010910B051193FD
:10152C000E9457040895E0EFF4E010E81193EFEEF9
:10153C00F4E0EF93FF9310910B051F5FFF91EF9178
:10154C0011930E94570410910C05109302050E94F0
:10155C000F04089510915A04112311F40C94E60A07
:10156C0010E00E94C660CF93DF9318E0412A08E890
:10157C0010E61A930A93E5EFF1ED0E942464DF91D3
:10158C00CF91CF93DF9310E01A9310E01A9311E0F0
:10159C001A930E94AE60DF91CF91CF93DF9318E046
:1015AC00412A08E810E61A930A93EEEFF1ED0E9437
:1015BC002464DF91CF9110E00E94CF600E9432082A
:1015CC00089510915A04112311F40C94430B1FEF3E
:1015DC0000913402002309F01095112311F40C949E
:1015EC00410BCF93DF9310E01A9310E01A9311E0A4
:1015FC001A930E94AE60DF91CF91CF93DF9318E0E6
:10160C00412A08E810E61A930A93E7E0F2ED0E94EB
:10161C002464DF91CF91CF93DF9318E0412A08E83F
:10162C0010E61A930A930091EA041091EB042091AE
:10163C00EC043091ED04CF93DF933A932A931A93F1
:10164C000A9318E01A9300E00A9310E21A93689434
:10165C0043F8689445F8E89454F855F842F80E9419
:10166C008564DF91CF91DF91CF9110E00E94CF6024
:10167C0012E3109334020C94470B10E002E00E942A
:10168C006762089510915A04112311F40C946A0B9B
:10169C00CF93DF9310E01A9310E01A9311E01A9392
:1016AC000E94AE60DF91CF91CF93DF9318E0412A77
:1016BC0008E810E61A930A93E0E1F2ED0E94246424
:1016CC00DF91CF910E943208089510915A04112392
:1016DC0011F40C948D0BCF93DF9310E01A9310E060
:1016EC001A9311E01A930E94AE60DF91CF91CF93C1
:1016FC00DF9318E0412A08E810E61A930A93EAE10E
:10170C00F2ED0E942464DF91CF910E94320808957B
:10171C0065970E94C706CF93DF9318E0412A03E236
:10172C0012E61A930A93E1E2F2ED0E9424641DE0A2
:10173C000E94FA661AE00E94FA66DF91CF9110E0DF
:10174C001A8710E0188710E01C8B10E0198B1FEF24
:10175C00188B00E010E020E030E00093EA041093D6
:10176C00EB042093EC043093ED0410E000E01C87B4
:10177C000B870E94B00A10E000E01983088310E088
:10178C0000E01B830A83388D2F891E890D893F83C6
:10179C002E831D830C831A851095112311F40C9440
:1017AC00400C10E000E01C870B8711275A991FEFA3
:1017BC001095E894112309F068941BB112F91BB928
:1017CC00CF93DF93FE017496FA93EA9314E61A937F
:1017DC000E94EC61DF91CF911A871A85112311F4C5
:1017EC000C94110C1C89113010E009F41FEF1F939D
:1017FC001C89143010E009F41FEF0F91102B1123EA
:10180C0011F40C940F0C10E000E01C870B870C9467
:10181C00400C0C941B0C15E10E942362FE013B96BC
:10182C00A081B1811196A083B1831C89113010E085
:10183C0009F41FEF1F931C89143010E009F41FEFFB
:10184C000F91102B1F931C89183110E009F41FEF16
:10185C000F91102B1F930B851C85103009F404314C
:10186C0010E011F008F01FEF0F91102B112311F461
:10187C000C94E60B18851095112311F40C944A0C5A
:10188C000E94E70A1FEF18871C89113010E009F439
:10189C001FEF112311F40C947E0DCF93DF93FE01F7
:1018AC007396FA93EA9314E61A930E94EC61DF9113
:1018BC00CF9119871985112311F40C94780DCF93BE
:1018CC00DF93FE017296FA93EA931AE01A930E9440
:1018DC00EC61DF91CF9119871B890FEF011B102F42
:1018EC001F931A890F91011710E009F41FEF1123B0
:1018FC0011F40C94760D10E0198BE8E0F0E0FA93FB
:10190C00EA9310E010831FE71A93108108810117E6
:10191C001FEF08F01127112311F00C94BC0CCF937E
:10192C00DF93EAE0F0E0FA93EA931AE01A930E944C
:10193C00EC61DF91CF911C871C891F931A2D0F919D
:10194C00100F1C8B182D1F931A2DE0E0FFE0AF91A8
:10195C00AF7FBB27EA0FFB1F1083E981FA8110814F
:10196C0013951083112311F00C948C0C2396CF93A8
:10197C00DF93FE017096FA93EA931AE01A930E9491
:10198C00EC61DF91CF911987CF93DF933F812E814B
:10199C001D810C813A932A931A930A9310E000E864
:1019AC001A930A930E941D05DF91CF911095112374
:1019BC0011F40C94E80CFE013296A081B1811196C1
:1019CC00A083B183CF93DF933F812E811D810C8146
:1019DC003A932A931A930A9310E000E81A930A9305
:1019EC001FEF1A930E949005DF91CF91E8E0F0E091
:1019FC00FA93EA9310E010831FE71A931081088181
:101A0C0001171FEF08F01127112311F00C94380D5A
:101A1C00182DE0E0FEE01F7F0027E10FF01F108182
:101A2C001F93182DE0E0FFE01F7F0027E10FF01F50
:101A3C0010810F91011710E009F01FEF112311F421
:101A4C000C942F0DFE013396A081B1811196A083C9
:101A5C00B183E981FA81108113951083112311F060
:101A6C000C94050D239619891F9318890F91011752
:101A7C0010E009F41FEF112311F40C946C0D16E017
:101A8C000E9423623F812E811D810C8100581F4FC3
:101A9C002F4F3F4F3F832E831D830C830091EA040D
:101AAC001091EB042091EC043091ED0400581F4F81
:101ABC002F4F3F4F0093EA041093EB042093EC0458
:101ACC003093ED040E94E70A0C94760DFE013B96D0
:101ADC00A081B1811196A083B18315E10E9423628C
:101AEC000C947C0D10E00FEF1C870B8710E01C8B07
:101AFC0010E01A871C89143010E009F41FEF1F93B3
:101B0C001C89183110E009F41FEF0F91102B1F9353
:101B1C000B851C85103009F4043110E011F008F02D
:101B2C001FEF0F91102B112311F40C94D10B16E015
:101B3C000E94236218891F9319890F91011710E0D5
:101B4C0009F01FEF112311F40C94D20D0FEF1FEFBE
:101B5C002FEF3FEF0093DB041093DC042093DD04A4
:101B6C003093DE040E94C706CF93DF9318E0412A1E
:101B7C0003E212E61A930A93E4E3F2ED0E94246462
:101B8C001DE00E94FA661AE00E94FA66DF91CF917E
:101B9C000E94480B0C94E40D0091EA041091EB04A4
:101BAC002091EC043091ED040093DB041093DC04E1
:101BBC002093DD043093DE040E94E70A088119812A
:101BCC00103009F4003010E009F01FEF112311F46C
:101BDC000C94460E0FEF1FEF2FEF3FEF0093DB043B
:101BEC001093DC042093DD043093DE040E94C706BE
:101BFC00CF93DF9318E0412A03E212E61A930A937B
:101C0C00ECE4F2ED0E942464DF91CF91CF93DF934B
:101C1C0018E0412A03E212E61A930A930A811B8107
:101C2C00CF93DF931A930A9310E01A9310E01A9350
:101C3C0010E21A93689443F8E89445F8E89454F841
:101C4C0055F80E947E66DF91CF91DF91CF91CF93B3
:101C5C00DF9318E0412A03E212E61A930A93EDE5AA
:101C6C00F2ED0E9424641DE00E94FA661AE00E94C4
:101C7C00FA66DF91CF911AEF109334020E946B0B2E
:101C8C000A811B81103009F4003010E009F01FEFBD
:101C9C00112311F40C94A80E0FEF1FEF2FEF3FEF51
:101CAC000093DB041093DC042093DD043093DE04FA
:101CBC000E94C706CF93DF9318E0412A03E212E695
:101CCC001A930A93E6E6F2ED0E942464DF91CF9119
:101CDC00CF93DF9318E0412A03E212E61A930A939A
:101CEC000C811D81CF93DF931A930A9310E01A9302
:101CFC0010E01A9310E21A93689443F8E89445F8AC
:101D0C00E89454F855F80E947E66DF91CF91DF91EC
:101D1C00CF91CF93DF9318E0412A03E212E61A9396
:101D2C000A93EDE5F2ED0E9424641DE00E94FA6630
:101D3C001AE00E94FA66DF91CF911AEF10933402E9
:101D4C000E946B0B08952297CF93DF9312E01A93A6
:101D5C000E940506DF91CF9111271A991FEF1123CD
:101D6C0011F40C94AA0E0E94C7061091F8041A3AAA
:101D7C0010E009F41FEF112311F40C94CC0FCF9346
:101D8C00DF9318E0412A03E212E61A930A931091AA
:101D9C000C05CF93DF931A9310E01A9310E01A936B
:101DAC0010E21A93689443F80E944564DF91CF9136
:101DBC00DF91CF91CF93DF9318E0412A03E212E633
:101DCC001A930A93E6E7F2ED0E942464DF91CF9117
:101DDC001091F604103511F00C94040FCF93DF938F
:101DEC0018E0412A03E212E61A930A93EFE7F2EDA8
:101DFC000E942464DF91CF910C949B0F113511F04C
:101E0C000C94180FCF93DF9318E0412A03E212E6EB
:101E1C001A930A93E6E8F2ED0E942464DF91CF91C5
:101E2C000C949B0F123511F00C942C0FCF93DF9365
:101E3C0018E0412A03E212E61A930A93ECE8F2ED59
:101E4C000E942464DF91CF910C949B0F133511F0F9
:101E5C000C94400FCF93DF9318E0412A03E212E673
:101E6C001A930A93E1E9F2ED0E942464DF91CF9179
:101E7C000C949B0F143511F00C94540FCF93DF93EB
:101E8C0018E0412A03E212E61A930A93EAE9F2ED0A
:101E9C000E942464DF91CF910C949B0F183511F0A4
:101EAC000C94680FCF93DF9318E0412A03E212E6FB
:101EBC001A930A93E1EAF2ED0E942464DF91CF9128
:101ECC000C949B0F1F3511F00C947C0FCF93DF9368
:101EDC0018E0412A03E212E61A930A93E6EAF2EDBD
:101EEC000E942464DF91CF910C949B0FCF93DF93CE
:101EFC0018E0412A03E212E61A930A93EEEAF2ED95
:101F0C000E942464DF91CF91CF93DF9318E0412A94
:101F1C0003E212E61A930A931091F604689443F8BC
:101F2C00412F0E94ED66DF91CF91CF93DF9318E0A4
:101F3C00412A03E212E61A930A93E8EBF2ED0E94AF
:101F4C002464DF91CF91CF93DF9318E0412A03E211
:101F5C0012E61A930A931091F704689443F8412FF0
:101F6C000E94ED66DF91CF91CF93DF9318E0412A69
:101F7C0003E212E61A930A93E1EBF1ED0E9424645A
:101F8C00DF91CF910E94C0060C94DC0FCF93DF93AE
:101F9C0018E0412A03E212E61A930A93EFEBF2EDF2
:101FAC000E942464DF91CF910E94C006089525976A
:101FBC001E81145510930C050E947B0A1E81012F63
:101FCC0011273327222740E050E160E070E068944D
:101FDC0045F80E94B8673C832B831A83098300E081
:101FEC0010E020E030E00093EA041093EB0420931F
:101FFC00EC043093ED04E8E0F0E0FA93EA9310E09F
:10200C0010831FE01A931081088101171FEF08F04D
:10201C001127112311F00C94C310CF93DF933F8140
:10202C002E811D810C813A932A931A930A9311E005
:10203C0000E01A930A9310E01A930E949005DF9126
:10204C00CF911885112311F40C946110EAE0F0E0A3
:10205C00FA93EA9310E010831FEF1A931081088112
:10206C0001171FEF08F01127112311F00C946010C9
:10207C001A2DE0E0FFE01F7F0027E10FF01F108119
:10208C001E83CF93DF9318E0412A03E212E61A93E2
:10209C000A931885689443F8412F0E94ED66DF91EE
:1020AC00CF91E981FA81108113951083112311F0DE
:1020BC000C9435102396EAE0F0E0FA93EA9310E0E2
:1020CC0010831FE31A931081088101171FEF08F08A
:1020DC001127112311F00C949910E0E0FFE0EF931D
:1020EC00FF931A2D012F1127000F111F000F111F25
:1020FC00FF91EF91E00FF11F01911191219131911D
:10210C000093F2041093F3042093F4043093F50439
:10211C000E943004E981FA811081139510831123F8
:10212C0011F00C946A1023963F812E811D810C8135
:10213C0000501F4F2F4F3F4F3F832E831D830C8327
:10214C000091EA041091EB042091EC043091ED0421
:10215C0000501F4F2F4F3F4F0093EA041093EB0496
:10216C002093EC043093ED04E981FA8110811395EE
:10217C001083112311F00C940A1023960E94990AD3
:10218C001AEF109334020091EA041091EB042091A1
:10219C00EC043091ED040093DB041093DC042093E9
:1021AC00DD043093DE041FEF10933E0410E002E3D5
:1021BC000E946762CF93DF930E94A90EDF91CF91AB
:1021CC0008952D970E94C706CF93DF9318E0412AFC
:1021DC0003E212E61A930A931F85CF93DF931A93A7
:1021EC0010E01A9310E01A9310E21A93689443F8D3
:1021FC000E944564DF91CF91DF91CF91CF93DF9314
:10220C0018E0412A03E212E61A930A93E3EDF2ED89
:10221C000E942464DF91CF91CF93DF9310E01A9347
:10222C0018E41A930E941E06DF91CF9110E004E689
:10223C000E9467621D851C5A012F11273327222704
:10224C0040E050E160E070E0689445F80E94B867A7
:10225C003C872B871A87098710E000E018870F83CB
:10226C0010E000E019830883E8E0F0E0FA93EA93C9
:10227C0010E010831FE01A931081088101171FEFE3
:10228C0008F01127112311F00C943E12CF93DF9319
:10229C003F852E851D850C853A932A931A930A93B4
:1022AC0011E000E01A930A9310E01A930E94900533
:1022BC00DF91CF9110E000E01E830D8310E000E071
:1022CC001C830B830A851B8519870887EAE0F0E0DD
:1022DC00FA93EA9310E0108317E01A9310810881A7
:1022EC0001171FEF08F01127112311F00C94B311F3
:1022FC00CF93DF9310E51A930E851F851A930A93DB
:10230C001FE000E00F931F930B851C853F912F91CD
:10231C00020F131F1A930A9310E000E21A930A9308
:10232C000E94B961DF91CF9110E00AE00E946762D0
:10233C0008851985005E1F4F198708870D851E8536
:10234C00005E1F4F1E870D87E981FA81108113955E
:10235C001083112311F00C947511239610E51F9323
:10236C00088519851F93E89440F808851985102F66
:10237C00E6E1F0E0612FA1E0B0E03F914F9150E039
:10238C000E94C361CF93DF9310E51A931EE000E027
:10239C001A930A9311E000E01A930A930E94A56124
:1023AC00DF91CF91EAE0F0E0FA93EA9310E010832A
:1023BC001FEF1A931081088101171FEF08F01127E6
:1023CC00112311F00C9414121A2DE0E0FFE01F7F82
:1023DC000027E10FF01F10811F931A2DE0E0FEE0A3
:1023EC001F7F0027E10FF01F10810F91011710E0E4
:1023FC0009F01FEF112311F40C940B12FE01369609
:10240C00A081B1811196A083B183E981FA811081F9
:10241C0013951083112311F00C94E11123960B8169
:10242C001C81103009F4003010E009F41FEF112367
:10243C0011F40C9426121EE20E9423620C942912B1
:10244C0013E20E9423623F852E851D850C8500506A
:10245C001F4F2F4F3F4F3F872E871D870C87E981DA
:10246C00FA81108113951083112311F00C944311F0
:10247C002396CF93DF9318E0412A03E212E61A93D6
:10248C000A931DE50E94FA661DE00E94FA661AE0A6
:10249C000E94FA66DF91CF911AEF109334020091EB
:1024AC00EA041091EB042091EC043091ED040093BC
:1024BC00DB041093DC042093DD043093DE041FEF67
:1024CC0010933E0408811981103009F4003010E09B
:1024DC0009F01FEF112311F40C94B9120E94C706D6
:1024EC00CF93DF9318E0412A03E212E61A930A9382
:1024FC00EFEEF2ED0E942464DF91CF91CF93DF9346
:10250C0018E0412A03E212E61A930A930A811B810E
:10251C00CF93DF931A930A9310E01A9310E01A9357
:10252C0010E21A93689443F8E89445F8E89454F848
:10253C0055F80E947E66DF91CF91DF91CF91CF93BA
:10254C00DF9318E0412A03E212E61A930A93EDE5B1
:10255C00F2ED0E9424641DE00E94FA661AE00E94CB
:10256C00FA66DF91CF9108951091ED03103010E0D1
:10257C0009F01FEF112311F40C94DE12CF93DF93AB
:10258C001091EC0310541F9319810F91100F1A9393
:10259C001CE01A930E941E06DF91CF91CF93DF931C
:1025AC0018811A931CE01A930E941E06DF91CF919A
:1025BC00089521971091ED03103010E009F01FEFF2
:1025CC00112311F40C942E131A81EAE2F3E01F7715
:1025DC000027E10FF01F1081188318811F931981B8
:1025EC000F91011710E009F01FEF112311F40C9457
:1025FC002E13CF93DF931091EC0310551F931B8177
:10260C000F91100F1A931CE01A930E941E06DF9173
:10261C00CF91CF93DF931A811A931CE01A930E94E7
:10262C001E06DF91CF91CF93DF9319811A931CE093
:10263C001A930E941E06DF91CF911A811F93198164
:10264C00EAE2F3E0AF91AF77BB27EA0FFB1F1083F1
:10265C000895CF93DF9310E01A931A811A931A817D
:10266C0016951A930E94DF12DF91CF91089521974E
:10267C0010E018830091B203112704FD1FEF112302
:10268C0011F40C944D13FE011081139510830091DD
:10269C00B203112705FD1FEF112311F40C945E13E7
:1026AC00FE01108113951083FE0110811395108388
:1026BC00CF93DF9318811A931EE41A930E941E067F
:1026CC00DF91CF911091D503103011F00C94701351
:1026DC000C947A13123011F00C9476130C947A1328
:1026EC00143011F00C949013CF93DF931FEF1A93C7
:1026FC001BE41A930E941E06DF91CF91CF93DF93B8
:10270C0010E01A931CE41A930E941E06DF91CF91DD
:10271C000C94B813113011F00C9496130C94A01364
:10272C00133011F00C949C130C94A013153011F071
:10273C000C94B813CF93DF931091FA031A931BE404
:10274C001A930E941E06DF91CF91CF93DF931091C5
:10275C00F9031A931CE41A930E941E06DF91CF9181
:10276C000C94B8131091D503103011F00C94C013C5
:10277C000C94C413113011F00C94DC13CF93DF9331
:10278C001091F3031A931DE41A930E941E06DF9115
:10279C00CF91CF93DF931091F4031A931AE41A9309
:1027AC000E941E06DF91CF910C942014123011F070
:1027BC000C94E2130C94E613133011F00C94FE13EA
:1027CC00CF93DF931091F5031A931DE41A930E9493
:1027DC001E06DF91CF91CF93DF931091F6031A93DE
:1027EC001AE41A930E941E06DF91CF910C942014C8
:1027FC00143011F00C9404140C940814153011F0CE
:10280C000C942014CF93DF931091F7031A931DE4CB
:10281C001A930E941E06DF91CF91CF93DF931091F4
:10282C00F8031A931AE41A930E941E06DF91CF91B3
:10283C000C942014089524970091B203112700FDE5
:10284C001FEF1F930091B203112701FD1FEF10958D
:10285C000F9110231883E8E0F0E0FA93EA9310E06C
:10286C00108317E01A931081088101171FEF08F0ED
:10287C001127112311F00C948414ECECF3E0EF937A
:10288C00FF93182D012F1127FF91EF91E00FF11FEE
:10289C0011911C83CF93DF9310E01A93182D145FC2
:1028AC001A931E811A930E94DF12DF91CF911B8124
:1028BC00112311F40C947014CF93DF931C811A9391
:1028CC001091FF031A931FEF1A930E944562DF9138
:1028DC00CF911C83CF93DF931C811A93182D105F1B
:1028EC001A930E941E06DF91CF91E981FA81108123
:1028FC0013951083112311F00C943A142396CF9353
:10290C00DF9310E01A9314E11A931091D4031A93E5
:10291C000E94DF12DF91CF910091B203112700FDCD
:10292C001FEF1F931091120310950F911023112379
:10293C0011F40C94391510910304112311F40C9417
:10294C00B314CF93DF9310E01A9318E11A930E94FB
:10295C001E06DF91CF910C94D6141881112311F41B
:10296C000C94C914CF93DF931091D4031A93109144
:10297C00FF031A931FEF1A930E944562DF91CF91C8
:10298C0019830C94CC141091D4031983CF93DF9337
:10299C0019811A9318E11A930E941E06DF91CF91A8
:1029AC000091B203112703FD1FEF112311F40C94B6
:1029BC00EB14CF93DF9311E01A931BE11A930E944F
:1029CC001E06DF91CF910C94F514CF93DF9310E09A
:1029DC001A931BE11A930E941E06DF91CF9100916E
:1029EC00B203112701FD1FEF112311F40C940B15E9
:1029FC00CF93DF931091FC031A931AE11A930E9460
:102A0C001E06DF91CF910C941615CF93DF93109186
:102A1C00FB031A931AE11A930E941E06DF91CF91C1
:102A2C000091B203112702FD1FEF112311F40C9436
:102A3C002C15CF93DF931091FE031A9319E11A937F
:102A4C000E941E06DF91CF910C943715CF93DF9324
:102A5C001091FD031A9319E11A930E941E06DF913F
:102A6C00CF910C9450151091D4031983CF93DF930D
:102A7C0019811A9318E11A930E941E06DF91CF91C7
:102A8C00CF93DF9310E01A931AE11A930E941E065B
:102A9C00DF91CF9108952197E8E0F0E0FA93EA9363
:102AAC0010E0108318E01A931081088101171FEFB2
:102ABC0008F01127112311F00C949215EBEDF3E0B3
:102ACC00EF93FF93182D012F1127FF91EF91E00F3A
:102ADC00F11F11911B83CF93DF931B811A93182D38
:102AEC00105E1A930E941E06DF91CF91CF93DF9355
:102AFC0010E01A93182D1B5E1A931D811A930E94D5
:102B0C00DF12DF91CF91E981FA8110811395108347
:102B1C00112311F00C945B15239608952197CF93F4
:102B2C00DF9310E01A9311E21A931091E4031A93B5
:102B3C000E94DF12DF91CF91CF93DF9310E01A93B5
:102B4C0012E21A931091E5031A930E94DF12DF919F
:102B5C00CF91CF93DF9310E01A9313E21A93109155
:102B6C00E6031A930E94DF12DF91CF911091E403D8
:102B7C0016951883CF93DF931091E4031F9318815C
:102B8C000F91100F1A9319E21A930E941E06DF91EF
:102B9C00CF911091E50316951883CF93DF93109185
:102BAC00E5031F9318810F91100F1A931AE21A93D1
:102BBC000E941E06DF91CF911091E60316951883A3
:102BCC00CF93DF931091E6031F9318810F91100F91
:102BDC001A931BE21A930E941E06DF91CF91CF939A
:102BEC00DF9310E01A931BE41A931091E7031695E8
:102BFC001A930E94DF12DF91CF911091E703169583
:102C0C00E9E9F8ED1F730027E10FF01F1491188309
:102C1C00CF93DF9318811A931FE01A930E941E061C
:102C2C00DF91CF91CF93DF931091EF031A9316E0BE
:102C3C001A930E941E06DF91CF91CF93DF930091E0
:102C4C00C403112707FD1FEF11701A9317E01A9395
:102C5C000E941E06DF91CF910091C403112706FD3F
:102C6C001FEF112311F40C9440161091F2031883EA
:102C7C000C9443161091F1031883CF93DF931881B2
:102C8C001A9313EB1A930E941E06DF91CF910895AD
:102C9C0021971091EB03137018601883CF93DF9377
:102CAC0018811A9318E41A930E941E06DF91CF9193
:102CBC001091EB031370110F110F110F1883CF9399
:102CCC00DF93188110561A9315E41A930E941E066E
:102CDC00DF91CF911091EB03103010E009F41FEF4E
:102CEC00112311F40C949016CF93DF9310E01A93E8
:102CFC0016E41A930E941E06DF91CF91CF93DF93B7
:102D0C0010E01A9317E41A930E941E06DF91CF91DC
:102D1C000C94B316EAE0F4E0EF93FF931091EB03FD
:102D2C001150012F1127FF91EF91E00FF11F11911D
:102D3C001883CF93DF9318811A9316E41A930E9489
:102D4C001E06DF91CF91CF93DF9318811A9317E46E
:102D5C001A930E941E06DF91CF9110E010933F044E
:102D6C0008952197CF93DF93109104041A931AE0DE
:102D7C001A930E941E06DF91CF91CF93DF9310918F
:102D8C00EC031A9314E01A930E941E06DF91CF9164
:102D9C00CF93DF931091ED031A9315E01A930E94D1
:102DAC001E06DF91CF91CF93DF931091EF031A930F
:102DBC0016E01A930E941E06DF91CF911091080421
:102DCC00110F110F110F110F1F93109109041F7088
:102DDC000F91102B1883CF93DF9318811A9319E05E
:102DEC001A930E941E06DF91CF91109100041F933D
:102DFC0010910204117025E00E9439670F91102B7D
:102E0C001F931091010426E00E9439670F91102B3B
:102E1C001883CF93DF9318811A931BE01A930E94A7
:102E2C001E06DF91CF91CF93DF931091F0031A938D
:102E3C001DE01A930E941E06DF91CF91CF93DF9372
:102E4C00109107041A9319E41A930E941E06DF913D
:102E5C00CF91CF93DF9318EC1A931FE41A930E942F
:102E6C001E06DF91CF9110E010933E040895239736
:102E7C001091AB03103010E009F01FEF112311F487
:102E8C000C944A170C94B41710E01883E8E0F0E0A7
:102E9C00FA93EA9310E0108318E01A9310810881DA
:102EAC0001171FEF08F01127112311F00C94A8172C
:102EBC001E811F93182DE5EBF2E01F700027E10F28
:102ECC00F01F10810F91102B112311F40C949F17EC
:102EDC00182DE5E7F2E01F700027E10FF01F1081BD
:102EEC0016951D83ECECF3E0EF93FF93182D012F57
:102EFC001127FF91EF91E00FF11FEF93FF931D81CD
:102F0C00FF91EF911193182D1F9310E0E5EBF2E078
:102F1C00AF91AF70BB27EA0FFB1F10831FEF1B8312
:102F2C001E811095112311F40C949F171DE0109322
:102F3C004002E981FA81108113951083112311F05D
:102F4C000C94551723961881112311F40C94B41773
:102F5C00CF93DF930E942114DF91CF910895239793
:102F6C001091AB03113010E009F01FEF112311F495
:102F7C000C94C2170C942C1810E01883E8E0F0E0C5
:102F8C00FA93EA9310E0108318E01A9310810881E9
:102F9C0001171FEF08F01127112311F00C942018C2
:102FAC001E811F93182DE5EBF2E01F700027E10F37
:102FBC00F01F10810F91102B112311F40C94171882
:102FCC00182DE5E7F2E01F700027E10FF01F1081CC
:102FDC0016951D83EBEDF3E0EF93FF93182D012F66
:102FEC001127FF91EF91E00FF11FEF93FF931D81DC
:102FFC00FF91EF911193182D1F9310E0E5EBF2E088
:10300C00AF91AF70BB27EA0FFB1F10831FEF1B8321
:10301C001E811095112311F40C9417181EE01093B7
:10302C004002E981FA81108113951083112311F06C
:10303C000C94CD1723961881112311F40C942C1891
:10304C00CF93DF930E945115DF91CF910895219773
:10305C001091BF02112311F40C945E1810917F0291
:10306C0016951883CF93DF931091EC0310551A9398
:10307C001CE01A930E941E06DF91CF91CF93DF9331
:10308C0011E01A931CE01A930E941E06DF91CF9157
:10309C00CF93DF9318811A931CE01A930E941E069B
:1030AC00DF91CF9110E01093BF0217E010939F02B5
:1030BC001091C002112311F40C94CF1810918002BE
:1030CC001695188318811A931091090317501A93A7
:1030DC0010910903195F1A930E9484682396112397
:1030EC0011F40C947D1810E418830C949F1818811B
:1030FC001F93109109030F91011710E011F008F0C4
:10310C001FEF112311F40C9496181881175C1F9360
:10311C00109109030F91011B102F18830C949F1809
:10312C001881195B1F93109109030F91011B102F2C
:10313C00188318811A9310E01A931FE71A930E94B0
:10314C007A6823961883CF93DF931091EC03105277
:10315C001A931CE01A930E941E06DF91CF91CF9315
:10316C00DF9310E01A931CE01A930E941E06DF9165
:10317C00CF91CF93DF9318811A931CE01A930E947E
:10318C001E06DF91CF9110E01093C00217E0109350
:10319C00A002089522971091AB03123010E009F0B1
:1031AC001FEF112311F40C94DD180C94471910E047
:1031BC001883E8E0F0E0FA93EA9310E0108313E050
:1031CC001A931081088101171FEF08F011271123A2
:1031DC0011F00C943B191D811F93182DE5EBF2E0B7
:1031EC001F700027E10FF01F10810F91102B11237E
:1031FC0011F40C943219182DE5E7F2E01F7000273A
:10320C00E10FF01F108116951C83E4EEF3E0EF93B1
:10321C00FF93182D012F1127FF91EF91E00FF11F54
:10322C00EF93FF931C81FF91EF911193182D1F9336
:10323C0010E0E5EBF2E0AF91AF70BB27EA0FFB1F9C
:10324C0010831FEF1B831D811095112311F40C9417
:10325C0032191EE010934002E981FA811081139516
:10326C001083112311F00C94E81823961881112364
:10327C0011F40C944719CF93DF930E949415DF91AE
:10328C00CF91089521971091C903112311F40C9437
:10329C00911910E01093C9031AE0109340021FEF2C
:1032AC0010930F031091D503169500E30E9443670A
:1032BC00115E1883CF93DF9310E01A931AE41A93DC
:1032CC001A811A930E94DF12DF91CF911091D503CE
:1032DC001170113010E009F41FEF112311F40C944C
:1032EC008519CF93DF9310E01A9319E41A931FE317
:1032FC001A930E94DF12DF91CF910C949119CF9306
:10330C00DF9310E01A9319E41A931FE71A930E94A3
:10331C00DF12DF91CF91CF93DF930E943D13DF91AA
:10332C00CF91089523971091C7031F931091C80351
:10333C000F91102B103010E009F41FEF112311F432
:10334C000C94AA190C94E61A0091C703112700FDDE
:10335C001FEF112311F40C94CA19CF93DF930E9421
:10336C002114DF91CF911CE010934002CF93DF9397
:10337C0012E41A930091B203112700FD1FEF1A9368
:10338C000E942F13DF91CF910091C703112701FDEC
:10339C001FEF112311F40C94EA19CF93DF930E94C1
:1033AC002114DF91CF911CE010934002CF93DF9357
:1033BC0016E41A930091B203112701FD1FEF1A9323
:1033CC000E942F13DF91CF910091C703112702FDAB
:1033DC001FEF112311F40C940A1ACF93DF930E9460
:1033EC002114DF91CF911CE010934002CF93DF9317
:1033FC0017E41A930091B203112702FD1FEF1A93E1
:10340C000E942F13DF91CF910091C703112703FD69
:10341C001FEF112311F40C942A1ACF93DF930E94FF
:10342C002114DF91CF911CE010934002CF93DF93D6
:10343C0018E41A930091B203112703FD1FEF1A939E
:10344C000E942F13DF91CF910091C703112704FD28
:10345C001FEF112311F40C944D1ACF93DF930E949C
:10346C003D13DF91CF911FEF10930F031BE01093CF
:10347C004002CF93DF931FE11A930091B2031127FF
:10348C0004FD1FEF1A930E942F13DF91CF9100912F
:10349C00C703112705FD1FEF112311F40C94701AAB
:1034AC00CF93DF930E943D13DF91CF911FEF1093C9
:1034BC000F031FE010934002CF93DF931EE11A938A
:1034CC000091B203112705FD1FEF1A930E942F13D1
:1034DC00DF91CF910091C803112704FD1FEF1F93BB
:1034EC000091C803112705FD1FEF0F91102B1F939F
:1034FC0010913F040F91102B112311F40C94AE1A60
:10350C0010E01093EB030091C403112704FD1FEF8F
:10351C00112311F40C94971A1091EB03139510933B
:10352C00EB030091C403112705FD1FEF112311F4C8
:10353C000C94A51A1091EB031E5F1093EB03CF9321
:10354C00DF930E944E16DF91CF9110E21093400250
:10355C000091C803112706FD1FEF112311F40C94E1
:10356C00C71A0091C403112706FD1FEF1093E8033F
:10357C00CF93DF930E949415DF91CF911DE11093AF
:10358C0040020091C803112707FD1FEF112311F40E
:10359C000C94E01A0091C403112707FD1FEF109340
:1035AC00E903CF93DF930E949415DF91CF911EE135
:1035BC001093400210E01093C70310E01093C8035F
:1035CC000895E8E0F0E0FA93EA9310E0108318E035
:1035DC001A931081088101171FEF08F0112711238E
:1035EC0011F00C94391BECECF3E0EF93FF93182DD6
:1035FC00012F1127FF91EF91E00FF11FEF93FF9334
:10360C00E5EAF0E0EF93FF931B81012F1127A0E176
:10361C00B0E0E89445F80E945C670F931F93182D57
:10362C00012F11273F912F91020F131FFF91EF9143
:10363C00E00FF11F0E94B062FF91EF911193182DD2
:10364C001F9319E0E9E8F2E0AF91AF70BB27EA0FE6
:10365C00FB1F1083E981FA811081139510831123CC
:10366C0011F00C94F01A2396E5EAF0E0EF93FF9337
:10367C001881012F1127A0E1B0E0E89445F80E94D1
:10368C005C67075F1F4FFF91EF91E00FF11F0E94E6
:10369C00B0621093D5031091B203107E1F93E5EA2C
:1036AC00F0E0EF93FF931881012F1127A0E1B0E018
:1036BC00E89445F80E945C67065F1F4FFF91EF91FD
:1036CC00E00FF11F0E94B0621F710F91102B10932D
:1036DC00B2031FE11093C70310E00AE00E94676277
:1036EC000895CF93DF931FEF1A930E944128DF9127
:1036FC00CF9118811F701883E8E0F0E0FA93EA93F9
:10370C0010E0108318E01A931081088101171FEF45
:10371C0008F01127112311F00C94C91BE5EAF0E015
:10372C00EF93FF931B81012F1127A0E1B0E0E894E8
:10373C0045F80E945C670F931F93182D012F1127DA
:10374C003F912F91020F131FFF91EF91E00FF11F8B
:10375C00EF93FF93ECECF3E0EF93FF93182D012F15
:10376C001127FF91EF91E00FF11F1191FF91EF9154
:10377C000E948E62E981FA811081139510831123C6
:10378C0011F00C948B1B2396E5EAF0E0EF93FF937A
:10379C001881012F1127A0E1B0E0E89445F80E94B0
:1037AC005C67075F1F4FFF91EF91E00FF11F1091C6
:1037BC00D5030E948E62E5EAF0E0EF93FF93188147
:1037CC00012F1127A0E1B0E0E89445F80E945C6756
:1037DC00065F1F4FFF91EF91E00FF11FEF93FF93E7
:1037EC001091B2031F71FF91EF910E948E62CF93E3
:1037FC00DF9310E01A930E944128DF91CF910E9431
:10380C0032081DE0109340020895E8E0F0E0FA93CE
:10381C00EA9310E010831CE01A93108108810117C1
:10382C001FEF08F01127112311F00C945D1CEBED28
:10383C00F3E0EF93FF93182D012F1127FF91EF91D8
:10384C00E00FF11FEF93FF93E5EAF1E0EF93FF93A5
:10385C001B81012F1127A0E1B0E0E89445F80E94EC
:10386C005C670F931F93182D012F11273F912F91F8
:10387C00020F131FFF91EF91E00FF11F0E94B06236
:10388C00FF91EF911193182D1F9319E0E5E9F2E0E8
:10389C00AF91AF70BB27EA0FFB1F1083E981FA8150
:1038AC00108113951083112311F00C94141C239682
:1038BC001091B2031F7D1F93E5EAF1E0EF93FF93A4
:1038CC001881012F1127A0E1B0E0E89445F80E947F
:1038DC005C67035F1F4FFF91EF91E00FF11F0E9498
:1038EC00B06210720F91102B1093B20310E2109370
:1038FC00C7030895CF93DF931FEF1A930E944128BB
:10390C00DF91CF9118811F701883E8E0F0E0FA93F3
:10391C00EA9310E010831CE01A93108108810117C0
:10392C001FEF08F01127112311F00C94D21CE5EABB
:10393C00F1E0EF93FF931B81012F1127A0E1B0E081
:10394C00E89445F80E945C670F931F93182D012F84
:10395C0011273F912F91020F131FFF91EF91E00F51
:10396C00F11FEF93FF93EBEDF3E0EF93FF93182D23
:10397C00012F1127FF91EF91E00FF11F1191FF9192
:10398C00EF910E948E62E981FA8110811395108368
:10399C00112311F00C94941C2396E5EAF1E0EF93BB
:1039AC00FF931881012F1127A0E1B0E0E89445F8AE
:1039BC000E945C67035F1F4FFF91EF91E00FF11FB7
:1039CC00EF93FF931091B2031072FF91EF910E944D
:1039DC008E62CF93DF9310E01A930E944128DF91FF
:1039EC00CF910E9432081EE0109340020895188176
:1039FC00103010E009F41FEF112311F40C94081D82
:103A0C000C94241EFE0110811A95108318811370DA
:103A1C001883CF93DF93109138041A930E94771B6D
:103A2C00DF91CF91CF93DF93109139041A930E94B9
:103A3C00801CDF91CF91CF93DF931FEF1A930E94DD
:103A4C004128DF91CF91E9EAF3E0EF93FF931881DE
:103A5C00012F1127AAE0B0E0E89445F80E945C67BA
:103A6C00FF91EF91E00FF11F109138040E948E62CC
:103A7C00E9EAF3E0EF93FF931881012F1127AAE0F5
:103A8C00B0E0E89445F80E945C670F5F1F4FFF9110
:103A9C00EF91E00FF11F109139040E948E62E9EA58
:103AAC00F3E0EF93FF931881012F1127AAE0B0E008
:103ABC00E89445F80E945C670E5F1F4FFF91EF91F1
:103ACC00E00FF11FEF93FF931091B2031F73FF915F
:103ADC00EF910E948E62E9EAF3E0EF93FF93188175
:103AEC00012F1127AAE0B0E0E89445F80E945C672A
:103AFC000D5F1F4FFF91EF91E00FF11FEF93FF93BD
:103B0C001091C403107FFF91EF910E948E62E9EA3D
:103B1C00F3E0EF93FF931881012F1127AAE0B0E097
:103B2C00E89445F80E945C670C5F1F4FFF91EF9182
:103B3C00E00FF11F1091D5030E948E62E9EAF3E0C9
:103B4C00EF93FF931881012F1127AAE0B0E0E894BE
:103B5C0045F80E945C670B5F1F4FFF91EF91E00FE0
:103B6C00F11F1091EA030E948E62E9EAF3E0EF93F1
:103B7C00FF931881012F1127AAE0B0E0E89445F8D3
:103B8C000E945C670A5F1F4FFF91EF91E00FF11FDE
:103B9C00109105040E948E62E9EAF3E0EF93FF9323
:103BAC001881012F1127AAE0B0E0E89445F80E9493
:103BBC005C67095F1F4FFF91EF91E00FF11F1091B0
:103BCC00E4030E948E62E9EAF3E0EF93FF9318811D
:103BDC00012F1127AAE0B0E0E89445F80E945C6739
:103BEC00085F1F4FFF91EF91E00FF11F1091E6035B
:103BFC000E948E62E9EAF3E0EF93FF931881012FA4
:103C0C001127AAE0B0E0E89445F80E945C67075FD2
:103C1C001F4FFF91EF91E00FF11F1091E7030E94EE
:103C2C008E620E9432081DE010934002CF93DF9306
:103C3C0010E01A930E944128DF91CF9108951881CA
:103C4C00103010E009F41FEF112311F40C94321E04
:103C5C000C942E1F0C942E1FFE0110811A951083AC
:103C6C00188113701883E9EAF3E0EF93FF9318813E
:103C7C00012F1127AAE0B0E0E89445F80E945C6798
:103C8C00FF91EF91E00FF11F0E94B0621093380486
:103C9C00E9EAF3E0EF93FF931881012F1127AAE0D3
:103CAC00B0E0E89445F80E945C670F5F1F4FFF91EE
:103CBC00EF91E00FF11F0E94B06210933904109144
:103CCC00B203107C1F93E9EAF3E0EF93FF931881A2
:103CDC00012F1127AAE0B0E0E89445F80E945C6738
:103CEC000E5F1F4FFF91EF91E00FF11F0E94B0622A
:103CFC000F91102B1093B2031091C4031F701F93DC
:103D0C00E9EAF3E0EF93FF931881012F1127AAE062
:103D1C00B0E0E89445F80E945C670D5F1F4FFF917F
:103D2C00EF91E00FF11F0E94B0620F91102B1093D6
:103D3C00C403E9EAF3E0EF93FF931881012F1127F5
:103D4C00AAE0B0E0E89445F80E945C670C5F1F4F56
:103D5C00FF91EF91E00FF11F0E94B0621093D50319
:103D6C00E9EAF3E0EF93FF931881012F1127AAE002
:103D7C00B0E0E89445F80E945C670B5F1F4FFF9121
:103D8C00EF91E00FF11F0E94B0621093EA03E9EA91
:103D9C00F3E0EF93FF931881012F1127AAE0B0E015
:103DAC00E89445F80E945C670A5F1F4FFF91EF9102
:103DBC00E00FF11F0E94B06210930504E9EAF3E0F2
:103DCC00EF93FF931881012F1127AAE0B0E0E8943C
:103DDC0045F80E945C67095F1F4FFF91EF91E00F60
:103DEC00F11F0E94B0621093E403E9EAF3E0EF9351
:103DFC00FF931881012F1127AAE0B0E0E89445F851
:103E0C000E945C67085F1F4FFF91EF91E00FF11F5D
:103E1C000E94B0621093E603E9EAF3E0EF93FF939C
:103E2C001881012F1127AAE0B0E0E89445F80E9410
:103E3C005C67075F1F4FFF91EF91E00FF11F0E942E
:103E4C00B0621093E7031091E40316951093E50309
:103E5C000895E8E0F0E0FA93EA9310E0108312E59D
:103E6C001A931081088101171FEF08F011271123F5
:103E7C0011F00C94671FEBECF3E0EF93FF93182D0C
:103E8C00012F1127FF91EF91E00FF11FEF93FF939B
:103E9C00E2E1F0E0EF93FF93182D012F1127FF9132
:103EAC00EF91E00FF11F0E94B062FF91EF9111931F
:103EBC00E981FA81108113951083112311F00C9470
:103ECC00381F23961091EB031170113010E009F498
:103EDC001FEF112311F40C94781F1091C40310617F
:103EEC001093C4031091EB031270123010E009F41C
:103EFC001FEF112311F40C94881F1091C40310624E
:103F0C001093C4031091E803E894112309F068940A
:103F1C001091C40316F91093C4031091E903E894AB
:103F2C00112309F068941091C40317F91093C4037A
:103F3C001091FC03109328031091FB031093290399
:103F4C001FEF1093CA031FE710931B0310E008EC3C
:103F5C0000930C0310930D0308952797CF93DF93D1
:103F6C0010E01A9317EF1A930E941E06DF91CF915F
:103F7C00FE013596FA93EA9310E000E0118300837A
:103F8C0011E00FEF1A930A93A081B1812881398136
:103F9C00B31709F4A21710E011F008F01FEF11236A
:103FAC0011F00C940F20EAEFF3E0EF93FF930985E7
:103FBC001A85000F111FFF91EF91E00FF11F0E9466
:103FCC00B96217FF03C03FEF2FEF02C03327222740
:103FDC0038872F831E830D83CF93DF9338852F81F2
:103FEC001E810D813A932A931A930A9316EF1A9312
:103FFC000E945206DF91CF91EA81FB81A081B181B1
:10400C001196A083B183BB2311F4AA2311F00C9455
:10401C00CC1F2496E8E0F0E0FA93EA9310E01083CA
:10402C001FE31A931081088101171FEF08F0112765
:10403C00112311F00C944420E5E6F0E0EF93FF938C
:10404C00182D012F1127FF91EF91E00FF11F0E9406
:10405C00B0621B83CF93DF931B811A93182D1055DD
:10406C001A930E941E06DF91CF91E981FA8110818B
:10407C0013951083112311F00C9419202396089595
:10408C00229710911B03012F112719830883CF93BB
:10409C00DF930091190310911A031A930A9310E0FD
:1040AC0007E01A930A9310E008E01A930A931FEFA3
:1040BC000E945362DF91CF910F931F930881198156
:1040CC003F912F91020F131F0093190310931A03A2
:1040DC0008952D971091B402112311F40C947920AA
:1040EC0010E01093100310911103112311F40C9490
:1040FC0082201FEF109310031B2D103010E011F0D5
:10410C0008F01FEF112311F40C94942010E0B12E41
:10411C00CF93DF930E944620DF91CF911091100333
:10412C00112311F40C94A9200091190310911A0376
:10413C0022E00E945568102F1883109111031093E0
:10414C000E030C94EB20109174021F9300910A0340
:10415C0010910B03102F0F91011710E009F01FEFB6
:10416C0010930E0310917402012F11270F931F93BC
:10417C0000910A0310910B033F912F91020F131F13
:10418C00112312F40F5F1F4F1595079500930C0325
:10419C0010930D0310917402012F112700930A0341
:1041AC0010930B0300910C0310910D03102F188327
:1041BC00CF93DF9310E01A931BE01A931A81169594
:1041CC001A930E94DF12DF91CF9110911C041F9360
:1041DC001091B2020F911023112311F40C94FC20B6
:1041EC001AE3109340021FEF10930F0310E010938B
:1041FC00B20210E01093B40210E01093110310916E
:10420C000E031F9310910F030F91102B112311F418
:10421C000C94E6210091B203112704FD1FEF1F93AC
:10422C000091B203112705FD1FEF0F91102B19837D
:10423C0019811F931091D503113021F0133011F017
:10424C00153001F010E009F41FEF0F9110231A83C1
:10425C001091050416951F83CF93DF9318811A9341
:10426C0010911D040FEF011B102F1A931FEF1A93BF
:10427C000E944562DF91CF911D8310911D041F9305
:10428C001D810F91100F1C871A81112311F40C94AE
:10429C005E21CF93DF931F811A9319811A9316E92C
:1042AC001A930E944562DF91CF911D830C946B2170
:1042BC00CF93DF931F811A9319811A9318EC1A93D9
:1042CC000E944562DF91CF911D831F811F931C8536
:1042DC000F91011710E011F008F01FEF112311F4EA
:1042EC000C947A211C851F831F8116951F931D81A9
:1042FC000F91100F1987109106041E831C851F93B4
:10430C001E810F9101171FEF08F01127112311F4D3
:10431C000C9492211C851E831C85188710911D04FA
:10432C00110F110F1F931E810F91100F1B871881F6
:10433C0016951F931E810F91100F1A87CF93DF9341
:10434C001EEB1A931FE41A930E941E06DF91CF9165
:10435C00CF93DF931C851A9310E41A930E941E06C8
:10436C00DF91CF91CF93DF931B851A9311E41A93AE
:10437C000E941E06DF91CF91CF93DF931A851A937B
:10438C0012E41A930E941E06DF91CF91CF93DF9314
:10439C0019851A9313E41A930E941E06DF91CF918C
:1043AC00CF93DF9318851A9314E41A930E941E0678
:1043BC00DF91CF9110E010930F0310E010930E03D8
:1043CC0010913802143010E009F41FEF112311F48E
:1043DC000C94DF2210911C041F931091B3020F91C7
:1043EC001023112311F40C9402221FE110934002AC
:1043FC00109173021093EA0310E01093B302109122
:10440C00AC03112311F40C94132210910F041C8390
:10441C00109110041B830C94192210910D041C8311
:10442C0010910E041B83CF93DF9314E41A93109115
:10443C00AD031A930E942F13DF91CF91CF93DF938B
:10444C0011E01A931091AC031A930E942F13DF9171
:10445C00CF911091AD031095112311F40C943A22C5
:10446C0010E01C8310E01B831FEF00913602002329
:10447C0009F01095112311F40C9473221091AE03D2
:10448C001F931C810F91011710E009F01FEF1123EE
:10449C0011F40C9473221C811F931091AE030F9195
:1044AC00011710E011F008F01FEF112311F40C9418
:1044BC006A221091AE0313951093AE031091110460
:1044CC00109336020C9473221091AE031A9510932C
:1044DC00AE0310911304109336021FEF00913702B4
:1044EC00002309F01095112311F40C94AC221091B7
:1044FC00AF031F931B810F91011710E009F01FEF01
:10450C00112311F40C94AC221B811F931091AF0357
:10451C000F91011710E011F008F01FEF112311F4A7
:10452C000C94A3221091AF0313951093AF03109129
:10453C001204109337020C94AC221091AF031A950D
:10454C001093AF0310911404109337020091490497
:10455C0010914A040F931F931091AE03012F112752
:10456C003F912F91020F131F0093490410934A049B
:10457C00CF93DF931091AE031A9311EB1A930E9411
:10458C001E06DF91CF91CF93DF931091AF031A9357
:10459C0012EB1A930E941E06DF91CF91CF93DF93FB
:1045AC001091EA031A9310EB1A930E941E06DF91E6
:1045BC00CF9110913802153010E009F41FEF112340
:1045CC0011F40C946023CF93DF93109115041A937C
:1045DC0017EC1A930E941E06DF91CF91CF93DF93B5
:1045EC00109115041A9318EC1A930E941E06DF9171
:1045FC00CF91CF93DF9310911504169510581A9301
:10460C001BEC1A930E941E06DF91CF91E5E6F0E0B9
:10461C00F0960E94B0621F93109116040F91100F28
:10462C001D83CF93DF931D811A9311EE1A930E9471
:10463C001E06DF91CF91E5E6F0E0F3960E94B062A2
:10464C001F93109116040F91100F1D83CF93DF93BE
:10465C001D811A9314EE1A930E941E06DF91CF91BE
:10466C00E5E6F0E0F5960E94B0621F9310911604F7
:10467C000F91100F1D83CF93DF931D811A9316EEAC
:10468C001A930E941E06DF91CF91E5E6F0E0F796B3
:10469C000E94B0621F93109116040F91100F1D838E
:1046AC00CF93DF931D811A9318EE1A930E941E0666
:1046BC00DF91CF9110913802163010E009F41FEF02
:1046CC00112311F40C944B2410911704143610E0A0
:1046DC0008F01FEF112311F40C94CD23CF93DF932B
:1046EC00E5E6F0E038960E94B0621A931091170438
:1046FC0008EC011B102F1A9314E61A930E944562C2
:10470C00DF91CF911D83CF93DF931D811A9318EB0B
:10471C001A930E941E06DF91CF91CF93DF93E5E6AB
:10472C00F0E034960E94B0621A9314EB1A930E9434
:10473C001E06DF91CF91CF93DF93E5E6F0E035963F
:10474C000E94B0621A9315EB1A930E941E06DF9119
:10475C00CF91CF93DF93E5E6F0E036960E94B062FE
:10476C001A9316EB1A930E941E06DF91CF91CF93EA
:10477C00DF93E5E6F0E03C960E94B0621A931CEBE6
:10478C001A930E941E06DF91CF910C944B24CF9369
:10479C00DF93E5E6F0E034960E94B0621A93109134
:1047AC0017041A9314E61A930E944562DF91CF9175
:1047BC001D83CF93DF931D811A9314EB1A930E94E0
:1047CC001E06DF91CF91CF93DF93E5E6F0E03596AF
:1047DC000E94B0621A93109117041A9314E61A935C
:1047EC000E944562DF91CF911D83CF93DF931D8192
:1047FC001A9315EB1A930E941E06DF91CF91CF935B
:10480C00DF93E5E6F0E036960E94B0621A931091C1
:10481C0017041A9314E61A930E944562DF91CF9104
:10482C001D83CF93DF931D811A9316EB1A930E946D
:10483C001E06DF91CF91CF93DF93E5E6F0E03C9637
:10484C000E94B0621A93109117041A9314E61A93EB
:10485C000E944562DF91CF911D83CF93DF931D8121
:10486C001A931CEB1A930E941E06DF91CF91CF93E3
:10487C00DF93E5E6F0E038960E94B0621A9318EBED
:10488C001A930E941E06DF91CF910895CF93DF9368
:10489C000E94B716DF91CF91CF93DF930E94B31F85
:1048AC00DF91CF91CF93DF930E944E16DF91CF9182
:1048BC00CF93DF930E942114DF91CF91CF93DF939D
:1048CC000E945115DF91CF91CF93DF930E949415E5
:1048DC00DF91CF91CF93DF930E943D13DF91CF9166
:1048EC0010E01093B3021FEF10930F03CF93DF93DD
:1048FC000E946F20DF91CF9108950E94C706CF933D
:10490C00DF9318E0412A03E212E61A930A93E5E0DA
:10491C00F3ED0E942464DF91CF910E94C0061091A8
:10492C005D04112311F40C94CC2401E010E020E080
:10493C0030E00093DB041093DC042093DD0430930F
:10494C00DE04EDEAF4E0EF93FF933196FA93EA93E9
:10495C001FE11A9317EF41221FEB4122E2E1F3ED25
:10496C000E9424641FE11F9318810F91011B102FCB
:10497C00FF91EF91108323960E94CB07CF93DF9387
:10498C0012E61A930E94EE00DF91CF9110915B0416
:10499C00112311F40C94032502E010E020E030E028
:1049AC000093DB041093DC042093DD043093DE04CD
:1049BC00EDEAF4E0EF93FF933196FA93EA931FE15B
:1049CC001A9317EF41221FEB4122E4E2F3ED0E9410
:1049DC0024641FE11F9318810F91011B102FFF916D
:1049EC00EF91108323960E94CB07CF93DF9310E6B1
:1049FC001A930E94EE00DF91CF9110915C04112369
:104A0C0011F40C943A2503E010E020E030E0009320
:104A1C00DB041093DC042093DD043093DE04EDEA18
:104A2C00F4E0EF93FF933196FA93EA931FE11A9314
:104A3C0017EF41221FEB4122E7E3F3ED0E942464C0
:104A4C001FE11F9318810F91011B102FFF91EF9104
:104A5C00108323960E94CB07CF93DF9311E61A9312
:104A6C000E94EE00DF91CF9100E010E020E030E0FA
:104A7C0000932104109322042093230430932404E4
:104A8C0010916004112311F40C94752504E010E0CE
:104A9C0020E030E00093DB041093DC042093DD0471
:104AAC003093DE04EDEAF4E0EF93FF933196FA9342
:104ABC00EA931FE11A9317EF41221FEB4122EAE41C
:104ACC00F3ED0E9424641FE11F9318810F91011BC9
:104ADC00102FFF91EF91108323960E94CB0710911A
:104AEC005F04112311F40C94A42505E010E020E0E0
:104AFC0030E00093DB041093DC042093DD0430934E
:104B0C00DE04EDEAF4E0EF93FF933196FA93EA9327
:104B1C001FE11A9317EF41221FEB4122E7E5F3ED5A
:104B2C000E9424641FE11F9318810F91011B102F09
:104B3C00FF91EF91108323960E94CB0710915A049A
:104B4C00112311F40C94D32506E010E020E030E0A2
:104B5C000093DB041093DC042093DD043093DE041B
:104B6C00EDEAF4E0EF93FF933196FA93EA931FE1A9
:104B7C001A9317EF41221FEB4122E3E6F3ED0E945B
:104B8C0024641FE11F9318810F91011B102FFF91BB
:104B9C00EF91108323960E94CB0710915904112397
:104BAC0011F40C94022607E010E020E030E00093B2
:104BBC00DB041093DC042093DD043093DE04EDEA77
:104BCC00F4E0EF93FF933196FA93EA931FE11A9373
:104BDC0017EF41221FEB4122EEE6F3ED0E94246415
:104BEC001FE11F9318810F91011B102FFF91EF9163
:104BFC00108323960E94CB0710916104112311F4AA
:104C0C000C94312608E010E020E030E00093DB0447
:104C1C001093DC042093DD043093DE04EDEAF4E021
:104C2C00EF93FF933196FA93EA931FE11A9317EFE0
:104C3C0041221FEB4122EBE7F3ED0E9424641FE1BC
:104C4C001F9318810F91011B102FFF91EF9110836F
:104C5C0023960E94CB0710915804112311F40C9445
:104C6C00602609E010E020E030E00093DB041093B4
:104C7C00DC042093DD043093DE04EDEAF4E0EF93E2
:104C8C00FF933196FA93EA931FE11A9317EF41229F
:104C9C001FEB4122EAE8F3ED0E9424641FE11F930D
:104CAC0018810F91011B102FFF91EF911083239608
:104CBC000E94CB070895CF93DF931FEF1A930E94A6
:104CCC004128DF91CF9110E004E60E946762CF93F8
:104CDC00DF9310E01A9318E41A930E941E06DF91DA
:104CEC00CF9110E004E60E946762CF93DF930E949D
:104CFC004E16DF91CF91CF93DF9310E01A930E9461
:104D0C004128DF91CF910895259710E505E019838F
:104D1C00088312E61F9318E11F93E89440F8FE01F4
:104D2C00A2E0B0E03F914F9150E00E94C36112E6C7
:104D3C001F9311E0312FE89440F84F91A0E0B0E0C0
:104D4C0050E00E94C36112E61F93FE013496A1E06D
:104D5C00B0E04F910E94AA611C81136C1C831C81D2
:104D6C001F3F10E009F41FEF112311F40C94C1261E
:104D7C0010E00C94312710E01B8310E11A83E8E05B
:104D8C00F0E0FA93EA9310E0108313E01A93108189
:104D9C00088101171FEF08F01127112311F00C9453
:104DAC002F27182DE9EDF8ED13700027110F001FB8
:104DBC00E10FF01F059114911C830B8312E61F93D6
:104DCC0018E11F93E89440F8FE013396A2E0B0E09E
:104DDC003F914F9150E00E94C36112E61F9311E086
:104DEC00312FE89440F84F91A0E0B0E050E00E94E1
:104DFC00C36112E61F93FE013796A1E0B0E04F911C
:104E0C000E94AA611F81136C1F831F811F3F10E03A
:104E1C0009F01FEF112311F40C9423271F81109517
:104E2C00169516951F831D811F931F810F91102BB3
:104E3C001E831E8123960C9431271D81110F1D8317
:104E4C00E981FA81108113951083112311F00C94D0
:104E5C00CE26239610E0089523971091AB031030C3
:104E6C0010E009F41FEF112311F40C947F2700912B
:104E7C00B203112704FD1FEFE894112309F0689485
:104E8C001091670211F9109367021091670210617B
:104E9C00109367020091B203112700FD1FEF1F93BF
:104EAC000091B203112703FD1FEF0F911023E8941B
:104EBC00112309F068941091670212F9109367029C
:104ECC000091B203112700FD1FEF1F930091B20355
:104EDC00112703FD1FEF10950F911023E894112358
:104EEC0009F068941091670213F9109367020C94FF
:104EFC009C270091B203112705FD1FEFE8941123A5
:104F0C0009F068941091670211F9109367021091DF
:104F1C0067021F7E10936702109167021B7F10932C
:104F2C00670210916702177F109367021091650258
:104F3C00E894112309F068941091670215F9109305
:104F4C0067021091AD031F9300914A04112704FDD1
:104F5C001FEF0F911023E894112309F0689410911E
:104F6C00670210F910936702109167021F70188383
:104F7C00FE013196EF93FF931881E9E8F8ED1F706D
:104F8C000027E10FF01F1491FF91EF9111931091F5
:104F9C00670216951695169516951883FE0131968F
:104FAC003196EF93FF931881E9E8F8ED1F70002715
:104FBC00E10FF01F1491FF91EF9111931091AB033E
:104FCC00123010E009F41FEF112311F40C94F427A4
:104FDC0009811A81006013601A83098312E61F93FA
:104FEC0016E11F93E89440F8FE013196A2E0B0E080
:104FFC003F914F9150E00E94C36108951FEF1093B1
:10500C003402109165021095109366020895219751
:10501C0010E01883CF93DF930E948A26DF91CF9103
:10502C00103010E009F01FEF1F9318811F931981A6
:10503C000F91011710E009F01FEF0F9110231123AE
:10504C0011F40C94382810E00AE00E946762FE010B
:10505C00112700817FEF071718F4039500831FEFCA
:10506C000C94102818811F9319810F91011710E0CF
:10507C0009F41FEF0895219719811095E8941123D5
:10508C0009F068941BB112F91BB91981E89411232A
:10509C0009F068941BB113F91BB90895E8E0F0E02E
:1050AC00FA93EA9310E01083EF93FF931A81FF9128
:1050BC00EF911A931081088101171FEF08F0112747
:1050CC00112311F00C948B28CF93DF931FEF1A93BD
:1050DC000E944128DF91CF9110E004E60E946762A4
:1050EC00CF93DF9310E01A930E944128DF91CF9168
:1050FC0010E004E60E946762E981FA811081139541
:10510C001083112311F00C94612823960895CF93EA
:10511C00DF931881195F1A9310E11A9310EF1A9309
:10512C000E944562DF91CF91089522971A81112335
:10513C0011F40C94A6281FEF109366020C94B3285C
:10514C001FEF00913402002309F0109510951123E4
:10515C0011F40C94B3280C94482A10916602109503
:10516C00112311F40C94BC280C94482A10E01093D1
:10517C006602CF93DF9310E01A9310E01A9310E0BD
:10518C001A930E94AE60DF91CF91CF93DF9318E01A
:10519C00412A08E810E61A930A9310913804CF9329
:1051AC00DF931A9312E01A9300E00A9310E21A9319
:1051BC00689443F80E944564DF91CF91DF91CF91C1
:1051CC0010E20E948860CF93DF9310E01A9312E0F4
:1051DC001A9310E01A930E94AE60DF91CF91109158
:1051EC00AB03103010E009F41FEF112311F40C94F1
:1051FC00042916E00E9488600C94072910E20E9492
:10520C008860CF93DF9318E0412A08E810E61A93E0
:10521C000A93EAE9F3ED0E942464DF91CF91E8E070
:10522C00F0E0FA93EA9310E0108318E01A931081DF
:10523C00088101171FEF08F01127112311F00C94AE
:10524C004A29CF93DF93ECECF3E0EF93FF93182D07
:10525C00012F1127FF91EF91E00FF11F11911A937C
:10526C000E948D28DF91CF911B831B81105D1C83C5
:10527C001C810E948860E981FA811081139510834A
:10528C00112311F00C941E292396CF93DF9310E079
:10529C001A9310E01A9311E01A930E94AE60DF91FA
:1052AC00CF91CF93DF9318E0412A08E810E61A93C8
:1052BC000A9310913904CF93DF931A9312E01A9347
:1052CC0000E00A9310E21A93689443F80E94456434
:1052DC00DF91CF91DF91CF9110E20E948860CF9344
:1052EC00DF9310E01A9312E01A9311E01A930E94C4
:1052FC00AE60DF91CF911091AB03103010E011F044
:10530C0008F01FEF112311F40C94912916E00E9460
:10531C0088600C94942910E20E94886010E50E9429
:10532C008860CF93DF931091E4031A930E948D2829
:10533C00DF91CF9118831881105D198319810E9418
:10534C0088601091AB03123010E009F41FEF1123A9
:10535C0011F40C94FF29CF93DF931091E5031A936A
:10536C000E948D28DF91CF9118831881105D1983CD
:10537C0019810E948860CF93DF931091E6031A93F2
:10538C000E948D28DF91CF9118831881105D1983AD
:10539C0019810E948860CF93DF9318E0412A08E8B6
:1053AC0010E61A930A93EFE9F3ED0E942464DF915F
:1053BC00CF91CF93DF9318E0412A08E810E61A93B7
:1053CC000A931091E703CF93DF931A9313E01A9388
:1053DC0000E00A9310E21A93689443F80E94456423
:1053EC00DF91CF91DF91CF9110E00E94CF600C94B0
:1053FC00482ACF93DF931091E6031A930E948D28CD
:10540C00DF91CF9118831881105D198319810E9447
:10541C0088601CE40E948860E8E0F0E0FA93EA936C
:10542C0010E0108318E01A931081088101171FEF08
:10543C0008F01127112311F00C94472ACF93DF9316
:10544C00EBEDF3E0EF93FF93182D012F1127FF9154
:10545C00EF91E00FF11F11911A930E948D28DF91AB
:10546C00CF911B831B81105D1C831C810E94886063
:10547C00E981FA81108113951083112311F00C949A
:10548C001B2A239608951881112311F40C945E2A7B
:10549C00CF93DF9318E0412A08E810E61A930A9399
:1054AC00E6EAF3ED0E942464DF91CF910C946C2A10
:1054BC00CF93DF9318E0412A08E810E61A930A9379
:1054CC00EBEAF3ED0E942464DF91CF91089510E094
:1054DC000E94C660CF93DF9318E0412A08E810E6DB
:1054EC001A930A93FE0133960E942D64DF91CF919B
:1054FC00CF93DF9310E01A9310E01A9311E01A93F4
:10550C000E94AE60DF91CF91CF93DF9318811A93F5
:10551C000E94492ADF91CF910895CF93DF9310E039
:10552C001A9310E01A9311E01A930E94AE60DF9167
:10553C00CF91CF93DF9318E0412A08E810E61A9335
:10554C000A93E0EBF3ED0E942464DF91CF91188174
:10555C00112311F40C94E52ACF93DF9318E0412A20
:10556C0008E810E61A930A93E8EBF3ED0E94246422
:10557C00DF91CF911981112311F40C94D52ACF937B
:10558C00DF9318E0412A08E810E61A930A93EDEB32
:10559C00F3ED0E942464DF91CF910C94E32ACF9316
:1055AC00DF9318E0412A08E810E61A930A93E2EC1C
:1055BC00F3ED0E942464DF91CF910C94F32ACF93E6
:1055CC00DF9318E0412A08E810E61A930A93E7ECF7
:1055DC00F3ED0E942464DF91CF9110E00E94CF6024
:1055EC00089510E00E94C660CF93DF9318E0412A23
:1055FC0008E810E61A930A93ECECF3ED0E9424648D
:10560C00DF91CF91CF93DF9310E01A9310E01A93B0
:10561C0011E01A930E94AE60DF91CF91CF93DF938C
:10562C0018E0412A08E810E61A930A93E5E5F6ED2E
:10563C00EF93FF931091EE03012F1127ACE0B0E034
:10564C00E89445F80E945C67FF91EF91E00FF11F21
:10565C000E942464DF91CF91089510E00E94C660EF
:10566C00CF93DF9318E0412A08E810E61A930A93C7
:10567C00EDEDF3ED0E942464DF91CF91CF93DF9396
:10568C0010E01A9310E01A9311E01A930E94AE6086
:10569C00DF91CF91CF93DF9318E0412A08E810E611
:1056AC001A930A931091EC031F5FCF93DF931A9315
:1056BC0010E01A9310E01A9310E21A93689443F8CE
:1056CC000E944564DF91CF91DF91CF91089510E056
:1056DC000E94C660CF93DF9318E0412A08E810E6D9
:1056EC001A930A93EEEEF3ED0E942464DF91CF91AE
:1056FC00CF93DF9310E01A9310E01A9311E01A93F2
:10570C000E94AE60DF91CF91CF93DF9318E0412AD6
:10571C0008E810E61A930A93E5E5F6EDEF93FF938C
:10572C00109101041F5E012F1127ACE0B0E0E8944A
:10573C0045F80E945C67FF91EF91E00FF11F0E940A
:10574C002464DF91CF91089510E00E94C660CF933E
:10575C00DF9318E0412A08E810E61A930A93EFEF5A
:10576C00F3ED0E942464DF91CF91CF93DF9310E08F
:10577C001A9310E01A9311E01A930E94AE60DF9115
:10578C00CF91CF93DF931B811A930E94492ADF910B
:10579C00CF911A81112311F40C94E42BCF93DF9346
:1057AC0018E0412A08E810E61A930A93E0E1F4EDB8
:1057BC000E942464DF91CF910C94F22BCF93DF9352
:1057CC0018E0412A08E810E61A930A93E5E1F4ED93
:1057DC000E942464DF91CF911981112311F40C9450
:1057EC00072CCF93DF9318E0412A08E810E61A93B0
:1057FC000A93EAE1F4ED0E942464DF91CF910C94BA
:10580C00152CCF93DF9318E0412A08E810E61A9381
:10581C000A93EFE1F4ED0E942464DF91CF9118819B
:10582C00112311F40C942A2CCF93DF9318E0412A06
:10583C0008E810E61A930A93E4E2F4ED0E9424645B
:10584C00DF91CF910C94382CCF93DF9318E0412A41
:10585C0008E810E61A930A93E9E2F4ED0E94246436
:10586C00DF91CF91089510E00E94C660CF93DF9333
:10587C0018E0412A08E810E61A930A93EEE2F4EDD8
:10588C000E942464DF91CF91CF93DF9310E01A93A1
:10589C0010E01A9311E01A930E94AE60DF91CF9141
:1058AC00CF93DF931A811A930E94492ADF91CF91EB
:1058BC00CF93DF9319811A930E94492ADF91CF91DC
:1058CC0018811170113010E009F41FEF112311F43D
:1058DC000C94752C13E40E9488600C94782C16E5BB
:1058EC000E948860188116951F5C188318810E948D
:1058FC008860089510E00E94C660CF93DF9318E093
:10590C00412A08E810E61A930A93EFE3F4ED0E949B
:10591C002464DF91CF91CF93DF9310E01A9310E0C2
:10592C001A9311E01A930E94AE60DF91CF91188107
:10593C00103010E009F41FEF112311F40C94B02C6B
:10594C00CF93DF9310E01A930E94492ADF91CF91F5
:10595C000C94B62C1881105D188318810E948860F5
:10596C00089510E00E94C660E4E6F4E0EF93FF9324
:10597C003196FA93EA9318E21A9317EF41221FEB30
:10598C0041221C81CF93DF931A9312E01A9300E00B
:10599C000A9310E21A930E944564DF91CF9118E2AA
:1059AC001F9318810F91011B102FFF91EF91108302
:1059BC002396CF93DF9318E0412A08E810E61A9358
:1059CC000A93E0E5F4ED0E942464DF91CF911981F4
:1059DC001F9318810F91011710E009F01FEF11238D
:1059EC0011F40C940A2DCF93DF9318E0412A08E8A8
:1059FC0010E61A930A93E4E6F4E00E942D64DF911A
:105A0C00CF9110E20E948860CF93DF9310E01A933D
:105A1C0010E01A9311E01A930E94AE60DF91CF91BF
:105A2C00CF93DF9318E0412A08E810E61A930A9303
:105A3C00E7E5F4ED0E942464DF91CF91E4E6F4E015
:105A4C00EF93FF933196FA93EA9318E21A9317EFB8
:105A5C0041221FEB41221B81CF93DF931A9312E05B
:105A6C001A9300E00A9310E21A930E944564DF91A6
:105A7C00CF9118E21F9318810F91011B102FFF91EA
:105A8C00EF9110832396CF93DF9310E01A9316E0D7
:105A9C001A9311E01A930E94AE60DF91CF91CF93CD
:105AAC00DF9318E0412A08E810E61A930A93E4E61B
:105ABC00F4E00E942D64DF91CF911091AB03103074
:105ACC0010E009F41FEF112311F40C947D2DCF93EA
:105ADC00DF9318E0412A08E810E61A930A93E3E6EC
:105AEC00F4ED0E942464DF91CF910C948B2DCF9315
:105AFC00DF9318E0412A08E810E61A930A93E8E6C7
:105B0C00F4ED0E942464DF91CF910E940428089543
:105B1C0010915A04112311F40C94AE2DCF93DF93F2
:105B2C0010E01A9310E01A9310E01A930E94AE60E2
:105B3C00DF91CF91CF93DF9318E0412A08E810E66C
:105B4C001A930A93EDE6F4ED0E942464DF91CF9151
