:10007C0010B11370C12E1C2D1F931D2D0F91011744
:10008C0010E009F01FEF112311F40C9481001C2DCA
:10009C00103010E009F41FEF112311F40C947D00C3
:1000AC001E2D133010E009F41FEF112311F40C94E2
:1000BC007D001D2D113010E009F41FEF112311F4F8
:1000CC000C946F0010913D02139510933D020C940B
:1000DC007D001D2D123010E009F41FEF112311F4D7
:1000EC000C947D0010913D021A9510933D021D2D2C
:1000FC00E12E1C2DD12EB394089510E015BF10E005
:10010C001093690010E01DBB10E01093680010E024
:10011C001093600010E01093610010E014BF1124E4
:10012C00F894A8951FBACFEFD0E1DEBBCDBB11E0A0
:10013C00A0E0B1E0ECEFFFEF02C005900D92A23011
:10014C00B107D9F712E0A2E0B1E001C01D92AD30C9
:10015C00B107E1F70E94B400F894FFCF14BEA89544
:10016C00809160008861809360001092600005B7F8
:10017C00102F016005BF12E015BF0C945A7D089535
:10018C0010913802139510933802109138021830E0
:10019C0010E009F41FEF112311F40C94DD0010E0B2
:1001AC00109338021091390210951093390208956A
:1001BC0018811F9316E11F93E89440F8EDE1F4E0E9
:1001CC00A4E0B0E03F914F9150E00E94AE640895DE
:1001DC0000E010E020E030E000931D0410931E04BA
:1001EC0020931F0430932004CF93DF9318811A932C
:1001FC000E94DE00DF91CF9118811F9312E01F93B4
:10020C00E89440F8E6E1F0E03F914F91A1E0B0E0D6
:10021C0060E050E00E94AE6418811F9313E01F93BE
:10022C00E89440F8E6E1F0E03F914F91A1E0B0E0B6
:10023C0068E250E00E94AE6418811F9314E01F9393
:10024C00E89440F8E6E1F0E03F914F91A1E0B0E096
:10025C0064E150E00E94AE6418811F9315E01F9377
:10026C00E89440F8E6E1F0E03F914F91A1E0B0E076
:10027C0060E850E00E94AE6400E010E020E030E066
:10028C0000931D0410931E0420931F04309320042C
:10029C00CF93DF9318811A930E94DE00DF91CF91E8
:1002AC00089516E9109333025A9808951AE01093A2
:1002BC0033025A980895219710E51F9309811A81EA
:1002CC001F93E89440F809811A81102FE6E1F0E0C1
:1002DC00612FA1E0B0E03F914F9150E00E94AE64DD
:1002EC0010E51F93FE01A1E0B0E04F910E949564D0
:1002FC0018810895CF93DF9310E51A930A811B811F
:10030C001A930A93FE0133968F011A930A9310E005
:10031C0001E01A930A930E94A464DF91CF9110E03C
:10032C0007E00E94526508952297CF93DF9310E562
:10033C001A930F8118851A930A93FE0135968F0133
:10034C001A930A9310E004E01A930A930E94A4648F
:10035C00DF91CF9110E007E00E94526508952B9732
:10036C0013E910937A0011E00E94616513EC10936D
:10037C007A0010917A001071103010E009F01FEF24
:10038C00112311F40C94BF0113E810937A001C850F
:10039C001B3010E009F41FEF112311F40C94DA0157
:1003AC0013E018830C94E3011C85E5E8F2E01F715F
:1003BC000027E10FF01F108118831881012F1127DE
:1003CC001E830D830D811E81015010401C830B83F5
:1003DC001C85E5E6F2E01F710027E10FF01F10818C
:1003EC00012F112718870F8310917900012F1127E6
:1003FC000F931F930B811C81019509F41A9510958D
:10040C003F912F91020F131F1A87098709851A85AF
:10041C000F931F930F8118850F931F930D811E81CE
:10042C003F912F91020F131F98011F910F91A0E87C
:10043C001A273A27131709F4021710E011F008F0E5
:10044C001FEF1F9309851A850F931F930F81188532
:10045C000F931F930B811C81019509F41A9510952C
:10046C003F912F91020F131F98011F910F91A0E83C
:10047C001A273A27131709F402171FEF08F0112750
:10048C000F91102B112311F40C94730212E31983A6
:10049C001C851F931981E5ECF2E0AF91AF71BB277E
:1004AC00EA0FFB1F10831C851F931B85E5EAF2E006
:1004BC00AF91AF71BB27EA0FFB1F10831C851F93F5
:1004CC0013E0E5E8F2E0AF91AF71BB27EA0FFB1F39
:1004DC0010831FEF1A830C947E021C85E5ECF2E06E
:1004EC001F710027E10FF01F1081198310E01A8390
:1004FC001981103010E009F41FEF112311F40C9442
:10050C0094021C851F9317E0E5E8F2E0AF91AF7100
:10051C00BB27EA0FFB1F10830C94C3021A81112313
:10052C0011F40C94C30209851A85A0E81A27103817
:10053C0009F402301FEF08F01127112311F40C9469
:10054C00AB0210E000E01A8709871C851F931B85FE
:10055C00E5EAF2E0AF91AF71BB27EA0FFB1F108306
:10056C001C851F9309851A85102FE5E6F2E0AF91E3
:10057C00AF71BB27EA0FFB1F108308952297149AC3
:10058C001598169A1BB11F7810631BB9CF93DF9384
:10059C001BE01A931FEF1A930E94B501DF91CF91C4
:1005AC0010913802103011F00C9414031498159A11
:1005BC00169A1BB11F78712EFE013196FA93EA93AD
:1005CC0010E0108317E01A931081088101171FEFB8
:1005DC0008F01127112311F00C941103172D1F9300
:1005EC001C81110F110F110F110F0F91102B1BB933
:1005FC00CF93DF931C811A931E811A930E94B5012D
:10060C00DF91CF91E981FA81108113951083112329
:10061C0011F00C94EB0223960C940E04113011F093
:10062C000C948603149A1598169A1BB11F78712E88
:10063C00FE013196FA93EA9318E010831AE01A93AC
:10064C001081088101171FEF08F01127112311F0F9
:10065C000C9450031C811850912E172D1F93192D9B
:10066C00110F110F110F110F0F91102B1BB9CF93ED
:10067C00DF931C811A931E811A930E94B501DF919E
:10068C00CF91E981FA81108113951083112311F018
:10069C000C9427032396FE013196FA93EA931CE0FF
:1006AC0010831FE01A931081088101171FEF08F0C7
:1006BC001127112311F00C9483031C811850912ED7
:1006CC00172D1F93192D110F110F110F110F0F91C2
:1006DC00102B1BB9CF93DF931C811A931E811A9395
:1006EC000E94B501DF91CF91E981FA8110811395B8
:1006FC001083112311F00C945A0323960C940E04BE
:10070C00123011F00C94C503149A159A16981BB15B
:10071C001F78712EFE013196FA93EA9310E1108343
:10072C0017E11A931081088101171FEF08F01127A8
:10073C00112311F00C94C2031C811051912E172D12
:10074C001F93192D110F110F110F110F0F91102B4A
:10075C001BB9CF93DF931C811A931E811A930E94AD
:10076C00B501DF91CF91E981FA8110811395108346
:10077C00112311F00C94990323960C940E0413304E
:10078C0011F00C940E041FEF00913502002309F0B8
:10079C001095112311F40C940C0419E110933502EB
:1007AC00FE013196FA93EA9310E0108317E11A9345
:1007BC001081088101171FEF08F01127112311F088
:1007CC000C940B041C81E5ECF2E01F710027E10F87
:1007DC00F01F1081712E112770E0771510F47A94A8
:1007EC001FEF1C811F93172DE5ECF2E0AF91AF7159
:1007FC00BB27EA0FFB1F1083E981FA811081139547
:10080C001083112311F00C94DF0323960C940E0427
:10081C0008951091FE042B981EBD1DB517FFFDCF3A
:10082C001EB51093FF042B9A08951091FB042B987E
:10083C001EBD1DB517FFFDCF1EB51093FD04109105
:10084C00FA041EBD1DB517FFFDCF1EB51093FC0499
:10085C002B9A08951091F1042B981EBD1DB517FF0E
:10086C00FDCF1EB51093F5041091F0041EBD1DB5FF
:10087C0017FFFDCF1EB51093F4041091EF041EBDAD
:10088C001DB517FFFDCF1EB51093F3041091EE04A8
:10089C001EBD1DB517FFFDCF1EB51093F2042B9A8C
:1008AC0008951091EC0429981EBD1DB517FFFDCFBE
:1008BC001091EB041EBD1DB517FFFDCF299A0895AD
:1008CC00109101051EBD1DB517FFFDCF1EB5109370
:1008DC0002050895289815E0109301050E946604FE
:1008EC000E946604289A109102050895289815E034
:1008FC00109301050E9466040E9466041091020583
:10090C001170103010E009F41FEF112311F40C9446
:10091C008204289A0895289816E0109301050E94E5
:10092C006604289A08950E949104289811E0109367
:10093C0001050E94660410E0109301050E946604F4
:10094C00289A0E947C0408950E949104289811E032
:10095C00109301050E9466041FE3109301050E9489
:10096C006604289A0E947C0408950E949104289899
:10097C003B812A811981088100930305109304059A
:10098C00209305053093060510E2109301050E9493
:10099C00660410910505109301050E9466041091E0
:1009AC000405109301050E94660410910305109331
:1009BC0001050E946604289A0E947C04109102058D
:1009CC001072103010E009F01FEFE894112309F0B9
:1009DC0068941091E20412F91093E2040091E2047D
:1009EC00112702FD1FEF109508950E94910428987D
:1009FC0017EC109301050E946604289A0E947C044F
:100A0C00109102051072103010E009F01FEFE894FD
:100A1C00112309F068941091E20412F91093E20486
:100A2C000091E204112702FD1FEF10950895219704
:100A3C0009811A8101501040102F18830E949104D3
:100A4C0028983E812D811C810B8100930305109306
:100A5C000405209305053093060512E0109301055B
:100A6C000E94660410910505109301050E9466040E
:100A7C0010910405109301050E9466041091030562
:100A8C00109301050E946604E7E0F0E0FA93EA9304
:100A9C0010E01083EF93FF931A81FF91EF911A935B
:100AAC001081088101171FEF08F01127112311F095
:100ABC000C947505172DE0E0FFE01F7F0027E10F78
:100ACC00F01F1081109301050E946604E981FA81E0
:100ADC00108113951083112311F00C945705239654
:100AEC00289A0E947C04109102051072103010E0BC
:100AFC0009F01FEFE894112309F068941091E204B7
:100B0C0012F91093E2040091E204112702FD1FEF89
:100B1C001095089521970E947C040A811B81015035
:100B2C001040102F18833F812E811D810C81009362
:100B3C0003051093040520930505309306052898AA
:100B4C001BE0109301050E9466041091050510939B
:100B5C0001050E94660410910405109301050E9482
:100B6C00660410910305109301050E94660410E0C1
:100B7C00109301050E946604E7E0F0E0FA93EA9313
:100B8C0010E01083EF93FF931A81FF91EF911A936A
:100B9C001081088101171FEF08F01127112311F0A4
:100BAC000C9402060E9466041C81112311F40C940F
:100BBC00ED05172D1F9310910205E0E0FEE0AF91BB
:100BCC00AF7FBB27EA0FFB1F10830C94F905172D81
:100BDC001F9310910205E0E0FFE0AF91AF7FBB27C0
:100BEC00EA0FFB1F1083E981FA81108113951083A2
:100BFC00112311F00C94CF052396289A0895EBEE4F
:100C0C00F4E0EF93FF931881FF91EF911193ECEEC9
:100C1C00F4E010E011930E9457040E9430040091FC
:100C2C00F2041091F3042091F4043091F50408952A
:100C3C00EBEEF4E0EF93FF931881FF91EF9111939A
:100C4C00ECEEF4E010E811930E945704EAEFF4E0A4
:100C5C00EF93FF931981FF91EF911193EBEFF4E078
:100C6C0010E011930E941B040895EBEEF4E0EF9357
:100C7C00FF931881FF91EF911193ECEEF4E010E8E3
:100C8C0011930E94570409811A810093FA0410935E
:100C9C00FB040E941B040895EBEEF4E0EF93FF932A
:100CAC001881FF91EF911193ECEEF4E010E81193A1
:100CBC000E9457043C812B811A8109810093EE0418
:100CCC001093EF042093F0043093F1040E9430044D
:100CDC000895CF93DF9310EF1A930E940506DF91CE
:100CEC00CF910093D7041093D8042093D904309358
:100CFC00DA04E8E0F0E00E94A9650093D7041093B1
:100D0C00D8042093D9043093DA04CF93DF93009165
:100D1C00D7041091D8042091D9043091DA043A9375
:100D2C002A931A930A9310EF1A930E945206DF919A
:100D3C00CF91ECE0F0E00E94A9650093D7041093EA
:100D4C00D8042093D9043093DA04CF93DF93009125
:100D5C00D7041091D8042091D9043091DA043A9335
:100D6C002A931A930A9311EF1A930E945206DF9159
:100D7C00CF9108951DE00E940E651AE00E940E6549
:100D8C00089513E20E940E6510914202105D0E94BC
:100D9C000E651AE30E940E65CF93DF9318E0412A8B
:100DAC000EE015E61A930A930091D0041091D10429
:100DBC00CF93DF931A930A9310E01A9310E01A93CF
:100DCC0010E21A93689443F8689445F8E89454F840
:100DDC0055F80E946969DF91CF91DF91CF911DE3A6
:100DEC000E940E650895CF93DF9318E0412A0EE020
:100DFC0015E61A930A93E9E8F4E00E941867DF916C
:100E0C00CF910E94C0060895229710E00FEF009337
:100E1C00D0041093D1040E94C7061A81103010E040
:100E2C0009F01FEF112311F40C941F071DE20E940F
:100E3C000E65CF93DF9318E0412A0EE015E61A9366
:100E4C000A931C81CF93DF931A9310E01A9310E04E
:100E5C001A9310E21A93689443F80E943067DF915A
:100E6C00CF91DF91CF9110E20E940E65CF93DF936B
:100E7C0018E0412A0EE015E61A930A93E8E6FAED1B
:100E8C00EF93FF931C81012F1127ADE0B0E0E894A4
:100E9C0045F80E94476AFF91EF91E00FF11F0E9405
:100EAC000F67DF91CF910E94C0060895E0E6F4E051
:100EBC00EF93FF933196FA93EA9318E21A9317EF94
:100ECC0041221FEB41220091D7041091D8042091AC
:100EDC00D9043091DA04CF93DF933A932A931A937F
:100EEC000A9310E01A9310E01A9310E21A93689484
:100EFC0045F8E89454F855F842F80E947067DF9171
:100F0C00CF9118E21F9318810F91011B102FFF91A5
:100F1C00EF911083239608950E94C706CF93DF9319
:100F2C0018E0412A0EE015E61A930A93E0E6F4E085
:100F3C000E941867DF91CF910E94C00608950E940D
:100F4C005C070E94920708950091D4041091D50477
:100F5C0017FF03C03FEF2FEF02C033272227009368
:100F6C00D7041093D8042093D9043093DA040E9448
:100F7C00A50708951091DD04012F11270093D404C7
:100F8C001093D5040E94AA0708950E94C7060E94D8
:100F9C005C07CF93DF9318E0412A0EE015E61A9315
:100FAC000A93E0E6F4E00E941867DF91CF91CF93AB
:100FBC00DF9318E0412A0EE015E61A930A93E3E753
:100FCC00F7ED0E940F67DF91CF91CF93DF9318E07D
:100FDC00412A0EE015E61A930A93E9EAF4E00E941E
:100FEC001867DF91CF911DE50E940E650E94C00627
:100FFC000895E9EAF4E0EF93FF933196FA93EA93BC
:10100C001FE11A9317EF41221FEB412214E20E94B9
:10101C00E5690091D7041091D8042091D90430913E
:10102C00DA04B801C901492F0E94D869482F0E94DF
:10103C00D869472F0E94D869462F0E94D8691FE1B2
:10104C001F9318810F91011B102FFF91EF911083AB
:10105C0023960E94CB0708951AEF109334021AEFCF
:10106C001093330210913E021093400210E0109343
:10107C00410208950E9470041F7E103010E009F0A8
:10108C001FEF112311F40C9466080E94C706CF932E
:10109C00DF9318E0412A0EE015E61A930A93E6E76F
:1010AC00F7ED0E940F671DE00E94E5691AE00E94AF
:1010BC00E569DF91CF911FEF0C9469080C946908D6
:1010CC0010E00C946908089522971AE314B91FE9EB
:1010DC0015B91091E2041B7F1093E204469815E0B9
:1010EC000E946165469A10E0198310E00AE00E94A4
:1010FC005265FE0131961081139510831127379993
:10110C001FEF1F931981143610E011F008F01FEF38
:10111C000F91102B112311F40C947B081BEB14B9B9
:10112C001FE915B916E206EB0093D0041093D10415
:10113C000E94C706112737991FEF112311F40C9445
:10114C004209CF93DF9313E01A930E940506DF91B7
:10115C00CF911091F2041093F8041091F3041093B2
:10116C00F9041091F4041093F7041091F504109302
:10117C00F6040091F6041091F7042091F8043091D4
:10118C00F90440E83427303A29F4243119F41031A9
:10119C0009F402321FEF08F011271883188111236C
:1011AC0011F40C94E908CF93DF9318E0412A0EE078
:1011BC0015E61A930A93E8E8F7ED0E940F67DF91A2
:1011CC00CF910C94F708CF93DF9318E0412A0EE0EF
:1011DC0015E61A930A93E5E9F7ED0E940F67DF9184
:1011EC00CF91CF93DF9318E0412A0EE015E61A93C6
:1011FC000A930091F2041091F3042091F4043091BD
:10120C00F504689443F8B801C901492F0E94D869C4
:10121C00482F0E94D869472F0E94D869462F0E94F8
:10122C00D869DF91CF911881112311F40C942E09F8
:10123C00CF93DF9318E0412A0EE015E61A930A9338
:10124C00E0EAF7ED0E940F67DF91CF910C943C0917
:10125C00CF93DF9318E0412A0EE015E61A930A9318
:10126C00EEEAF7ED0E940F67DF91CF910E94C00666
:10127C000E946F060C945809CF93DF9318E0412A13
:10128C000EE015E61A930A93E3EBF7ED0E940F6755
:10129C00DF91CF911091E20414601093E2040E944C
:1012AC00C006469808952497CF93DF930E946A084E
:1012BC00DF91CF911091E204103010E009F01FEF94
:1012CC00112311F40C94A309A091E304B091E4044C
:1012DC001196A093E304B093E404109156041123E7
:1012EC0011F40C949909CF93DF9310E01A9310E04A
:1012FC001A9311E01A930E949963DF91CF91CF93C7
:10130C00DF9318E0412A03E713E61A930A93EFECF4
:10131C00F7ED0E940F67DF91CF9111E004EF0E946F
:10132C0052650E943208CF93DF9317E01A930E9404
:10133C00EE33DF91CF910C947A0A1FEF1093ED04EA
:10134C0010915604112311F40C94FE09CF93DF93E2
:10135C0013E01A930E940506DF91CF910091F204DD
:10136C001091F3042091F4043091F5043B832A830B
:10137C0019830883CF93DF9310E01A9310E01A932C
:10138C0011E01A930E949963DF91CF91CF93DF9371
:10139C0018E0412A03E713E61A930A93EDEDF7EDF3
:1013AC000E940F67DF91CF91CF93DF9318E0412A12
:1013BC0003E713E61A930A933D812C811B810A8162
:1013CC00689443F8B801C901492F0E94D869482F85
:1013DC000E94D869472F0E94D869462F0E94D8696D
:1013EC00DF91CF9111E004EF0E9452650E94320808
:1013FC0011271A991FEF1095112311F40C947A0AE6
:10140C00E8E0F0E0FA93EA9310E010831FEF1A93F0
:10141C001081088101171FEF08F01127112311F01B
:10142C000C94310ACF93DF9312E01A930E940506B5
:10143C00DF91CF91CF93DF9312E01A930E940506B0
:10144C00DF91CF91E981FA811081139510831123DB
:10145C0011F00C940F0A239611271A991FEF10956F
:10146C00112311F40C947A0A10E01093ED0410E09F
:10147C000FEF0093D0041093D10402E110E020E0B0
:10148C0030E00093D7041093D8042093D904309300
:10149C00DA04E9EAF4E0EF93FF933196FA93EA93D6
:1014AC001FE11A9317EF41221FEB4122E4EEF7EDF7
:1014BC000E940F671FE11F9318810F91011B102FC2
:1014CC00FF91EF91108323960E94CB07CF93DF936C
:1014DC0019E01A930E94EE33DF91CF9111E004EFE3
:1014EC000E9452650E9432080895ECEEF4E010E878
:1014FC001193EBEEF4E0EF93FF93109107051F5F50
:10150C00FF91EF9111930E945704109108051093CD
:10151C00FE040E940F04EBEEF4E01091070511930A
:10152C000E9457040895ECEEF4E010E81193EBEEF2
:10153C00F4E0EF93FF93109107051F5FFF91EF917C
:10154C0011930E945704109108051093FE040E94F9
:10155C000F04089510915604112311F40C94E60A0B
:10156C0010E00E94B163CF93DF9318E0412A03E7A8
:10157C0013E61A930A93E2EFF7ED0E940F67DF91DF
:10158C00CF91CF93DF9310E01A9310E01A9311E0F0
:10159C001A930E949963DF91CF91CF93DF9318E058
:1015AC00412A03E713E61A930A93EBEFF7ED0E9437
:1015BC000F67DF91CF9110E00E94BA630E9432084E
:1015CC00089510915604112311F40C94430B1FEF42
:1015DC0000913402002309F01095112311F40C949E
:1015EC00410BCF93DF9310E01A9310E01A9311E0A4
:1015FC001A930E949963DF91CF91CF93DF9318E0F8
:10160C00412A03E713E61A930A93E4E0F8ED0E94EB
:10161C000F67DF91CF91CF93DF9318E0412A03E757
:10162C0013E61A930A930091E6041091E7042091B3
:10163C00E8043091E904CF93DF933A932A931A93F9
:10164C000A9318E01A9300E00A9310E21A93689434
:10165C0043F8689445F8E89454F855F842F80E9419
:10166C007067DF91CF91DF91CF9110E00E94BA6348
:10167C0012E3109334020C94470B10E002E00E942A
:10168C005265089510915604112311F40C946A0BB1
:10169C00CF93DF9310E01A9310E01A9311E01A9392
:1016AC000E949963DF91CF91CF93DF9318E0412A89
:1016BC0003E713E61A930A93EDE0F8ED0E940F6727
:1016CC00DF91CF910E943208089510915604112396
:1016DC0011F40C948D0BCF93DF9310E01A9310E060
:1016EC001A9311E01A930E949963DF91CF91CF93D3
:1016FC00DF9318E0412A03E713E61A930A93E7E114
:10170C00F8ED0E940F67DF91CF910E943208089587
:10171C0065970E94C706CF93DF9318E0412A0EE02D
:10172C0015E61A930A93EEE1F8ED0E940F671DE09F
:10173C000E94E5691AE00E94E569DF91CF9110E003
:10174C001A8710E0188710E01C8B10E0198B1FEF24
:10175C00188B00E010E020E030E00093E6041093DA
:10176C00E7042093E8043093E90410E000E01C87C0
:10177C000B870E94B00A10E000E01983088310E088
:10178C0000E01B830A83388D2F891E890D893F83C6
:10179C002E831D830C831A851095112311F40C9440
:1017AC00400C10E000E01C870B8711275A991FEFA3
:1017BC001095E894112309F068941BB112F91BB928
:1017CC00CF93DF93FE017496FA93EA9314E61A937F
:1017DC000E94D764DF91CF911A871A85112311F4D7
:1017EC000C94110C1C89113010E009F41FEF1F939D
:1017FC001C89143010E009F41FEF0F91102B1123EA
:10180C0011F40C940F0C10E000E01C870B870C9467
:10181C00400C0C941B0C15E10E940E65FE013B96CE
:10182C00A081B1811196A083B1831C89113010E085
:10183C0009F41FEF1F931C89143010E009F41FEFFB
:10184C000F91102B1F931C89183110E009F41FEF16
:10185C000F91102B1F930B851C85103009F404314C
:10186C0010E011F008F01FEF0F91102B112311F461
:10187C000C94E60B18851095112311F40C944A0C5A
:10188C000E94E70A1FEF18871C89113010E009F439
:10189C001FEF112311F40C947E0DCF93DF93FE01F7
:1018AC007396FA93EA9314E61A930E94D764DF9125
:1018BC00CF9119871985112311F40C94780DCF93BE
:1018CC00DF93FE017296FA93EA931AE01A930E9440
:1018DC00D764DF91CF9119871B890FEF011B102F54
:1018EC001F931A890F91011710E009F41FEF1123B0
:1018FC0011F40C94760D10E0198BE8E0F0E0FA93FB
:10190C00EA9310E010831FE71A93108108810117E6
:10191C001FEF08F01127112311F00C94BC0CCF937E
:10192C00DF93EAE0F0E0FA93EA931AE01A930E944C
:10193C00D764DF91CF911C871C891F931A2D0F91AF
:10194C00100F1C8B182D1F931A2DE0E0FFE0AF91A8
:10195C00AF7FBB27EA0FFB1F1083E981FA8110814F
:10196C0013951083112311F00C948C0C2396CF93A8
:10197C00DF93FE017096FA93EA931AE01A930E9491
:10198C00D764DF91CF911987CF93DF933F812E815D
:10199C001D810C813A932A931A930A9310E000E864
:1019AC001A930A930E941D05DF91CF911095112374
:1019BC0011F40C94E80CFE013296A081B1811196C1
:1019CC00A083B183CF93DF933F812E811D810C8146
:1019DC003A932A931A930A9310E000E81A930A9305
:1019EC001FEF1A930E949005DF91CF91E8E0F0E091
:1019FC00FA93EA9310E010831FE71A931081088181
:101A0C0001171FEF08F01127112311F00C94380D5A
:101A1C00182DE0E0FEE01F7F0027E10FF01F108182
:101A2C001F93182DE0E0FFE01F7F0027E10FF01F50
:101A3C0010810F91011710E009F01FEF112311F421
:101A4C000C942F0DFE013396A081B1811196A083C9
:101A5C00B183E981FA81108113951083112311F060
:101A6C000C94050D239619891F9318890F91011752
:101A7C0010E009F41FEF112311F40C946C0D16E017
:101A8C000E940E653F812E811D810C8100581F4FD5
:101A9C002F4F3F4F3F832E831D830C830091E60411
:101AAC001091E7042091E8043091E90400581F4F8D
:101ABC002F4F3F4F0093E6041093E7042093E80464
:101ACC003093E9040E94E70A0C94760DFE013B96D4
:101ADC00A081B1811196A083B18315E10E940E659E
:101AEC000C947C0D10E00FEF1C870B8710E01C8B07
:101AFC0010E01A871C89143010E009F41FEF1F93B3
:101B0C001C89183110E009F41FEF0F91102B1F9353
:101B1C000B851C85103009F4043110E011F008F02D
:101B2C001FEF0F91102B112311F40C94D10B16E015
:101B3C000E940E6518891F9319890F91011710E0E7
:101B4C0009F01FEF112311F40C94D20D0FEF1FEFBE
:101B5C002FEF3FEF0093D7041093D8042093D904B0
:101B6C003093DA040E94C706CF93DF9318E0412A22
:101B7C000EE015E61A930A93E1E3F8ED0E940F6765
:101B8C001DE00E94E5691AE00E94E569DF91CF91A2
:101B9C000E94480B0C94E40D0091E6041091E704AC
:101BAC002091E8043091E9040093D7041093D804F1
:101BBC002093D9043093DA040E94E70A0881198132
:101BCC00103009F4003010E009F01FEF112311F46C
:101BDC000C94460E0FEF1FEF2FEF3FEF0093D7043F
:101BEC001093D8042093D9043093DA040E94C706CA
:101BFC00CF93DF9318E0412A0EE015E61A930A936F
:101C0C00E9E4F8ED0E940F67DF91CF91CF93DF935A
:101C1C0018E0412A0EE015E61A930A930A811B81FB
:101C2C00CF93DF931A930A9310E01A9310E01A9350
:101C3C0010E21A93689443F8E89445F8E89454F841
:101C4C0055F80E946969DF91CF91DF91CF91CF93C5
:101C5C00DF9318E0412A0EE015E61A930A93EAE5A1
:101C6C00F8ED0E940F671DE00E94E5691AE00E94E2
:101C7C00E569DF91CF911AEF109334020E946B0B40
:101C8C000A811B81103009F4003010E009F01FEFBD
:101C9C00112311F40C94A80E0FEF1FEF2FEF3FEF51
:101CAC000093D7041093D8042093D9043093DA040A
:101CBC000E94C706CF93DF9318E0412A0EE015E689
:101CCC001A930A93E3E6F8ED0E940F67DF91CF9128
:101CDC00CF93DF9318E0412A0EE015E61A930A938E
:101CEC000C811D81CF93DF931A930A9310E01A9302
:101CFC0010E01A9310E21A93689443F8E89445F8AC
:101D0C00E89454F855F80E946969DF91CF91DF91FE
:101D1C00CF91CF93DF9318E0412A0EE015E61A938A
:101D2C000A93EAE5F8ED0E940F671DE00E94E56951
:101D3C001AE00E94E569DF91CF911AEF10933402FB
:101D4C000E946B0B08952297CF93DF9312E01A93A6
:101D5C000E940506DF91CF9111271A991FEF1123CD
:101D6C0011F40C94AA0E0E94C7061091F4041A3AAE
:101D7C0010E009F41FEF112311F40C94CC0FCF9346
:101D8C00DF9318E0412A0EE015E61A930A9310919E
:101D9C000805CF93DF931A9310E01A9310E01A936F
:101DAC0010E21A93689443F80E943067DF91CF9148
:101DBC00DF91CF91CF93DF9318E0412A0EE015E627
:101DCC001A930A93E3E7F8ED0E940F67DF91CF9126
:101DDC001091F204103511F00C94040FCF93DF9393
:101DEC0018E0412A0EE015E61A930A93ECE7F8ED99
:101DFC000E940F67DF91CF910C949B0F113511F05E
:101E0C000C94180FCF93DF9318E0412A0EE015E6DF
:101E1C001A930A93E3E8F8ED0E940F67DF91CF91D4
:101E2C000C949B0F123511F00C942C0FCF93DF9365
:101E3C0018E0412A0EE015E61A930A93E9E8F8ED4A
:101E4C000E940F67DF91CF910C949B0F133511F00B
:101E5C000C94400FCF93DF9318E0412A0EE015E667
:101E6C001A930A93EEE8F8ED0E940F67DF91CF9179
:101E7C000C949B0F143511F00C94540FCF93DF93EB
:101E8C0018E0412A0EE015E61A930A93E7E9F8EDFB
:101E9C000E940F67DF91CF910C949B0F183511F0B6
:101EAC000C94680FCF93DF9318E0412A0EE015E6EF
:101EBC001A930A93EEE9F8ED0E940F67DF91CF9128
:101ECC000C949B0F1F3511F00C947C0FCF93DF9368
:101EDC0018E0412A0EE015E61A930A93E3EAF8EDAE
:101EEC000E940F67DF91CF910C949B0FCF93DF93E0
:101EFC0018E0412A0EE015E61A930A93EBEAF8ED86
:101F0C000E940F67DF91CF91CF93DF9318E0412AA6
:101F1C000EE015E61A930A931091F204689443F8B4
:101F2C00412F0E94D869DF91CF91CF93DF9318E0B6
:101F3C00412A0EE015E61A930A93E5EBF8ED0E94A0
:101F4C000F67DF91CF91CF93DF9318E0412A0EE01A
:101F5C0015E61A930A931091F304689443F8412FF1
:101F6C000E94D869DF91CF91CF93DF9318E0412A7B
:101F7C000EE015E61A930A93EEEAF7ED0E940F674E
:101F8C00DF91CF910E94C0060C94DC0FCF93DF93AE
:101F9C0018E0412A0EE015E61A930A93ECEBF8EDE3
:101FAC000E940F67DF91CF910E94C006089525977C
:101FBC001E811455109308050E947B0A1E81012F67
:101FCC0011273327222740E050E160E070E068944D
:101FDC0045F80E94A36A3C832B831A83098300E093
:101FEC0010E020E030E00093E6041093E704209327
:101FFC00E8043093E904E8E0F0E0FA93EA9310E0A7
:10200C0010831FE01A931081088101171FEF08F04D
:10201C001127112311F00C94C310CF93DF933F8140
:10202C002E811D810C813A932A931A930A9311E005
:10203C0000E01A930A9310E01A930E949005DF9126
:10204C00CF911885112311F40C946110EAE0F0E0A3
:10205C00FA93EA9310E010831FEF1A931081088112
:10206C0001171FEF08F01127112311F00C946010C9
:10207C001A2DE0E0FFE01F7F0027E10FF01F108119
:10208C001E83CF93DF9318E0412A0EE015E61A93D6
:10209C000A931885689443F8412F0E94D869DF9100
:1020AC00CF91E981FA81108113951083112311F0DE
:1020BC000C9435102396EAE0F0E0FA93EA9310E0E2
:1020CC0010831FE31A931081088101171FEF08F08A
:1020DC001127112311F00C949910E0E0FFE0EF931D
:1020EC00FF931A2D012F1127000F111F000F111F25
:1020FC00FF91EF91E00FF11F01911191219131911D
:10210C000093EE041093EF042093F0043093F10449
:10211C000E943004E981FA811081139510831123F8
:10212C0011F00C946A1023963F812E811D810C8135
:10213C0000501F4F2F4F3F4F3F832E831D830C8327
:10214C000091E6041091E7042091E8043091E90431
:10215C0000501F4F2F4F3F4F0093E6041093E7049E
:10216C002093E8043093E904E981FA8110811395F6
:10217C001083112311F00C940A1023960E94990AD3
:10218C001AEF109334020091E6041091E7042091A9
:10219C00E8043091E9040093D7041093D8042093F9
:1021AC00D9043093DA041FEF10933A0410E002E3E1
:1021BC000E945265CF93DF930E94A90EDF91CF91BD
:1021CC0008952D970E94C706CF93DF9318E0412AFC
:1021DC000EE015E61A930A931F85CF93DF931A939B
:1021EC0010E01A9310E01A9310E21A93689443F8D3
:1021FC000E943067DF91CF91DF91CF91CF93DF9326
:10220C0018E0412A0EE015E61A930A93E0EDF8ED7A
:10221C000E940F67DF91CF91CF93DF9310E01A9359
:10222C0018E41A930E941E06DF91CF9110E004E689
:10223C000E9452651D851C5A012F11273327222716
:10224C0040E050E160E070E0689445F80E94A36AB9
:10225C003C872B871A87098710E000E018870F83CB
:10226C0010E000E019830883E8E0F0E0FA93EA93C9
:10227C0010E010831FE01A931081088101171FEFE3
:10228C0008F01127112311F00C943E12CF93DF9319
:10229C003F852E851D850C853A932A931A930A93B4
:1022AC0011E000E01A930A9310E01A930E94900533
:1022BC00DF91CF9110E000E01E830D8310E000E071
:1022CC001C830B830A851B8519870887EAE0F0E0DD
:1022DC00FA93EA9310E0108317E01A9310810881A7
:1022EC0001171FEF08F01127112311F00C94B311F3
:1022FC00CF93DF9310E51A930E851F851A930A93DB
:10230C001FE000E00F931F930B851C853F912F91CD
:10231C00020F131F1A930A9310E000E21A930A9308
:10232C000E94A464DF91CF9110E00AE00E945265F4
:10233C0008851985005E1F4F198708870D851E8536
:10234C00005E1F4F1E870D87E981FA81108113955E
:10235C001083112311F00C947511239610E51F9323
:10236C00088519851F93E89440F808851985102F66
:10237C00E6E1F0E0612FA1E0B0E03F914F9150E039
:10238C000E94AE64CF93DF9310E51A931EE000E039
:10239C001A930A9311E000E01A930A930E94906436
:1023AC00DF91CF91EAE0F0E0FA93EA9310E010832A
:1023BC001FEF1A931081088101171FEF08F01127E6
:1023CC00112311F00C9414121A2DE0E0FFE01F7F82
:1023DC000027E10FF01F10811F931A2DE0E0FEE0A3
:1023EC001F7F0027E10FF01F10810F91011710E0E4
:1023FC0009F01FEF112311F40C940B12FE01369609
:10240C00A081B1811196A083B183E981FA811081F9
:10241C0013951083112311F00C94E11123960B8169
:10242C001C81103009F4003010E009F41FEF112367
:10243C0011F40C9426121EE20E940E650C942912C3
:10244C0013E20E940E653F852E851D850C8500507C
:10245C001F4F2F4F3F4F3F872E871D870C87E981DA
:10246C00FA81108113951083112311F00C944311F0
:10247C002396CF93DF9318E0412A0EE015E61A93CA
:10248C000A931DE50E94E5691DE00E94E5691AE0CA
:10249C000E94E569DF91CF911AEF109334020091FD
:1024AC00E6041091E7042091E8043091E9040093CC
:1024BC00D7041093D8042093D9043093DA041FEF77
:1024CC0010933A0408811981103009F4003010E09F
:1024DC0009F01FEF112311F40C94B9120E94C706D6
:1024EC00CF93DF9318E0412A0EE015E61A930A9376
:1024FC00ECEEF8ED0E940F67DF91CF91CF93DF9355
:10250C0018E0412A0EE015E61A930A930A811B8102
:10251C00CF93DF931A930A9310E01A9310E01A9357
:10252C0010E21A93689443F8E89445F8E89454F848
:10253C0055F80E946969DF91CF91DF91CF91CF93CC
:10254C00DF9318E0412A0EE015E61A930A93EAE5A8
:10255C00F8ED0E940F671DE00E94E5691AE00E94E9
:10256C00E569DF91CF9108951091E903103010E0E7
:10257C0009F01FEF112311F40C94DE12CF93DF93AB
:10258C001091E80310541F9319810F91100F1A9397
:10259C001CE01A930E941E06DF91CF91CF93DF931C
:1025AC0018811A931CE01A930E941E06DF91CF919A
:1025BC00089521971091E903103010E009F01FEFF6
:1025CC00112311F40C942E131A81E6E2F3E01F7719
:1025DC000027E10FF01F1081188318811F931981B8
:1025EC000F91011710E009F01FEF112311F40C9457
:1025FC002E13CF93DF931091E80310551F931B817B
:10260C000F91100F1A931CE01A930E941E06DF9173
:10261C00CF91CF93DF931A811A931CE01A930E94E7
:10262C001E06DF91CF91CF93DF9319811A931CE093
:10263C001A930E941E06DF91CF911A811F93198164
:10264C00E6E2F3E0AF91AF77BB27EA0FFB1F1083F5
:10265C000895CF93DF9310E01A931A811A931A817D
:10266C0016951A930E94DF12DF91CF91089521974E
:10267C0010E018830091AE03112704FD1FEF112306
:10268C0011F40C944D13FE011081139510830091DD
:10269C00AE03112705FD1FEF112311F40C945E13EB
:1026AC00FE01108113951083FE0110811395108388
:1026BC00CF93DF9318811A931EE41A930E941E067F
:1026CC00DF91CF911091D103103011F00C94701355
:1026DC000C947A13123011F00C9476130C947A1328
:1026EC00143011F00C949013CF93DF931FEF1A93C7
:1026FC001BE41A930E941E06DF91CF91CF93DF93B8
:10270C0010E01A931CE41A930E941E06DF91CF91DD
:10271C000C94B813113011F00C9496130C94A01364
:10272C00133011F00C949C130C94A013153011F071
:10273C000C94B813CF93DF931091F6031A931BE408
:10274C001A930E941E06DF91CF91CF93DF931091C5
:10275C00F5031A931CE41A930E941E06DF91CF9185
:10276C000C94B8131091D103103011F00C94C013C9
:10277C000C94C413113011F00C94DC13CF93DF9331
:10278C001091EF031A931DE41A930E941E06DF9119
:10279C00CF91CF93DF931091F0031A931AE41A930D
:1027AC000E941E06DF91CF910C942014123011F070
:1027BC000C94E2130C94E613133011F00C94FE13EA
:1027CC00CF93DF931091F1031A931DE41A930E9497
:1027DC001E06DF91CF91CF93DF931091F2031A93E2
:1027EC001AE41A930E941E06DF91CF910C942014C8
:1027FC00143011F00C9404140C940814153011F0CE
:10280C000C942014CF93DF931091F3031A931DE4CF
:10281C001A930E941E06DF91CF91CF93DF931091F4
:10282C00F4031A931AE41A930E941E06DF91CF91B7
:10283C000C942014089524970091AE03112700FDE9
:10284C001FEF1F930091AE03112701FD1FEF109591
:10285C000F9110231883E8E0F0E0FA93EA9310E06C
:10286C00108317E01A931081088101171FEF08F0ED
:10287C001127112311F00C948414E8ECF3E0EF937E
:10288C00FF93182D012F1127FF91EF91E00FF11FEE
:10289C0011911C83CF93DF9310E01A93182D145FC2
:1028AC001A931E811A930E94DF12DF91CF911B8124
:1028BC00112311F40C947014CF93DF931C811A9391
:1028CC001091FB031A931FEF1A930E943065DF914E
:1028DC00CF911C83CF93DF931C811A93182D105F1B
:1028EC001A930E941E06DF91CF91E981FA81108123
:1028FC0013951083112311F00C943A142396CF9353
:10290C00DF9310E01A9314E11A931091D0031A93E9
:10291C000E94DF12DF91CF910091AE03112700FDD1
:10292C001FEF1F9310910E0310950F91102311237D
:10293C0011F40C9439151091FF03112311F40C941C
:10294C00B314CF93DF9310E01A9318E11A930E94FB
:10295C001E06DF91CF910C94D6141881112311F41B
:10296C000C94C914CF93DF931091D0031A93109148
:10297C00FB031A931FEF1A930E943065DF91CF91DE
:10298C0019830C94CC141091D0031983CF93DF933B
:10299C0019811A9318E11A930E941E06DF91CF91A8
:1029AC000091AE03112703FD1FEF112311F40C94BA
:1029BC00EB14CF93DF9311E01A931BE11A930E944F
:1029CC001E06DF91CF910C94F514CF93DF9310E09A
:1029DC001A931BE11A930E941E06DF91CF9100916E
:1029EC00AE03112701FD1FEF112311F40C940B15ED
:1029FC00CF93DF931091F8031A931AE11A930E9464
:102A0C001E06DF91CF910C941615CF93DF93109186
:102A1C00F7031A931AE11A930E941E06DF91CF91C5
:102A2C000091AE03112702FD1FEF112311F40C943A
:102A3C002C15CF93DF931091FA031A9319E11A9383
:102A4C000E941E06DF91CF910C943715CF93DF9324
:102A5C001091F9031A9319E11A930E941E06DF9143
:102A6C00CF910C9450151091D0031983CF93DF9311
:102A7C0019811A9318E11A930E941E06DF91CF91C7
:102A8C00CF93DF9310E01A931AE11A930E941E065B
:102A9C00DF91CF9108952197E8E0F0E0FA93EA9363
:102AAC0010E0108318E01A931081088101171FEFB2
:102ABC0008F01127112311F00C949215E7EDF3E0B7
:102ACC00EF93FF93182D012F1127FF91EF91E00F3A
:102ADC00F11F11911B83CF93DF931B811A93182D38
:102AEC00105E1A930E941E06DF91CF91CF93DF9355
:102AFC0010E01A93182D1B5E1A931D811A930E94D5
:102B0C00DF12DF91CF91E981FA8110811395108347
:102B1C00112311F00C945B15239608952197CF93F4
:102B2C00DF9310E01A9311E21A931091E0031A93B9
:102B3C000E94DF12DF91CF91CF93DF9310E01A93B5
:102B4C0012E21A931091E1031A930E94DF12DF91A3
:102B5C00CF91CF93DF9310E01A9313E21A93109155
:102B6C00E2031A930E94DF12DF91CF911091E003E0
:102B7C0016951883CF93DF931091E0031F93188160
:102B8C000F91100F1A9319E21A930E941E06DF91EF
:102B9C00CF911091E10316951883CF93DF93109189
:102BAC00E1031F9318810F91100F1A931AE21A93D5
:102BBC000E941E06DF91CF911091E20316951883A7
:102BCC00CF93DF931091E2031F9318810F91100F95
:102BDC001A931BE21A930E941E06DF91CF91CF939A
:102BEC00DF9310E01A931BE41A931091E3031695EC
:102BFC001A930E94DF12DF91CF911091E303169587
:102C0C00EBE0F2EE1F730027E10FF01F1491188315
:102C1C00CF93DF9318811A931FE01A930E941E061C
:102C2C00DF91CF91CF93DF931091EB031A9316E0C2
:102C3C001A930E941E06DF91CF91CF93DF930091E0
:102C4C00C003112707FD1FEF11701A9317E01A9399
:102C5C000E941E06DF91CF910091C003112706FD43
:102C6C001FEF112311F40C9440161091EE031883EE
:102C7C000C9443161091ED031883CF93DF931881B6
:102C8C001A9313EB1A930E941E06DF91CF910895AD
:102C9C0021971091E703137018601883CF93DF937B
:102CAC0018811A9318E41A930E941E06DF91CF9193
:102CBC001091E7031370110F110F110F1883CF939D
:102CCC00DF93188110561A9315E41A930E941E066E
:102CDC00DF91CF911091E703103010E009F41FEF52
:102CEC00112311F40C949016CF93DF9310E01A93E8
:102CFC0016E41A930E941E06DF91CF91CF93DF93B7
:102D0C0010E01A9317E41A930E941E06DF91CF91DC
:102D1C000C94B316E6E0F4E0EF93FF931091E70305
:102D2C001150012F1127FF91EF91E00FF11F11911D
:102D3C001883CF93DF9318811A9316E41A930E9489
:102D4C001E06DF91CF91CF93DF9318811A9317E46E
:102D5C001A930E941E06DF91CF9110E010933B0452
:102D6C0008952197CF93DF93109100041A931AE0E2
:102D7C001A930E941E06DF91CF91CF93DF9310918F
:102D8C00E8031A9314E01A930E941E06DF91CF9168
:102D9C00CF93DF931091E9031A9315E01A930E94D5
:102DAC001E06DF91CF91CF93DF931091EB031A9313
:102DBC0016E01A930E941E06DF91CF911091040425
:102DCC00110F110F110F110F1F93109105041F708C
:102DDC000F91102B1883CF93DF9318811A9319E05E
:102DEC001A930E941E06DF91CF911091FC031F9342
:102DFC001091FE03117025E00E94246A0F91102B94
:102E0C001F931091FD0326E00E94246A0F91102B52
:102E1C001883CF93DF9318811A931BE01A930E94A7
:102E2C001E06DF91CF91CF93DF931091EC031A9391
:102E3C001DE01A930E941E06DF91CF91CF93DF9372
:102E4C00109103041A9319E41A930E941E06DF9141
:102E5C00CF91CF93DF9318EC1A931FE41A930E942F
:102E6C001E06DF91CF9110E010933A04089522973B
:102E7C0010E01883E8E0F0E0FA93EA9310E0108396
:102E8C0018E01A931081088101171FEF08F0112721
:102E9C00112311F00C949C171D811F93182DE5EA3A
:102EAC00F2E01F700027E10FF01F10810F91102B23
:102EBC00112311F40C949317182DE5E6F2E01F7012
:102ECC000027E10FF01F108116951C83E8ECF3E04E
:102EDC00EF93FF93182D012F1127FF91EF91E00F26
:102EEC00F11FEF93FF931C81FF91EF911193182D1C
:102EFC001F9310E0E5EAF2E0AF91AF70BB27EA0F49
:102F0C00FB1F10831FEF1B831D811095112311F4E0
:102F1C000C9493171DE010934002E981FA81108103
:102F2C0013951083112311F00C94491723961881D3
:102F3C00112311F40C94A817CF93DF930E94211442
:102F4C00DF91CF910895229710E01883E8E0F0E02C
:102F5C00FA93EA9310E0108318E01A931081088119
:102F6C0001171FEF08F01127112311F00C9408180A
:102F7C001D811F93182DE1EBF2E01F700027E10F6C
:102F8C00F01F10810F91102B112311F40C94FF17CB
:102F9C00182DE1E7F2E01F700027E10FF01F108100
:102FAC0016951C83E7EDF3E0EF93FF93182D012F9B
:102FBC001127FF91EF91E00FF11FEF93FF931C810D
:102FCC00FF91EF911193182D1F9310E0E1EBF2E0BC
:102FDC00AF91AF70BB27EA0FFB1F10831FEF1B8352
:102FEC001D811095112311F40C94FF171EE0109302
:102FFC004002E981FA81108113951083112311F09D
:10300C000C94B51723961881112311F40C941418F1
:10301C00CF93DF930E945115DF91CF9108952297A2
:10302C001A811F931091BA020F91102B112311F4D6
:10303C000C94381810917A021695198319811093F3
:10304C00E0031091E00316951093E10310E0109348
:10305C00BA02CF93DF930E949415DF91CF911EE0BB
:10306C00109340021A811F931091BB020F91102BE9
:10307C00112311F40C94551810917B021695198399
:10308C0019811093E20310E01093BB02CF93DF93EE
:10309C000E949415DF91CF911EE0109340021A818B
:1030AC001F931091BC020F91102B112311F40C944F
:1030BC00701810917C0216951093E30310E0109396
:1030CC00BC02CF93DF930E949415DF91CF911CE14A
:1030DC0010934002089521971091C503112311F408
:1030EC000C94BA1810E01093C5031AE01093400228
:1030FC001FEF10930B031091D103169500E30E9460
:10310C002E6A115E1883CF93DF9310E01A931AE4A2
:10311C001A931A811A930E94DF12DF91CF911091AA
:10312C00D1031170113010E009F41FEF112311F4C9
:10313C000C94AE18CF93DF9310E01A9319E41A9302
:10314C001FE31A930E94DF12DF91CF910C94BA18EF
:10315C00CF93DF9310E01A9319E41A931FE71A9395
:10316C000E94DF12DF91CF91CF93DF930E943D132A
:10317C00DF91CF91089523971091C3031F93109162
:10318C00C4030F91102B103010E009F41FEF112322
:10319C0011F40C94D3180C940F1A0091C30311273B
:1031AC0000FD1FEF112311F40C94F318CF93DF9350
:1031BC000E942114DF91CF911CE010934002CF9319
:1031CC00DF9312E41A930091AE03112700FD1FEF59
:1031DC001A930E942F13DF91CF910091C3031127F3
:1031EC0001FD1FEF112311F40C941319CF93DF93EE
:1031FC000E942114DF91CF911CE010934002CF93D9
:10320C00DF9316E41A930091AE03112701FD1FEF13
:10321C001A930E942F13DF91CF910091C3031127B2
:10322C0002FD1FEF112311F40C943319CF93DF938C
:10323C000E942114DF91CF911CE010934002CF9398
:10324C00DF9317E41A930091AE03112702FD1FEFD1
:10325C001A930E942F13DF91CF910091C303112772
:10326C0003FD1FEF112311F40C945319CF93DF932B
:10327C000E942114DF91CF911CE010934002CF9358
:10328C00DF9318E41A930091AE03112703FD1FEF8F
:10329C001A930E942F13DF91CF910091C303112732
:1032AC0004FD1FEF112311F40C947619CF93DF93C7
:1032BC000E943D13DF91CF911FEF10930B031BE086
:1032CC0010934002CF93DF931FE11A930091AE034A
:1032DC00112704FD1FEF1A930E942F13DF91CF913A
:1032EC000091C303112705FD1FEF112311F40C945A
:1032FC009919CF93DF930E943D13DF91CF911FEF6C
:10330C0010930B031FE010934002CF93DF931EE149
:10331C001A930091AE03112705FD1FEF1A930E941B
:10332C002F13DF91CF910091C403112704FD1FEFE0
:10333C001F930091C403112705FD1FEF0F91102B54
:10334C001F9310913B040F91102B112311F40C942B
:10335C00D71910E01093E7030091C003112704FD67
:10336C001FEF112311F40C94C0191091E70313955E
:10337C001093E7030091C003112705FD1FEF1123E4
:10338C0011F40C94CE191091E7031E5F1093E70310
:10339C00CF93DF930E944E16DF91CF9110E21093E2
:1033AC0040020091C403112706FD1FEF112311F4F5
:1033BC000C94F0190091C003112706FD1FEF109318
:1033CC00E403CF93DF930E949415DF91CF911DE11D
:1033DC00109340020091C403112707FD1FEF112326
:1033EC0011F40C94091A0091C003112707FD1FEF6B
:1033FC001093E503CF93DF930E949415DF91CF9147
:10340C001EE11093400210E01093C30310E01093E0
:10341C00C4030895E8E0F0E0FA93EA9310E0108317
:10342C0018E01A931081088101171FEF08F011277B
:10343C00112311F00C94621AE8ECF3E0EF93FF9374
:10344C00182D012F1127FF91EF91E00FF11FEF9332
:10345C00FF93E5EAF0E0EF93FF931B81012F112717
:10346C00A0E1B0E0E89445F80E94476A0F931F93DF
:10347C00182D012F11273F912F91020F131FFF9130
:10348C00EF91E00FF11F0E949B65FF91EF9111935B
:10349C00182D1F9319E0E5E8F2E0AF91AF70BB2750
:1034AC00EA0FFB1F1083E981FA81108113951083B9
:1034BC00112311F00C94191A239610E00AE00E94C3
:1034CC0052650895CF93DF931FEF1A930E94DA335E
:1034DC00DF91CF9118811F701883E8E0F0E0FA9328
:1034EC00EA9310E0108318E01A93108108810117F9
:1034FC001FEF08F01127112311F00C94BA1AE5EA0A
:10350C00F0E0EF93FF931B81012F1127A0E1B0E0B6
:10351C00E89445F80E94476A0F931F93182D012FCA
:10352C0011273F912F91020F131FFF91EF91E00F85
:10353C00F11FEF93FF93E8ECF3E0EF93FF93182D5B
:10354C00012F1127FF91EF91E00FF11F1191FF91C6
:10355C00EF910E947965E981FA81108113951083AE
:10356C00112311F00C947C1A2396CF93DF9310E067
:10357C001A930E94DA33DF91CF910E9432081DE03A
:10358C00109340020895E8E0F0E0FA93EA9310E01B
:10359C00108318E01A931081088101171FEF08F0AF
:1035AC001127112311F00C941B1BE7EDF3E0EF93A3
:1035BC00FF93182D012F1127FF91EF91E00FF11FB1
:1035CC00EF93FF93E5EAF1E0EF93FF931B81012F5B
:1035DC001127A0E1B0E0E89445F80E94476A0F93E8
:1035EC001F93182D012F11273F912F91020F131F9D
:1035FC00FF91EF91E00FF11F0E949B65FF91EF91FE
:10360C001193182D1F9319E0E1E9F2E0AF91AF701F
:10361C00BB27EA0FFB1F1083E981FA8110811395F8
:10362C001083112311F00C94D21A23960895CF9382
:10363C00DF931FEF1A930E94DA33DF91CF91188139
:10364C001F701883E8E0F0E0FA93EA9310E010831F
:10365C0018E01A931081088101171FEF08F0112749
:10366C00112311F00C946F1BE5EAF1E0EF93FF933B
:10367C001B81012F1127A0E1B0E0E89445F80E94CE
:10368C00476A0F931F93182D012F11273F912F91EC
:10369C00020F131FFF91EF91E00FF11FEF93FF93B8
:1036AC00E7EDF3E0EF93FF93182D012F1127FF9116
:1036BC00EF91E00FF11F1191FF91EF910E9479654D
:1036CC00E981FA81108113951083112311F00C9468
:1036DC00311B2396CF93DF9310E01A930E94DA33B9
:1036EC00DF91CF910E9432081EE0109340020895A2
:1036FC001881103010E009F41FEF112311F40C9411
:10370C00891B0C94A51CFE0110811A95108318813D
:10371C0013701883CF93DF93109134041A930E9483
:10372C00681ADF91CF91CF93DF93109135041A93E0
:10373C000E941D1BDF91CF91CF93DF931FEF1A9344
:10374C000E94DA33DF91CF91E9EAF3E0EF93FF9334
:10375C001881012F1127AAE0B0E0E89445F80E94E7
:10376C00476AFF91EF91E00FF11F109134040E9412
:10377C007965E9EAF3E0EF93FF931881012F1127A4
:10378C00AAE0B0E0E89445F80E94476A0F5F1F4F2B
:10379C00FF91EF91E00FF11F109135040E947965B4
:1037AC00E9EAF3E0EF93FF931881012F1127AAE0C8
:1037BC00B0E0E89445F80E94476A0E5F1F4FFF91F6
:1037CC00EF91E00FF11FEF93FF931091AE031F7376
:1037DC00FF91EF910E947965E9EAF3E0EF93FF9393
:1037EC001881012F1127AAE0B0E0E89445F80E9457
:1037FC00476A0D5F1F4FFF91EF91E00FF11FEF93A1
:10380C00FF931091C003107FFF91EF910E94796597
:10381C00E9EAF3E0EF93FF931881012F1127AAE057
:10382C00B0E0E89445F80E94476A0C5F1F4FFF9187
:10383C00EF91E00FF11F1091D1030E947965E9EA35
:10384C00F3E0EF93FF931881012F1127AAE0B0E06A
:10385C00E89445F80E94476A0B5F1F4FFF91EF9168
:10386C00E00FF11F1091E6030E947965E9EAF3E09D
:10387C00EF93FF931881012F1127AAE0B0E0E89491
:10388C0045F80E94476A0A5F1F4FFF91EF91E00FC6
:10389C00F11F109101040E947965E9EAF3E0EF93BE
:1038AC00FF931881012F1127AAE0B0E0E89445F8A6
:1038BC000E94476A095F1F4FFF91EF91E00FF11FC4
:1038CC001091E0030E947965E9EAF3E0EF93FF932E
:1038DC001881012F1127AAE0B0E0E89445F80E9466
:1038EC00476A085F1F4FFF91EF91E00FF11F109196
:1038FC00E2030E947965E9EAF3E0EF93FF93188104
:10390C00012F1127AAE0B0E0E89445F80E94476A1D
:10391C00075F1F4FFF91EF91E00FF11F1091E30331
:10392C000E9479650E9432081DE010934002CF93EB
:10393C00DF9310E01A930E94DA33DF91CF91089550
:10394C001881103010E009F41FEF112311F40C94BE
:10395C00B31C0C94AF1D0C94AF1DFE0110811A9575
:10396C001083188113701883E9EAF3E0EF93FF9347
:10397C001881012F1127AAE0B0E0E89445F80E94C5
:10398C00476AFF91EF91E00FF11F0E949B65109326
:10399C003404E9EAF3E0EF93FF931881012F112728
:1039AC00AAE0B0E0E89445F80E94476A0F5F1F4F09
:1039BC00FF91EF91E00FF11F0E949B65109335046E
:1039CC001091AE03107C1F93E9EAF3E0EF93FF93A1
:1039DC001881012F1127AAE0B0E0E89445F80E9465
:1039EC00476A0E5F1F4FFF91EF91E00FF11F0E948E
:1039FC009B650F91102B1093AE031091C0031F7099
:103A0C001F93E9EAF3E0EF93FF931881012F11273D
:103A1C00AAE0B0E0E89445F80E94476A0D5F1F4F9A
:103A2C00FF91EF91E00FF11F0E949B650F91102BFE
:103A3C001093C003E9EAF3E0EF93FF931881012F91
:103A4C001127AAE0B0E0E89445F80E94476A0C5FA1
:103A5C001F4FFF91EF91E00FF11F0E949B65109398
:103A6C00D103E9EAF3E0EF93FF931881012F1127BB
:103A7C00AAE0B0E0E89445F80E94476A0B5F1F4F3C
:103A8C00FF91EF91E00FF11F0E949B651093E603ED
:103A9C00E9EAF3E0EF93FF931881012F1127AAE0D5
:103AAC00B0E0E89445F80E94476A0A5F1F4FFF9107
:103ABC00EF91E00FF11F0E949B6510930104E9EA5E
:103ACC00F3E0EF93FF931881012F1127AAE0B0E0E8
:103ADC00E89445F80E94476A095F1F4FFF91EF91E8
:103AEC00E00FF11F0E949B651093E003E9EAF3E0FD
:103AFC00EF93FF931881012F1127AAE0B0E0E8940F
:103B0C0045F80E94476A085F1F4FFF91EF91E00F45
:103B1C00F11F0E949B651093E203E9EAF3E0EF9337
:103B2C00FF931881012F1127AAE0B0E0E89445F823
:103B3C000E94476A075F1F4FFF91EF91E00FF11F43
:103B4C000E949B651093E3031091E003169510936C
:103B5C00E1030895E8E0F0E0FA93EA9310E01083B3
:103B6C0012E51A931081088101171FEF08F0112735
:103B7C00112311F00C94E81DE7ECF3E0EF93FF93A5
:103B8C00182D012F1127FF91EF91E00FF11FEF93EB
:103B9C00FF93E2E1F0E0EF93FF93182D012F112733
:103BAC00FF91EF91E00FF11F0E949B65FF91EF9148
:103BBC001193E981FA81108113951083112311F06F
:103BCC000C94B91D23961091E7031170113010E07D
:103BDC0009F41FEF112311F40C94F91D1091C0037B
:103BEC0010611093C0031091E7031270123010E0B3
:103BFC0009F41FEF112311F40C94091E1091C0034A
:103C0C0010621093C0031091E403E894112309F09F
:103C1C0068941091C00316F91093C0031091E5033A
:103C2C00E894112309F068941091C00317F91093CC
:103C3C00C0031091F803109324031091F703109311
:103C4C0025031FEF1093C6031FE71093170310E013
:103C5C0008EC009308031093090308952797CF935A
:103C6C00DF9310E01A9317EF1A930E941E06DF9150
:103C7C00CF91FE013596FA93EA9310E000E01183A0
:103C8C00008311E00FEF1A930A93A081B181288170
:103C9C003981B31709F4A21710E011F008F01FEFE7
:103CAC00112311F00C94901EEAEFF3E0EF93FF93C5
:103CBC0009851A85000F111FFF91EF91E00FF11F7D
:103CCC000E94A46517FF03C03FEF2FEF02C03327FC
:103CDC00222738872F831E830D83CF93DF9338855C
:103CEC002F811E810D813A932A931A930A9316EF12
:103CFC001A930E945206DF91CF91EA81FB81A08139
:103D0C00B1811196A083B183BB2311F4AA2311F0C6
:103D1C000C944D1E2496E8E0F0E0FA93EA9310E040
:103D2C0010831FE31A931081088101171FEF08F00D
:103D3C001127112311F00C94C51EE5E6F0E0EF936A
:103D4C00FF93182D012F1127FF91EF91E00FF11F19
:103D5C000E949B651B83CF93DF931B811A93182DB5
:103D6C0010551A930E941E06DF91CF91E981FA81BA
:103D7C00108113951083112311F00C949A1E239625
:103D8C000895229710911703012F11271983088387
:103D9C00CF93DF9300911503109116031A930A9396
:103DAC0010E007E01A930A9310E008E01A930A93C4
:103DBC001FEF0E943E65DF91CF910F931F930881F7
:103DCC0019813F912F91020F131F0093150310932C
:103DDC00160308952D971091B002112311F40C9431
:103DEC00FA1E10E010930C0310910D03112311F423
:103DFC000C94031F1FEF10930C031B2D103010E0BD
:103E0C0011F008F01FEF112311F40C94151F10E0A2
:103E1C00B12ECF93DF930E94C71EDF91CF911091EB
:103E2C000C03112311F40C942A1F0091150310910B
:103E3C00160322E00E94406B102F188310910D0383
:103E4C0010930A030C946C1F109170021F93009135
:103E5C00060310910703102F0F91011710E009F0C2
:103E6C001FEF10930A0310917002012F11270F936B
:103E7C001F9300910603109107033F912F91020F9E
:103E8C00131F112312F40F5F1F4F15950795009305
:103E9C0008031093090310917002012F112700934E
:103EAC000603109307030091080310910903102FC8
:103EBC001883CF93DF9310E01A931BE01A931A81A7
:103ECC0016951A930E94DF12DF91CF91109118046E
:103EDC001F931091AE020F911023112311F40C9427
:103EEC007D1F1AE3109340021FEF10930B0310E099
:103EFC001093AE0210E01093B00210E010930D037B
:103F0C0010910A031F9310910B030F91102B112387
:103F1C0011F40C9472200091AE03112704FD1FEFD5
:103F2C001F930091AE03112705FD1FEF0F91102B6E
:103F3C00198319811F931091D103113021F0133083
:103F4C0011F0153001F010E009F41FEF0F91102360
:103F5C001A8310911804112311F40C94BA1F1091A8
:103F6C006E021695109301041091010416951F838F
:103F7C00CF93DF9318811A93109119040FEF011B43
:103F8C00102F1A931FEF1A930E943065DF91CF9177
:103F9C001D83109119041F931D810F91100F1C8705
:103FAC001A81112311F40C94EA1FCF93DF931F8114
:103FBC001A9319811A9316E91A930E943065DF91AE
:103FCC00CF911D830C94F71FCF93DF931F811A930E
:103FDC0019811A9318EC1A930E943065DF91CF91D6
:103FEC001D831F811F931C850F91011710E011F089
:103FFC0008F01FEF112311F40C9406201C851F836D
:10400C001F8116951F931D810F91100F1987109109
:10401C0002041E831C851F931E810F9101171FEF35
:10402C0008F01127112311F40C941E201C851E83FB
:10403C001C85188710911904110F110F1F931E81E5
:10404C000F91100F1B87188116951F931E810F91CE
:10405C00100F1A87CF93DF931EEB1A931FE41A935A
:10406C000E941E06DF91CF91CF93DF931C851A938C
:10407C0010E41A930E941E06DF91CF91CF93DF9329
:10408C001B851A9311E41A930E941E06DF91CF919F
:10409C00CF93DF931A851A9312E41A930E941E068B
:1040AC00DF91CF91CF93DF9319851A9313E41A9371
:1040BC000E941E06DF91CF91CF93DF9318851A9340
:1040CC0014E41A930E941E06DF91CF9110E0109316
:1040DC000B0310E010930A0310913802143010E017
:1040EC0009F41FEF112311F40C946B211091180497
:1040FC001F931091AF020F911023112311F40C9404
:10410C008E201FE11093400210916F021093E60372
:10411C0010E01093AF021091A803112311F40C942A
:10412C009F2010910B041C8310910C041B830C9486
:10413C00A520109109041C8310910A041B83CF93B2
:10414C00DF9314E41A931091A9031A930E942F136E
:10415C00DF91CF91CF93DF9311E01A931091A803C5
:10416C001A930E942F13DF91CF911091A9031095F0
:10417C00112311F40C94C62010E01C8310E01B8357
:10418C001FEF00913602002309F01095112311F452
:10419C000C94FF201091AA031F931C810F910117FF
:1041AC0010E009F01FEF112311F40C94FF201C8177
:1041BC001F931091AA030F91011710E011F008F052
:1041CC001FEF112311F40C94F6201091AA031395F0
:1041DC001093AA0310910D04109336020C94FF2037
:1041EC001091AA031A951093AA0310910F0410931F
:1041FC0036021FEF00913702002309F010951123AE
:10420C0011F40C9438211091AB031F931B810F9167
:10421C00011710E009F01FEF112311F40C94382151
:10422C001B811F931091AB030F91011710E011F03C
:10423C0008F01FEF112311F40C942F211091AB03F4
:10424C0013951093AB0310910E04109337020C943A
:10425C0038211091AB031A951093AB0310911004F5
:10426C001093370200914504109146040F931F934D
:10427C001091AA03012F11273F912F91020F131FA9
:10428C000093450410934604CF93DF931091AA0337
:10429C001A9311EB1A930E941E06DF91CF91CF93C4
:1042AC00DF931091AB031A9312EB1A930E941E0624
:1042BC00DF91CF91CF93DF931091E6031A9310EB1C
:1042CC001A930E941E06DF91CF911091380215307F
:1042DC0010E009F41FEF112311F40C94EC21CF938F
:1042EC00DF93109111041A9317EC1A930E941E0677
:1042FC00DF91CF91CF93DF93109111041A9318ECA7
:10430C001A930E941E06DF91CF91CF93DF931091E9
:10431C001104169510581A931BEC1A930E941E0642
:10432C00DF91CF91E5E6F0E0F0960E949B651F933C
:10433C00109112040F91100F1D83CF93DF931D81E9
:10434C001A9311EE1A930E941E06DF91CF91E5E6A7
:10435C00F0E0F3960E949B651F93109112040F914D
:10436C00100F1D83CF93DF931D811A9314EE1A93B4
:10437C000E941E06DF91CF91E5E6F0E0F5960E94D3
:10438C009B651F93109112040F91100F1D83CF93F7
:10439C00DF931D811A9316EE1A930E941E06DF916D
:1043AC00CF91E5E6F0E0F7960E949B651F93109184
:1043BC0012040F91100F1D83CF93DF931D811A935D
:1043CC0018EE1A930E941E06DF91CF9110913802BD
:1043DC00163010E009F41FEF112311F40C94D722BE
:1043EC0010911304143610E008F01FEF112311F490
:1043FC000C945922CF93DF93E5E6F0E038960E94B7
:10440C009B651A931091130408EC011B102F1A933F
:10441C0014E61A930E943065DF91CF911D83CF93E0
:10442C00DF931D811A9318EB1A930E941E06DF91DD
:10443C00CF91CF93DF93E5E6F0E034960E949B6535
:10444C001A9314EB1A930E941E06DF91CF91CF930F
:10445C00DF93E5E6F0E035960E949B651A9315EB29
:10446C001A930E941E06DF91CF91CF93DF93E5E65E
:10447C00F0E036960E949B651A9316EB1A930E94F5
:10448C001E06DF91CF91CF93DF93E5E6F0E03C96EB
:10449C000E949B651A931CEB1A930E941E06DF91D7
:1044AC00CF910C94D722CF93DF93E5E6F0E03496CE
:1044BC000E949B651A93109113041A9314E61A9395
:1044CC000E943065DF91CF911D83CF93DF931D81C7
:1044DC001A9314EB1A930E941E06DF91CF91CF937F
:1044EC00DF93E5E6F0E035960E949B651A931091F8
:1044FC0013041A9314E61A930E943065DF91CF913E
:10450C001D83CF93DF931D811A9315EB1A930E9491
:10451C001E06DF91CF91CF93DF93E5E6F0E0369660
:10452C000E949B651A93109113041A9314E61A9324
:10453C000E943065DF91CF911D83CF93DF931D8156
:10454C001A9316EB1A930E941E06DF91CF91CF930C
:10455C00DF93E5E6F0E03C960E949B651A93109180
:10456C0013041A9314E61A930E943065DF91CF91CD
:10457C001D83CF93DF931D811A931CEB1A930E941A
:10458C001E06DF91CF91CF93DF93E5E6F0E03896EE
:10459C000E949B651A9318EB1A930E941E06DF91DA
:1045AC00CF910895CF93DF930E94B716DF91CF91EF
:1045BC00CF93DF930E94341EDF91CF91CF93DF9383
:1045CC000E944E16DF91CF91CF93DF930E9421145E
:1045DC00DF91CF91CF93DF930E945115DF91CF9153
:1045EC00CF93DF930E949415DF91CF91CF93DF93FC
:1045FC000E943D13DF91CF9110E01093AF021FEF9B
:10460C0010930B03CF93DF930E94F01EDF91CF9199
:10461C0008950E94C706CF93DF9318E0412A0EE05D
:10462C0015E61A930A93E2E0F9ED0E940F67DF9109
:10463C00CF910E94C00610915904112311F40C94CF
:10464C00582301E010E020E030E00093D7041093F1
:10465C00D8042093D9043093DA04E9EAF4E0EF9318
:10466C00FF933196FA93EA931FE11A9317EF4122C5
:10467C001FEB4122EFE0F9ED0E940F671FE11F9342
:10468C0018810F91011B102FFF91EF91108323962E
:10469C000E94CB07CF93DF9312E61A930E94EE0091
:1046AC00DF91CF9110915704112311F40C948F23A7
:1046BC0002E010E020E030E00093D7041093D8041F
:1046CC002093D9043093DA04E9EAF4E0EF93FF93F2
:1046DC003196FA93EA931FE11A9317EF41221FEBDD
:1046EC004122E1E2F9ED0E940F671FE11F9318814F
:1046FC000F91011B102FFF91EF91108323960E94B5
:10470C00CB07CF93DF9310E61A930E94EE00DF9154
:10471C00CF9110915804112311F40C94C62303E08B
:10472C0010E020E030E00093D7041093D8042093DD
:10473C00D9043093DA04E9EAF4E0EF93FF9331966D
:10474C00FA93EA931FE11A9317EF41221FEB4122D0
:10475C00E4E3F9ED0E940F671FE11F9318810F919D
:10476C00011B102FFF91EF91108323960E94CB0712
:10477C00CF93DF9311E61A930E94EE00DF91CF9155
:10478C0000E010E020E030E000931D0410931E04C4
:10479C0020931F043093200410915C04112311F416
:1047AC000C94012404E010E020E030E00093D704E6
:1047BC001093D8042093D9043093DA04E9EAF4E096
:1047CC00EF93FF933196FA93EA931FE11A9317EF45
:1047DC0041221FEB4122E7E4F9ED0E940F671FE134
:1047EC001F9318810F91011B102FFF91EF911083D4
:1047FC0023960E94CB0710915B04112311F40C94A7
:10480C00302405E010E020E030E00093D704109352
:10481C00D8042093D9043093DA04E9EAF4E0EF9356
:10482C00FF933196FA93EA931FE11A9317EF412203
:10483C001FEB4122E4E5F9ED0E940F671FE11F9386
:10484C0018810F91011B102FFF91EF91108323966C
:10485C000E94CB0710915604112311F40C945F2481
:10486C0006E010E020E030E00093D7041093D80469
:10487C002093D9043093DA04E9EAF4E0EF93FF9340
:10488C003196FA93EA931FE11A9317EF41221FEB2B
:10489C004122E0E6F9ED0E940F671FE11F9318819A
:1048AC000F91011B102FFF91EF91108323960E9403
:1048BC00CB0710915504112311F40C948E2407E0AE
:1048CC0010E020E030E00093D7041093D80420933C
:1048DC00D9043093DA04E9EAF4E0EF93FF933196CC
:1048EC00FA93EA931FE11A9317EF41221FEB41222F
:1048FC00EBE6F9ED0E940F671FE11F9318810F91F2
:10490C00011B102FFF91EF91108323960E94CB0770
:10491C0010915D04112311F40C94BD2408E010E0F7
:10492C0020E030E00093D7041093D8042093D904EE
:10493C003093DA04E9EAF4E0EF93FF933196FA93BB
:10494C00EA931FE11A9317EF41221FEB4122E8E78C
:10495C00F9ED0E940F671FE11F9318810F91011B46
:10496C00102FFF91EF91108323960E94CB0710918B
:10497C005404112311F40C94EC2409E010E020E011
:10498C0030E00093D7041093D8042093D9043093CB
:10499C00DA04E9EAF4E0EF93FF933196FA93EA93A1
:1049AC001FE11A9317EF41221FEB4122E7E8F9EDC3
:1049BC000E940F671FE11F9318810F91011B102F8D
:1049CC00FF91EF91108323960E94CB070895CF930C
:1049DC00DF931FEF1A930E94DA33DF91CF9110E02F
:1049EC0004E60E945265CF93DF9310E01A9318E40B
:1049FC001A930E941E06DF91CF9110E004E60E94EC
:104A0C005265CF93DF930E944E16DF91CF91CF93D7
:104A1C00DF9310E01A930E94DA33DF91CF9108955F
:104A2C00CF93DF9310E01A9310E01A9310E01A93CF
:104A3C000E949963DF91CF91CF93DF9318E0412AC5
:104A4C0003E713E61A930A93EDE3FBEDEF93FF9361
:104A5C001A81012F1127AEE0B0E0E89445F80E94CE
:104A6C00476AFF91EF91E00FF11F0E940F67DF91F2
:104A7C00CF9110E00E94BA63CF93DF9310E01A93AA
:104A8C0010E01A9311E01A930E949963DF91CF9171
:104A9C0008952197CF93DF9310E01A9310E01A93A7
:104AAC0011E01A930E949963DF91CF9119811E3204
:104ABC0010E011F008F01FEF18831881112311F486
:104ACC000C946B25198110511983CF93DF9318E047
:104ADC00412A03E713E61A930A93E7ECFFEDEF93F1
:104AEC00FF931B81012F1127ACE0B0E0E89445F84F
:104AFC000E94476AFF91EF91E00FF11F0E940F6730
:104B0C00DF91CF911881112311F40C9495251BE2A0
:104B1C000E94736312E40E9473630C94982510E254
:104B2C000E94736316E00E94736310E00E94BA63E4
:104B3C0008951881112311F40C94B425CF93DF93AD
:104B4C0018E0412A03E713E61A930A93E7E9F9ED13
:104B5C000E940F67DF91CF910C94C225CF93DF9306
:104B6C0018E0412A03E713E61A930A93EBE9F9EDEF
:104B7C000E940F67DF91CF910895E8E0F0E0FA937F
:104B8C00EA9310E0108313E01A9310810881011747
:104B9C001FEF08F01127112311F00C94EA255A9AF3
:104BAC005B9810E004E60E9452655A985B9A10E0FC
:104BBC0004E60E945265E981FA81108113951083F5
:104BCC00112311F00C94CC2523965A9A5B9A0895D4
:104BDC0010E00E94B163CF93DF9318E0412A03E702
:104BEC0013E61A930A93EFE9F9ED0E940F67DF9130
:104BFC00CF91089510915604112311F40C94EE26C4
:104C0C00E0E6F4E0EF93FF933196FA93EA9318E21F
:104C1C001A9317EF41221FEB41221D81CF93DF9393
:104C2C001A9312E01A9300E00A9310E21A930E946E
:104C3C003067DF91CF9118E21F9318810F91011B00
:104C4C00102FFF91EF91108323960E94EE251A816D
:104C5C001F9319810F91011710E009F01FEF112319
:104C6C0011F40C944A26CF93DF9318E0412A03E702
:104C7C0013E61A930A93E0E6F4E00E941867DF91BA
:104C8C00CF9110E20E947363CF93DF9318E0412A17
:104C9C0003E713E61A930A93E6EAF9ED0E940F670D
:104CAC00DF91CF91CF93DF9310E01A9310E01A931A
:104CBC0011E01A930E949963DF91CF91CF93DF9308
:104CCC0018E0412A03E713E61A930A93E9EAF9ED8F
:104CDC000E940F67DF91CF91E0E6F4E0EF93FF9332
:104CEC003196FA93EA9318E21A9317EF41221FEBCD
:104CFC0041221C81CF93DF931A9312E01A9300E0A8
:104D0C000A9310E21A930E943067DF91CF9118E258
:104D1C001F9318810F91011B102FFF91EF9110839E
:104D2C002396CF93DF9310E01A9316E01A9311E0B9
:104D3C001A930E949963DF91CF91CF93DF9318E080
:104D4C00412A03E713E61A930A93E0E6F4E00E9483
:104D5C001867DF91CF911881103011F00C94C62692
:104D6C00CF93DF9318E0412A03E713E61A930A93D3
:104D7C00E0EBF9ED0E940F67DF91CF910C94EE26DA
:104D8C00113011F00C94DA26CF93DF9318E0412AFE
:104D9C0003E713E61A930A93E0EBF9ED0E940F6711
:104DAC00DF91CF910C94EE26123011F00C94EE267C
:104DBC00CF93DF9318E0412A03E713E61A930A9383
:104DCC00E7EBF9ED0E940F67DF91CF910C94EE2683
:104DDC000E94C325089510915604112311F40C94CC
:104DEC0007270E94EE25CF93DF9318E0412A03E7B3
:104DFC0013E61A930A93EFEBF9ED0E940F67DF911C
:104E0C00CF910E94C325089510915604109511233B
:104E1C0011F40C9413270C946A27CF93DF9310E0B2
:104E2C001A930E941625DF91CF911881112311F44A
:104E3C000C945327CF93DF9318E0412A03E713E632
:104E4C001A930A93EBECF9ED0E940F67DF91CF9167
:104E5C001981112311F40C944327CF93DF9318E09D
:104E6C00412A03E713E61A930A93E0EDF9ED0E9449
:104E7C000F67DF91CF910C945127CF93DF9318E0FC
:104E8C00412A03E713E61A930A93E5EDF9ED0E9424
:104E9C000F67DF91CF910C946127CF93DF9318E0CC
:104EAC00412A03E713E61A930A93EAEDF9ED0E94FF
:104EBC000F67DF91CF9110E00E94BA631AEF109345
:104ECC00330210E0109341020895CF93DF931881C1
:104EDC001A930E949F25DF91CF9116E00E94736375
:104EEC0010E00E94BA630895CF93DF9318E0412A33
:104EFC0003E713E61A930A931A81CF93DF931A935D
:104F0C0013E01A9300E00A9310E21A93689443F8A2
:104F1C000E943067DF91CF91DF91CF9116E00E9414
:104F2C00736310E00E94BA630895CF93DF9318E087
:104F3C00412A03E713E61A930A930A811B81CF9344
:104F4C00DF931A930A9313E01A9300E00A9310E28A
:104F5C001A93689443F8689445F8E89454F855F813
:104F6C000E946969DF91CF91DF91CF9116E00E9489
:104F7C00736310E00E94BA630895CF93DF9300919E
:104F8C00AE03112700FD1FEF1A930E949F25DF919E
:104F9C00CF910091AE03112700FD1FEF1095112347
:104FAC0011F40C94DE2710E00E94BA630C9456287E
:104FBC0010E20E9473630091AE03112701FD1FEFF5
:104FCC00112311F40C94FA27CF93DF9318E0412AA4
:104FDC0003E713E61A930A93EFEDF9ED0E940F67BE
:104FEC00DF91CF910C940828CF93DF9318E0412ADE
:104FFC0003E713E61A930A93E4EEF9ED0E940F67A8
:10500C00DF91CF910091AE03112702FD1FEF112309
:10501C0011F40C942128CF93DF9318E0412A03E775
:10502C0013E61A930A93E9EEF9ED0E940F67DF91EC
:10503C00CF910C942F28CF93DF9318E0412A03E7EC
:10504C0013E61A930A93EEEEF9ED0E940F67DF91C7
:10505C00CF910091AE03112703FD1FEF112311F423
:10506C000C944828CF93DF9318E0412A03E713E60A
:10507C001A930A93E3EFF9ED0E940F67DF91CF913A
:10508C000C945628CF93DF9318E0412A03E713E6DC
:10509C001A930A93E6EFF9ED0E940F67DF91CF9117
:1050AC0008952197CF93DF930091AE03112704FD50
:1050BC001FEF1A930E949F25DF91CF9110E20E945F
:1050CC007363CF93DF930091AE03112705FD1FEFA0
:1050DC001A930E949F25DF91CF9110E20E94736377
:1050EC001091D1031170113010E009F41FEF11234E
:1050FC0011F40C94862813E40E9473630C94892891
:10510C0016E50E9473631091D10316951F5C1883EA
:10511C0018810E94736310E00E94BA63089518818D
:10512C001695EBE4F2EE1F730027E10FF01F1491BC
:10513C0016950895219719811695EBE4F2EE1F73DD
:10514C000027E10FF01F14911150198319811F379B
:10515C0010E011F008F01FEF112311F40C94B82893
:10516C0010E019831981169518831981117011306B
:10517C0010E009F41FEF112311F40C94EA28E8E075
:10518C00F0E0FA93EA9310E01083EF93FF931A8107
:10519C00FF91EF911A931081088101171FEF08F00E
:1051AC001127112311F00C94E72810E00E9473636F
:1051BC00E981FA81108113951083112311F00C945D
:1051CC00D22823960C941029E8E0F0E0FA93EA93A5
:1051DC0011E01083EF93FF931A81FF91EF911A93D3
:1051EC001081088101171FEF08F01127112311F00E
:1051FC000C940C2910E00E947363E981FA811081F0
:10520C0013951083112311F00C94F728239611E0B9
:10521C000E947363E8E0F0E0FA93EA93EF93FF9354
:10522C001A81FF91EF91108316E01A931081088177
:10523C0001171FEF08F01127112311F00C943229DC
:10524C0017E00E947363E981FA8110811395108332
:10525C00112311F00C941D29239612E00E94736304
:10526C0016E00E94736310E00E94BA63CF93DF9341
:10527C0010E01A931AE01A9311E01A930E949963A2
:10528C00DF91CF9108952297CF93DF9310E01A937B
:10529C0010E01A9310E01A930E949963DF91CF915A
:1052AC00CF93DF9318E0412A03E713E61A930A938E
:1052BC0010913404CF93DF931A9312E01A9300E009
:1052CC000A9310E21A93689443F80E943067DF91B6
:1052DC00CF91DF91CF9110E20E947363CF93DF9354
:1052EC0010E01A9312E01A9310E01A930E9499633B
:1052FC00DF91CF911091A603103010E009F41FEF4D
:10530C00112311F40C948F2916E00E9473630C94F2
:10531C00922910E20E947363CF93DF9318E0412A25
:10532C0003E713E61A930A93E9EFF9ED0E940F676E
:10533C00DF91CF91E8E0F0E0FA93EA9310E010836C
:10534C0018E01A931081088101171FEF08F011273C
:10535C00112311F00C94D529CF93DF93E8ECF3E0F3
:10536C00EF93FF93182D012F1127FF91EF91E00F71
:10537C00F11F11911A930E949528DF91CF911B83F5
:10538C001B81105D1C831C810E947363E981FA816F
:10539C00108113951083112311F00C94A9292396D5
:1053AC00CF93DF9310E01A9310E01A9311E01A9345
:1053BC000E949963DF91CF91CF93DF9318E0412A3C
:1053CC0003E713E61A930A9310913504CF93DF93F6
:1053DC001A9312E01A9300E00A9310E21A9368945D
:1053EC0043F80E943067DF91CF91DF91CF9110E2AB
:1053FC000E947363CF93DF9310E01A9312E01A9319
:10540C0011E01A930E949963DF91CF911091A6033A
:10541C00103010E009F41FEF112311F40C941B2A27
:10542C0010E20E9473630C941E2A16E00E947363B0
:10543C0010E50E947363CF93DF931091E0031A93EE
:10544C000E949528DF91CF9118831881105D1983E4
:10545C0019810E947363CF93DF931091E2031A9327
:10546C000E949528DF91CF9118831881105D1983C4
:10547C0019810E9473631CE40E947363E8E0F0E0FE
:10548C00FA93EA9310E0108318E01A9310810881C4
:10549C0001171FEF08F01127112311F00C94792A32
:1054AC00CF93DF93E7EDF3E0EF93FF93182D012FEC
:1054BC001127FF91EF91E00FF11F11911A930E94A8
:1054CC009528DF91CF911B831B81105D1C831C8160
:1054DC000E947363E981FA81108113951083112363
:1054EC0011F00C944D2A2396089526971985163998
:1054FC0010E008F01FEF112311F40C948B2A10E02C
:10550C000AE01D830C830C94AD2A1985103510E02C
:10551C0008F01FEF112311F40C949A2A10E005E007
:10552C001D830C830C94AD2A1985183210E008F0F9
:10553C001FEF112311F40C94A92A10E002E01D8333
:10554C000C830C94AD2A10E001E01D830C83FE014A
:10555C00EF93FF931E81FF91EF9111931E811F37E3
:10556C0010E011F008F01FEF112311F40C94C42A71
:10557C00FE0131961FEF11930C94C82AFE0131964F
:10558C0010E01193088119810F931F930C811D81D9
:10559C00689445F8BF91AF910E94476A19830883BC
:1055AC001985012F11270F931F93088119813F91A2
:1055BC002F91020F131F1B830A830A811B810F93E8
:1055CC001F930C811D81689445F8BF91AF910E9487
:1055DC00686A0F931F930C811D81689445F8BF91E5
:1055EC00AF910E94476A1B830A830A811B811A931D
:1055FC000A931A85012F11271A930A931B85012FE1
:10560C0011271A930A930E94886B2696102F0895DF
:10561C00CF93DF9310E01A931FE01A9310E01A93C4
:10562C000E949963DF91CF911A811F9318810F917A
:10563C0001171FEF08F01127112311F40C942B2BD9
:10564C0013E00E9473630C942E2B10E20E94736380
:10565C00CF93DF9310E01A931FE01A9311E01A9383
:10566C000E949963DF91CF911A811F9319810F9139
:10567C00011710E011F008F01FEF112311F40C9436
:10568C004C2B14E00E9473630C944F2B10E20E947D
:10569C0073630895229710E00E94E763176C1093D0
:1056AC003A020A811B81103009F4003010E011F02D
:1056BC0008F01FEF112311F40C94682B0A811B8145
:1056CC000E94526510913A021F3F10E009F41FEF3F
:1056DC00112311F40C94772B10E00C947A2B0C946E
:1056EC007A2B1FEF0C947A2B0895229710913D0280
:1056FC0019831981188319811F9310913C020F9102
:10570C00011B102F1983188110933C0219810895E5
:10571C00CF93DF9310E01A931EE01A9310E01A93C4
:10572C000E949963DF91CF911881112311F40C948D
:10573C00A42B1AE20E9473630C94A72B10E20E9414
:10574C007363089528971091560410951F9319852B
:10575C00103010E009F41FEF0F91102B112311F4EE
:10576C000C94BA2B0C947B311885103010E009F096
:10577C001FEF1883EAEEFAEDEF93FF931985012FD3
:10578C001127FF91EF91E00FF11F14911D831D81E3
:10579C00113010E009F41FEF198319851D3010E04A
:1057AC0009F41FEF112311F40C94F72BCF93DF9313
:1057BC00109134041A9310E01A931FE01A931B856E
:1057CC001A930E947B2ADF91CF9110933404CF93CC
:1057DC00DF930E944929DF91CF910C947B310C947B
:1057EC00192C19851E3010E009F41FEF112311F448
:1057FC000C94192CCF93DF93109135041A9310E06D
:10580C001A931FE01A931B851A930E947B2ADF912F
:10581C00CF9110933504CF93DF930E944929DF91E8
:10582C00CF910C947B31CF93DF9319851A930E94FF
:10583C001625DF91CF911FEF1C83E7ECF3E0EF937C
:10584C00FF931985012F1127FF91EF91E00FF11FA5
:10585C0011911F8310E01B831985113010F40C94E7
:10586C003E2C193019F010F00C943E2C0C94472C53
:10587C00103110F40C94872C1B3119F010F00C948F
:10588C00872C1F81169516951F83CF93DF931F814D
:10589C001A9310E01A931FE11A931B851A930E9416
:1058AC007B2ADF91CF911F831F81110F110F1F8353
:1058BC00E7ECF3E0EF93FF931985012F1127FF918C
:1058CC00EF91E00FF11FEF93FF931F81FF91EF9189
:1058DC001193CF93DF931F811A930E94A028DF911D
:1058EC00CF91CF93DF931F811A9310E01A931CE78B
:1058FC001A930E940E2BDF91CF911FEF1B830C94F8
:10590C00152F1A3011F00C94CF2CCF93DF931F81ED
:10591C001A9310E01A931F811A931B851A930E94F5
:10592C007B2ADF91CF911093D103CF93DF930E9409
:10593C005728DF91CF91CF93DF9310E01A931FE09C
:10594C001A9310E01A930E949963DF91CF9110E2A1
:10595C000E947363CF93DF9310E01A931AE01A93AB
:10596C0011E01A930E949963DF91CF9116E00E9487
:10597C007363CF93DF931F811A9310E01A931F81E7
:10598C001A930E940E2BDF91CF911FEF1B830C9467
:10599C00152F1B3011F00C94072D1881112311F4C5
:1059AC000C94E72C0091AE03112704FD1FEF10950A
:1059BC00E894112309F068941091AE0314F9109334
:1059CC00AE030091AE03112704FD1FEF1093D20319
:1059DC00CF93DF930E945728DF91CF91CF93DF9322
:1059EC0010E01A9313E01A9311E01A930E94996332
:1059FC00DF91CF9116E00E9473631FEF1B830C9411
:105A0C00152F1C3011F00C94732D1091AE031F70D8
:105A1C001F831F81012F11E00695111FE8F71695C2
:105A2C001695169516951F83CF93DF931F811A93A6
:105A3C0017E01A931FE01A931B851A930E947B2A76
:105A4C00DF91CF911F831F811E831F81012F11E0D6
:105A5C000695111FE8F716951695169516951F8342
:105A6C001881112311F40C94442D1091AE03107F66
:105A7C001F931F810F91102B1093AE030E94C3270D
:105A8C00CF93DF931E811A9317E01A931FE01A939A
:105A9C000E940E2BDF91CF91CF93DF9310E01A93DE
:105AAC0013E01A9311E01A930E949963DF91CF913E
:105ABC000091AE03112700FD1FEF112311F40C947C
:105ACC006C2D15E00E9473630C946F2D16E00E94F0
:105ADC0073631FEF1B830C94152F1F3011F00C9464
:105AEC00B72D1881112311F40C948B2D0091AE035A
:105AFC00112705FD1FEF1095E894112309F0689408
:105B0C001091AE0315F91093AE030091AE0311275B
:105B1C0005FD1FEF1093D603CF93DF930E945728F8
:105B2C00DF91CF91CF93DF9310E01A9317E01A9384
:105B3C0011E01A930E949963DF91CF9116E00E94B5
:105B4C007363CF93DF9311E01A9310E01A9312E072
