:10007C0010B11370B12E1B2D1F931C2D0F91011756
:10008C0010E009F01FEF112311F40C9481001B2DCB
:10009C00103010E009F41FEF112311F40C947D00C3
:1000AC001D2D133010E009F41FEF112311F40C94E3
:1000BC007D001C2D113010E009F41FEF112311F4F9
:1000CC000C946F0010913C02139510933C020C940D
:1000DC007D001C2D123010E009F41FEF112311F4D8
:1000EC000C947D0010913C021A9510933C021C2D2F
:1000FC00D12E1B2DC12E089518811F9316E11F932D
:10010C00E89440F8E8E2F4E0A4E0B0E03F914F91CD
:10011C0050E00E94E568089500E010E020E030E037
:10012C00009328041093290420932A0430932B0461
:10013C00CF93DF9318811A930E948200DF91CF91A5
:10014C0018811F9312E01F93E89440F8E6E1F0E069
:10015C003F914F91A1E0B0E060E050E00E94E56873
:10016C0018811F9313E01F93E89440F8E6E1F0E048
:10017C003F914F91A1E0B0E068E250E00E94E56849
:10018C0018811F9314E01F93E89440F8E6E1F0E027
:10019C003F914F91A1E0B0E064E150E00E94E5682E
:1001AC0018811F9315E01F93E89440F8E6E1F0E006
:1001BC003F914F91A1E0B0E060E850E00E94E5680B
:1001CC0000E010E020E030E00093280410932904B4
:1001DC0020932A0430932B04CF93DF9318811A9326
:1001EC000E948200DF91CF91089519E110933302A0
:1001FC005A9808951AE0109333025A98089521974B
:10020C0010E51F9309811A811F93E89440F8098126
:10021C001A81102FE6E1F0E0612FA1E0B0E03F91F0
:10022C004F9150E00E94E56810E51F93FE01A1E09C
:10023C00B0E04F910E94C26818810895CF93DF936C
:10024C0010E51A930A811B811A930A93FE013396C7
:10025C008F011A930A9310E001E01A930A930E94FB
:10026C00DB68DF91CF9110E007E00E94756908957B
:10027C002297CF93DF9310E51A930F8118851A9369
:10028C000A93FE0135968F011A930A9310E004E04D
:10029C001A930A930E94DB68DF91CF9110E007E07C
:1002AC000E94756908952B971BB11F701F931C85B5
:1002BC00110F110F110F110F0F91102B1BB913E907
:1002CC0010937A0011E00E94846913EC10937A0069
:1002DC0010917A001071103010E009F01FEF11230B
:1002EC0011F40C946E0113E810937A001C85E9E468
:1002FC00F3E01F710027E10FF01F108118831881A4
:10030C00012F11271E830D830D811E81015010407A
:10031C001C830B831C85E9E2F3E01F710027E10FBE
:10032C00F01F1081012F112718870F83109179006E
:10033C00012F11270F931F930B811C81019509F439
:10034C001A9510953F912F91020F131F1A87098749
:10035C0009851A85A0E81A27103809F400301FEF18
:10036C0008F01127112311F40C94C00110E000E0E7
:10037C001A87098709851A850F931F930F81188592
:10038C000F931F930D811E813F912F91020F131F0D
:10039C0098011F910F91A0E81A273A27131709F417
:1003AC00021710E011F008F01FEF1F9309851A8552
:1003BC000F931F930F8118850F931F930B811C8133
:1003CC00019509F41A9510953F912F91020F131F67
:1003DC0098011F910F91A0E81A273A27131709F4D7
:1003EC0002171FEF08F011270F91102B112311F496
:1003FC000C94250212E319831C851F931981E9E8DB
:10040C00F3E0AF91AF71BB27EA0FFB1F10831C8584
:10041C001F931B85E9E6F3E0AF91AF71BB27EA0FA1
:10042C00FB1F10831C851F9313E0E9E4F3E0AF91ED
:10043C00AF71BB27EA0FFB1F10830C942E021C8597
:10044C00E9E8F3E01F710027E10FF01F1081198319
:10045C0009851A850F931F930F8118853F912F9152
:10046C00020F131F112312F40F5F1F4F15950795E1
:10047C001A8709871981103010E009F41FEF112336
:10048C0011F40C945F02188115301FEF08F011273E
:10049C00112311F40C945D021C851F9315E0E9E403
:1004AC00F3E0AF91AF71BB27EA0FFB1F10830C94E5
:1004BC008D0209851A850F931F930F81188598015A
:1004CC001F910F91A0E81A273A27131709F4021766
:1004DC0010E009F01FEF112311F40C948D021C8510
:1004EC001F931B85E9E6F3E0AF91AF71BB27EA0FD1
:1004FC00FB1F10831C851F9309851A85102FE9E2B9
:10050C00F3E0AF91AF71BB27EA0FFB1F1083089587
:10051C002397149A1598169ACF93DF931BE01A938E
:10052C001FEF1A930E945901DF91CF911091A903EB
:10053C0013951093A9031091A903113011F00C9489
:10054C00D2021498159A169AFE013296FA93EA93EF
:10055C0010E0108317E01A931081088101171FEF28
:10056C0008F01127112311F00C94CF02CF93DF93D5
:10057C001D811A931F811A930E945901DF91CF910B
:10058C00E981FA81108113951083112311F00C94D9
:10059C00B30223960C94A603123011F00C9427038B
:1005AC00149A1598169AFE013296FA93EA9318E06B
:1005BC0010831AE01A931081088101171FEF08F0BD
:1005CC001127112311F00C94FE02CF93DF931D81A0
:1005DC001A931F811A930E945901DF91CF91E981DF
:1005EC00FA81108113951083112311F00C94E202FF
:1005FC002396FE013296FA93EA931CE010831FE0D7
:10060C001A931081088101171FEF08F0112711238D
:10061C0011F00C942403CF93DF931D811A931F8147
:10062C001A930E945901DF91CF91E981FA811081CF
:10063C0013951083112311F00C94080323960C943A
:10064C00A603133011F00C945603149A159A1698AD
:10065C00FE013296FA93EA9310E1108317E11A9394
:10066C001081088101171FEF08F01127112311F0D9
:10067C000C945303CF93DF931D811A931F811A930C
:10068C000E945901DF91CF91E981FA811081139574
:10069C001083112311F00C94370323960C94A603AA
:1006AC00143011F00C94A3031FEF009136020023B9
:1006BC0009F01095112311F40C94A10314E110937B
:1006CC003602FE013296FA93EA9310E0108317E19A
:1006DC001A931081088101171FEF08F011271123BD
:1006EC0011F00C94A0031D81E9E8F3E01F710027C1
:1006FC00E10FF01F10811C83FE013496112700813D
:10070C0070E0701718F40A9500831FEF1D811F937A
:10071C001C81E9E8F3E0AF91AF71BB27EA0FFB1F37
:10072C001083E981FA81108113951083112311F044
:10073C000C94700323960C94A60310E01093A90359
:10074C0008951091EC042B981EBD1DB517FFFDCF1D
:10075C001EB51093ED042B9A08951091E9042B9873
:10076C001EBD1DB517FFFDCF1EB51093EB041091E8
:10077C00E8041EBD1DB517FFFDCF1EB51093EA048E
:10078C002B9A08951091E3042B981EBD1DB517FFED
:10079C00FDCF1EB51093E7041091E2041EBD1DB5EC
:1007AC0017FFFDCF1EB51093E6041091E1041EBD9A
:1007BC001DB517FFFDCF1EB51093E5041091E00495
:1007CC001EBD1DB517FFFDCF1EB51093E4042B9A6B
:1007DC0008951091DE0429981EBD1DB517FFFDCF9D
:1007EC001091DD041EBD1DB517FFFDCF299A08958C
:1007FC001091EE0408E0449817FD449A459A110FA5
:10080C0045980A95C1F70895E0E0FFE010814598FE
:10081C0008B117FB04F908B9459A16FB04F908B995
:10082C00459A15FB04F908B9459A14FB04F908B963
:10083C00459A13FB04F908B9459A12FB04F908B957
:10084C00459A11FB04F908B9459A10FB04F908B94B
:10085C00459A4598E395D1F608951091EF041EBD85
:10086C001DB517FFFDCF1EB51093F0040895289801
:10087C0015E01093EF040E9433040E943304289A6D
:10088C001091F0040895289815E01093EF040E943D
:10089C0033040E9433041091F0041170103010E0F6
:1008AC0009F41FEF112311F40C944F04289A0895A6
:1008BC00289816E01093EF040E943304289A0895A8
:1008CC000E945E04289811E01093EF040E943304F8
:1008DC0010E01093EF040E943304289A0E944904FC
:1008EC0008950E945E04289811E01093EF040E9472
:1008FC0033041FE31093EF040E943304289A0E94E0
:10090C00490408950E945E0428983B812A8119812C
:10091C0008810093F1041093F2042093F3043093B4
:10092C00F40410E21093EF040E9433041091F304CA
:10093C001093EF040E9433041091F2041093EF040F
:10094C000E9433041091F1041093EF040E943304BD
:10095C00289A0E9449041091F0041072103010E093
:10096C0009F01FEFE894112309F068941091D40456
:10097C0012F91093D4040091D404112702FD1FEF37
:10098C00109508950E945E04289817EC1093EF04BC
:10099C000E943304289A0E9449041091F0041072AA
:1009AC00103010E009F01FEFE894112309F068945F
:1009BC001091D40412F91093D4040091D40411278B
:1009CC0002FD1FEF10950895219709811A8101509E
:1009DC001040102F18830E945E0428983E812D81B0
:1009EC001C810B810093F1041093F2042093F30407
:1009FC003093F40412E01093EF040E94330410912E
:100A0C00F3041093EF040E9433041091F20410933A
:100A1C00EF040E9433041091F1041093EF040E9430
:100A2C003304E7E0F0E0FA93EA9310E01083EF93DD
:100A3C00FF931A81FF91EF911A931081088101178E
:100A4C001FEF08F01127112311F00C944205172DFC
:100A5C00E0E0FFE01F7F0027E10FF01F10811093F3
:100A6C00EF040E943304E981FA81108113951083FD
:100A7C00112311F00C9424052396289A0E94490402
:100A8C001091F0041072103010E009F01FEFE89490
:100A9C00112309F068941091D40412F91093D40422
:100AAC000091D404112702FD1FEF10950895219792
:100ABC000E9449040A811B8101501040102F188399
:100ACC003F812E811D810C810093F1041093F2045F
:100ADC002093F3043093F40428981BE01093EF0454
:100AEC000E9433041091F3041093EF040E9433041A
:100AFC001091F2041093EF040E9433041091F1044E
:100B0C001093EF040E94330410E01093EF040E9442
:100B1C003304E7E0F0E0FA93EA9310E01083EF93EC
:100B2C00FF931A81FF91EF911A931081088101179D
:100B3C001FEF08F01127112311F00C94CF050E9420
:100B4C0033041C81112311F40C94BA05172D1F9337
:100B5C001091F004E0E0FEE0AF91AF7FBB27EA0F0D
:100B6C00FB1F10830C94C605172D1F931091F004D6
:100B7C00E0E0FFE0AF91AF7FBB27EA0FFB1F1083D4
:100B8C00E981FA81108113951083112311F00C94D3
:100B9C009C052396289A0895EDEDF4E0EF93FF93CE
:100BAC001881FF91EF911193EEEDF4E010E01193A9
:100BBC000E94EF030E94C8030091E4041091E50425
:100BCC002091E6043091E7040895EDEDF4E0EF9305
:100BDC00FF931881FF91EF911193EEEDF4E010E883
:100BEC0011930E94EF03E8EEF4E0EF93FF93198169
:100BFC00FF91EF911193E9EEF4E010E011930E9454
:100C0C00B3030895EDEDF4E0EF93FF931881FF919A
:100C1C00EF911193EEEDF4E010E811930E94EF03C5
:100C2C0009811A810093E8041093E9040E94B3032C
:100C3C000895EDEDF4E0EF93FF931881FF91EF91A0
:100C4C001193EEEDF4E010E811930E94EF033C8158
:100C5C002B811A8109810093E0041093E104209305
:100C6C00E2043093E3040E94C8030895CF93DF930A
:100C7C0010EF1A930E94D205DF91CF910093B40428
:100C8C001093B5042093B6043093B704E8E0F0E079
:100C9C000E94CC690093B4041093B5042093B6045D
:100CAC003093B704CF93DF930091B4041091B50443
:100CBC002091B6043091B7043A932A931A930A936D
:100CCC0010EF1A930E941F06DF91CF91ECE0F0E039
:100CDC000E94CC690093B4041093B5042093B6041D
:100CEC003093B704CF93DF930091B4041091B50403
:100CFC002091B6043091B7043A932A931A930A932D
:100D0C0011EF1A930E941F06DF91CF9108951DE0F9
:100D1C000E9445691AE00E944569089513E20E94F9
:100D2C00456910914602105D0E9445691AE30E94C4
:100D3C004569CF93DF9318E0412A05E419E61A932D
:100D4C000A930091AD041091AE04CF93DF931A93E4
:100D5C000A9310E01A9310E01A9310E21A93689415
:100D6C0043F8689445F8E89454F855F80E94A06D3F
:100D7C00DF91CF91DF91CF911DE30E9445690895DA
:100D8C00CF93DF9318E0412A05E419E61A930A93EE
:100D9C00E6E6F4E00E944F6BDF91CF910E948D0646
:100DAC00089522971091BB04112311F40C94EC06B6
:100DBC0016E00E9445691A810E94456910E00E9464
:100DCC00456910E00E9445690C94300710E00FEF64
:100DDC000093AD041093AE040E949406CF93DF935E
:100DEC0018E0412A05E419E61A930A931C81CF9363
:100DFC00DF931A9310E01A9310E01A9310E21A93EF
:100E0C00689443F80E94676BDF91CF91DF91CF918B
:100E1C0010E20E944569CF93DF9318E0412A05E464
:100E2C0019E61A930A93E2EDF2EEEF93FF931C810D
:100E3C00012F1127ADE0B0E0E89445F80E948A6ECE
:100E4C00FF91EF91E00FF11F0E94466BDF91CF9164
:100E5C000E948D0608950E949406CF93DF9318E0AC
:100E6C00412A05E419E61A930A93EDE3F4E00E9493
:100E7C004F6BDF91CF910E948D0608951091BB04AA
:100E8C00112311F40C945F0716E00E94456910E0E1
:100E9C000E9445690091B1041091B2040E94456909
:100EAC000091B1041091B204102F0E9445690C946A
:100EBC009607EDE3F4E0EF93FF933196FA93EA9300
:100ECC0018E21A9317EF41221FEB41220091B40450
:100EDC001091B5042091B6043091B704CF93DF93F1
:100EEC003A932A931A930A9310E01A9310E01A93E8
:100EFC0010E21A93689445F8E89454F855F842F8BF
:100F0C000E94A76BDF91CF9118E21F9318810F916C
:100F1C00011B102FFF91EF91108323960E94310734
:100F2C0008950091B1041091B20417FF03C03FEF74
:100F3C002FEF02C0332722270093B4041093B5047B
:100F4C002093B6043093B7040E944407089510917F
:100F5C00BA04012F11270093B1041093B2040E941C
:100F6C00970708950E949406EDE3F4E0EF93FF9346
:100F7C003196FA93EA9318E21A9317EF41221FEB7A
:100F8C0041220091B4041091B5042091B604309123
:100F9C00B704CF93DF933A932A931A930A9310E0F2
:100FAC001A9310E01A9310E21A93689445F8E89497
:100FBC0054F855F842F80E94A76BDF91CF9118E2D4
:100FCC001F9318810F91011B102FFF91EF9110832C
:100FDC002396CF93DF9318E0412A05E419E61A9380
:100FEC000A93EDE3F4E00E944F6BDF91CF9110E296
:100FFC000E9445691BE50E94456914E20E944569FF
:10100C00EDE3F4E0EF93FF933196FA93EA9318E251
:10101C001A9317EF41221FEB41220091B404109157
:10102C00B5042091B6043091B704B801C901492F19
:10103C000E940F6E482F0E940F6E472F0E940F6E5A
:10104C00462F0E940F6E18E21F9318810F91011BFF
:10105C00102FFF91EF9110832396CF93DF9318E01D
:10106C00412A05E419E61A930A93EDE3F4E00E9491
:10107C004F6BDF91CF911DE50E9445690E948D0653
:10108C0008950E949406EDE3F4E0EF93FF933196FC
:10109C00FA93EA9318E21A9317EF41221FEB4122BD
:1010AC000091B4041091B5042091B6043091B704AA
:1010BC00CF93DF933A932A931A930A9310E01A93DF
:1010CC0010E01A9310E21A93689445F8E89454F8D7
:1010DC0055F842F80E94A76BDF91CF9118E21F934D
:1010EC0018810F91011B102FFF91EF911083239604
:1010FC00CF93DF9318E0412A05E419E61A930A937B
:10110C00EDE3F4E00E944F6BDF91CF91CF93DF932F
:10111C0018E0412A05E419E61A930A93E4E8FFED76
:10112C000E94466BDF91CF91CF93DF9318E0412A59
:10113C0005E419E61A930A93E6E8F4E00E944F6B73
:10114C00DF91CF911DE50E9445690E948D0608959F
:10115C000E943D041F7E103010E009F01FEF112398
:10116C0011F40C94D4080E949406CF93DF9318E0EA
:10117C00412A05E419E61A930A93E7E8FFED0E9469
:10118C00466B1DE00E941C6E1AE00E941C6EDF91E3
:10119C00CF911FEF0C94D7080C94D70810E00C9447
:1011AC00D70808952C971AE314B91FE915B910E75D
:1011BC0017B91FEC18B91091D4041B7F1093D404E9
:1011CC00469815E00E948469469A15E00E9484694D
:1011DC0010E317B916E206EB0093AD041093AE04BE
:1011EC0011E004EF0E9475691BEB14B91FE915B9E6
:1011FC000E949406112737991FEF112311F40C94B8
:10120C005B09CF93DF9313E01A930E94D205DF9111
:10121C00CF910091E4041091E5042091E604309103
:10122C00E7043F832E831D830C83CF93DF9318E059
:10123C00412A05E419E61A930A93E8E9FFED0E94A6
:10124C00466BDF91CF91CF93DF9318E0412A05E4F1
:10125C0019E61A930A93398528851F810E816894A3
:10126C0043F8B801C901492F0E940F6E482F0E9404
:10127C000F6E472F0E940F6E462F0E940F6EDF914C
:10128C00CF91CF93DF9318E0412A05E419E61A9326
:10129C000A93E3EAFFED0E94466BDF91CF910E9427
:1012AC003C060E948D060C947009CF93DF9318E0D6
:1012BC00412A05E419E61A930A93E8EAFFED0E9425
:1012CC00466BDF91CF911091D40414601093D40429
:1012DC000E948D060895EEEDF4E010E81193EDED0B
:1012EC00F4E0EF93FF931091F5041F5FFF91EF91E2
:1012FC0011930E94EF031091F6041093EC040E94DA
:10130C00A703EDEDF4E01091F50411930E94EF03A7
:10131C000895EEEDF4E010E81193EDEDF4E0EF93A9
:10132C00FF931091F5041F5FFF91EF9111930E94B1
:10133C00EF031091F6041093EC040E94A703089598
:10134C001091CC04112311F40C94DA0910E00E94D2
:10135C00FA67CF93DF9318E0412A0CEB17E61A9348
:10136C000A93E3ECFFED0E94466BDF91CF91CF9394
:10137C00DF9310E01A9310E01A9311E01A930E9475
:10138C00E267DF91CF91CF93DF9318E0412A0CEB0A
:10139C0017E61A930A93ECECFFED0E94466BDF9173
:1013AC00CF9110E00E94036808951091CC04112392
:1013BC0011F40C943A0A1127062D017009F41095BA
:1013CC00112311F40C94380ACF93DF9310E01A9385
:1013DC0010E01A9311E01A930E94E267DF91CF910B
:1013EC00CF93DF9318E0412A0CEB17E61A930A937C
:1013FC00E5EDFFED0E94466BDF91CF91CF93DF932C
:10140C0018E0412A0CEB17E61A930A930091D804C2
:10141C001091D9042091DA043091DB04CF93DF933F
:10142C003A932A931A930A9318E01A9300E00A93BA
:10143C0010E21A93689443F8689445F8E89454F8C9
:10144C0055F842F80E94A76BDF91CF91DF91CF91B5
:10145C0010E00E94036810E002E3E4E3F2E0B1E084
:10146C000E945C6F0C943E0A10E002E00E947569C9
:10147C0008951091CC04112311F40C945F0ACF93AE
:10148C00DF9310E01A9310E01A9311E01A930E9464
:10149C00E267DF91CF91CF93DF9318E0412A0CEBF9
:1014AC0017E61A930A93EEEDFFED0E94466BDF915F
:1014BC00CF9108951091CC04112311F40C94800A4F
:1014CC00CF93DF9310E01A9310E01A9311E01A9364
:1014DC000E94E267DF91CF91CF93DF9318E0412A0E
:1014EC000CEB17E61A930A93E8EEFFED0E94466B9D
:1014FC00DF91CF91089565970E949406CF93DF9367
:10150C0018E0412A05E419E61A930A93EFEEFFED71
:10151C000E94466B1DE00E941C6E1AE00E941C6E1D
:10152C00DF91CF9110E01A8710E0188710E01C8B28
:10153C0010E0198B1FEF188B00E010E020E030E07A
:10154C000093D8041093D9042093DA043093DB046D
:10155C0010E000E01C870B870E94A60910E000E059
:10156C001983088310E000E01B830A83388D2F89D0
:10157C001E890D893F832E831D830C831A8510953C
:10158C00112311F40C94330B10E000E01C870B8733
:10159C0011275A991FEF1095E894112309F06894BC
:1015AC001BB112F91BB9CF93DF93FE017496FA931A
:1015BC00EA9314E61A930E940E69DF91CF911A8771
:1015CC001A85112311F40C94040B1C89113010E0B2
:1015DC0009F41FEF1F931C89143010E009F41FEF5E
:1015EC000F91102B112311F40C94020B10E000E05E
:1015FC001C870B870C94330B0C940E0B15E10E947B
:10160C004569FE013B96A081B1811196A083B183FF
:10161C001C89113010E009F41FEF1F931C89143042
:10162C0010E009F41FEF0F91102B1F931C89183138
:10163C0010E009F41FEF0F91102B1F930B851C85E5
:10164C00103009F4043110E011F008F01FEF0F9185
:10165C00102B112311F40C94D90A18851095112311
:10166C0011F40C943D0B0E94DB091FEF18871C89A9
:10167C00113010E009F41FEF112311F40C94710CCC
:10168C00CF93DF93FE017396FA93EA9314E61A93C1
:10169C000E940E69DF91CF9119871985112311F4DE
:1016AC000C946B0CCF93DF93FE017296FA93EA9332
:1016BC001AE01A930E940E69DF91CF9119871B894A
:1016CC000FEF011B102F1F931A890F91011710E0B8
:1016DC0009F41FEF112311F40C94690C10E0198B11
:1016EC00E8E0F0E0FA93EA9310E010831FE71A9316
:1016FC001081088101171FEF08F01127112311F039
:10170C000C94AF0BCF93DF93EAE0F0E0FA93EA93FB
:10171C001AE01A930E940E69DF91CF911C871C89E5
:10172C001F931A2D0F91100F1C8B182D1F931A2D10
:10173C00E0E0FFE0AF91AF7FBB27EA0FFB1F108308
:10174C00E981FA81108113951083112311F00C9407
:10175C007F0B2396CF93DF93FE017096FA93EA9357
:10176C001AE01A930E940E69DF91CF911987CF93DB
:10177C00DF933F812E811D810C813A932A931A931A
:10178C000A9310E000E81A930A930E94EA04DF918E
:10179C00CF911095112311F40C94DB0BFE013296B2
:1017AC00A081B1811196A083B183CF93DF933F8148
:1017BC002E811D810C813A932A931A930A9310E07F
:1017CC0000E81A930A931FEF1A930E945D05DF91AC
:1017DC00CF91E8E0F0E0FA93EA9310E010831FE772
:1017EC001A931081088101171FEF08F0112711239C
:1017FC0011F00C942B0C182DE0E0FEE01F7F00275D
:10180C00E10FF01F10811F93182DE0E0FFE01F7F08
:10181C000027E10FF01F10810F91011710E009F064
:10182C001FEF112311F40C94220CFE013396A081AE
:10183C00B1811196A083B183E981FA81108113954E
:10184C001083112311F00C94F80B239619891F9314
:10185C0018890F91011710E009F41FEF112311F4EF
:10186C000C945F0C16E00E9445693F812E811D810E
:10187C000C8100581F4F2F4F3F4F3F832E831D83EA
:10188C000C830091D8041091D9042091DA04309182
:10189C00DB0400581F4F2F4F3F4F0093D804109379
:1018AC00D9042093DA043093DB040E94DB090C94F6
:1018BC00690CFE013B96A081B1811196A083B18386
:1018CC0015E10E9445690C946F0C10E00FEF1C871A
:1018DC000B8710E01C8B10E01A871C89143010E069
:1018EC0009F41FEF1F931C89183110E009F41FEF46
:1018FC000F91102B1F930B851C85103009F40431AC
:10190C0010E011F008F01FEF0F91102B112311F4C0
:10191C000C94C40A16E00E94456918891F93198912
:10192C000F91011710E009F01FEF112311F40C9423
:10193C00C50C0FEF1FEF2FEF3FEF0093B404109384
:10194C00B5042093B6043093B7040E949406CF9349
:10195C00DF9318E0412A05E419E61A930A93E2E0B2
:10196C00F0EE0E94466B1DE00E941C6E1AE00E9475
:10197C001C6EDF91CF910E943F0A0C94DF0C0091FA
:10198C00D8041091D9042091DA043091DB0400932F
:10199C00B4041093B5042093B6043093B704E4E375
:1019AC00F2E00EEF0E94526F0E94DB0910E01093E0
:1019BC003D0208811981103009F4003010E009F063
:1019CC001FEF112311F40C94410D0FEF1FEF2FEFAC
:1019DC003FEF0093B4041093B5042093B6043093F6
:1019EC00B7040E949406CF93DF9318E0412A05E4D4
:1019FC0019E61A930A93E9E1F0EE0E94466BDF9127
:101A0C00CF91CF93DF9318E0412A05E419E61A939E
:101A1C000A930A811B81CF93DF931A930A9310E0E8
:101A2C001A9310E01A9310E21A93689443F8E8940E
:101A3C0045F8E89454F855F80E94A06DDF91CF91C9
:101A4C00DF91CF91CF93DF9318E0412A05E419E69B
:101A5C001A930A93EAE2F0EE0E94466B1DE00E9494
:101A6C001C6E1AE00E941C6EDF91CF910E94600ADE
:101A7C0010E010933D020A811B81103009F40030F4
:101A8C0010E009F01FEF112311F40C94A30D0FEFCC
:101A9C001FEF2FEF3FEF0093B4041093B504209386
:101AAC00B6043093B7040E949406CF93DF9318E0EA
:101ABC00412A05E419E61A930A93E3E3F0EE0E9437
:101ACC00466BDF91CF91CF93DF9318E0412A05E469
:101ADC0019E61A930A930C811D81CF93DF931A9305
:101AEC000A9310E01A9310E01A9310E21A93689478
:101AFC0043F8E89445F8E89454F855F80E94A06D22
:101B0C00DF91CF91DF91CF91CF93DF9318E0412AF2
:101B1C0005E419E61A930A93EAE2F0EE0E94466B8A
:101B2C001DE00E941C6E1AE00E941C6EDF91CF918A
:101B3C000E94600A10E010933D0208952297CF9303
:101B4C00DF9312E01A930E94D205DF91CF911127F7
:101B5C001A991FEF112311F40C94A50D0E949406F1
:101B6C00CF93DF9318E0412A05E419E61A930A9300
:101B7C001091F604CF93DF931A9310E01A9310E0B0
:101B8C001A9310E21A93689443F80E94676BDF91E2
:101B9C00CF91DF91CF91CF93DF9318E0412A05E4E9
:101BAC0019E61A930A93E3E4F0EE0E94466BDF9178
:101BBC00CF911091E6041A3A10E009F41FEF1123AB
:101BCC0011F40C94C70E1091E404103511F00C9420
:101BDC00FF0DCF93DF9318E0412A05E419E61A9321
:101BEC000A93ECE4F0EE0E94466BDF91CF910C94DB
:101BFC00960E113511F00C94130ECF93DF9318E061
:101C0C00412A05E419E61A930A93E3E5F0EE0E94E3
:101C1C00466BDF91CF910C94960E123511F00C940B
:101C2C00270ECF93DF9318E0412A05E419E61A93A7
:101C3C000A93E9E5F0EE0E94466BDF91CF910C948C
:101C4C00960E133511F00C943B0ECF93DF9318E0E6
:101C5C00412A05E419E61A930A93EEE5F0EE0E9488
:101C6C00466BDF91CF910C94960E143511F00C94B9
:101C7C004F0ECF93DF9318E0412A05E419E61A932F
:101C8C000A93E7E6F0EE0E94466BDF91CF910C943D
:101C9C00960E183511F00C94630ECF93DF9318E069
:101CAC00412A05E419E61A930A93EEE6F0EE0E9437
:101CBC00466BDF91CF910C94960E1F3511F00C945E
:101CCC00770ECF93DF9318E0412A05E419E61A93B7
:101CDC000A93E3E7F0EE0E94466BDF91CF910C94F0
:101CEC00960ECF93DF9318E0412A05E419E61A9378
:101CFC000A93EBE7F0EE0E94466BDF91CF91CF9306
:101D0C00DF9318E0412A05E419E61A930A9310911F
:101D1C00E404689443F8412F0E940F6EDF91CF9139
:101D2C00CF93DF9318E0412A05E419E61A930A933E
:101D3C00E5E8F0EE0E94466BDF91CF91CF93DF93F5
:101D4C0018E0412A05E419E61A930A931091E50468
:101D5C00689443F8412F0E940F6EDF91CF91CF937F
:101D6C00DF9318E0412A05E419E61A930A93E3EA93
:101D7C00FFED0E94466BDF91CF910E948D060C9473
:101D8C00D70ECF93DF9318E0412A05E419E61A9396
:101D9C000A93ECE8F0EE0E94466BDF91CF910E9423
:101DAC008D06089525971E8114551093F6040E94F4
:101DBC0071091E81012F11273327222740E050E1A2
:101DCC0060E070E0689445F80E94E66E3C832B83DB
:101DDC001A83098300E010E020E030E00093D8047F
:101DEC001093D9042093DA043093DB04E8E0F0E09C
:101DFC00FA93EA9310E010831FE01A931081088184
:101E0C0001171FEF08F01127112311F00C94BE0FCE
:101E1C00CF93DF933F812E811D810C813A932A93BE
:101E2C001A930A9311E000E01A930A9310E01A93A4
:101E3C000E945D05DF91CF911885112311F40C944C
:101E4C005C0FEAE0F0E0FA93EA9310E010831FEFE6
:101E5C001A931081088101171FEF08F01127112325
:101E6C0011F00C945B0F1A2DE0E0FFE01F7F0027B0
:101E7C00E10FF01F10811E83CF93DF9318E0412AEE
:101E8C0005E419E61A930A931885689443F8412FD0
:101E9C000E940F6EDF91CF91E981FA811081139529
:101EAC001083112311F00C94300F2396EAE0F0E02C
:101EBC00FA93EA9310E010831FE31A9310810881C0
:101ECC0001171FEF08F01127112311F00C94940F38
:101EDC00E0E0FFE0EF93FF931A2D012F1127000F85
:101EEC00111F000F111FFF91EF91E00FF11F0191D6
:101EFC001191219131910093E0041093E10420930E
:101F0C00E2043093E3040E94C803E981FA81108152
:101F1C0013951083112311F00C94650F23963F81B8
:101F2C002E811D810C8100501F4F2F4F3F4F3F833F
:101F3C002E831D830C830091D8041091D904209119
:101F4C00DA043091DB0400501F4F2F4F3F4F0093AA
:101F5C00D8041093D9042093DA043093DB04E9817C
:101F6C00FA81108113951083112311F00C94050F35
:101F7C0023960E948F0911E004EFE4E3F2E0B1E054
:101F8C000E945C6F0091D8041091D9042091DA045E
:101F9C003091DB040093B4041093B5042093B60481
:101FAC003093B7041FEF1093C60310E002E30E94B6
:101FBC007569CF93DF930E94A40DDF91CF910895A3
:101FCC002D970E949406CF93DF9318E0412A05E4E5
:101FDC0019E61A930A931F85CF93DF931A9310E097
:101FEC001A9310E01A9310E21A93689443F80E9423
:101FFC00676BDF91CF91DF91CF91CF93DF9318E097
:10200C00412A05E419E61A930A93E6E9F0EE0E94D8
:10201C00466BDF91CF91CF93DF9310E01A9318E4C6
:10202C001A930E94EB05DF91CF9110E004E60E9419
:10203C0075691D851C5A012F11273327222740E073
:10204C0050E160E070E0689445F80E94E66E3C87D1
:10205C002B871A87098710E000E018870F8310E0A0
:10206C0000E019830883E8E0F0E0FA93EA9310E0CB
:10207C0010831FE01A931081088101171FEF08F0DD
:10208C001127112311F00C943D11CF93DF933F8551
:10209C002E851D850C853A932A931A930A9311E089
:1020AC0000E01A930A9310E01A930E945D05DF91E9
:1020BC00CF9110E000E01E830D8310E000E01C8344
:1020CC000B830A851B8519870887EAE0F0E0FA93F1
:1020DC00EA9310E0108317E01A931081088101171E
:1020EC001FEF08F01127112311F00C94B210CF93AD
:1020FC00DF9310E51A930E851F851A930A931FE040
:10210C0000E00F931F930B851C853F912F91020FBD
:10211C00131F1A930A9310E000E21A930A930E9479
:10212C00DB68DF91CF9110E00AE00E9475690885A9
:10213C001985005E1F4F198708870D851E85005E67
:10214C001F4F1E870D87E981FA811081139510832B
:10215C00112311F00C947410239610E51F9308852D
:10216C0019851F93E89440F808851985102FE6E12E
:10217C00F0E0612FA1E0B0E03F914F9150E00E9460
:10218C00E568CF93DF9310E51A931EE000E01A93F5
:10219C000A9311E000E01A930A930E94BD68DF9144
:1021AC00CF91EAE0F0E0FA93EA9310E010831FEF8E
:1021BC001A931081088101171FEF08F011271123C2
:1021CC0011F00C9413111A2DE0E0FFE01F7F002793
:1021DC00E10FF01F10811F931A2DE0E0FEE01F7F2E
:1021EC000027E10FF01F10810F91011710E009F08B
:1021FC001FEF112311F40C940A11FE013696A081E5
:10220C00B1811196A083B183E981FA811081139574
:10221C001083112311F00C94E01023960B811C8178
:10222C00103009F4003010E009F41FEF112311F401
:10223C000C9425111EE20E9445690C94281113E29E
:10224C000E9445693F852E851D850C8500501F4FCA
:10225C002F4F3F4F3F872E871D870C87E981FA81CF
:10226C00108113951083112311F00C9442102396B6
:10227C00CF93DF9318E0412A05E419E61A930A93E9
:10228C001DE50E941C6E1DE00E941C6E1AE00E944F
:10229C001C6EDF91CF9111E004EFE4E3F2E0B1E0CA
:1022AC000E945C6F0091D8041091D9042091DA043B
:1022BC003091DB040093B4041093B5042093B6045E
:1022CC003093B7041FEF1093C603088119811030A7
:1022DC0009F4003010E009F01FEF112311F40C94F5
:1022EC00BC110E949406CF93DF9318E0412A05E4B9
:1022FC0019E61A930A93E2EBF0EE0E94466BDF911B
:10230C00CF91CF93DF9318E0412A05E419E61A9395
:10231C000A930A811B81CF93DF931A930A9310E0DF
:10232C001A9310E01A9310E21A93689443F8E89405
:10233C0045F8E89454F855F80E94A06DDF91CF91C0
:10234C00DF91CF91CF93DF9318E0412A05E419E692
:10235C001A930A93EAE2F0EE0E94466B1DE00E948B
:10236C001C6E1AE00E941C6EDF91CF91089521978C
:10237C0010E018830091AC03112704FD1FEF11230B
:10238C0011F40C94CD11FE01108113951083009162
:10239C00AC03112705FD1FEF112311F40C94DE1172
:1023AC00FE01108113951083FE011081139510838B
:1023BC00CF93DF9318811A931DE01A930E94EB05BB
:1023CC00DF91CF9110915102103011F00C94F0115B
:1023DC000C94FA11123011F00C94F6110C94FA11B1
:1023EC00143011F00C941012CF93DF9312ED1A935A
:1023FC0015E01A930E94EB05DF91CF91CF93DF93F9
:10240C0010E01A9316E01A930E94EB05DF91CF911E
:10241C000C943812113011F00C9416120C942012EA
:10242C00133011F00C941C120C942012153011F076
:10243C000C943812CF93DF93109171021A9315E01C
:10244C001A930E94EB05DF91CF91CF93DF931091FC
:10245C0070021A9316E01A930E94EB05DF91CF914C
:10246C000C94381210915102103011F00C9440124F
:10247C000C944412113011F00C945C12CF93DF9336
:10248C0010916A021A9318E01A930E94EB05DF91DF
:10249C00CF91CF93DF9310916D021A9314E01A939E
:1024AC000E94EB05DF91CF910C94A012123011F029
:1024BC000C9462120C946612133011F00C947E1270
:1024CC00CF93DF9310916B021A9318E01A930E942A
:1024DC00EB05DF91CF91CF93DF9310916E021A939E
:1024EC0014E01A930E94EB05DF91CF910C94A0128B
:1024FC00143011F00C9484120C948812153011F0D5
:10250C000C94A012CF93DF9310916C021A9318E0E5
:10251C001A930E94EB05DF91CF91CF93DF9310912B
:10252C006F021A9314E01A930E94EB05DF91CF917E
:10253C000C94A012089523970091AC03112700FD71
:10254C001FEF1F930091AC03112701FD1FEF109596
:10255C000F9110231F93109183020F9110231123BD
:10256C0011F40C94EC12E8E0F0E0FA93EA9310E02A
:10257C00108317E01A931081088101171FEF08F0E0
:10258C001127112311F00C94E912182DE8E4F2E054
:10259C001F770027E10FF01F108116951B83CF9337
:1025AC00DF931B811A93182D105F1A930E94EB0571
:1025BC00DF91CF91E981FA8110811395108311235A
:1025CC0011F00C94C21223960C941C13E8E0F0E06A
:1025DC00FA93EA9310E0108317E01A9310810881A4
:1025EC0001171FEF08F01127112311F00C941B1386
:1025FC00182DE8E4F2E01F770027E10FF01F10819F
:10260C001B83CF93DF931B811A93182D105F1A93A2
:10261C000E94EB05DF91CF91E981FA81108113952E
:10262C001083112311F00C94F51223960091AC0336
:10263C00112700FD1FEF1F931091C0031F3010E0F6
:10264C0009F01FEF0F911023112311F40C94CB13ED
:10265C0010918302112311F40C944013CF93DF9348
:10266C0010E01A9318E11A930E94EB05DF91CF91B9
:10267C000C9468130091AC03112701FD1FEF11237B
:10268C0011F40C94541318E0E8E4F2E01F770027DF
:10269C00E10FF01F108118830C945E1318E0E8E42E
:1026AC00F2E01F770027E10FF01F108116951883B9
:1026BC00CF93DF9318811A9318E11A930E94EB05BC
:1026CC00DF91CF910091AC03112703FD1FEF112374
:1026DC0011F40C947D13CF93DF9311E01A931BE14B
:1026EC001A930E94EB05DF91CF910C948713CF9333
:1026FC00DF9310E01A931BE11A930E94EB05DF9114
:10270C00CF910091AC03112701FD1FEF112311F4A0
:10271C000C949D13CF93DF93109175021A931AE1C9
:10272C001A930E94EB05DF91CF910C94A813CF93D1
:10273C00DF93109174021A931AE11A930E94EB051D
:10274C00DF91CF910091AC03112702FD1FEF1123F4
:10275C0011F40C94BE13CF93DF93109177021A935C
:10276C0019E11A930E94EB05DF91CF910C94C913D8
:10277C00CF93DF93109176021A9319E11A930E946A
:10278C00EB05DF91CF910C94E81318E0E8E4F2E04C
:10279C001F770027E10FF01F10811883CF93DF9371
:1027AC0018811A9318E11A930E94EB05DF91CF91CF
:1027BC00CF93DF9310E01A931AE11A930E94EB0562
:1027CC00DF91CF9108952197E8E0F0E0FA93EA9336
:1027DC0010E1108318E11A931081088101171FEF83
:1027EC0008F01127112311F00C941914182DE8E49A
:1027FC00F2E01F770027E10FF01F10811B83CF93AE
:10280C00DF931B811A93182D105F1A930E94EB050E
:10281C00DF91CF91E981FA811081139510831123F7
:10282C0011F00C94F313239608952197CF93DF9313
:10283C00109161021A9319E21A930E94EB05DF9131
:10284C00CF91CF93DF93109162021A931AE21A93ED
:10285C000E94EB05DF91CF91CF93DF931091630230
:10286C001A931BE21A930E94EB05DF91CF91109102
:10287C0064021695E9E0F9EE1F730027E10FF01FD3
:10288C00149118831091610210321FEF08F0112778
:10289C001F931091630210321FEF08F011270F9154
:1028AC001023112311F40C945F14FE0110811A955E
:1028BC001083CF93DF9318811A931CE21A930E9412
:1028CC00EB05DF91CF9110917C0217701F93109143
:1028DC00650210730F91102B1883CF93DF9318811F
:1028EC001A931BE01A930E94EB05DF91CF91CF93C3
:1028FC00DF931091B4021A931CEC1A930E94EB050F
:10290C00DF91CF91CF93DF93109168021A931EE061
:10291C001A930E94EB05DF91CF91089522971091A5
:10292C00860213701983E8E0F0E0FA93EA9310E062
:10293C00108313E01A931081088101171FEF08F020
:10294C001127112311F00C94DB14182D1F931C81EB
:10295C00110F110F0F91100FE8EBF2E01F70002711
:10296C00E10FF01F10811B83182D133010E009F4B8
:10297C001FEF112311F40C94C7141B8108E01027CE
:10298C001B83CF93DF931B811A93182D1B5B1A9318
:10299C000E94EB05DF91CF91E981FA8110811395AB
:1029AC001083112311F00C94A214239610E002E36F
:1029BC000E94756908952597CF93DF931091840237
:1029CC0011701A9317E01A930E94EB05DF91CF91C7
:1029DC001091720213701F9310917302110F110F4B
:1029EC00110F110F0F91102B1A83CF93DF931A81B4
:1029FC001A9319E01A930E94EB05DF91CF91CF93B4
:102A0C00DF93109185021A931AE01A930E94EB053A
:102A1C00DF91CF91109178021F9310917A0211706F
:102A2C0025E00E945B6E0F91102B1F931091790281
:102A3C0026E00E945B6E0F91102B1A83CF93DF93CD
:102A4C001A811A931CE01A930E94EB05DF91CF9127
:102A5C00CF93DF93109168021A931EE01A930E9491
:102A6C00EB05DF91CF9108952797CF93DF931FEF5D
:102A7C001A930E94C82FDF91CF91E8E0F0E0FA930F
:102A8C00EA9310E010831FE11A931081088101175B
:102A9C001FEF08F01127112311F00C947815182D45
:102AAC00E8ECF2E01F710027110F001FE10FF01F7F
:102ABC000081118118870F83CF93DF930F811885C5
:102ACC001A930A93182D10561A930E940806DF9138
:102ADC00CF91E981FA81108113951083112311F0A4
:102AEC000C944C152396E8E0F0E0FA93EA9310E08E
:102AFC0010831FE11A931081088101171FEF08F052
:102B0C001127112311F00C94A815182DE8E8F2E008
:102B1C001F710027E10FF01F10811987CF93DF93EE
:102B2C0019851A93182D10541A930E94EB05DF91F6
:102B3C00CF91E981FA81108113951083112311F043
:102B4C000C9482152396CF93DF9310E01A9317EF12
:102B5C001A930E94EB05DF91CF91FE013496FA9304
:102B6C00EA9310E000E01183008311E00FEF1A9359
:102B7C000A93A081B18128813981B31709F4A21776
:102B8C0010E011F008F01FEF112311F00C94041653
:102B9C00EFEDF2E0EF93FF9308851985000F111FFD
:102BAC00FF91EF91E00FF11F0E94C76917FF03C05F
:102BBC003FEF2FEF02C0332722273F832E831D8345
:102BCC000C83CF93DF933F812E811D810C813A932F
:102BDC002A931A930A9316EF1A930E941F06DF91F9
:102BEC00CF91EA81FB81A081B1811196A083B18341
:102BFC00BB2311F4AA2311F00C94C1152496CF9386
:102C0C00DF93109191021A9319E41A930E94EB0529
:102C1C00DF91CF91CF93DF9310E01A930E94C82FCE
:102C2C00DF91CF910895239710E01883E8E0F0E04E
:102C3C00FA93EA9310E0108318E01A93108108813C
:102C4C0001171FEF08F01127112311F00C947516C2
:102C5C001E811F93182DE9E6F3E01F700027E10F8A
:102C6C00F01F10810F91102B112311F40C946C1682
:102C7C00182DE9E2F3E01F700027E10FF01F10811F
:102C8C0016951D83182D1F931D81E8E4F2E0AF917A
:102C9C00AF77BB27EA0FFB1F1083182D1F9310E093
:102CAC00E9E6F3E0AF91AF70BB27EA0FFB1F10838F
:102CBC001DE0109340021FEF1B831E811095112302
:102CCC0011F40C946C161FEF10934102E981FA81F8
:102CDC00108113951083112311F00C942516239653
:102CEC001881112311F40C948116CF93DF930E9459
:102CFC00A112DF91CF910895229710E01883E8E09C
:102D0C00F0E0FA93EA9310E0108318E01A93108124
:102D1C00088101171FEF08F01127112311F00C94F3
:102D2C00DF161D811F93182DE5E7F3E01F700027B8
:102D3C00E10FF01F10810F91102B112311F40C9443
:102D4C00D616182DE5E3F3E01F700027E10FF01FF6
:102D5C00108116951C83182D105F1F931C81E8E4BD
:102D6C00F2E0AF91AF77BB27EA0FFB1F1083182D52
:102D7C001F9310E0E5E7F3E0AF91AF70BB27EA0FCC
:102D8C00FB1F10831EE0109340021FEF1B831D815D
:102D9C001095112311F40C94D6161FEF10934202C8
:102DAC00E981FA81108113951083112311F00C9491
:102DBC008E1623961881112311F40C94EB16CF93D5
:102DCC00DF930E94E913DF91CF91089522971A8126
:102DDC001F9310917E030F91102B112311F40C945F
:102DEC000D1710913E03169510936102109161021C
:102DFC0016951093620210E010937E03CF93DF932D
:102E0C000E941B14DF91CF9119E1109340021A819B
:102E1C001F9310917F030F91102B112311F40C941D
:102E2C00281710913F0316951093630210E010932E
:102E3C007F03CF93DF930E941B14DF91CF911BE193
:102E4C00109340021A811F93109180030F91102B45
:102E5C00112311F40C944317109140031695109301
:102E6C00640210E010938003CF93DF930E941B1435
:102E7C00DF91CF911CE11093400208951091B6039D
:102E8C00112311F40C9457171091B703109351029E
:102E9C0010E01093B6031AE0109340021FEF10934A
:102EAC007203CF93DF930E94BD11DF91CF910895F0
:102EBC0023971091B3031F931091B4030F91102B10
:102ECC00103010E009F41FEF112311F40C9470175B
:102EDC000C9465180091B303112700FD1FEF11230B
:102EEC0011F40C948217CF93DF930E94A112DF91FF
:102EFC00CF911CE0109340020091B303112701FD08
:102F0C001FEF112311F40C949417CF93DF930E94AD
:102F1C00A112DF91CF911CE0109340020091B303FA
:102F2C00112702FD1FEF112311F40C94A617CF9358
:102F3C00DF930E94A112DF91CF911CE0109340020D
:102F4C000091B303112703FD1FEF112311F40C940F
:102F5C00B817CF93DF930E94A112DF91CF911CE0A1
:102F6C00109340020091B303112704FD1FEF1123AE
:102F7C0011F40C94CD17CF93DF930E94BD11DF9108
:102F8C00CF911FEF109372031BE01093400200913E
:102F9C00B303112705FD1FEF112311F40C94E21755
:102FAC00CF93DF930E94BD11DF91CF911FEF109350
:102FBC0072031FE0109340020091B403112704FD2B
:102FCC001FEF1F930091B403112705FD1FEF0F9105
:102FDC00102B1F931091C7030F91102B112311F479
:102FEC000C94231810E0109386020091B103112762
:102FFC0004FD1FEF112311F40C9409181091860293
:10300C001395109386020091B103112705FD1FEF54
:10301C00112311F40C941718109186021E5F109353
:10302C008602CF93DF930E949414DF91CF9110E02E
:10303C001093C70310E2109340020091B4031127C0
:10304C0006FD1FEF112311F40C9446180091B103E7
:10305C00112706FD1FEF112311F40C943A1811E0FF
:10306C001093B4020C943D1810E01093B402CF935B
:10307C00DF930E941B14DF91CF911DE1109340024E
:10308C000091B403112707FD1FEF112311F40C94C9
:10309C005F180091B103112707FD1FEF1093650214
:1030AC00CF93DF930E941B14DF91CF911EE11093FD
:1030BC00400210E01093B30310E01093B403089592
:1030CC002197E8E0F0E0FA93EA9310E0108319E01E
:1030DC001A931081088101171FEF08F01127112393
:1030EC0011F00C94A118182DE8E0F3E01F700027E4
:1030FC00E10FF01F10811B83182D1F931B81E8E437
:10310C00F2E0AF91AF70BB27EA0FFB1F1083182DB5
:10311C001F9319E0E9E4F3E0AF91AF70BB27EA0F1E
:10312C00FB1F1083E981FA81108113951083112301
:10313C0011F00C94701823961091AC03107E1F9311
:10314C00109112030F91102B1093AC031FE11093ED
:10315C00B30308952197E8E0F0E0FA93EA9310E0C6
:10316C00108319E01A931081088101171FEF08F0E2
:10317C001127112311F00C94E018182DE8E4F2E05B
:10318C001F700027E10FF01F10811B83182D1F9358
:10319C001B81E8E0F3E0AF91AF70BB27EA0FFB1F98
:1031AC001083E981FA81108113951083112311F09A
:1031BC000C94BA1823961091AC031F711093120340
:1031CC00CF93DF9310E01A930E94C82FDF91CF9119
:1031DC0008952197E8E0F0E0FA93EA9310E0108369
:1031EC001CE01A931081088101171FEF08F01127BA
:1031FC00112311F00C942A19182DE8E1F3E01F703B
:10320C000027E10FF01F10811B83182D1F931B81CA
:10321C00E8E5F2E0AF91AF70BB27EA0FFB1F10831C
:10322C00182D1F9319E0E5E5F3E0AF91AF70BB27C4
:10323C00EA0FFB1F1083E981FA811081139510832B
:10324C00112311F00C94F91823961091AC031F7DE7
:10325C001F93109125030F91102B1093AC0310E2C8
:10326C001093B3031091B1031F731F931091260396
:10327C000F91102B1093B10310EC1093B40308951D
:10328C002197E8E0F0E0FA93EA9310E010831CE059
:10329C001A931081088101171FEF08F011271123D1
:1032AC0011F00C947619182DE8E5F2E01F70002748
:1032BC00E10FF01F10811B83182D1F931B81E8E178
:1032CC00F3E0AF91AF70BB27EA0FFB1F1083E981CE
:1032DC00FA81108113951083112311F00C9450195D
:1032EC0023961091AC031072109325031091B10327
:1032FC00107C1093260308952197CF93DF931FEF33
:10330C001A930E94C82FDF91CF91E8E0F0E0FA9376
:10331C00EA9310E0108319E01A93108108810117C9
:10332C001FEF08F01127112311F00C94D919E2EBBF
:10333C00F0E0EF93FF931C81012F1127A0E1B0E087
:10334C00E89445F80E948A6E0F931F93182D012F55
:10335C0011273F912F91020F131FFF91EF91E00F57
:10336C00F11F0E94BE691B83182D1F931B81E8E47B
:10337C00F2E0AF91AF70BB27EA0FFB1F1083182D43
:10338C001F9319E0E9E4F3E0AF91AF70BB27EA0FAC
:10339C00FB1F1083E981FA8110811395108311238F
:1033AC0011F00C94941923961091AC03107E1F937A
:1033BC00E2EBF0E0EF93FF931981012F1127A0E1CD
:1033CC00B0E0E89445F80E948A6E065F1F4FFF91AB
:1033DC00EF91E00FF11F0E94BE690F91102B10931B
:1033EC00AC031FE11093B30310E00AE00E9475696F
:1033FC00CF93DF9310E01A930E94C82FDF91CF91E7
:10340C0008952197CF93DF931FEF1A930E94C82F33
:10341C00DF91CF9119811F701983E8E0F0E0FA93E6
:10342C00EA9310E0108319E01A93108108810117B8
:10343C001FEF08F01127112311F00C94581A182DB6
:10344C00E8E4F2E01F700027E10FF01F10811B83EE
:10345C00E2EBF0E0EF93FF931C81012F1127A0E129
:10346C00B0E0E89445F80E948A6E0F931F93182DD4
:10347C00012F11273F912F91020F131FFF91EF91F5
:10348C00E00FF11FEF93FF931B81FF91EF910E94CF
:10349C009C69E981FA81108113951083112311F035
:1034AC000C941C1A2396E2EBF0E0EF93FF93198136
:1034BC00012F1127A0E1B0E0E89445F80E948A6E34
:1034CC00065F1F4FFF91EF91E00FF11FEF93FF93FA
:1034DC001091AC031F71FF91EF910E949C69CF93E7
:1034EC00DF9310E01A930E94C82FDF91CF910895BB
:1034FC002197CF93DF931FEF1A930E94C82FDF9170
:10350C00CF91E8E0F0E0FA93EA9310E010831CE02E
:10351C001A931081088101171FEF08F0112711234E
:10352C0011F00C94D51AE2EBF1E0EF93FF931C81B0
:10353C00012F1127A0E1B0E0E89445F80E948A6EB3
:10354C000F931F93182D012F11273F912F91020FCD
:10355C00131FFF91EF91E00FF11F0E94BE691B83B7
:10356C00182D1F931B81E8E5F2E0AF91AF70BB27DC
:10357C00EA0FFB1F1083182D1F9319E0E5E5F3E00C
:10358C00AF91AF70BB27EA0FFB1F1083E981FA8163
:10359C00108113951083112311F00C94901A23961B
:1035AC001091AC031F7D1F93E2EBF1E0EF93FF93BF
:1035BC001981012F1127A0E1B0E0E89445F80E9491
:1035CC008A6E035F1F4FFF91EF91E00FF11F0E9476
:1035DC00BE690F91102B1093AC0310E21093B30340
:1035EC001091B1031F731F93E2EBF1E0EF93FF9384
:1035FC001981012F1127A0E1B0E0E89445F80E9451
:10360C008A6E025F1F4FFF91EF91E00FF11F0E9436
:10361C00BE690F91102B1093B10310EC1093B403EF
:10362C0010E00AE00E947569CF93DF9310E01A93C3
:10363C000E94C82FDF91CF9108952197CF93DF93EC
:10364C001FEF1A930E94C82FDF91CF9119811F7021
:10365C001983E8E0F0E0FA93EA9310E010831CE0A1
:10366C001A931081088101171FEF08F011271123FD
:10367C0011F00C94741B182DE8E5F2E01F70002774
:10368C00E10FF01F10811B83E2EBF1E0EF93FF934E
:10369C001C81012F1127A0E1B0E0E89445F80E94AD
:1036AC008A6E0F931F93182D012F11273F912F9185
:1036BC00020F131FFF91EF91E00FF11FEF93FF9398
:1036CC001B81FF91EF910E949C69E981FA81108125
:1036DC0013951083112311F00C94381B2396E2EBF5
:1036EC00F1E0EF93FF931981012F1127A0E1B0E0D6
:1036FC00E89445F80E948A6E035F1F4FFF91EF918B
:10370C00E00FF11FEF93FF931091AC031072FF9138
:10371C00EF910E949C69E2EBF1E0EF93FF9319812A
:10372C00012F1127A0E1B0E0E89445F80E948A6EC1
:10373C00025F1F4FFF91EF91E00FF11FEF93FF938B
:10374C001091B103107CFF91EF910E949C69CF9373
:10375C00DF9310E01A930E94C82FDF91CF91089548
:10376C00E8E0F0E0FA93EA9310E010831FE11A937B
:10377C001081088101171FEF08F01127112311F098
:10378C000C94E81B182D1F93E2E1F0E0EF93FF93EC
:10379C00182D012F1127FF91EF91E00FF11F0E94BF
:1037AC00BE69E8E6F2E0AF91AF71BB27EA0FFB1FF1
:1037BC001083E981FA81108113951083112311F084
:1037CC000C94BF1B2396109186021170113010E0DF
:1037DC0009F41FEF112311F40C94F91B1091B10390
:1037EC0010611093B103109186021270123010E028
:1037FC0009F41FEF112311F40C94091C1091B1035F
:10380C0010621093B103109175021093E1031091A3
:10381C0074021093E203109185021F7010931D0423
:10382C0010918502169516951695169510931C04F5
:10383C000895E8E0F0E0FA93EA9310E010831FE0BB
:10384C001A931081088101171FEF08F0112711231B
:10385C0011F00C94681C182D1F93E2E5F0E0EF9327
:10386C00FF93182D012F1127FF91EF91E00FF11FFE
:10387C000E94BE69E8EAF2E0AF91AF70BB27EA0F95
:10388C00FB1F1083182D1F93E2EAF0E0EF93FF93D8
:10389C00182D012F1127FF91EF91E00FF11F0E94BE
:1038AC00BE69E8EBF2E0AF91AF70BB27EA0FFB1FEC
:1038BC001083E981FA81108113951083112311F083
:1038CC000C94281C2396E8E0F0E0FA93EA9310E0BD
:1038DC0010831FE11A931081088101171FEF08F064
:1038EC001127112311F00C94B71C182D1F93E2E62D
:1038FC00F0E0EF93FF93182D012F1127000F111FEC
:10390C00FF91EF91E00FF11F0E94C769E8ECF2E024
:10391C00AF91AF71BB27AA0FBB1FEA0FFB1F11831F
:10392C000083182D1F93E2E3F0E0EF93FF93182D23
:10393C00012F1127FF91EF91E00FF11F0E94BE693B
:10394C00E8E8F2E0AF91AF71BB27EA0FFB1F1083E1
:10395C00E981FA81108113951083112311F00C94D5
:10396C00721C23961091B3021093930208952A9718
:10397C001091DC031F93109174030F91102B1F9364
:10398C00109172030F91102B1095112311F40C94BC
:10399C00D11C0C94D31D10917E02103010E009F450
:1039AC001FEF112311F40C94E21C10917F02169559
:1039BC001093D2030C94ED1C10917403112311F489
:1039CC000C94ED1C1091340316951093D2031091A6
:1039DC00DC03112311F40C94F71C1091D3031093F6
:1039EC00D20310E01093720310E01093740310E0F4
:1039FC001093DC031091D20316951F831F8116952B
:103A0C001E8310918002103010E009F41FEF112377
:103A1C0011F40C94161D1091810218830C941A1D2C
:103A2C0010913203169518831091820216951695F3
:103A3C001C5F1F93CF93DF931091D2031A931091B5
:103A4C0082021A9314EB1A930E946769DF91CF914B
:103A5C000F91100F1A831A811F931091D2030F919B
:103A6C00100F19831091D2031F931A811695169576
:103A7C000F91100F18870091AC03112704FD1FEF55
:103A8C001F930091AC03112705FD1FEF0F91102B15
:103A9C00112311F40C94881D1091510211701130E6
:103AAC0010E009F41FEF112311F40C94751DCF9342
:103ABC00DF931091D2031A9319811A931AE51A9372
:103ACC000E946769DF91CF91165F19871E811F9342
:103ADC001E8116950F91100F1D830C94861DCF938C
:103AEC00DF931F811A9319811A9318E71A930E9476
:103AFC006769DF91CF91165F19871E811C5F1D834B
:103B0C000C94991DCF93DF931F811A9319811A93EB
:103B1C0016E91A930E946769DF91CF911A5F198792
:103B2C001E811E5F1D831091D203105F1F931F8196
:103B3C000F91100F1C83CF93DF931D811A9310E408
:103B4C001A930E94EB05DF91CF91CF93DF931981EC
:103B5C001A9311E41A930E94EB05DF91CF91CF9346
:103B6C00DF9318851A9312E41A930E94EB05DF91E8
:103B7C00CF91CF93DF9319851A9313E41A930E9474
:103B8C00EB05DF91CF91CF93DF931C811A9314E453
:103B9C001A930E94EB05DF91CF9108952197109114
:103BAC00B202103010E009F41FEF112311F40C9441
:103BBC00E51D1091B302109393020C94EF1D10911C
:103BCC007303112311F40C94EF1D10913303109314
:103BDC00930210E0109373031091BD03112311F4A1
:103BEC000C94021E1091AC021093D0031091AD02F4
:103BFC001093D1030C940A1E1091AA021093D003B7
:103C0C001091AB021093D1031091BE0310951123A8
:103C1C0011F40C94171E10E01093D00310E01093C5
:103C2C00D1031FEF00913702002309F010951123E7
:103C3C0011F40C94521E1091CE031F931091D003CB
:103C4C000F91011710E009F01FEF112311F40C94E0
:103C5C00521E1091D0031F931091CE030F91011798
:103C6C0010E011F008F01FEF112311F40C94491E11
:103C7C001091CE0313951093CE031091AE021093B6
:103C8C0037020C94521E1091CE031A951093CE034A
:103C9C001091B002109337021FEF009138020023ED
:103CAC0009F01095112311F40C948D1E1091CF0373
:103CBC001F931091D1030F91011710E009F01FEF22
:103CCC00112311F40C948D1E1091D1031F9310919C
:103CDC00CF030F91011710E011F008F01FEF112323
:103CEC0011F40C94841E1091CF0313951093CF03F1
:103CFC001091AF02109338020C948D1E1091CF03CB
:103D0C001A951093CF031091B102109338020091C1
:103D1C00CC031091CD030F931F931091CE03012F61
:103D2C0011273F912F91020F131F0093CC03109377
:103D3C00CD031091CE03109388021091CF031093F2
:103D4C009802CF93DF93109193021A931BEC1A9362
:103D5C000E94EB05DF91CF91CF93DF9310918802F6
:103D6C001A9310EC1A930E94EB05DF91CF91CF932D
:103D7C00DF93109198021A9310ED1A930E94EB05A1
:103D8C00DF91CF911091BD031F931091BE030F9142
:103D9C001023E894112309F068941091B90311F9D8
:103DAC001093B9031091BD0310951F931091BE038E
:103DBC000F911023E894112309F068941091B90322
:103DCC0010F91093B9031091B9031093BA03CF9360
:103DDC00DF9311E21A9313E01A9313E00AEB1A9390
:103DEC000A9310E001E01A930A930E94D168DF91C4
:103DFC00CF9108952597CF93DF930E94E114DF9123
:103E0C00CF91CF93DF930E943A15DF91CF91CF934F
:103E1C00DF930E94A112DF91CF91CF93DF930E9489
:103E2C00E913DF91CF91CF93DF930E941B14DF91A5
:103E3C00CF91CF93DF930E94BD11DF91CF91CF93A0
:103E4C00DF930E949414DF91CF91CF93DF930E9464
:103E5C00BD1CDF91CF91CF93DF930E94D41DDF91D6
:103E6C00CF9108950E949406CF93DF9318E0412AD6
:103E7C0005E419E61A930A93E7ECF0EE0E94466B00
:103E8C00DF91CF910E948D061091CF04112311F474
:103E9C000C94811F01E010E020E030E00093B404AA
:103EAC001093B5042093B6043093B704E6E8F4E01D
:103EBC00EF93FF933196FA93EA931FE11A9317EF5E
:103ECC0041221FEB4122E4EDF0EE0E94466B1FE114
:103EDC001F9318810F91011B102FFF91EF911083ED
:103EEC0023960E944708CF93DF9312E61A930E9401
:103EFC009200DF91CF911091CD04112311F40C9409
:103F0C00B81F02E010E020E030E00093B4041093FE
:103F1C00B5042093B6043093B704E6E8F4E0EF93CD
:103F2C00FF933196FA93EA931FE11A9317EF41220C
:103F3C001FEB4122E4EEF0EE0E94466B1FE11F9353
:103F4C0018810F91011B102FFF91EF911083239675
:103F5C000E944708CF93DF9310E61A930E949200B9
:103F6C00DF91CF911091CE04112311F40C94EF1F1B
:103F7C0003E010E020E030E00093B4041093B504AB
:103F8C002093B6043093B704E6E8F4E0EF93FF9384
:103F9C003196FA93EA931FE11A9317EF41221FEB24
:103FAC004122E8EFF0EE0E94466B1FE11F9318814F
:103FBC000F91011B102FFF91EF91108323960E94FC
:103FCC004708CF93DF9311E61A930E949200DF917A
:103FDC00CF9100E010E020E030E000932804109333
:103FEC00290420932A0430932B041091D20411231A
:103FFC0011F40C942A2004E010E020E030E000934F
:10400C00B4041093B5042093B6043093B704E6E8D7
:10401C00F4E0EF93FF933196FA93EA931FE11A932E
:10402C0017EF41221FEB4122ECE0F1EE0E94466BB0
:10403C001FE11F9318810F91011B102FFF91EF911E
:10404C00108323960E9447081091D104112311F478
:10405C000C945F2010E8109548E333E00E942A6826
:10406C0005E010E020E030E00093B4041093B504B8
:10407C002093B6043093B704E6E8F4E0EF93FF9393
:10408C003196FA93EA931FE11A9317EF41221FEB33
:10409C004122EDE1F1EE0E94466B1FE11F93188166
:1040AC000F91011B102FFF91EF91108323960E940B
:1040BC0047081091CC04112311F40C948E2006E0C7
:1040CC0010E020E030E00093B4041093B50420938A
:1040DC00B6043093B704E6E8F4E0EF93FF9331961F
:1040EC00FA93EA931FE11A9317EF41221FEB412237
:1040FC00EEE2F1EE0E94466B1FE11F9318810F91C7
:10410C00011B102FFF91EF91108323960E944708FB
:10411C001091CB04112311F40C94BD2007E010E096
:10412C0020E030E00093B4041093B5042093B6045F
:10413C003093B704E6E8F4E0EF93FF933196FA93EB
:10414C00EA931FE11A9317EF41221FEB4122E9E397
:10415C00F1EE0E94466B1FE11F9318810F91011B1A
:10416C00102FFF91EF91108323960E94470808951A
:10417C0010E004E60E947569CF93DF9310E01A9368
:10418C0018E41A930E94EB05DF91CF9110E004E63E
:10419C000E947569CF93DF931FEF1A930E94C82F6B
:1041AC00DF91CF91CF93DF930E949414DF91CF9145
:1041BC00CF93DF9310E01A930E94C82FDF91CF9119
:1041CC000895CF93DF9310E01A9310E01A9310E048
:1041DC001A930E94E267DF91CF91CF93DF9318E09F
:1041EC00412A0CEB17E61A930A93E0EEF3EEEF93E9
:1041FC00FF931A81012F1127AEE0B0E0E89445F847
:10420C000E948A6EFF91EF91E00FF11F0E94466BA6
:10421C00DF91CF9110E20E94BC6710E20E94BC6754
:10422C00CF93DF9310E01A9310E01A9311E01A93D6
:10423C000E94E267DF91CF910895CF93DF9310E056
:10424C001A9310E01A9311E01A930E94E267DF911F
:10425C00CF91CF93DF9318E0412A0CEB17E61A931A
:10426C000A93E4EBF7EEEF93FF931A81012F1127DA
:10427C00ADE0B0E0E89445F80E948A6EFF91EF91B2
:10428C00E00FF11F0E94466BDF91CF9116E00E9468
:10429C00BC6710E00E94036808951881112311F483
:1042AC000C946821CF93DF9318E0412A0CEB17E6AE
:1042BC001A930A93E6E4F1EE0E94466BDF91CF91DC
:1042CC000C947621CF93DF9318E0412A0CEB17E680
:1042DC001A930A93EAE4F1EE0E94466BDF91CF91B8
:1042EC000895E8E0F0E0FA93EA9310E0108315E00B
:1042FC001A931081088101171FEF08F01127112361
:10430C0011F00C949E215A9A5B9810E004E60E94DE
:10431C0075695A985B9A10E004E60E947569E98108
:10432C00FA81108113951083112311F00C948021C4
:10433C0023965A9A5B9A08951091CC04112311F488
:10434C000C948A2210E00E94FA67EDE3F4E0EF93FC
:10435C00FF933196FA93EA9318E21A9317EF4122DE
:10436C001FEB41221C81CF93DF931A9312E01A9317
:10437C0000E00A9310E21A930E94676BDF91CF91D1
:10438C0018E21F9318810F91011B102FFF91EF91D1
:10439C0010832396CF93DF9318E0412A0CEB17E69A
:1043AC001A930A93EEE4F1EE0E94466BDF91CF91E3
:1043BC0019811F9318810F91011710E009F01FEF5D
:1043CC00112311F40C94FB21CF93DF9318E0412AB5
:1043DC000CEB17E61A930A93EDE3F4E00E944F6B93
:1043EC00DF91CF9110E20E94BC67CF93DF9318E06E
:1043FC00412A0CEB17E61A930A93E5E5F1EE0E94BD
:10440C00466BDF91CF91CF93DF9310E01A9310E0BE
:10441C001A9311E01A930E94E267DF91CF91CF9328
:10442C00DF9318E0412A0CEB17E61A930A93E8E5A0
:10443C00F1EE0E94466BDF91CF91EDE3F4E0EF9348
:10444C00FF933196FA93EA9318E21A9317EF4122ED
:10445C001FEB41221B81CF93DF931A9312E01A9327
:10446C0000E00A9310E21A930E94676BDF91CF91E0
:10447C0018E21F9318810F91011B102FFF91EF91E0
:10448C0010832396CF93DF9310E01A9316E01A93C0
:10449C0011E01A930E94E267DF91CF91CF93DF93E3
:1044AC0018E0412A0CEB17E61A930A93EDE3F4E0BB
:1044BC000E944F6BDF91CF9110912803103010E0C8
:1044CC0009F41FEF112311F40C947C22CF93DF938A
:1044DC0018E0412A0CEB17E61A930A93EFE5F1EE7C
:1044EC000E94466BDF91CF910C948A22CF93DF937D
:1044FC0018E0412A0CEB17E61A930A93E6E6F1EE64
:10450C000E94466BDF91CF910E9477210895109104
:10451C00CC04112311F40C94BE2210E00E94FA6713
:10452C00CF93DF9318E0412A0CEB17E61A930A930A
:10453C00EDE6F1EE0E94466BDF91CF91CF93DF93C6
:10454C0010E01A9310E01A9311E01A930E94E2679C
:10455C00DF91CF91CF93DF9318E0412A0CEB17E654
:10456C001A930A93EFE7F1EE0E94466BDF91CF911D
:10457C0008951091CC041095112311F40C94C822B9
:10458C000C941C23CF93DF9310E01A930E94E72026
:10459C00DF91CF911881112311F40C940823CF9340
:1045AC00DF9318E0412A0CEB17E61A930A93EEE816
:1045BC00F1EE0E94466BDF91CF911981112311F41A
:1045CC000C94F822CF93DF9318E0412A0CEB17E6FA
:1045DC001A930A93E3E9F1EE0E94466BDF91CF91B7
:1045EC000C940623CF93DF9318E0412A0CEB17E6CB
:1045FC001A930A93E8E9F1EE0E94466BDF91CF9192
:10460C000C941623CF93DF9318E0412A0CEB17E69A
:10461C001A930A93EDE9F1EE0E94466BDF91CF916C
:10462C0010E00E94036815E010933D020895CF93AB
:10463C00DF9318811A930E945321DF91CF9116E0DA
:10464C000E94BC6710E00E9403680895CF93DF932B
:10465C0018E0412A0CEB17E61A930A931A81CF93B0
:10466C00DF931A9313E01A9300E00A9310E21A9363
:10467C00689443F80E94676BDF91CF91DF91CF91E3
:10468C0016E00E94BC6710E00E9403680895CF9367
:10469C00DF9318E0412A0CEB17E61A930A930A8170
:1046AC001B81CF93DF931A930A9313E01A9300E0C4
:1046BC000A9310E21A93689443F8689445F8E894C6
:1046CC0054F855F80E94A06DDF91CF91DF91CF91F6
:1046DC0016E00E94BC6710E00E9403680895CF9317
:1046EC00DF930091AC03112700FD1FEF1A930E947A
:1046FC005321DF91CF910091AC03112700FD1FEFE7
:10470C001095112311F40C94902310E00E9403686F
:10471C000C94082410E20E94BC670091AC03112792
:10472C0001FD1FEF112311F40C94AC23CF93DF93F5
:10473C0018E0412A0CEB17E61A930A93E2EAF1EE21
:10474C000E94466BDF91CF910C94BA23CF93DF93E9
:10475C0018E0412A0CEB17E61A930A93E7EAF1EEFC
:10476C000E94466BDF91CF910091AC03112702FDA3
:10477C001FEF112311F40C94D323CF93DF9318E084
:10478C00412A0CEB17E61A930A93ECEAF1EE0E941D
:10479C00466BDF91CF910C94E123CF93DF9318E01C
:1047AC00412A0CEB17E61A930A93E1EBF1EE0E9407
:1047BC00466BDF91CF910091AC03112703FD1FEFE6
:1047CC00112311F40C94FA23CF93DF9318E0412AB0
:1047DC000CEB17E61A930A93E6EBF1EE0E94466B8C
:1047EC00DF91CF910C940824CF93DF9318E0412AEA
:1047FC000CEB17E61A930A93EAEBF1EE0E94466B68
:10480C00DF91CF9108952197CF93DF930091AC0363
:10481C00112704FD1FEF1A930E945321DF91CF91B2
:10482C0010E20E94BC67CF93DF930091AC03112779
:10483C0005FD1FEF1A930E945321DF91CF9110E2D7
:10484C000E94BC67109151021170113010E009F4F4
:10485C001FEF112311F40C94382413E40E94BC674D
:10486C000C943B2416E50E94BC67109151021695DE
:10487C001F5C188318810E94BC6710E00E940368BB
:10488C000895219719811170113010E009F41FEF70
:10489C00112311F40C949D24198116951983E8E0C9
:1048AC00F0E0FA93EA9310E01083EF93FF931B81EF
:1048BC00FF91EF911A931081088101171FEF08F0F7
:1048CC001127112311F00C94772410E00E94BC677F
:1048DC00E981FA81108113951083112311F00C9446
:1048EC0062242396E8E0F0E0FA93EA93EF93FF93C7
:1048FC001B81FF91EF91108316E01A9310810881B0
:10490C0001171FEF08F01127112311F00C949A24B2
:10491C0017E00E94BC67E981FA811081139510831E
:10492C00112311F00C94852423960C94E9241981FD
:10493C0016951983E8E0F0E0FA93EA9311E01083FE
:10494C00EF93FF931B81FF91EF911A9310810881D4
:10495C0001171FEF08F01127112311F00C94C2243A
:10496C0010E00E94BC67E981FA81108113951083D5
:10497C00112311F00C94AD24239611E00E94BC6716
:10498C00E8E0F0E0FA93EA93EF93FF931B81FF9139
:10499C00EF91108316E01A931081088101171FEF15
:1049AC0008F01127112311F00C94E82417E00E9451
:1049BC00BC67E981FA81108113951083112311F0E2
:1049CC000C94D324239612E00E94BC6716E00E943C
:1049DC00BC6710E00E940368CF93DF9310E01A933A
:1049EC001AE01A9311E01A930E94E267DF91CF91BB
:1049FC0008952297CF93DF9310E01A9310E01A9347
:104A0C0010E01A930E94E267DF91CF91CF93DF936E
:104A1C0018E0412A0CEB17E61A930A931091C00385
:104A2C00CF93DF931A9312E01A9300E00A9310E2EB
:104A3C001A93689443F80E94676BDF91CF91DF91D2
:104A4C00CF9110E20E94BC67CF93DF9310E01A93D2
:104A5C0012E01A9310E01A930E94E267DF91CF9153
:104A6C0010912803103010E009F41FEF112311F4FA
:104A7C000C94452516E00E94BC670C94482510E266
:104A8C000E94BC67CF93DF9318E0412A0CEB17E62A
:104A9C001A930A93EEEBF1EE0E94466BDF91CF91E5
:104AAC00E8E0F0E0FA93EA9310E0108318E01A9330
:104ABC001081088101171FEF08F01127112311F045
:104ACC000C948E25182DE8E4F2E01F770027E10FF7
:104ADC00F01F1081195F1B83CF93DF931B811A93F7
:104AEC0010E11A9310EF1A930E946769DF91CF912E
:104AFC001B831B81105D1C831C810E94BC67E98198
:104B0C00FA81108113951083112311F00C945F25F9
:104B1C002396CF93DF9310E01A9310E01A9311E0D1
:104B2C001A930E94E267DF91CF91CF93DF9318E045
:104B3C00412A0CEB17E61A930A931091C103CF93F9
:104B4C00DF931A9312E01A9300E00A9310E21A937F
:104B5C00689443F80E94676BDF91CF91DF91CF91FE
:104B6C0010E20E94BC67CF93DF9310E01A9312E01F
:104B7C001A9311E01A930E94E267DF91CF91109182
:104B8C002803103010E009F41FEF112311F40C94DA
:104B9C00D42510E20E94BC670C94D72516E00E9425
:104BAC00BC6710E50E94BC6710916102195F188305
:104BBC00CF93DF9318811A9310E11A9310EF1A9385
:104BCC000E946769DF91CF9118831881105D19835A
:104BDC0019810E94BC6710916302195F1883CF93EF
:104BEC00DF9318811A9310E11A9310EF1A930E9415
:104BFC006769DF91CF9118831881105D1983198132
:104C0C000E94BC671CE40E94BC67E8E0F0E0FA93E9
:104C1C00EA9310E1108318E11A93108108810117AF
:104C2C001FEF08F01127112311F00C944326182DB7
:104C3C00E8E4F2E01F770027E10FF01F1081195F05
:104C4C001B83CF93DF931B811A9310E11A9310EF00
:104C5C001A930E946769DF91CF911B831B81105DB2
:104C6C001C831C810E94BC67E981FA811081139519
:104C7C001083112311F00C94142623960895269773
:104C8C001985143610E008F01FEF112311F40C9461
:104C9C00552610E00AE01D830C830C9477261985A9
:104CAC00123310E008F01FEF112311F40C9464265A
:104CBC0010E005E01D830C830C94772619851431C4
:104CCC0010E008F01FEF112311F40C94732610E080
:104CDC0002E01D830C830C94772610E001E01D8309
:104CEC000C83FE01EF93FF931E81FF91EF911193C3
:104CFC001E811F3710E011F008F01FEF112311F483
:104D0C000C948E26FE0131961FEF11930C94922673
:104D1C00FE01319610E01193088119810F931F93B6
:104D2C000C811D81689445F8BF91AF910E948A6EE9
:104D3C00198308831985012F11270F931F9308815D
:104D4C0019813F912F91020F131F1B830A830A8134
:104D5C001B810F931F930C811D81689445F8BF91A3
:104D6C00AF910E94AB6E0F931F930C811D816894C1
:104D7C0045F8BF91AF910E948A6E1B830A830A810A
:104D8C001B811A930A931A85012F11271A930A93E0
:104D9C001B85012F11271A930A930E94926F269656
:104DAC00102F0895CF93DF9310E01A931FE01A93FE
:104DBC0010E01A930E94E267DF91CF911A811F9342
:104DCC0018810F9101171FEF08F01127112311F40F
:104DDC000C94F52613E00E94BC670C94F82610E2A4
:104DEC000E94BC67CF93DF9310E01A931FE01A93D5
:104DFC0011E01A930E94E267DF91CF911A811F9301
:104E0C0019810F91011710E011F008F01FEF112319
:104E1C0011F40C94162714E00E94BC670C9419270B
:104E2C0010E20E94BC670895229710E00E9414685B
:104E3C00176C109339020A811B81103009F4003071
:104E4C0010E011F008F01FEF112311F40C9432272D
:104E5C000A811B810E947569109139021F3F10E075
:104E6C0009F41FEF112311F40C94412710E00C945A
:104E7C0044270C9444271FEF0C9444270895229741
:104E8C0010913C0219831981188319811F93109179
:104E9C003B020F91011B102F1983188110933B02B9
:104EAC001981089524971C81103010E009F01FEF30
:104EBC0018831881112311F40C946C271D811E3159
:104ECC0010E011F008F01FEF1093C6031D811A308B
:104EDC0011F00C94B527CF93DF93109151021A93D4
:104EEC0010E01A9315E01A931F811A930E9445261D
:104EFC00DF91CF9110935102CF93DF930E9409243D
:104F0C00DF91CF91CF93DF9310E01A931FE01A93A8
:104F1C0010E01A930E94E267DF91CF9110E20E9499
:104F2C00BC67CF93DF9310E01A931AE01A9311E049
:104F3C001A930E94E267DF91CF9116E00E94BC6742
:104F4C00CF93DF93109151021A9310E01A9315E04E
:104F5C001A930E94D826DF91CF910C94D0291B3044
:104F6C0011F00C94F0271881112311F40C94CD2717
:104F7C000091AC03112704FD1FEF1095E894112349
:104F8C0009F068941091AC0314F91093AC03CF930F
:104F9C00DF930E940924DF91CF91CF93DF9310E030
:104FAC001A9313E01A9311E01A930E94E267DF91AF
:104FBC00CF9116E00E94BC67CF93DF9311E01A9358
:104FCC0010E01A9312E01A930E94D826DF91CF9129
:104FDC000C94D0291C3011F00C945A281091AC036D
:104FEC001F701B831B81012F11E00695111FE8F721
:104FFC0016951695169516951B83CF93DF931B81EB
:10500C001A9317E01A931FE01A931F811A930E94A8
:10501C004526DF91CF911B831B811A831B81012FA6
:10502C0011E00695111FE8F716951695169516952D
:10503C001B831881112311F40C942D281091AC03AF
:10504C00107F1F931B810F91102B1093AC030E94A8
:10505C007523CF93DF931A811A9317E01A931FE0ED
:10506C001A930E94D826DF91CF91CF93DF9310E053
:10507C001A9313E01A9311E01A930E94E267DF91DE
:10508C00CF910091AC03112700FD1FEF112311F4F8
:10509C000C94552815E00E94BC670C94582816E017
:1050AC000E94BC670C94D0291F3011F00C949528E9
:1050BC001881112311F40C9472280091AC03112760
:1050CC0005FD1FEF1095E894112309F068941091D9
:1050DC00AC0315F91093AC03CF93DF930E94092412
:1050EC00DF91CF91CF93DF9310E01A9317E01A93CF
:1050FC0011E01A930E94E267DF91CF9116E00E94B3
:10510C00BC67CF93DF9311E01A9310E01A9312E06F
:10511C001A930E94D826DF91CF910C94D0291D317F
:10512C0011F00C94C7281881112311F40C94AD289C
:10513C000091B103112706FD1FEF1095E894112380
:10514C0009F068941091B10316F91093B103CF9341
:10515C00DF930091B103112706FD1FEF1A930E94F4
:10516C001D23DF91CF91CF93DF9311E01A9310E0C1
:10517C001A9312E01A930E94D826DF91CF910C94C7
:10518C00D0291E3111F00C94F9281881112311F437
:10519C000C94DF280091B103112707FD1FEF109528
:1051AC00E894112309F068941091B10317F9109346
:1051BC00B103CF93DF930091B103112707FD1FEFCC
:1051CC001A930E941D23DF91CF91CF93DF9311E0AF
:1051DC001A9310E01A9312E01A930E94D826DF91CA
:1051EC00CF910C94D029103211F00C9437291091D6
:1051FC00B103107316951695169516951B83CF93C0
:10520C00DF931B811A9310E01A9313E01A931F81FA
:10521C001A930E944526DF91CF911B83CF93DF9386
:10522C001B811A930E942C23DF91CF911091B10313
:10523C001F7C1F931B81110F110F110F110F0F9159
:10524C00102B1093B103CF93DF931B811A9310E0B3
:10525C001A9313E01A930E94D826DF91CF910C94E5
:10526C00D029193311F00C947529CF93DF93109139
:10527C00850216951695169516951A9310E01A93A5
:10528C001FE01A931F811A930E944526DF91CF913C
:10529C0010931C04CF93DF9310911C041A930E945B
:1052AC002C23DF91CF91CF93DF9310911C041A9391
:1052BC0010E01A931FE01A930E94D826DF91CF9129
:1052CC0010911C04110F110F110F110F1F9310913E
:1052DC001D040F91102B109385020C94D0291A33B6
:1052EC0011F00C94B029CF93DF93109185021F70AD
:1052FC001A9310E01A931FE01A931F811A930E94BD
:10530C004526DF91CF9110931D04CF93DF9310911D
:10531C001D041A930E942C23DF91CF91CF93DF931E
:10532C0010911D041A9310E01A931FE01A930E9417
:10533C00D826DF91CF9110911C04110F110F110F72
:10534C00110F1F9310911D040F91102B10938502B8
:10535C000C94D029153411F00C94D029CF93DF93F1
:10536C0010E01A9310E01A9311E01A930E94E2676E
:10537C00DF91CF91CF93DF9318E0412A0CEB17E626
:10538C001A930A93E3ECF1EE0E94466BDF91CF91F6
:10539C000C94D029089527971091CC0410951F9345
:1053AC001885103010E009F41FEF0F91102B11230A
:1053BC0011F40C94E3290C94152C1F81103010E07F
:1053CC0009F01FEF1883E4E5F3EEEF93FF931885D4
:1053DC00012F1127FF91EF91E00FF11F14911B8307
:1053EC00EAE9F3EEEF93FF931885012F1127FF9154
:1053FC00EF91E00FF11F14911C8318851D3010E004
:10540C0009F41FEF112311F40C94272ACF93DF9387
:10541C001091C0031A9310E01A931FE01A931A8587
:10542C001A930E944526DF91CF911093C003CF931E
:10543C00DF930E94FF24DF91CF910C94152C0C94D8
:10544C00492A18851E3010E009F41FEF112311F4BE
:10545C000C94492ACF93DF931091C1031A9310E057
:10546C001A931FE01A931A851A930E944526DF910E
:10547C00CF911093C103CF93DF930E94FF24DF9150
:10548C00CF910C94152CCF93DF9318851A930E940F
:10549C00E720DF91CF911B811F3F10E009F41FEF34
:1054AC00112311F40C94662ACF93DF9318851A9369
:1054BC0018851A930E945827DF91CF910C94A42B36
:1054CC001B81103810E008F01FEF112311F40C941D
:1054DC00B62A1B811F771B831B81E8E4F2E01F7740
:1054EC000027E10FF01F10811695169516951E8357
:1054FC00CF93DF931E811A9310E01A931FE01A9337
:10550C001A851A930E944526DF91CF911E83CF9363
:10551C00DF931E811A930E944724DF91CF91CF9382
:10552C00DF931E811A9310E01A931FE01A930E94C6
:10553C00D826DF91CF911881112311F40C94B42A41
:10554C001B811F931E81110F110F110FE8E4F2E064
:10555C00AF91AF77BB27EA0FFB1F10830C94A42BE2
:10556C001C81113010E009F41FEF112311F40C947D
:10557C00F72A1B81E8E4F2E01F770027E10FF01F08
:10558C001081112309F01FEF19831FEF1093C6032D
:10559C001881112311F40C94D62A198110951983B2
:1055AC00CF93DF9319811A930E941D23DF91CF9122
:1055BC00CF93DF9311E01A9310E01A9312E01A9331
:1055CC000E94D826DF91CF911B811F931981E8E4AB
:1055DC00F2E0AF91AF77BB27EA0FFB1F10830C945F
:1055EC00A42B1B81E8E4F2E01F770027E10FF01FEA
:1055FC0010811E831885153210E009F41FEF11235A
:10560C0011F40C940C2B1E811A5F1E83CF93DF9325
:10561C001E811A9310E01A931E811A931A851A93FD
:10562C000E944526DF91CF911E831B811F931E8103
:10563C00E8E4F2E0AF91AF77BB27EA0FFB1F1083D2
:10564C001885113211F00C94382BCF93DF931E81F7
:10565C001F5F1A930E942C23DF91CF911FEF812E95
:10566C000C94832B123211F00C94402B15E1812EEB
:10567C000C94832B133211F00C94482B10E0812ED8
:10568C000C94832B143211F00C94502B16E0812EB9
:10569C000C94832B153211F00C94692B1E8116502F
:1056AC0010936802CF93DF931E81012F11270650B0
:1056BC0010401A930A930E944D23DF91CF911FEF54
:1056CC00812E0C94832B133311F00C94712B11E15C
:1056DC00812E0C94832B1F3311F00C94792B19E031
:1056EC00812E0C94832BCF93DF931E811A930E94EF
:1056FC002C23DF91CF911FEF812E182D1F3F10E02F
:10570C0009F01FEF112311F40C94982BCF93DF9316
:10571C00182D1F931E810F91100F1A930E94232195
:10572C00DF91CF91CF93DF931E811A9310E01A93E0
:10573C001E811A930E94D826DF91CF91CF93DF93CD
:10574C0010E01A931DE01A9310E01A930E94E2677E
:10575C00DF91CF9118851F3110E008F01FEF112356
:10576C0011F40C94BE2B14E40E94BC670C94D92B3E
:10577C0018851E3010E011F008F01FEF112311F402
:10578C000C94CD2B1CE40E94BC670C94D92B18856F
:10579C001D301FEF08F01127112311F40C94D92B95
:1057AC0015E50E94BC671881112311F40C94152C7B
:1057BC00109193021093B3021FEF10937203CF93C7
:1057CC00DF930E94A112DF91CF91CF93DF930E94C0
:1057DC00E913DF91CF91CF93DF930E941B14DF91DC
:1057EC00CF91CF93DF930E94BD11DF91CF911B819D
:1057FC00103210E008F01FEF112311F40C94092C57
:10580C001FEF1093C6031B81103410E008F01FEF3C
:10581C00112311F40C94152C1FEF1093CB03089546
:10582C00219710E01883CF93DF9310917D02109590
:10583C001A930E948E02DF91CF91CF93DF930E9437
:10584C00BD1CDF91CF91CF93DF930E94D41DDF91CC
:10585C00CF91FE01108113951083CF93DF9310E04D
:10586C000AE01A930A930E941A27DF91CF911095A0
:10587C001F931881133610E011F008F01FEF0F91F1
:10588C00102B112311F40C94192C188114361FEFC2
:10589C0008F01127112311F40C94882C10913E025E
:1058AC001A931DE01A931EE01A930E94796F2396A7
:1058BC00112311F40C94682C10913F0210933E02AA
:1058CC000C94782C10913E0210933F0210913E02E2
:1058DC001A931DE01A931EE01A930E946F6F239681
:1058EC0010933E02CF93DF9310913E021A9310E077
:1058FC001A930E94D129DF91CF9111E010933D02B0
:10590C000C94EE2D10913E02103010F40C94AD2C32
:10591C001D3019F010F00C94AD2CCF93DF93109137
:10592C00C0031A931091C0031A930E94A221DF9115
:10593C00CF91CF93DF931091C0031A930E94071A53
:10594C00DF91CF911FEF1093C9030C94C22D1E3021
:10595C0010F40C94D02C1E3119F010F00C94D02CA7
:10596C00CF93DF931091C1031A931091C1031A9333
:10597C000E94A221DF91CF91CF93DF931091C103AD
:10598C001A930E94231BDF91CF911FEF1093CA0330
:10599C000C94C22D1F3111F00C94E62C0E948D2218
:1059AC00E2E3F0E03B96109193020E949C69E2E5E1
:1059BC00F0E03B961091B3020E949C690C94C22DAE
:1059CC00103211F00C94F52C0E948D22E2E1F0E0E3
:1059DC007E96109186020E949C690C94C22D113205
:1059EC0010F40C94002D183319F010F00C94002DB9
:1059FC000C94092D1F3310F40C94352D133419F01D
:105A0C0010F00C94352D0E948D22E4E5F3EEEF930B
:105A1C00FF9310913E02012F1127FF91EF91E00FA0
:105A2C00F11F14911F71812EE2E1F0E0EF93FF93CF
:105A3C00182D012F1127FF91EF91E00FF11FEF931C
:105A4C00FF93182DE8E6F2E01F710027E10FF01F1D
:105A5C001081FF91EF910E949C690C94C22D193317
:105A6C0011F00C943B2D0C943F2D1A3311F00C9427
:105A7C00572D0E948D2210911C04110F110F110F24
:105A8C00110F1F9310911D040F91102B1093850271
:105A9C00E2E1F0E07D96109185020E949C690C94E5
:105AAC00C22D1B3310F40C94622D1E3319F010F020
:105ABC000C94622D0C94662D143411F00C94922DD0
:105ACC000E948D22E4E5F3EEEF93FF9310913E02DA
:105ADC00012F1127FF91EF91E00FF11F14911F700F
:105AEC00812EE2E5F0E0EF93FF93182D012F1127A3
:105AFC00FF91EF91E00FF11FEF93FF93182DE8EA60
:105B0C00F2E01F700027E10FF01F1081FF91EF9161
:105B1C000E949C690C94C22D153411F00C94B72D75
:105B2C00CF93DF9310E01A9310E01A9311E01A93BD
:105B3C000E94E267DF91CF9110E00E940368CF933F
:105B4C00DF9318E0412A0CEB17E61A930A93E2ED67
